{
	"contracts/DegenToken.sol": {
		"DegenToken": {
			"abi": [
				{
					"inputs": [],
					"stateMutability": "nonpayable",
					"type": "constructor"
				},
				{
					"anonymous": false,
					"inputs": [
						{
							"indexed": true,
							"internalType": "address",
							"name": "owner",
							"type": "address"
						},
						{
							"indexed": true,
							"internalType": "address",
							"name": "spender",
							"type": "address"
						},
						{
							"indexed": false,
							"internalType": "uint256",
							"name": "value",
							"type": "uint256"
						}
					],
					"name": "Approval",
					"type": "event"
				},
				{
					"anonymous": false,
					"inputs": [
						{
							"indexed": true,
							"internalType": "address",
							"name": "user",
							"type": "address"
						},
						{
							"indexed": false,
							"internalType": "uint256",
							"name": "itemId",
							"type": "uint256"
						},
						{
							"indexed": false,
							"internalType": "string",
							"name": "item",
							"type": "string"
						}
					],
					"name": "ItemRedeemed",
					"type": "event"
				},
				{
					"anonymous": false,
					"inputs": [
						{
							"indexed": true,
							"internalType": "address",
							"name": "previousOwner",
							"type": "address"
						},
						{
							"indexed": true,
							"internalType": "address",
							"name": "newOwner",
							"type": "address"
						}
					],
					"name": "OwnershipTransferred",
					"type": "event"
				},
				{
					"anonymous": false,
					"inputs": [
						{
							"indexed": true,
							"internalType": "address",
							"name": "from",
							"type": "address"
						},
						{
							"indexed": true,
							"internalType": "address",
							"name": "to",
							"type": "address"
						},
						{
							"indexed": false,
							"internalType": "uint256",
							"name": "value",
							"type": "uint256"
						}
					],
					"name": "Transfer",
					"type": "event"
				},
				{
					"inputs": [
						{
							"internalType": "address",
							"name": "owner",
							"type": "address"
						},
						{
							"internalType": "address",
							"name": "spender",
							"type": "address"
						}
					],
					"name": "allowance",
					"outputs": [
						{
							"internalType": "uint256",
							"name": "",
							"type": "uint256"
						}
					],
					"stateMutability": "view",
					"type": "function"
				},
				{
					"inputs": [
						{
							"internalType": "address",
							"name": "spender",
							"type": "address"
						},
						{
							"internalType": "uint256",
							"name": "amount",
							"type": "uint256"
						}
					],
					"name": "approve",
					"outputs": [
						{
							"internalType": "bool",
							"name": "",
							"type": "bool"
						}
					],
					"stateMutability": "nonpayable",
					"type": "function"
				},
				{
					"inputs": [
						{
							"internalType": "address",
							"name": "account",
							"type": "address"
						}
					],
					"name": "balanceOf",
					"outputs": [
						{
							"internalType": "uint256",
							"name": "",
							"type": "uint256"
						}
					],
					"stateMutability": "view",
					"type": "function"
				},
				{
					"inputs": [
						{
							"internalType": "uint256",
							"name": "amount",
							"type": "uint256"
						}
					],
					"name": "burn",
					"outputs": [],
					"stateMutability": "nonpayable",
					"type": "function"
				},
				{
					"inputs": [
						{
							"internalType": "address",
							"name": "account",
							"type": "address"
						},
						{
							"internalType": "uint256",
							"name": "amount",
							"type": "uint256"
						}
					],
					"name": "burnFrom",
					"outputs": [],
					"stateMutability": "nonpayable",
					"type": "function"
				},
				{
					"inputs": [
						{
							"internalType": "address",
							"name": "destination",
							"type": "address"
						},
						{
							"internalType": "uint256",
							"name": "amount",
							"type": "uint256"
						}
					],
					"name": "createTokens",
					"outputs": [],
					"stateMutability": "nonpayable",
					"type": "function"
				},
				{
					"inputs": [],
					"name": "decimals",
					"outputs": [
						{
							"internalType": "uint8",
							"name": "",
							"type": "uint8"
						}
					],
					"stateMutability": "view",
					"type": "function"
				},
				{
					"inputs": [
						{
							"internalType": "address",
							"name": "spender",
							"type": "address"
						},
						{
							"internalType": "uint256",
							"name": "subtractedValue",
							"type": "uint256"
						}
					],
					"name": "decreaseAllowance",
					"outputs": [
						{
							"internalType": "bool",
							"name": "",
							"type": "bool"
						}
					],
					"stateMutability": "nonpayable",
					"type": "function"
				},
				{
					"inputs": [
						{
							"internalType": "uint256",
							"name": "amount",
							"type": "uint256"
						}
					],
					"name": "destroyTokens",
					"outputs": [],
					"stateMutability": "nonpayable",
					"type": "function"
				},
				{
					"inputs": [],
					"name": "displayItems",
					"outputs": [
						{
							"components": [
								{
									"internalType": "uint256",
									"name": "itemCost",
									"type": "uint256"
								},
								{
									"internalType": "string",
									"name": "item",
									"type": "string"
								},
								{
									"internalType": "bool",
									"name": "redeemed",
									"type": "bool"
								}
							],
							"internalType": "struct DegenToken.Item[]",
							"name": "",
							"type": "tuple[]"
						}
					],
					"stateMutability": "view",
					"type": "function"
				},
				{
					"inputs": [
						{
							"internalType": "uint256",
							"name": "itemId",
							"type": "uint256"
						}
					],
					"name": "getItem",
					"outputs": [
						{
							"internalType": "uint256",
							"name": "",
							"type": "uint256"
						},
						{
							"internalType": "string",
							"name": "",
							"type": "string"
						},
						{
							"internalType": "bool",
							"name": "",
							"type": "bool"
						}
					],
					"stateMutability": "view",
					"type": "function"
				},
				{
					"inputs": [
						{
							"internalType": "address",
							"name": "spender",
							"type": "address"
						},
						{
							"internalType": "uint256",
							"name": "addedValue",
							"type": "uint256"
						}
					],
					"name": "increaseAllowance",
					"outputs": [
						{
							"internalType": "bool",
							"name": "",
							"type": "bool"
						}
					],
					"stateMutability": "nonpayable",
					"type": "function"
				},
				{
					"inputs": [],
					"name": "name",
					"outputs": [
						{
							"internalType": "string",
							"name": "",
							"type": "string"
						}
					],
					"stateMutability": "view",
					"type": "function"
				},
				{
					"inputs": [],
					"name": "owner",
					"outputs": [
						{
							"internalType": "address",
							"name": "",
							"type": "address"
						}
					],
					"stateMutability": "view",
					"type": "function"
				},
				{
					"inputs": [
						{
							"internalType": "uint256",
							"name": "itemId",
							"type": "uint256"
						}
					],
					"name": "redeemItem",
					"outputs": [],
					"stateMutability": "nonpayable",
					"type": "function"
				},
				{
					"inputs": [],
					"name": "renounceOwnership",
					"outputs": [],
					"stateMutability": "nonpayable",
					"type": "function"
				},
				{
					"inputs": [],
					"name": "symbol",
					"outputs": [
						{
							"internalType": "string",
							"name": "",
							"type": "string"
						}
					],
					"stateMutability": "view",
					"type": "function"
				},
				{
					"inputs": [],
					"name": "totalSupply",
					"outputs": [
						{
							"internalType": "uint256",
							"name": "",
							"type": "uint256"
						}
					],
					"stateMutability": "view",
					"type": "function"
				},
				{
					"inputs": [
						{
							"internalType": "address",
							"name": "to",
							"type": "address"
						},
						{
							"internalType": "uint256",
							"name": "amount",
							"type": "uint256"
						}
					],
					"name": "transfer",
					"outputs": [
						{
							"internalType": "bool",
							"name": "",
							"type": "bool"
						}
					],
					"stateMutability": "nonpayable",
					"type": "function"
				},
				{
					"inputs": [
						{
							"internalType": "address",
							"name": "from",
							"type": "address"
						},
						{
							"internalType": "address",
							"name": "to",
							"type": "address"
						},
						{
							"internalType": "uint256",
							"name": "amount",
							"type": "uint256"
						}
					],
					"name": "transferFrom",
					"outputs": [
						{
							"internalType": "bool",
							"name": "",
							"type": "bool"
						}
					],
					"stateMutability": "nonpayable",
					"type": "function"
				},
				{
					"inputs": [
						{
							"internalType": "address",
							"name": "newOwner",
							"type": "address"
						}
					],
					"name": "transferOwnership",
					"outputs": [],
					"stateMutability": "nonpayable",
					"type": "function"
				},
				{
					"inputs": [
						{
							"internalType": "address",
							"name": "destination",
							"type": "address"
						},
						{
							"internalType": "uint256",
							"name": "amount",
							"type": "uint256"
						}
					],
					"name": "transferTokens",
					"outputs": [
						{
							"internalType": "bool",
							"name": "",
							"type": "bool"
						}
					],
					"stateMutability": "nonpayable",
					"type": "function"
				},
				{
					"inputs": [
						{
							"internalType": "address",
							"name": "account",
							"type": "address"
						}
					],
					"name": "verifyBalance",
					"outputs": [
						{
							"internalType": "uint256",
							"name": "",
							"type": "uint256"
						}
					],
					"stateMutability": "view",
					"type": "function"
				}
			],
			"devdoc": {
				"events": {
					"Approval(address,address,uint256)": {
						"details": "Emitted when the allowance of a `spender` for an `owner` is set by a call to {approve}. `value` is the new allowance."
					},
					"Transfer(address,address,uint256)": {
						"details": "Emitted when `value` tokens are moved from one account (`from`) to another (`to`). Note that `value` may be zero."
					}
				},
				"kind": "dev",
				"methods": {
					"allowance(address,address)": {
						"details": "See {IERC20-allowance}."
					},
					"approve(address,uint256)": {
						"details": "See {IERC20-approve}. NOTE: If `amount` is the maximum `uint256`, the allowance is not updated on `transferFrom`. This is semantically equivalent to an infinite approval. Requirements: - `spender` cannot be the zero address."
					},
					"balanceOf(address)": {
						"details": "See {IERC20-balanceOf}."
					},
					"burn(uint256)": {
						"details": "Destroys `amount` tokens from the caller. See {ERC20-_burn}."
					},
					"burnFrom(address,uint256)": {
						"details": "Destroys `amount` tokens from `account`, deducting from the caller's allowance. See {ERC20-_burn} and {ERC20-allowance}. Requirements: - the caller must have allowance for ``accounts``'s tokens of at least `amount`."
					},
					"decimals()": {
						"details": "Returns the number of decimals used to get its user representation. For example, if `decimals` equals `2`, a balance of `505` tokens should be displayed to a user as `5.05` (`505 / 10 ** 2`). Tokens usually opt for a value of 18, imitating the relationship between Ether and Wei. This is the value {ERC20} uses, unless this function is overridden; NOTE: This information is only used for _display_ purposes: it in no way affects any of the arithmetic of the contract, including {IERC20-balanceOf} and {IERC20-transfer}."
					},
					"decreaseAllowance(address,uint256)": {
						"details": "Atomically decreases the allowance granted to `spender` by the caller. This is an alternative to {approve} that can be used as a mitigation for problems described in {IERC20-approve}. Emits an {Approval} event indicating the updated allowance. Requirements: - `spender` cannot be the zero address. - `spender` must have allowance for the caller of at least `subtractedValue`."
					},
					"increaseAllowance(address,uint256)": {
						"details": "Atomically increases the allowance granted to `spender` by the caller. This is an alternative to {approve} that can be used as a mitigation for problems described in {IERC20-approve}. Emits an {Approval} event indicating the updated allowance. Requirements: - `spender` cannot be the zero address."
					},
					"name()": {
						"details": "Returns the name of the token."
					},
					"owner()": {
						"details": "Returns the address of the current owner."
					},
					"renounceOwnership()": {
						"details": "Leaves the contract without owner. It will not be possible to call `onlyOwner` functions anymore. Can only be called by the current owner. NOTE: Renouncing ownership will leave the contract without an owner, thereby removing any functionality that is only available to the owner."
					},
					"symbol()": {
						"details": "Returns the symbol of the token, usually a shorter version of the name."
					},
					"totalSupply()": {
						"details": "See {IERC20-totalSupply}."
					},
					"transfer(address,uint256)": {
						"details": "See {IERC20-transfer}. Requirements: - `to` cannot be the zero address. - the caller must have a balance of at least `amount`."
					},
					"transferFrom(address,address,uint256)": {
						"details": "See {IERC20-transferFrom}. Emits an {Approval} event indicating the updated allowance. This is not required by the EIP. See the note at the beginning of {ERC20}. NOTE: Does not update the allowance if the current allowance is the maximum `uint256`. Requirements: - `from` and `to` cannot be the zero address. - `from` must have a balance of at least `amount`. - the caller must have allowance for ``from``'s tokens of at least `amount`."
					},
					"transferOwnership(address)": {
						"details": "Transfers ownership of the contract to a new account (`newOwner`). Can only be called by the current owner."
					}
				},
				"version": 1
			},
			"evm": {
				"assembly": "    /* \"contracts/DegenToken.sol\":250:2607  contract DegenToken is ERC20, Ownable, ERC20Burnable {... */\n  mstore(0x40, 0x80)\n    /* \"contracts/DegenToken.sol\":525:820  constructor() ERC20(\"Degen\", \"DGN\") {... */\n  callvalue\n  dup1\n  iszero\n  tag_1\n  jumpi\n  0x00\n  dup1\n  revert\ntag_1:\n  pop\n    /* \"@openzeppelin/contracts/token/ERC20/ERC20.sol\":1976:2089  constructor(string memory name_, string memory symbol_) {... */\n  mload(0x40)\n  dup1\n  0x40\n  add\n  0x40\n  mstore\n  dup1\n  0x05\n  dup2\n  mstore\n  0x20\n  add\n  0x446567656e000000000000000000000000000000000000000000000000000000\n  dup2\n  mstore\n  pop\n  mload(0x40)\n  dup1\n  0x40\n  add\n  0x40\n  mstore\n  dup1\n  0x03\n  dup2\n  mstore\n  0x20\n  add\n  0x44474e0000000000000000000000000000000000000000000000000000000000\n  dup2\n  mstore\n  pop\n    /* \"@openzeppelin/contracts/token/ERC20/ERC20.sol\":2050:2055  name_ */\n  dup2\n    /* \"@openzeppelin/contracts/token/ERC20/ERC20.sol\":2042:2047  _name */\n  0x03\n    /* \"@openzeppelin/contracts/token/ERC20/ERC20.sol\":2042:2055  _name = name_ */\n  swap1\n  dup2\n  tag_6\n  swap2\n  swap1\n  tag_7\n  jump\t// in\ntag_6:\n  pop\n    /* \"@openzeppelin/contracts/token/ERC20/ERC20.sol\":2075:2082  symbol_ */\n  dup1\n    /* \"@openzeppelin/contracts/token/ERC20/ERC20.sol\":2065:2072  _symbol */\n  0x04\n    /* \"@openzeppelin/contracts/token/ERC20/ERC20.sol\":2065:2082  _symbol = symbol_ */\n  swap1\n  dup2\n  tag_8\n  swap2\n  swap1\n  tag_7\n  jump\t// in\ntag_8:\n  pop\n    /* \"@openzeppelin/contracts/token/ERC20/ERC20.sol\":1976:2089  constructor(string memory name_, string memory symbol_) {... */\n  pop\n  pop\n    /* \"@openzeppelin/contracts/access/Ownable.sol\":936:968  _transferOwnership(_msgSender()) */\n  tag_10\n    /* \"@openzeppelin/contracts/access/Ownable.sol\":955:967  _msgSender() */\n  tag_11\n    /* \"@openzeppelin/contracts/access/Ownable.sol\":955:965  _msgSender */\n  shl(0x20, tag_12)\n    /* \"@openzeppelin/contracts/access/Ownable.sol\":955:967  _msgSender() */\n  0x20\n  shr\n  jump\t// in\ntag_11:\n    /* \"@openzeppelin/contracts/access/Ownable.sol\":936:954  _transferOwnership */\n  shl(0x20, tag_13)\n    /* \"@openzeppelin/contracts/access/Ownable.sol\":936:968  _transferOwnership(_msgSender()) */\n  0x20\n  shr\n  jump\t// in\ntag_10:\n    /* \"contracts/DegenToken.sol\":601:613  itemsCatalog */\n  0x06\n    /* \"contracts/DegenToken.sol\":619:658  Item(5, \"Stellar Jades Package\", false) */\n  mload(0x40)\n  dup1\n  0x60\n  add\n  0x40\n  mstore\n  dup1\n    /* \"contracts/DegenToken.sol\":624:625  5 */\n  0x05\n    /* \"contracts/DegenToken.sol\":619:658  Item(5, \"Stellar Jades Package\", false) */\n  dup2\n  mstore\n  0x20\n  add\n  mload(0x40)\n  dup1\n  0x40\n  add\n  0x40\n  mstore\n  dup1\n  0x15\n  dup2\n  mstore\n  0x20\n  add\n  0x5374656c6c6172204a61646573205061636b6167650000000000000000000000\n  dup2\n  mstore\n  pop\n  dup2\n  mstore\n  0x20\n  add\n    /* \"contracts/DegenToken.sol\":652:657  false */\n  0x00\n    /* \"contracts/DegenToken.sol\":619:658  Item(5, \"Stellar Jades Package\", false) */\n  iszero\n  iszero\n  dup2\n  mstore\n  pop\n    /* \"contracts/DegenToken.sol\":601:659  itemsCatalog.push(Item(5, \"Stellar Jades Package\", false)) */\n  swap1\n  dup1\n  0x01\n  dup2\n  sload\n  add\n  dup1\n  dup3\n  sstore\n  dup1\n  swap2\n  pop\n  pop\n  0x01\n  swap1\n  sub\n  swap1\n  0x00\n  mstore\n  keccak256(0x00, 0x20)\n  swap1\n  0x03\n  mul\n  add\n  0x00\n  swap1\n  swap2\n  swap1\n  swap2\n  swap1\n  swap2\n  pop\n  0x00\n  dup3\n  add\n  mload\n  dup2\n  0x00\n  add\n  sstore\n  0x20\n  dup3\n  add\n  mload\n  dup2\n  0x01\n  add\n  swap1\n  dup2\n  tag_16\n  swap2\n  swap1\n  tag_7\n  jump\t// in\ntag_16:\n  pop\n  0x40\n  dup3\n  add\n  mload\n  dup2\n  0x02\n  add\n  exp(0x0100, 0x00)\n  dup2\n  sload\n  dup2\n  0xff\n  mul\n  not\n  and\n  swap1\n  dup4\n  iszero\n  iszero\n  mul\n  or\n  swap1\n  sstore\n  pop\n  pop\n  pop\n    /* \"contracts/DegenToken.sol\":670:682  itemsCatalog */\n  0x06\n    /* \"contracts/DegenToken.sol\":688:737  Item(10, \"Blessing of the Welkin Goddess\", false) */\n  mload(0x40)\n  dup1\n  0x60\n  add\n  0x40\n  mstore\n  dup1\n    /* \"contracts/DegenToken.sol\":693:695  10 */\n  0x0a\n    /* \"contracts/DegenToken.sol\":688:737  Item(10, \"Blessing of the Welkin Goddess\", false) */\n  dup2\n  mstore\n  0x20\n  add\n  mload(0x40)\n  dup1\n  0x40\n  add\n  0x40\n  mstore\n  dup1\n  0x1e\n  dup2\n  mstore\n  0x20\n  add\n  0x426c657373696e67206f66207468652057656c6b696e20476f64646573730000\n  dup2\n  mstore\n  pop\n  dup2\n  mstore\n  0x20\n  add\n    /* \"contracts/DegenToken.sol\":731:736  false */\n  0x00\n    /* \"contracts/DegenToken.sol\":688:737  Item(10, \"Blessing of the Welkin Goddess\", false) */\n  iszero\n  iszero\n  dup2\n  mstore\n  pop\n    /* \"contracts/DegenToken.sol\":670:738  itemsCatalog.push(Item(10, \"Blessing of the Welkin Goddess\", false)) */\n  swap1\n  dup1\n  0x01\n  dup2\n  sload\n  add\n  dup1\n  dup3\n  sstore\n  dup1\n  swap2\n  pop\n  pop\n  0x01\n  swap1\n  sub\n  swap1\n  0x00\n  mstore\n  keccak256(0x00, 0x20)\n  swap1\n  0x03\n  mul\n  add\n  0x00\n  swap1\n  swap2\n  swap1\n  swap2\n  swap1\n  swap2\n  pop\n  0x00\n  dup3\n  add\n  mload\n  dup2\n  0x00\n  add\n  sstore\n  0x20\n  dup3\n  add\n  mload\n  dup2\n  0x01\n  add\n  swap1\n  dup2\n  tag_18\n  swap2\n  swap1\n  tag_7\n  jump\t// in\ntag_18:\n  pop\n  0x40\n  dup3\n  add\n  mload\n  dup2\n  0x02\n  add\n  exp(0x0100, 0x00)\n  dup2\n  sload\n  dup2\n  0xff\n  mul\n  not\n  and\n  swap1\n  dup4\n  iszero\n  iszero\n  mul\n  or\n  swap1\n  sstore\n  pop\n  pop\n  pop\n    /* \"contracts/DegenToken.sol\":749:761  itemsCatalog */\n  0x06\n    /* \"contracts/DegenToken.sol\":767:811  Item(15, \"Nameless Honor - Season 2\", false) */\n  mload(0x40)\n  dup1\n  0x60\n  add\n  0x40\n  mstore\n  dup1\n    /* \"contracts/DegenToken.sol\":772:774  15 */\n  0x0f\n    /* \"contracts/DegenToken.sol\":767:811  Item(15, \"Nameless Honor - Season 2\", false) */\n  dup2\n  mstore\n  0x20\n  add\n  mload(0x40)\n  dup1\n  0x40\n  add\n  0x40\n  mstore\n  dup1\n  0x19\n  dup2\n  mstore\n  0x20\n  add\n  0x4e616d656c65737320486f6e6f72202d20536561736f6e203200000000000000\n  dup2\n  mstore\n  pop\n  dup2\n  mstore\n  0x20\n  add\n    /* \"contracts/DegenToken.sol\":805:810  false */\n  0x00\n    /* \"contracts/DegenToken.sol\":767:811  Item(15, \"Nameless Honor - Season 2\", false) */\n  iszero\n  iszero\n  dup2\n  mstore\n  pop\n    /* \"contracts/DegenToken.sol\":749:812  itemsCatalog.push(Item(15, \"Nameless Honor - Season 2\", false)) */\n  swap1\n  dup1\n  0x01\n  dup2\n  sload\n  add\n  dup1\n  dup3\n  sstore\n  dup1\n  swap2\n  pop\n  pop\n  0x01\n  swap1\n  sub\n  swap1\n  0x00\n  mstore\n  keccak256(0x00, 0x20)\n  swap1\n  0x03\n  mul\n  add\n  0x00\n  swap1\n  swap2\n  swap1\n  swap2\n  swap1\n  swap2\n  pop\n  0x00\n  dup3\n  add\n  mload\n  dup2\n  0x00\n  add\n  sstore\n  0x20\n  dup3\n  add\n  mload\n  dup2\n  0x01\n  add\n  swap1\n  dup2\n  tag_20\n  swap2\n  swap1\n  tag_7\n  jump\t// in\ntag_20:\n  pop\n  0x40\n  dup3\n  add\n  mload\n  dup2\n  0x02\n  add\n  exp(0x0100, 0x00)\n  dup2\n  sload\n  dup2\n  0xff\n  mul\n  not\n  and\n  swap1\n  dup4\n  iszero\n  iszero\n  mul\n  or\n  swap1\n  sstore\n  pop\n  pop\n  pop\n    /* \"contracts/DegenToken.sol\":250:2607  contract DegenToken is ERC20, Ownable, ERC20Burnable {... */\n  jump(tag_21)\n    /* \"@openzeppelin/contracts/utils/Context.sol\":640:736  function _msgSender() internal view virtual returns (address) {... */\ntag_12:\n    /* \"@openzeppelin/contracts/utils/Context.sol\":693:700  address */\n  0x00\n    /* \"@openzeppelin/contracts/utils/Context.sol\":719:729  msg.sender */\n  caller\n    /* \"@openzeppelin/contracts/utils/Context.sol\":712:729  return msg.sender */\n  swap1\n  pop\n    /* \"@openzeppelin/contracts/utils/Context.sol\":640:736  function _msgSender() internal view virtual returns (address) {... */\n  swap1\n  jump\t// out\n    /* \"@openzeppelin/contracts/access/Ownable.sol\":2433:2620  function _transferOwnership(address newOwner) internal virtual {... */\ntag_13:\n    /* \"@openzeppelin/contracts/access/Ownable.sol\":2506:2522  address oldOwner */\n  0x00\n    /* \"@openzeppelin/contracts/access/Ownable.sol\":2525:2531  _owner */\n  0x05\n  0x00\n  swap1\n  sload\n  swap1\n  0x0100\n  exp\n  swap1\n  div\n  0xffffffffffffffffffffffffffffffffffffffff\n  and\n    /* \"@openzeppelin/contracts/access/Ownable.sol\":2506:2531  address oldOwner = _owner */\n  swap1\n  pop\n    /* \"@openzeppelin/contracts/access/Ownable.sol\":2550:2558  newOwner */\n  dup2\n    /* \"@openzeppelin/contracts/access/Ownable.sol\":2541:2547  _owner */\n  0x05\n  0x00\n    /* \"@openzeppelin/contracts/access/Ownable.sol\":2541:2558  _owner = newOwner */\n  0x0100\n  exp\n  dup2\n  sload\n  dup2\n  0xffffffffffffffffffffffffffffffffffffffff\n  mul\n  not\n  and\n  swap1\n  dup4\n  0xffffffffffffffffffffffffffffffffffffffff\n  and\n  mul\n  or\n  swap1\n  sstore\n  pop\n    /* \"@openzeppelin/contracts/access/Ownable.sol\":2604:2612  newOwner */\n  dup2\n    /* \"@openzeppelin/contracts/access/Ownable.sol\":2573:2613  OwnershipTransferred(oldOwner, newOwner) */\n  0xffffffffffffffffffffffffffffffffffffffff\n  and\n    /* \"@openzeppelin/contracts/access/Ownable.sol\":2594:2602  oldOwner */\n  dup2\n    /* \"@openzeppelin/contracts/access/Ownable.sol\":2573:2613  OwnershipTransferred(oldOwner, newOwner) */\n  0xffffffffffffffffffffffffffffffffffffffff\n  and\n  0x8be0079c531659141344cd1fd0a4f28419497f9722a3daafe3b4186f6b6457e0\n  mload(0x40)\n  mload(0x40)\n  dup1\n  swap2\n  sub\n  swap1\n  log3\n    /* \"@openzeppelin/contracts/access/Ownable.sol\":2496:2620  {... */\n  pop\n    /* \"@openzeppelin/contracts/access/Ownable.sol\":2433:2620  function _transferOwnership(address newOwner) internal virtual {... */\n  pop\n  jump\t// out\n    /* \"#utility.yul\":7:106   */\ntag_24:\n    /* \"#utility.yul\":59:65   */\n  0x00\n    /* \"#utility.yul\":93:98   */\n  dup2\n    /* \"#utility.yul\":87:99   */\n  mload\n    /* \"#utility.yul\":77:99   */\n  swap1\n  pop\n    /* \"#utility.yul\":7:106   */\n  swap2\n  swap1\n  pop\n  jump\t// out\n    /* \"#utility.yul\":112:292   */\ntag_25:\n    /* \"#utility.yul\":160:237   */\n  0x4e487b7100000000000000000000000000000000000000000000000000000000\n    /* \"#utility.yul\":157:158   */\n  0x00\n    /* \"#utility.yul\":150:238   */\n  mstore\n    /* \"#utility.yul\":257:261   */\n  0x41\n    /* \"#utility.yul\":254:255   */\n  0x04\n    /* \"#utility.yul\":247:262   */\n  mstore\n    /* \"#utility.yul\":281:285   */\n  0x24\n    /* \"#utility.yul\":278:279   */\n  0x00\n    /* \"#utility.yul\":271:286   */\n  revert\n    /* \"#utility.yul\":298:478   */\ntag_26:\n    /* \"#utility.yul\":346:423   */\n  0x4e487b7100000000000000000000000000000000000000000000000000000000\n    /* \"#utility.yul\":343:344   */\n  0x00\n    /* \"#utility.yul\":336:424   */\n  mstore\n    /* \"#utility.yul\":443:447   */\n  0x22\n    /* \"#utility.yul\":440:441   */\n  0x04\n    /* \"#utility.yul\":433:448   */\n  mstore\n    /* \"#utility.yul\":467:471   */\n  0x24\n    /* \"#utility.yul\":464:465   */\n  0x00\n    /* \"#utility.yul\":457:472   */\n  revert\n    /* \"#utility.yul\":484:804   */\ntag_27:\n    /* \"#utility.yul\":528:534   */\n  0x00\n    /* \"#utility.yul\":565:566   */\n  0x02\n    /* \"#utility.yul\":559:563   */\n  dup3\n    /* \"#utility.yul\":555:567   */\n  div\n    /* \"#utility.yul\":545:567   */\n  swap1\n  pop\n    /* \"#utility.yul\":612:613   */\n  0x01\n    /* \"#utility.yul\":606:610   */\n  dup3\n    /* \"#utility.yul\":602:614   */\n  and\n    /* \"#utility.yul\":633:651   */\n  dup1\n    /* \"#utility.yul\":623:704   */\n  tag_49\n  jumpi\n    /* \"#utility.yul\":689:693   */\n  0x7f\n    /* \"#utility.yul\":681:687   */\n  dup3\n    /* \"#utility.yul\":677:694   */\n  and\n    /* \"#utility.yul\":667:694   */\n  swap2\n  pop\n    /* \"#utility.yul\":623:704   */\ntag_49:\n    /* \"#utility.yul\":751:753   */\n  0x20\n    /* \"#utility.yul\":743:749   */\n  dup3\n    /* \"#utility.yul\":740:754   */\n  lt\n    /* \"#utility.yul\":720:738   */\n  dup2\n    /* \"#utility.yul\":717:755   */\n  sub\n    /* \"#utility.yul\":714:798   */\n  tag_50\n  jumpi\n    /* \"#utility.yul\":770:788   */\n  tag_51\n  tag_26\n  jump\t// in\ntag_51:\n    /* \"#utility.yul\":714:798   */\ntag_50:\n    /* \"#utility.yul\":535:804   */\n  pop\n    /* \"#utility.yul\":484:804   */\n  swap2\n  swap1\n  pop\n  jump\t// out\n    /* \"#utility.yul\":810:951   */\ntag_28:\n    /* \"#utility.yul\":859:863   */\n  0x00\n    /* \"#utility.yul\":882:885   */\n  dup2\n    /* \"#utility.yul\":874:885   */\n  swap1\n  pop\n    /* \"#utility.yul\":905:908   */\n  dup2\n    /* \"#utility.yul\":902:903   */\n  0x00\n    /* \"#utility.yul\":895:909   */\n  mstore\n    /* \"#utility.yul\":939:943   */\n  0x20\n    /* \"#utility.yul\":936:937   */\n  0x00\n    /* \"#utility.yul\":926:944   */\n  keccak256\n    /* \"#utility.yul\":918:944   */\n  swap1\n  pop\n    /* \"#utility.yul\":810:951   */\n  swap2\n  swap1\n  pop\n  jump\t// out\n    /* \"#utility.yul\":957:1050   */\ntag_29:\n    /* \"#utility.yul\":994:1000   */\n  0x00\n    /* \"#utility.yul\":1041:1043   */\n  0x20\n    /* \"#utility.yul\":1036:1038   */\n  0x1f\n    /* \"#utility.yul\":1029:1034   */\n  dup4\n    /* \"#utility.yul\":1025:1039   */\n  add\n    /* \"#utility.yul\":1021:1044   */\n  div\n    /* \"#utility.yul\":1011:1044   */\n  swap1\n  pop\n    /* \"#utility.yul\":957:1050   */\n  swap2\n  swap1\n  pop\n  jump\t// out\n    /* \"#utility.yul\":1056:1163   */\ntag_30:\n    /* \"#utility.yul\":1100:1108   */\n  0x00\n    /* \"#utility.yul\":1150:1155   */\n  dup3\n    /* \"#utility.yul\":1144:1148   */\n  dup3\n    /* \"#utility.yul\":1140:1156   */\n  shl\n    /* \"#utility.yul\":1119:1156   */\n  swap1\n  pop\n    /* \"#utility.yul\":1056:1163   */\n  swap3\n  swap2\n  pop\n  pop\n  jump\t// out\n    /* \"#utility.yul\":1169:1562   */\ntag_31:\n    /* \"#utility.yul\":1238:1244   */\n  0x00\n    /* \"#utility.yul\":1288:1289   */\n  0x08\n    /* \"#utility.yul\":1276:1286   */\n  dup4\n    /* \"#utility.yul\":1272:1290   */\n  mul\n    /* \"#utility.yul\":1311:1408   */\n  tag_56\n    /* \"#utility.yul\":1341:1407   */\n  0xffffffffffffffffffffffffffffffffffffffffffffffffffffffffffffffff\n    /* \"#utility.yul\":1330:1339   */\n  dup3\n    /* \"#utility.yul\":1311:1408   */\n  tag_30\n  jump\t// in\ntag_56:\n    /* \"#utility.yul\":1429:1468   */\n  tag_57\n    /* \"#utility.yul\":1459:1467   */\n  dup7\n    /* \"#utility.yul\":1448:1457   */\n  dup4\n    /* \"#utility.yul\":1429:1468   */\n  tag_30\n  jump\t// in\ntag_57:\n    /* \"#utility.yul\":1417:1468   */\n  swap6\n  pop\n    /* \"#utility.yul\":1501:1505   */\n  dup1\n    /* \"#utility.yul\":1497:1506   */\n  not\n    /* \"#utility.yul\":1490:1495   */\n  dup5\n    /* \"#utility.yul\":1486:1507   */\n  and\n    /* \"#utility.yul\":1477:1507   */\n  swap4\n  pop\n    /* \"#utility.yul\":1550:1554   */\n  dup1\n    /* \"#utility.yul\":1540:1548   */\n  dup7\n    /* \"#utility.yul\":1536:1555   */\n  and\n    /* \"#utility.yul\":1529:1534   */\n  dup5\n    /* \"#utility.yul\":1526:1556   */\n  or\n    /* \"#utility.yul\":1516:1556   */\n  swap3\n  pop\n    /* \"#utility.yul\":1245:1562   */\n  pop\n  pop\n    /* \"#utility.yul\":1169:1562   */\n  swap4\n  swap3\n  pop\n  pop\n  pop\n  jump\t// out\n    /* \"#utility.yul\":1568:1645   */\ntag_32:\n    /* \"#utility.yul\":1605:1612   */\n  0x00\n    /* \"#utility.yul\":1634:1639   */\n  dup2\n    /* \"#utility.yul\":1623:1639   */\n  swap1\n  pop\n    /* \"#utility.yul\":1568:1645   */\n  swap2\n  swap1\n  pop\n  jump\t// out\n    /* \"#utility.yul\":1651:1711   */\ntag_33:\n    /* \"#utility.yul\":1679:1682   */\n  0x00\n    /* \"#utility.yul\":1700:1705   */\n  dup2\n    /* \"#utility.yul\":1693:1705   */\n  swap1\n  pop\n    /* \"#utility.yul\":1651:1711   */\n  swap2\n  swap1\n  pop\n  jump\t// out\n    /* \"#utility.yul\":1717:1859   */\ntag_34:\n    /* \"#utility.yul\":1767:1776   */\n  0x00\n    /* \"#utility.yul\":1800:1853   */\n  tag_61\n    /* \"#utility.yul\":1818:1852   */\n  tag_62\n    /* \"#utility.yul\":1827:1851   */\n  tag_63\n    /* \"#utility.yul\":1845:1850   */\n  dup5\n    /* \"#utility.yul\":1827:1851   */\n  tag_32\n  jump\t// in\ntag_63:\n    /* \"#utility.yul\":1818:1852   */\n  tag_33\n  jump\t// in\ntag_62:\n    /* \"#utility.yul\":1800:1853   */\n  tag_32\n  jump\t// in\ntag_61:\n    /* \"#utility.yul\":1787:1853   */\n  swap1\n  pop\n    /* \"#utility.yul\":1717:1859   */\n  swap2\n  swap1\n  pop\n  jump\t// out\n    /* \"#utility.yul\":1865:1940   */\ntag_35:\n    /* \"#utility.yul\":1908:1911   */\n  0x00\n    /* \"#utility.yul\":1929:1934   */\n  dup2\n    /* \"#utility.yul\":1922:1934   */\n  swap1\n  pop\n    /* \"#utility.yul\":1865:1940   */\n  swap2\n  swap1\n  pop\n  jump\t// out\n    /* \"#utility.yul\":1946:2215   */\ntag_36:\n    /* \"#utility.yul\":2056:2095   */\n  tag_66\n    /* \"#utility.yul\":2087:2094   */\n  dup4\n    /* \"#utility.yul\":2056:2095   */\n  tag_34\n  jump\t// in\ntag_66:\n    /* \"#utility.yul\":2117:2208   */\n  tag_67\n    /* \"#utility.yul\":2166:2207   */\n  tag_68\n    /* \"#utility.yul\":2190:2206   */\n  dup3\n    /* \"#utility.yul\":2166:2207   */\n  tag_35\n  jump\t// in\ntag_68:\n    /* \"#utility.yul\":2158:2164   */\n  dup5\n    /* \"#utility.yul\":2151:2155   */\n  dup5\n    /* \"#utility.yul\":2145:2156   */\n  sload\n    /* \"#utility.yul\":2117:2208   */\n  tag_31\n  jump\t// in\ntag_67:\n    /* \"#utility.yul\":2111:2115   */\n  dup3\n    /* \"#utility.yul\":2104:2209   */\n  sstore\n    /* \"#utility.yul\":2022:2215   */\n  pop\n    /* \"#utility.yul\":1946:2215   */\n  pop\n  pop\n  pop\n  jump\t// out\n    /* \"#utility.yul\":2221:2294   */\ntag_37:\n    /* \"#utility.yul\":2266:2269   */\n  0x00\n    /* \"#utility.yul\":2221:2294   */\n  swap1\n  jump\t// out\n    /* \"#utility.yul\":2300:2489   */\ntag_38:\n    /* \"#utility.yul\":2377:2409   */\n  tag_71\n  tag_37\n  jump\t// in\ntag_71:\n    /* \"#utility.yul\":2418:2483   */\n  tag_72\n    /* \"#utility.yul\":2476:2482   */\n  dup2\n    /* \"#utility.yul\":2468:2474   */\n  dup5\n    /* \"#utility.yul\":2462:2466   */\n  dup5\n    /* \"#utility.yul\":2418:2483   */\n  tag_36\n  jump\t// in\ntag_72:\n    /* \"#utility.yul\":2353:2489   */\n  pop\n    /* \"#utility.yul\":2300:2489   */\n  pop\n  pop\n  jump\t// out\n    /* \"#utility.yul\":2495:2681   */\ntag_39:\n    /* \"#utility.yul\":2555:2675   */\ntag_74:\n    /* \"#utility.yul\":2572:2575   */\n  dup2\n    /* \"#utility.yul\":2565:2570   */\n  dup2\n    /* \"#utility.yul\":2562:2576   */\n  lt\n    /* \"#utility.yul\":2555:2675   */\n  iszero\n  tag_76\n  jumpi\n    /* \"#utility.yul\":2626:2665   */\n  tag_77\n    /* \"#utility.yul\":2663:2664   */\n  0x00\n    /* \"#utility.yul\":2656:2661   */\n  dup3\n    /* \"#utility.yul\":2626:2665   */\n  tag_38\n  jump\t// in\ntag_77:\n    /* \"#utility.yul\":2599:2600   */\n  0x01\n    /* \"#utility.yul\":2592:2597   */\n  dup2\n    /* \"#utility.yul\":2588:2601   */\n  add\n    /* \"#utility.yul\":2579:2601   */\n  swap1\n  pop\n    /* \"#utility.yul\":2555:2675   */\n  jump(tag_74)\ntag_76:\n    /* \"#utility.yul\":2495:2681   */\n  pop\n  pop\n  jump\t// out\n    /* \"#utility.yul\":2687:3230   */\ntag_40:\n    /* \"#utility.yul\":2788:2790   */\n  0x1f\n    /* \"#utility.yul\":2783:2786   */\n  dup3\n    /* \"#utility.yul\":2780:2791   */\n  gt\n    /* \"#utility.yul\":2777:3223   */\n  iszero\n  tag_79\n  jumpi\n    /* \"#utility.yul\":2822:2860   */\n  tag_80\n    /* \"#utility.yul\":2854:2859   */\n  dup2\n    /* \"#utility.yul\":2822:2860   */\n  tag_28\n  jump\t// in\ntag_80:\n    /* \"#utility.yul\":2906:2935   */\n  tag_81\n    /* \"#utility.yul\":2924:2934   */\n  dup5\n    /* \"#utility.yul\":2906:2935   */\n  tag_29\n  jump\t// in\ntag_81:\n    /* \"#utility.yul\":2896:2904   */\n  dup2\n    /* \"#utility.yul\":2892:2936   */\n  add\n    /* \"#utility.yul\":3089:3091   */\n  0x20\n    /* \"#utility.yul\":3077:3087   */\n  dup6\n    /* \"#utility.yul\":3074:3092   */\n  lt\n    /* \"#utility.yul\":3071:3120   */\n  iszero\n  tag_82\n  jumpi\n    /* \"#utility.yul\":3110:3118   */\n  dup2\n    /* \"#utility.yul\":3095:3118   */\n  swap1\n  pop\n    /* \"#utility.yul\":3071:3120   */\ntag_82:\n    /* \"#utility.yul\":3133:3213   */\n  tag_83\n    /* \"#utility.yul\":3189:3211   */\n  tag_84\n    /* \"#utility.yul\":3207:3210   */\n  dup6\n    /* \"#utility.yul\":3189:3211   */\n  tag_29\n  jump\t// in\ntag_84:\n    /* \"#utility.yul\":3179:3187   */\n  dup4\n    /* \"#utility.yul\":3175:3212   */\n  add\n    /* \"#utility.yul\":3162:3173   */\n  dup3\n    /* \"#utility.yul\":3133:3213   */\n  tag_39\n  jump\t// in\ntag_83:\n    /* \"#utility.yul\":2792:3223   */\n  pop\n  pop\n    /* \"#utility.yul\":2777:3223   */\ntag_79:\n    /* \"#utility.yul\":2687:3230   */\n  pop\n  pop\n  pop\n  jump\t// out\n    /* \"#utility.yul\":3236:3353   */\ntag_41:\n    /* \"#utility.yul\":3290:3298   */\n  0x00\n    /* \"#utility.yul\":3340:3345   */\n  dup3\n    /* \"#utility.yul\":3334:3338   */\n  dup3\n    /* \"#utility.yul\":3330:3346   */\n  shr\n    /* \"#utility.yul\":3309:3346   */\n  swap1\n  pop\n    /* \"#utility.yul\":3236:3353   */\n  swap3\n  swap2\n  pop\n  pop\n  jump\t// out\n    /* \"#utility.yul\":3359:3528   */\ntag_42:\n    /* \"#utility.yul\":3403:3409   */\n  0x00\n    /* \"#utility.yul\":3436:3487   */\n  tag_87\n    /* \"#utility.yul\":3484:3485   */\n  0x00\n    /* \"#utility.yul\":3480:3486   */\n  not\n    /* \"#utility.yul\":3472:3477   */\n  dup5\n    /* \"#utility.yul\":3469:3470   */\n  0x08\n    /* \"#utility.yul\":3465:3478   */\n  mul\n    /* \"#utility.yul\":3436:3487   */\n  tag_41\n  jump\t// in\ntag_87:\n    /* \"#utility.yul\":3432:3488   */\n  not\n    /* \"#utility.yul\":3517:3521   */\n  dup1\n    /* \"#utility.yul\":3511:3515   */\n  dup4\n    /* \"#utility.yul\":3507:3522   */\n  and\n    /* \"#utility.yul\":3497:3522   */\n  swap2\n  pop\n    /* \"#utility.yul\":3410:3528   */\n  pop\n    /* \"#utility.yul\":3359:3528   */\n  swap3\n  swap2\n  pop\n  pop\n  jump\t// out\n    /* \"#utility.yul\":3533:3828   */\ntag_43:\n    /* \"#utility.yul\":3609:3613   */\n  0x00\n    /* \"#utility.yul\":3755:3784   */\n  tag_89\n    /* \"#utility.yul\":3780:3783   */\n  dup4\n    /* \"#utility.yul\":3774:3778   */\n  dup4\n    /* \"#utility.yul\":3755:3784   */\n  tag_42\n  jump\t// in\ntag_89:\n    /* \"#utility.yul\":3747:3784   */\n  swap2\n  pop\n    /* \"#utility.yul\":3817:3820   */\n  dup3\n    /* \"#utility.yul\":3814:3815   */\n  0x02\n    /* \"#utility.yul\":3810:3821   */\n  mul\n    /* \"#utility.yul\":3804:3808   */\n  dup3\n    /* \"#utility.yul\":3801:3822   */\n  or\n    /* \"#utility.yul\":3793:3822   */\n  swap1\n  pop\n    /* \"#utility.yul\":3533:3828   */\n  swap3\n  swap2\n  pop\n  pop\n  jump\t// out\n    /* \"#utility.yul\":3833:5228   */\ntag_7:\n    /* \"#utility.yul\":3950:3987   */\n  tag_91\n    /* \"#utility.yul\":3983:3986   */\n  dup3\n    /* \"#utility.yul\":3950:3987   */\n  tag_24\n  jump\t// in\ntag_91:\n    /* \"#utility.yul\":4052:4070   */\n  0xffffffffffffffff\n    /* \"#utility.yul\":4044:4050   */\n  dup2\n    /* \"#utility.yul\":4041:4071   */\n  gt\n    /* \"#utility.yul\":4038:4094   */\n  iszero\n  tag_92\n  jumpi\n    /* \"#utility.yul\":4074:4092   */\n  tag_93\n  tag_25\n  jump\t// in\ntag_93:\n    /* \"#utility.yul\":4038:4094   */\ntag_92:\n    /* \"#utility.yul\":4118:4156   */\n  tag_94\n    /* \"#utility.yul\":4150:4154   */\n  dup3\n    /* \"#utility.yul\":4144:4155   */\n  sload\n    /* \"#utility.yul\":4118:4156   */\n  tag_27\n  jump\t// in\ntag_94:\n    /* \"#utility.yul\":4203:4270   */\n  tag_95\n    /* \"#utility.yul\":4263:4269   */\n  dup3\n    /* \"#utility.yul\":4255:4261   */\n  dup3\n    /* \"#utility.yul\":4249:4253   */\n  dup6\n    /* \"#utility.yul\":4203:4270   */\n  tag_40\n  jump\t// in\ntag_95:\n    /* \"#utility.yul\":4297:4298   */\n  0x00\n    /* \"#utility.yul\":4321:4325   */\n  0x20\n    /* \"#utility.yul\":4308:4325   */\n  swap1\n  pop\n    /* \"#utility.yul\":4353:4355   */\n  0x1f\n    /* \"#utility.yul\":4345:4351   */\n  dup4\n    /* \"#utility.yul\":4342:4356   */\n  gt\n    /* \"#utility.yul\":4370:4371   */\n  0x01\n    /* \"#utility.yul\":4365:4983   */\n  dup2\n  eq\n  tag_97\n  jumpi\n    /* \"#utility.yul\":5027:5028   */\n  0x00\n    /* \"#utility.yul\":5044:5050   */\n  dup5\n    /* \"#utility.yul\":5041:5118   */\n  iszero\n  tag_98\n  jumpi\n    /* \"#utility.yul\":5093:5102   */\n  dup3\n    /* \"#utility.yul\":5088:5091   */\n  dup8\n    /* \"#utility.yul\":5084:5103   */\n  add\n    /* \"#utility.yul\":5078:5104   */\n  mload\n    /* \"#utility.yul\":5069:5104   */\n  swap1\n  pop\n    /* \"#utility.yul\":5041:5118   */\ntag_98:\n    /* \"#utility.yul\":5144:5211   */\n  tag_99\n    /* \"#utility.yul\":5204:5210   */\n  dup6\n    /* \"#utility.yul\":5197:5202   */\n  dup3\n    /* \"#utility.yul\":5144:5211   */\n  tag_43\n  jump\t// in\ntag_99:\n    /* \"#utility.yul\":5138:5142   */\n  dup7\n    /* \"#utility.yul\":5131:5212   */\n  sstore\n    /* \"#utility.yul\":5000:5222   */\n  pop\n    /* \"#utility.yul\":4335:5222   */\n  jump(tag_96)\n    /* \"#utility.yul\":4365:4983   */\ntag_97:\n    /* \"#utility.yul\":4417:4421   */\n  0x1f\n    /* \"#utility.yul\":4413:4422   */\n  not\n    /* \"#utility.yul\":4405:4411   */\n  dup5\n    /* \"#utility.yul\":4401:4423   */\n  and\n    /* \"#utility.yul\":4451:4488   */\n  tag_100\n    /* \"#utility.yul\":4483:4487   */\n  dup7\n    /* \"#utility.yul\":4451:4488   */\n  tag_28\n  jump\t// in\ntag_100:\n    /* \"#utility.yul\":4510:4511   */\n  0x00\n    /* \"#utility.yul\":4524:4732   */\ntag_101:\n    /* \"#utility.yul\":4538:4545   */\n  dup3\n    /* \"#utility.yul\":4535:4536   */\n  dup2\n    /* \"#utility.yul\":4532:4546   */\n  lt\n    /* \"#utility.yul\":4524:4732   */\n  iszero\n  tag_103\n  jumpi\n    /* \"#utility.yul\":4617:4626   */\n  dup5\n    /* \"#utility.yul\":4612:4615   */\n  dup10\n    /* \"#utility.yul\":4608:4627   */\n  add\n    /* \"#utility.yul\":4602:4628   */\n  mload\n    /* \"#utility.yul\":4594:4600   */\n  dup3\n    /* \"#utility.yul\":4587:4629   */\n  sstore\n    /* \"#utility.yul\":4668:4669   */\n  0x01\n    /* \"#utility.yul\":4660:4666   */\n  dup3\n    /* \"#utility.yul\":4656:4670   */\n  add\n    /* \"#utility.yul\":4646:4670   */\n  swap2\n  pop\n    /* \"#utility.yul\":4715:4717   */\n  0x20\n    /* \"#utility.yul\":4704:4713   */\n  dup6\n    /* \"#utility.yul\":4700:4718   */\n  add\n    /* \"#utility.yul\":4687:4718   */\n  swap5\n  pop\n    /* \"#utility.yul\":4561:4565   */\n  0x20\n    /* \"#utility.yul\":4558:4559   */\n  dup2\n    /* \"#utility.yul\":4554:4566   */\n  add\n    /* \"#utility.yul\":4549:4566   */\n  swap1\n  pop\n    /* \"#utility.yul\":4524:4732   */\n  jump(tag_101)\ntag_103:\n    /* \"#utility.yul\":4760:4766   */\n  dup7\n    /* \"#utility.yul\":4751:4758   */\n  dup4\n    /* \"#utility.yul\":4748:4767   */\n  lt\n    /* \"#utility.yul\":4745:4924   */\n  iszero\n  tag_104\n  jumpi\n    /* \"#utility.yul\":4818:4827   */\n  dup5\n    /* \"#utility.yul\":4813:4816   */\n  dup10\n    /* \"#utility.yul\":4809:4828   */\n  add\n    /* \"#utility.yul\":4803:4829   */\n  mload\n    /* \"#utility.yul\":4861:4909   */\n  tag_105\n    /* \"#utility.yul\":4903:4907   */\n  0x1f\n    /* \"#utility.yul\":4895:4901   */\n  dup10\n    /* \"#utility.yul\":4891:4908   */\n  and\n    /* \"#utility.yul\":4880:4889   */\n  dup3\n    /* \"#utility.yul\":4861:4909   */\n  tag_42\n  jump\t// in\ntag_105:\n    /* \"#utility.yul\":4853:4859   */\n  dup4\n    /* \"#utility.yul\":4846:4910   */\n  sstore\n    /* \"#utility.yul\":4768:4924   */\n  pop\n    /* \"#utility.yul\":4745:4924   */\ntag_104:\n    /* \"#utility.yul\":4970:4971   */\n  0x01\n    /* \"#utility.yul\":4966:4967   */\n  0x02\n    /* \"#utility.yul\":4958:4964   */\n  dup9\n    /* \"#utility.yul\":4954:4968   */\n  mul\n    /* \"#utility.yul\":4950:4972   */\n  add\n    /* \"#utility.yul\":4944:4948   */\n  dup9\n    /* \"#utility.yul\":4937:4973   */\n  sstore\n    /* \"#utility.yul\":4372:4983   */\n  pop\n  pop\n  pop\n    /* \"#utility.yul\":4335:5222   */\ntag_96:\n  pop\n    /* \"#utility.yul\":3925:5228   */\n  pop\n  pop\n  pop\n    /* \"#utility.yul\":3833:5228   */\n  pop\n  pop\n  jump\t// out\n    /* \"contracts/DegenToken.sol\":250:2607  contract DegenToken is ERC20, Ownable, ERC20Burnable {... */\ntag_21:\n  dataSize(sub_0)\n  dup1\n  dataOffset(sub_0)\n  0x00\n  codecopy\n  0x00\n  return\nstop\n\nsub_0: assembly {\n        /* \"contracts/DegenToken.sol\":250:2607  contract DegenToken is ERC20, Ownable, ERC20Burnable {... */\n      mstore(0x40, 0x80)\n      callvalue\n      dup1\n      iszero\n      tag_1\n      jumpi\n      0x00\n      dup1\n      revert\n    tag_1:\n      pop\n      jumpi(tag_2, lt(calldatasize, 0x04))\n      shr(0xe0, calldataload(0x00))\n      dup1\n      0x70a08231\n      gt\n      tag_26\n      jumpi\n      dup1\n      0xa457c2d7\n      gt\n      tag_27\n      jumpi\n      dup1\n      0xa457c2d7\n      eq\n      tag_20\n      jumpi\n      dup1\n      0xa69e894e\n      eq\n      tag_21\n      jumpi\n      dup1\n      0xa9059cbb\n      eq\n      tag_22\n      jumpi\n      dup1\n      0xbec3fa17\n      eq\n      tag_23\n      jumpi\n      dup1\n      0xdd62ed3e\n      eq\n      tag_24\n      jumpi\n      dup1\n      0xf2fde38b\n      eq\n      tag_25\n      jumpi\n      jump(tag_2)\n    tag_27:\n      dup1\n      0x70a08231\n      eq\n      tag_14\n      jumpi\n      dup1\n      0x715018a6\n      eq\n      tag_15\n      jumpi\n      dup1\n      0x79cc6790\n      eq\n      tag_16\n      jumpi\n      dup1\n      0x8da5cb5b\n      eq\n      tag_17\n      jumpi\n      dup1\n      0x95d89b41\n      eq\n      tag_18\n      jumpi\n      dup1\n      0xa00ddad1\n      eq\n      tag_19\n      jumpi\n      jump(tag_2)\n    tag_26:\n      dup1\n      0x3129e773\n      gt\n      tag_28\n      jumpi\n      dup1\n      0x3129e773\n      eq\n      tag_8\n      jumpi\n      dup1\n      0x313ce567\n      eq\n      tag_9\n      jumpi\n      dup1\n      0x39509351\n      eq\n      tag_10\n      jumpi\n      dup1\n      0x3ef49ff2\n      eq\n      tag_11\n      jumpi\n      dup1\n      0x42966c68\n      eq\n      tag_12\n      jumpi\n      dup1\n      0x67fbd289\n      eq\n      tag_13\n      jumpi\n      jump(tag_2)\n    tag_28:\n      dup1\n      0x06fdde03\n      eq\n      tag_3\n      jumpi\n      dup1\n      0x095ea7b3\n      eq\n      tag_4\n      jumpi\n      dup1\n      0x18160ddd\n      eq\n      tag_5\n      jumpi\n      dup1\n      0x1c26dc23\n      eq\n      tag_6\n      jumpi\n      dup1\n      0x23b872dd\n      eq\n      tag_7\n      jumpi\n    tag_2:\n      0x00\n      dup1\n      revert\n        /* \"@openzeppelin/contracts/token/ERC20/ERC20.sol\":2154:2252  function name() public view virtual override returns (string memory) {... */\n    tag_3:\n      tag_29\n      tag_30\n      jump\t// in\n    tag_29:\n      mload(0x40)\n      tag_31\n      swap2\n      swap1\n      tag_32\n      jump\t// in\n    tag_31:\n      mload(0x40)\n      dup1\n      swap2\n      sub\n      swap1\n      return\n        /* \"@openzeppelin/contracts/token/ERC20/ERC20.sol\":4431:4628  function approve(address spender, uint256 amount) public virtual override returns (bool) {... */\n    tag_4:\n      tag_33\n      0x04\n      dup1\n      calldatasize\n      sub\n      dup2\n      add\n      swap1\n      tag_34\n      swap2\n      swap1\n      tag_35\n      jump\t// in\n    tag_34:\n      tag_36\n      jump\t// in\n    tag_33:\n      mload(0x40)\n      tag_37\n      swap2\n      swap1\n      tag_38\n      jump\t// in\n    tag_37:\n      mload(0x40)\n      dup1\n      swap2\n      sub\n      swap1\n      return\n        /* \"@openzeppelin/contracts/token/ERC20/ERC20.sol\":3242:3348  function totalSupply() public view virtual override returns (uint256) {... */\n    tag_5:\n      tag_39\n      tag_40\n      jump\t// in\n    tag_39:\n      mload(0x40)\n      tag_41\n      swap2\n      swap1\n      tag_42\n      jump\t// in\n    tag_41:\n      mload(0x40)\n      dup1\n      swap2\n      sub\n      swap1\n      return\n        /* \"contracts/DegenToken.sol\":1301:1805  function redeemItem(uint256 itemId) public {... */\n    tag_6:\n      tag_43\n      0x04\n      dup1\n      calldatasize\n      sub\n      dup2\n      add\n      swap1\n      tag_44\n      swap2\n      swap1\n      tag_45\n      jump\t// in\n    tag_44:\n      tag_46\n      jump\t// in\n    tag_43:\n      stop\n        /* \"@openzeppelin/contracts/token/ERC20/ERC20.sol\":5190:5476  function transferFrom(... */\n    tag_7:\n      tag_47\n      0x04\n      dup1\n      calldatasize\n      sub\n      dup2\n      add\n      swap1\n      tag_48\n      swap2\n      swap1\n      tag_49\n      jump\t// in\n    tag_48:\n      tag_50\n      jump\t// in\n    tag_47:\n      mload(0x40)\n      tag_51\n      swap2\n      swap1\n      tag_38\n      jump\t// in\n    tag_51:\n      mload(0x40)\n      dup1\n      swap2\n      sub\n      swap1\n      return\n        /* \"contracts/DegenToken.sol\":2199:2476  function getItem(uint256 itemId) public view returns (uint, string memory, bool) {... */\n    tag_8:\n      tag_52\n      0x04\n      dup1\n      calldatasize\n      sub\n      dup2\n      add\n      swap1\n      tag_53\n      swap2\n      swap1\n      tag_45\n      jump\t// in\n    tag_53:\n      tag_54\n      jump\t// in\n    tag_52:\n      mload(0x40)\n      tag_55\n      swap4\n      swap3\n      swap2\n      swap1\n      tag_56\n      jump\t// in\n    tag_55:\n      mload(0x40)\n      dup1\n      swap2\n      sub\n      swap1\n      return\n        /* \"@openzeppelin/contracts/token/ERC20/ERC20.sol\":3091:3182  function decimals() public view virtual override returns (uint8) {... */\n    tag_9:\n      tag_57\n      tag_58\n      jump\t// in\n    tag_57:\n      mload(0x40)\n      tag_59\n      swap2\n      swap1\n      tag_60\n      jump\t// in\n    tag_59:\n      mload(0x40)\n      dup1\n      swap2\n      sub\n      swap1\n      return\n        /* \"@openzeppelin/contracts/token/ERC20/ERC20.sol\":5871:6105  function increaseAllowance(address spender, uint256 addedValue) public virtual returns (bool) {... */\n    tag_10:\n      tag_61\n      0x04\n      dup1\n      calldatasize\n      sub\n      dup2\n      add\n      swap1\n      tag_62\n      swap2\n      swap1\n      tag_35\n      jump\t// in\n    tag_62:\n      tag_63\n      jump\t// in\n    tag_61:\n      mload(0x40)\n      tag_64\n      swap2\n      swap1\n      tag_38\n      jump\t// in\n    tag_64:\n      mload(0x40)\n      dup1\n      swap2\n      sub\n      swap1\n      return\n        /* \"contracts/DegenToken.sol\":2506:2604  function displayItems() public view returns (Item[] memory) {... */\n    tag_11:\n      tag_65\n      tag_66\n      jump\t// in\n    tag_65:\n      mload(0x40)\n      tag_67\n      swap2\n      swap1\n      tag_68\n      jump\t// in\n    tag_67:\n      mload(0x40)\n      dup1\n      swap2\n      sub\n      swap1\n      return\n        /* \"@openzeppelin/contracts/token/ERC20/extensions/ERC20Burnable.sol\":578:667  function burn(uint256 amount) public virtual {... */\n    tag_12:\n      tag_69\n      0x04\n      dup1\n      calldatasize\n      sub\n      dup2\n      add\n      swap1\n      tag_70\n      swap2\n      swap1\n      tag_45\n      jump\t// in\n    tag_70:\n      tag_71\n      jump\t// in\n    tag_69:\n      stop\n        /* \"contracts/DegenToken.sol\":1977:2166  function destroyTokens(uint256 amount) public {... */\n    tag_13:\n      tag_72\n      0x04\n      dup1\n      calldatasize\n      sub\n      dup2\n      add\n      swap1\n      tag_73\n      swap2\n      swap1\n      tag_45\n      jump\t// in\n    tag_73:\n      tag_74\n      jump\t// in\n    tag_72:\n      stop\n        /* \"@openzeppelin/contracts/token/ERC20/ERC20.sol\":3406:3531  function balanceOf(address account) public view virtual override returns (uint256) {... */\n    tag_14:\n      tag_75\n      0x04\n      dup1\n      calldatasize\n      sub\n      dup2\n      add\n      swap1\n      tag_76\n      swap2\n      swap1\n      tag_77\n      jump\t// in\n    tag_76:\n      tag_78\n      jump\t// in\n    tag_75:\n      mload(0x40)\n      tag_79\n      swap2\n      swap1\n      tag_42\n      jump\t// in\n    tag_79:\n      mload(0x40)\n      dup1\n      swap2\n      sub\n      swap1\n      return\n        /* \"@openzeppelin/contracts/access/Ownable.sol\":1831:1932  function renounceOwnership() public virtual onlyOwner {... */\n    tag_15:\n      tag_80\n      tag_81\n      jump\t// in\n    tag_80:\n      stop\n        /* \"@openzeppelin/contracts/token/ERC20/extensions/ERC20Burnable.sol\":973:1134  function burnFrom(address account, uint256 amount) public virtual {... */\n    tag_16:\n      tag_82\n      0x04\n      dup1\n      calldatasize\n      sub\n      dup2\n      add\n      swap1\n      tag_83\n      swap2\n      swap1\n      tag_35\n      jump\t// in\n    tag_83:\n      tag_84\n      jump\t// in\n    tag_82:\n      stop\n        /* \"@openzeppelin/contracts/access/Ownable.sol\":1201:1286  function owner() public view virtual returns (address) {... */\n    tag_17:\n      tag_85\n      tag_86\n      jump\t// in\n    tag_85:\n      mload(0x40)\n      tag_87\n      swap2\n      swap1\n      tag_88\n      jump\t// in\n    tag_87:\n      mload(0x40)\n      dup1\n      swap2\n      sub\n      swap1\n      return\n        /* \"@openzeppelin/contracts/token/ERC20/ERC20.sol\":2365:2467  function symbol() public view virtual override returns (string memory) {... */\n    tag_18:\n      tag_89\n      tag_90\n      jump\t// in\n    tag_89:\n      mload(0x40)\n      tag_91\n      swap2\n      swap1\n      tag_32\n      jump\t// in\n    tag_91:\n      mload(0x40)\n      dup1\n      swap2\n      sub\n      swap1\n      return\n        /* \"contracts/DegenToken.sol\":1835:1949  function verifyBalance(address account) public view returns (uint256) {... */\n    tag_19:\n      tag_92\n      0x04\n      dup1\n      calldatasize\n      sub\n      dup2\n      add\n      swap1\n      tag_93\n      swap2\n      swap1\n      tag_77\n      jump\t// in\n    tag_93:\n      tag_94\n      jump\t// in\n    tag_92:\n      mload(0x40)\n      tag_95\n      swap2\n      swap1\n      tag_42\n      jump\t// in\n    tag_95:\n      mload(0x40)\n      dup1\n      swap2\n      sub\n      swap1\n      return\n        /* \"@openzeppelin/contracts/token/ERC20/ERC20.sol\":6592:7019  function decreaseAllowance(address spender, uint256 subtractedValue) public virtual returns (bool) {... */\n    tag_20:\n      tag_96\n      0x04\n      dup1\n      calldatasize\n      sub\n      dup2\n      add\n      swap1\n      tag_97\n      swap2\n      swap1\n      tag_35\n      jump\t// in\n    tag_97:\n      tag_98\n      jump\t// in\n    tag_96:\n      mload(0x40)\n      tag_99\n      swap2\n      swap1\n      tag_38\n      jump\t// in\n    tag_99:\n      mload(0x40)\n      dup1\n      swap2\n      sub\n      swap1\n      return\n        /* \"contracts/DegenToken.sol\":850:971  function createTokens(address destination, uint256 amount) public onlyOwner {... */\n    tag_21:\n      tag_100\n      0x04\n      dup1\n      calldatasize\n      sub\n      dup2\n      add\n      swap1\n      tag_101\n      swap2\n      swap1\n      tag_35\n      jump\t// in\n    tag_101:\n      tag_102\n      jump\t// in\n    tag_100:\n      stop\n        /* \"@openzeppelin/contracts/token/ERC20/ERC20.sol\":3727:3916  function transfer(address to, uint256 amount) public virtual override returns (bool) {... */\n    tag_22:\n      tag_103\n      0x04\n      dup1\n      calldatasize\n      sub\n      dup2\n      add\n      swap1\n      tag_104\n      swap2\n      swap1\n      tag_35\n      jump\t// in\n    tag_104:\n      tag_105\n      jump\t// in\n    tag_103:\n      mload(0x40)\n      tag_106\n      swap2\n      swap1\n      tag_38\n      jump\t// in\n    tag_106:\n      mload(0x40)\n      dup1\n      swap2\n      sub\n      swap1\n      return\n        /* \"contracts/DegenToken.sol\":1003:1273  function transferTokens(address destination, uint256 amount) public returns (bool) {... */\n    tag_23:\n      tag_107\n      0x04\n      dup1\n      calldatasize\n      sub\n      dup2\n      add\n      swap1\n      tag_108\n      swap2\n      swap1\n      tag_35\n      jump\t// in\n    tag_108:\n      tag_109\n      jump\t// in\n    tag_107:\n      mload(0x40)\n      tag_110\n      swap2\n      swap1\n      tag_38\n      jump\t// in\n    tag_110:\n      mload(0x40)\n      dup1\n      swap2\n      sub\n      swap1\n      return\n        /* \"@openzeppelin/contracts/token/ERC20/ERC20.sol\":3974:4123  function allowance(address owner, address spender) public view virtual override returns (uint256) {... */\n    tag_24:\n      tag_111\n      0x04\n      dup1\n      calldatasize\n      sub\n      dup2\n      add\n      swap1\n      tag_112\n      swap2\n      swap1\n      tag_113\n      jump\t// in\n    tag_112:\n      tag_114\n      jump\t// in\n    tag_111:\n      mload(0x40)\n      tag_115\n      swap2\n      swap1\n      tag_42\n      jump\t// in\n    tag_115:\n      mload(0x40)\n      dup1\n      swap2\n      sub\n      swap1\n      return\n        /* \"@openzeppelin/contracts/access/Ownable.sol\":2081:2279  function transferOwnership(address newOwner) public virtual onlyOwner {... */\n    tag_25:\n      tag_116\n      0x04\n      dup1\n      calldatasize\n      sub\n      dup2\n      add\n      swap1\n      tag_117\n      swap2\n      swap1\n      tag_77\n      jump\t// in\n    tag_117:\n      tag_118\n      jump\t// in\n    tag_116:\n      stop\n        /* \"@openzeppelin/contracts/token/ERC20/ERC20.sol\":2154:2252  function name() public view virtual override returns (string memory) {... */\n    tag_30:\n        /* \"@openzeppelin/contracts/token/ERC20/ERC20.sol\":2208:2221  string memory */\n      0x60\n        /* \"@openzeppelin/contracts/token/ERC20/ERC20.sol\":2240:2245  _name */\n      0x03\n        /* \"@openzeppelin/contracts/token/ERC20/ERC20.sol\":2233:2245  return _name */\n      dup1\n      sload\n      tag_120\n      swap1\n      tag_121\n      jump\t// in\n    tag_120:\n      dup1\n      0x1f\n      add\n      0x20\n      dup1\n      swap2\n      div\n      mul\n      0x20\n      add\n      mload(0x40)\n      swap1\n      dup2\n      add\n      0x40\n      mstore\n      dup1\n      swap3\n      swap2\n      swap1\n      dup2\n      dup2\n      mstore\n      0x20\n      add\n      dup3\n      dup1\n      sload\n      tag_122\n      swap1\n      tag_121\n      jump\t// in\n    tag_122:\n      dup1\n      iszero\n      tag_123\n      jumpi\n      dup1\n      0x1f\n      lt\n      tag_124\n      jumpi\n      0x0100\n      dup1\n      dup4\n      sload\n      div\n      mul\n      dup4\n      mstore\n      swap2\n      0x20\n      add\n      swap2\n      jump(tag_123)\n    tag_124:\n      dup3\n      add\n      swap2\n      swap1\n      0x00\n      mstore\n      keccak256(0x00, 0x20)\n      swap1\n    tag_125:\n      dup2\n      sload\n      dup2\n      mstore\n      swap1\n      0x01\n      add\n      swap1\n      0x20\n      add\n      dup1\n      dup4\n      gt\n      tag_125\n      jumpi\n      dup3\n      swap1\n      sub\n      0x1f\n      and\n      dup3\n      add\n      swap2\n    tag_123:\n      pop\n      pop\n      pop\n      pop\n      pop\n      swap1\n      pop\n        /* \"@openzeppelin/contracts/token/ERC20/ERC20.sol\":2154:2252  function name() public view virtual override returns (string memory) {... */\n      swap1\n      jump\t// out\n        /* \"@openzeppelin/contracts/token/ERC20/ERC20.sol\":4431:4628  function approve(address spender, uint256 amount) public virtual override returns (bool) {... */\n    tag_36:\n        /* \"@openzeppelin/contracts/token/ERC20/ERC20.sol\":4514:4518  bool */\n      0x00\n        /* \"@openzeppelin/contracts/token/ERC20/ERC20.sol\":4530:4543  address owner */\n      dup1\n        /* \"@openzeppelin/contracts/token/ERC20/ERC20.sol\":4546:4558  _msgSender() */\n      tag_127\n        /* \"@openzeppelin/contracts/token/ERC20/ERC20.sol\":4546:4556  _msgSender */\n      tag_128\n        /* \"@openzeppelin/contracts/token/ERC20/ERC20.sol\":4546:4558  _msgSender() */\n      jump\t// in\n    tag_127:\n        /* \"@openzeppelin/contracts/token/ERC20/ERC20.sol\":4530:4558  address owner = _msgSender() */\n      swap1\n      pop\n        /* \"@openzeppelin/contracts/token/ERC20/ERC20.sol\":4568:4600  _approve(owner, spender, amount) */\n      tag_129\n        /* \"@openzeppelin/contracts/token/ERC20/ERC20.sol\":4577:4582  owner */\n      dup2\n        /* \"@openzeppelin/contracts/token/ERC20/ERC20.sol\":4584:4591  spender */\n      dup6\n        /* \"@openzeppelin/contracts/token/ERC20/ERC20.sol\":4593:4599  amount */\n      dup6\n        /* \"@openzeppelin/contracts/token/ERC20/ERC20.sol\":4568:4576  _approve */\n      tag_130\n        /* \"@openzeppelin/contracts/token/ERC20/ERC20.sol\":4568:4600  _approve(owner, spender, amount) */\n      jump\t// in\n    tag_129:\n        /* \"@openzeppelin/contracts/token/ERC20/ERC20.sol\":4617:4621  true */\n      0x01\n        /* \"@openzeppelin/contracts/token/ERC20/ERC20.sol\":4610:4621  return true */\n      swap2\n      pop\n      pop\n        /* \"@openzeppelin/contracts/token/ERC20/ERC20.sol\":4431:4628  function approve(address spender, uint256 amount) public virtual override returns (bool) {... */\n      swap3\n      swap2\n      pop\n      pop\n      jump\t// out\n        /* \"@openzeppelin/contracts/token/ERC20/ERC20.sol\":3242:3348  function totalSupply() public view virtual override returns (uint256) {... */\n    tag_40:\n        /* \"@openzeppelin/contracts/token/ERC20/ERC20.sol\":3303:3310  uint256 */\n      0x00\n        /* \"@openzeppelin/contracts/token/ERC20/ERC20.sol\":3329:3341  _totalSupply */\n      sload(0x02)\n        /* \"@openzeppelin/contracts/token/ERC20/ERC20.sol\":3322:3341  return _totalSupply */\n      swap1\n      pop\n        /* \"@openzeppelin/contracts/token/ERC20/ERC20.sol\":3242:3348  function totalSupply() public view virtual override returns (uint256) {... */\n      swap1\n      jump\t// out\n        /* \"contracts/DegenToken.sol\":1301:1805  function redeemItem(uint256 itemId) public {... */\n    tag_46:\n        /* \"contracts/DegenToken.sol\":1372:1384  itemsCatalog */\n      0x06\n        /* \"contracts/DegenToken.sol\":1372:1391  itemsCatalog.length */\n      dup1\n      sload\n      swap1\n      pop\n        /* \"contracts/DegenToken.sol\":1363:1369  itemId */\n      dup2\n        /* \"contracts/DegenToken.sol\":1363:1391  itemId < itemsCatalog.length */\n      lt\n        /* \"contracts/DegenToken.sol\":1355:1423  require(itemId < itemsCatalog.length, \"DegenToken: invalid item ID\") */\n      tag_133\n      jumpi\n      mload(0x40)\n      0x08c379a000000000000000000000000000000000000000000000000000000000\n      dup2\n      mstore\n      0x04\n      add\n      tag_134\n      swap1\n      tag_135\n      jump\t// in\n    tag_134:\n      mload(0x40)\n      dup1\n      swap2\n      sub\n      swap1\n      revert\n    tag_133:\n        /* \"contracts/DegenToken.sol\":1434:1451  Item storage item */\n      0x00\n        /* \"contracts/DegenToken.sol\":1454:1466  itemsCatalog */\n      0x06\n        /* \"contracts/DegenToken.sol\":1467:1473  itemId */\n      dup3\n        /* \"contracts/DegenToken.sol\":1454:1474  itemsCatalog[itemId] */\n      dup2\n      sload\n      dup2\n      lt\n      tag_136\n      jumpi\n      tag_137\n      tag_138\n      jump\t// in\n    tag_137:\n    tag_136:\n      swap1\n      0x00\n      mstore\n      keccak256(0x00, 0x20)\n      swap1\n      0x03\n      mul\n      add\n        /* \"contracts/DegenToken.sol\":1434:1474  Item storage item = itemsCatalog[itemId] */\n      swap1\n      pop\n        /* \"contracts/DegenToken.sol\":1520:1524  item */\n      dup1\n        /* \"contracts/DegenToken.sol\":1520:1533  item.itemCost */\n      0x00\n      add\n      sload\n        /* \"contracts/DegenToken.sol\":1493:1516  balanceOf(_msgSender()) */\n      tag_140\n        /* \"contracts/DegenToken.sol\":1503:1515  _msgSender() */\n      tag_141\n        /* \"contracts/DegenToken.sol\":1503:1513  _msgSender */\n      tag_128\n        /* \"contracts/DegenToken.sol\":1503:1515  _msgSender() */\n      jump\t// in\n    tag_141:\n        /* \"contracts/DegenToken.sol\":1493:1502  balanceOf */\n      tag_78\n        /* \"contracts/DegenToken.sol\":1493:1516  balanceOf(_msgSender()) */\n      jump\t// in\n    tag_140:\n        /* \"contracts/DegenToken.sol\":1493:1533  balanceOf(_msgSender()) >= item.itemCost */\n      lt\n      iszero\n        /* \"contracts/DegenToken.sol\":1485:1585  require(balanceOf(_msgSender()) >= item.itemCost, \"DegenToken: insufficient balance to redeem item\") */\n      tag_142\n      jumpi\n      mload(0x40)\n      0x08c379a000000000000000000000000000000000000000000000000000000000\n      dup2\n      mstore\n      0x04\n      add\n      tag_143\n      swap1\n      tag_144\n      jump\t// in\n    tag_143:\n      mload(0x40)\n      dup1\n      swap2\n      sub\n      swap1\n      revert\n    tag_142:\n        /* \"contracts/DegenToken.sol\":1605:1609  item */\n      dup1\n        /* \"contracts/DegenToken.sol\":1605:1618  item.redeemed */\n      0x02\n      add\n      0x00\n      swap1\n      sload\n      swap1\n      0x0100\n      exp\n      swap1\n      div\n      0xff\n      and\n        /* \"contracts/DegenToken.sol\":1604:1618  !item.redeemed */\n      iszero\n        /* \"contracts/DegenToken.sol\":1596:1656  require(!item.redeemed, \"DegenToken: item already redeemed\") */\n      tag_145\n      jumpi\n      mload(0x40)\n      0x08c379a000000000000000000000000000000000000000000000000000000000\n      dup2\n      mstore\n      0x04\n      add\n      tag_146\n      swap1\n      tag_147\n      jump\t// in\n    tag_146:\n      mload(0x40)\n      dup1\n      swap2\n      sub\n      swap1\n      revert\n    tag_145:\n        /* \"contracts/DegenToken.sol\":1669:1703  _burn(_msgSender(), item.itemCost) */\n      tag_148\n        /* \"contracts/DegenToken.sol\":1675:1687  _msgSender() */\n      tag_149\n        /* \"contracts/DegenToken.sol\":1675:1685  _msgSender */\n      tag_128\n        /* \"contracts/DegenToken.sol\":1675:1687  _msgSender() */\n      jump\t// in\n    tag_149:\n        /* \"contracts/DegenToken.sol\":1689:1693  item */\n      dup3\n        /* \"contracts/DegenToken.sol\":1689:1702  item.itemCost */\n      0x00\n      add\n      sload\n        /* \"contracts/DegenToken.sol\":1669:1674  _burn */\n      tag_150\n        /* \"contracts/DegenToken.sol\":1669:1703  _burn(_msgSender(), item.itemCost) */\n      jump\t// in\n    tag_148:\n        /* \"contracts/DegenToken.sol\":1730:1734  true */\n      0x01\n        /* \"contracts/DegenToken.sol\":1714:1718  item */\n      dup2\n        /* \"contracts/DegenToken.sol\":1714:1727  item.redeemed */\n      0x02\n      add\n      0x00\n        /* \"contracts/DegenToken.sol\":1714:1734  item.redeemed = true */\n      0x0100\n      exp\n      dup2\n      sload\n      dup2\n      0xff\n      mul\n      not\n      and\n      swap1\n      dup4\n      iszero\n      iszero\n      mul\n      or\n      swap1\n      sstore\n      pop\n        /* \"contracts/DegenToken.sol\":1765:1777  _msgSender() */\n      tag_151\n        /* \"contracts/DegenToken.sol\":1765:1775  _msgSender */\n      tag_128\n        /* \"contracts/DegenToken.sol\":1765:1777  _msgSender() */\n      jump\t// in\n    tag_151:\n        /* \"contracts/DegenToken.sol\":1752:1797  ItemRedeemed(_msgSender(), itemId, item.item) */\n      0xffffffffffffffffffffffffffffffffffffffff\n      and\n      0x2119bf1b086ef3aa2847a6312b3dcd27e073aa5745352e1c7c8f1fb442e762f3\n        /* \"contracts/DegenToken.sol\":1779:1785  itemId */\n      dup4\n        /* \"contracts/DegenToken.sol\":1787:1791  item */\n      dup4\n        /* \"contracts/DegenToken.sol\":1787:1796  item.item */\n      0x01\n      add\n        /* \"contracts/DegenToken.sol\":1752:1797  ItemRedeemed(_msgSender(), itemId, item.item) */\n      mload(0x40)\n      tag_152\n      swap3\n      swap2\n      swap1\n      tag_153\n      jump\t// in\n    tag_152:\n      mload(0x40)\n      dup1\n      swap2\n      sub\n      swap1\n      log2\n        /* \"contracts/DegenToken.sol\":1344:1805  {... */\n      pop\n        /* \"contracts/DegenToken.sol\":1301:1805  function redeemItem(uint256 itemId) public {... */\n      pop\n      jump\t// out\n        /* \"@openzeppelin/contracts/token/ERC20/ERC20.sol\":5190:5476  function transferFrom(... */\n    tag_50:\n        /* \"@openzeppelin/contracts/token/ERC20/ERC20.sol\":5317:5321  bool */\n      0x00\n        /* \"@openzeppelin/contracts/token/ERC20/ERC20.sol\":5333:5348  address spender */\n      dup1\n        /* \"@openzeppelin/contracts/token/ERC20/ERC20.sol\":5351:5363  _msgSender() */\n      tag_155\n        /* \"@openzeppelin/contracts/token/ERC20/ERC20.sol\":5351:5361  _msgSender */\n      tag_128\n        /* \"@openzeppelin/contracts/token/ERC20/ERC20.sol\":5351:5363  _msgSender() */\n      jump\t// in\n    tag_155:\n        /* \"@openzeppelin/contracts/token/ERC20/ERC20.sol\":5333:5363  address spender = _msgSender() */\n      swap1\n      pop\n        /* \"@openzeppelin/contracts/token/ERC20/ERC20.sol\":5373:5411  _spendAllowance(from, spender, amount) */\n      tag_156\n        /* \"@openzeppelin/contracts/token/ERC20/ERC20.sol\":5389:5393  from */\n      dup6\n        /* \"@openzeppelin/contracts/token/ERC20/ERC20.sol\":5395:5402  spender */\n      dup3\n        /* \"@openzeppelin/contracts/token/ERC20/ERC20.sol\":5404:5410  amount */\n      dup6\n        /* \"@openzeppelin/contracts/token/ERC20/ERC20.sol\":5373:5388  _spendAllowance */\n      tag_157\n        /* \"@openzeppelin/contracts/token/ERC20/ERC20.sol\":5373:5411  _spendAllowance(from, spender, amount) */\n      jump\t// in\n    tag_156:\n        /* \"@openzeppelin/contracts/token/ERC20/ERC20.sol\":5421:5448  _transfer(from, to, amount) */\n      tag_158\n        /* \"@openzeppelin/contracts/token/ERC20/ERC20.sol\":5431:5435  from */\n      dup6\n        /* \"@openzeppelin/contracts/token/ERC20/ERC20.sol\":5437:5439  to */\n      dup6\n        /* \"@openzeppelin/contracts/token/ERC20/ERC20.sol\":5441:5447  amount */\n      dup6\n        /* \"@openzeppelin/contracts/token/ERC20/ERC20.sol\":5421:5430  _transfer */\n      tag_159\n        /* \"@openzeppelin/contracts/token/ERC20/ERC20.sol\":5421:5448  _transfer(from, to, amount) */\n      jump\t// in\n    tag_158:\n        /* \"@openzeppelin/contracts/token/ERC20/ERC20.sol\":5465:5469  true */\n      0x01\n        /* \"@openzeppelin/contracts/token/ERC20/ERC20.sol\":5458:5469  return true */\n      swap2\n      pop\n      pop\n        /* \"@openzeppelin/contracts/token/ERC20/ERC20.sol\":5190:5476  function transferFrom(... */\n      swap4\n      swap3\n      pop\n      pop\n      pop\n      jump\t// out\n        /* \"contracts/DegenToken.sol\":2199:2476  function getItem(uint256 itemId) public view returns (uint, string memory, bool) {... */\n    tag_54:\n        /* \"contracts/DegenToken.sol\":2253:2257  uint */\n      0x00\n        /* \"contracts/DegenToken.sol\":2259:2272  string memory */\n      0x60\n        /* \"contracts/DegenToken.sol\":2274:2278  bool */\n      0x00\n        /* \"contracts/DegenToken.sol\":2308:2320  itemsCatalog */\n      0x06\n        /* \"contracts/DegenToken.sol\":2308:2327  itemsCatalog.length */\n      dup1\n      sload\n      swap1\n      pop\n        /* \"contracts/DegenToken.sol\":2299:2305  itemId */\n      dup5\n        /* \"contracts/DegenToken.sol\":2299:2327  itemId < itemsCatalog.length */\n      lt\n        /* \"contracts/DegenToken.sol\":2291:2359  require(itemId < itemsCatalog.length, \"DegenToken: invalid item ID\") */\n      tag_161\n      jumpi\n      mload(0x40)\n      0x08c379a000000000000000000000000000000000000000000000000000000000\n      dup2\n      mstore\n      0x04\n      add\n      tag_162\n      swap1\n      tag_135\n      jump\t// in\n    tag_162:\n      mload(0x40)\n      dup1\n      swap2\n      sub\n      swap1\n      revert\n    tag_161:\n        /* \"contracts/DegenToken.sol\":2370:2386  Item memory item */\n      0x00\n        /* \"contracts/DegenToken.sol\":2389:2401  itemsCatalog */\n      0x06\n        /* \"contracts/DegenToken.sol\":2402:2408  itemId */\n      dup6\n        /* \"contracts/DegenToken.sol\":2389:2409  itemsCatalog[itemId] */\n      dup2\n      sload\n      dup2\n      lt\n      tag_163\n      jumpi\n      tag_164\n      tag_138\n      jump\t// in\n    tag_164:\n    tag_163:\n      swap1\n      0x00\n      mstore\n      keccak256(0x00, 0x20)\n      swap1\n      0x03\n      mul\n      add\n        /* \"contracts/DegenToken.sol\":2370:2409  Item memory item = itemsCatalog[itemId] */\n      mload(0x40)\n      dup1\n      0x60\n      add\n      0x40\n      mstore\n      swap1\n      dup2\n      0x00\n      dup3\n      add\n      sload\n      dup2\n      mstore\n      0x20\n      add\n      0x01\n      dup3\n      add\n      dup1\n      sload\n      tag_166\n      swap1\n      tag_121\n      jump\t// in\n    tag_166:\n      dup1\n      0x1f\n      add\n      0x20\n      dup1\n      swap2\n      div\n      mul\n      0x20\n      add\n      mload(0x40)\n      swap1\n      dup2\n      add\n      0x40\n      mstore\n      dup1\n      swap3\n      swap2\n      swap1\n      dup2\n      dup2\n      mstore\n      0x20\n      add\n      dup3\n      dup1\n      sload\n      tag_167\n      swap1\n      tag_121\n      jump\t// in\n    tag_167:\n      dup1\n      iszero\n      tag_168\n      jumpi\n      dup1\n      0x1f\n      lt\n      tag_169\n      jumpi\n      0x0100\n      dup1\n      dup4\n      sload\n      div\n      mul\n      dup4\n      mstore\n      swap2\n      0x20\n      add\n      swap2\n      jump(tag_168)\n    tag_169:\n      dup3\n      add\n      swap2\n      swap1\n      0x00\n      mstore\n      keccak256(0x00, 0x20)\n      swap1\n    tag_170:\n      dup2\n      sload\n      dup2\n      mstore\n      swap1\n      0x01\n      add\n      swap1\n      0x20\n      add\n      dup1\n      dup4\n      gt\n      tag_170\n      jumpi\n      dup3\n      swap1\n      sub\n      0x1f\n      and\n      dup3\n      add\n      swap2\n    tag_168:\n      pop\n      pop\n      pop\n      pop\n      pop\n      dup2\n      mstore\n      0x20\n      add\n      0x02\n      dup3\n      add\n      0x00\n      swap1\n      sload\n      swap1\n      0x0100\n      exp\n      swap1\n      div\n      0xff\n      and\n      iszero\n      iszero\n      iszero\n      iszero\n      dup2\n      mstore\n      pop\n      pop\n      swap1\n      pop\n        /* \"contracts/DegenToken.sol\":2428:2432  item */\n      dup1\n        /* \"contracts/DegenToken.sol\":2428:2441  item.itemCost */\n      0x00\n      add\n      mload\n        /* \"contracts/DegenToken.sol\":2443:2447  item */\n      dup2\n        /* \"contracts/DegenToken.sol\":2443:2452  item.item */\n      0x20\n      add\n      mload\n        /* \"contracts/DegenToken.sol\":2454:2458  item */\n      dup3\n        /* \"contracts/DegenToken.sol\":2454:2467  item.redeemed */\n      0x40\n      add\n      mload\n        /* \"contracts/DegenToken.sol\":2420:2468  return (item.itemCost, item.item, item.redeemed) */\n      swap4\n      pop\n      swap4\n      pop\n      swap4\n      pop\n      pop\n        /* \"contracts/DegenToken.sol\":2199:2476  function getItem(uint256 itemId) public view returns (uint, string memory, bool) {... */\n      swap2\n      swap4\n      swap1\n      swap3\n      pop\n      jump\t// out\n        /* \"@openzeppelin/contracts/token/ERC20/ERC20.sol\":3091:3182  function decimals() public view virtual override returns (uint8) {... */\n    tag_58:\n        /* \"@openzeppelin/contracts/token/ERC20/ERC20.sol\":3149:3154  uint8 */\n      0x00\n        /* \"@openzeppelin/contracts/token/ERC20/ERC20.sol\":3173:3175  18 */\n      0x12\n        /* \"@openzeppelin/contracts/token/ERC20/ERC20.sol\":3166:3175  return 18 */\n      swap1\n      pop\n        /* \"@openzeppelin/contracts/token/ERC20/ERC20.sol\":3091:3182  function decimals() public view virtual override returns (uint8) {... */\n      swap1\n      jump\t// out\n        /* \"@openzeppelin/contracts/token/ERC20/ERC20.sol\":5871:6105  function increaseAllowance(address spender, uint256 addedValue) public virtual returns (bool) {... */\n    tag_63:\n        /* \"@openzeppelin/contracts/token/ERC20/ERC20.sol\":5959:5963  bool */\n      0x00\n        /* \"@openzeppelin/contracts/token/ERC20/ERC20.sol\":5975:5988  address owner */\n      dup1\n        /* \"@openzeppelin/contracts/token/ERC20/ERC20.sol\":5991:6003  _msgSender() */\n      tag_173\n        /* \"@openzeppelin/contracts/token/ERC20/ERC20.sol\":5991:6001  _msgSender */\n      tag_128\n        /* \"@openzeppelin/contracts/token/ERC20/ERC20.sol\":5991:6003  _msgSender() */\n      jump\t// in\n    tag_173:\n        /* \"@openzeppelin/contracts/token/ERC20/ERC20.sol\":5975:6003  address owner = _msgSender() */\n      swap1\n      pop\n        /* \"@openzeppelin/contracts/token/ERC20/ERC20.sol\":6013:6077  _approve(owner, spender, allowance(owner, spender) + addedValue) */\n      tag_174\n        /* \"@openzeppelin/contracts/token/ERC20/ERC20.sol\":6022:6027  owner */\n      dup2\n        /* \"@openzeppelin/contracts/token/ERC20/ERC20.sol\":6029:6036  spender */\n      dup6\n        /* \"@openzeppelin/contracts/token/ERC20/ERC20.sol\":6066:6076  addedValue */\n      dup6\n        /* \"@openzeppelin/contracts/token/ERC20/ERC20.sol\":6038:6063  allowance(owner, spender) */\n      tag_175\n        /* \"@openzeppelin/contracts/token/ERC20/ERC20.sol\":6048:6053  owner */\n      dup6\n        /* \"@openzeppelin/contracts/token/ERC20/ERC20.sol\":6055:6062  spender */\n      dup10\n        /* \"@openzeppelin/contracts/token/ERC20/ERC20.sol\":6038:6047  allowance */\n      tag_114\n        /* \"@openzeppelin/contracts/token/ERC20/ERC20.sol\":6038:6063  allowance(owner, spender) */\n      jump\t// in\n    tag_175:\n        /* \"@openzeppelin/contracts/token/ERC20/ERC20.sol\":6038:6076  allowance(owner, spender) + addedValue */\n      tag_176\n      swap2\n      swap1\n      tag_177\n      jump\t// in\n    tag_176:\n        /* \"@openzeppelin/contracts/token/ERC20/ERC20.sol\":6013:6021  _approve */\n      tag_130\n        /* \"@openzeppelin/contracts/token/ERC20/ERC20.sol\":6013:6077  _approve(owner, spender, allowance(owner, spender) + addedValue) */\n      jump\t// in\n    tag_174:\n        /* \"@openzeppelin/contracts/token/ERC20/ERC20.sol\":6094:6098  true */\n      0x01\n        /* \"@openzeppelin/contracts/token/ERC20/ERC20.sol\":6087:6098  return true */\n      swap2\n      pop\n      pop\n        /* \"@openzeppelin/contracts/token/ERC20/ERC20.sol\":5871:6105  function increaseAllowance(address spender, uint256 addedValue) public virtual returns (bool) {... */\n      swap3\n      swap2\n      pop\n      pop\n      jump\t// out\n        /* \"contracts/DegenToken.sol\":2506:2604  function displayItems() public view returns (Item[] memory) {... */\n    tag_66:\n        /* \"contracts/DegenToken.sol\":2551:2564  Item[] memory */\n      0x60\n        /* \"contracts/DegenToken.sol\":2584:2596  itemsCatalog */\n      0x06\n        /* \"contracts/DegenToken.sol\":2577:2596  return itemsCatalog */\n      dup1\n      sload\n      dup1\n      0x20\n      mul\n      0x20\n      add\n      mload(0x40)\n      swap1\n      dup2\n      add\n      0x40\n      mstore\n      dup1\n      swap3\n      swap2\n      swap1\n      dup2\n      dup2\n      mstore\n      0x20\n      add\n      0x00\n      swap1\n    tag_179:\n      dup3\n      dup3\n      lt\n      iszero\n      tag_180\n      jumpi\n      dup4\n      dup3\n      swap1\n      0x00\n      mstore\n      keccak256(0x00, 0x20)\n      swap1\n      0x03\n      mul\n      add\n      mload(0x40)\n      dup1\n      0x60\n      add\n      0x40\n      mstore\n      swap1\n      dup2\n      0x00\n      dup3\n      add\n      sload\n      dup2\n      mstore\n      0x20\n      add\n      0x01\n      dup3\n      add\n      dup1\n      sload\n      tag_182\n      swap1\n      tag_121\n      jump\t// in\n    tag_182:\n      dup1\n      0x1f\n      add\n      0x20\n      dup1\n      swap2\n      div\n      mul\n      0x20\n      add\n      mload(0x40)\n      swap1\n      dup2\n      add\n      0x40\n      mstore\n      dup1\n      swap3\n      swap2\n      swap1\n      dup2\n      dup2\n      mstore\n      0x20\n      add\n      dup3\n      dup1\n      sload\n      tag_183\n      swap1\n      tag_121\n      jump\t// in\n    tag_183:\n      dup1\n      iszero\n      tag_184\n      jumpi\n      dup1\n      0x1f\n      lt\n      tag_185\n      jumpi\n      0x0100\n      dup1\n      dup4\n      sload\n      div\n      mul\n      dup4\n      mstore\n      swap2\n      0x20\n      add\n      swap2\n      jump(tag_184)\n    tag_185:\n      dup3\n      add\n      swap2\n      swap1\n      0x00\n      mstore\n      keccak256(0x00, 0x20)\n      swap1\n    tag_186:\n      dup2\n      sload\n      dup2\n      mstore\n      swap1\n      0x01\n      add\n      swap1\n      0x20\n      add\n      dup1\n      dup4\n      gt\n      tag_186\n      jumpi\n      dup3\n      swap1\n      sub\n      0x1f\n      and\n      dup3\n      add\n      swap2\n    tag_184:\n      pop\n      pop\n      pop\n      pop\n      pop\n      dup2\n      mstore\n      0x20\n      add\n      0x02\n      dup3\n      add\n      0x00\n      swap1\n      sload\n      swap1\n      0x0100\n      exp\n      swap1\n      div\n      0xff\n      and\n      iszero\n      iszero\n      iszero\n      iszero\n      dup2\n      mstore\n      pop\n      pop\n      dup2\n      mstore\n      0x20\n      add\n      swap1\n      0x01\n      add\n      swap1\n      jump(tag_179)\n    tag_180:\n      pop\n      pop\n      pop\n      pop\n      swap1\n      pop\n        /* \"contracts/DegenToken.sol\":2506:2604  function displayItems() public view returns (Item[] memory) {... */\n      swap1\n      jump\t// out\n        /* \"@openzeppelin/contracts/token/ERC20/extensions/ERC20Burnable.sol\":578:667  function burn(uint256 amount) public virtual {... */\n    tag_71:\n        /* \"@openzeppelin/contracts/token/ERC20/extensions/ERC20Burnable.sol\":633:660  _burn(_msgSender(), amount) */\n      tag_188\n        /* \"@openzeppelin/contracts/token/ERC20/extensions/ERC20Burnable.sol\":639:651  _msgSender() */\n      tag_189\n        /* \"@openzeppelin/contracts/token/ERC20/extensions/ERC20Burnable.sol\":639:649  _msgSender */\n      tag_128\n        /* \"@openzeppelin/contracts/token/ERC20/extensions/ERC20Burnable.sol\":639:651  _msgSender() */\n      jump\t// in\n    tag_189:\n        /* \"@openzeppelin/contracts/token/ERC20/extensions/ERC20Burnable.sol\":653:659  amount */\n      dup3\n        /* \"@openzeppelin/contracts/token/ERC20/extensions/ERC20Burnable.sol\":633:638  _burn */\n      tag_150\n        /* \"@openzeppelin/contracts/token/ERC20/extensions/ERC20Burnable.sol\":633:660  _burn(_msgSender(), amount) */\n      jump\t// in\n    tag_188:\n        /* \"@openzeppelin/contracts/token/ERC20/extensions/ERC20Burnable.sol\":578:667  function burn(uint256 amount) public virtual {... */\n      pop\n      jump\t// out\n        /* \"contracts/DegenToken.sol\":1977:2166  function destroyTokens(uint256 amount) public {... */\n    tag_74:\n        /* \"contracts/DegenToken.sol\":2069:2075  amount */\n      dup1\n        /* \"contracts/DegenToken.sol\":2042:2065  balanceOf(_msgSender()) */\n      tag_191\n        /* \"contracts/DegenToken.sol\":2052:2064  _msgSender() */\n      tag_192\n        /* \"contracts/DegenToken.sol\":2052:2062  _msgSender */\n      tag_128\n        /* \"contracts/DegenToken.sol\":2052:2064  _msgSender() */\n      jump\t// in\n    tag_192:\n        /* \"contracts/DegenToken.sol\":2042:2051  balanceOf */\n      tag_78\n        /* \"contracts/DegenToken.sol\":2042:2065  balanceOf(_msgSender()) */\n      jump\t// in\n    tag_191:\n        /* \"contracts/DegenToken.sol\":2042:2075  balanceOf(_msgSender()) >= amount */\n      lt\n      iszero\n        /* \"contracts/DegenToken.sol\":2034:2120  require(balanceOf(_msgSender()) >= amount, \"DegenToken: insufficient balance to burn\") */\n      tag_193\n      jumpi\n      mload(0x40)\n      0x08c379a000000000000000000000000000000000000000000000000000000000\n      dup2\n      mstore\n      0x04\n      add\n      tag_194\n      swap1\n      tag_195\n      jump\t// in\n    tag_194:\n      mload(0x40)\n      dup1\n      swap2\n      sub\n      swap1\n      revert\n    tag_193:\n        /* \"contracts/DegenToken.sol\":2131:2158  _burn(_msgSender(), amount) */\n      tag_196\n        /* \"contracts/DegenToken.sol\":2137:2149  _msgSender() */\n      tag_197\n        /* \"contracts/DegenToken.sol\":2137:2147  _msgSender */\n      tag_128\n        /* \"contracts/DegenToken.sol\":2137:2149  _msgSender() */\n      jump\t// in\n    tag_197:\n        /* \"contracts/DegenToken.sol\":2151:2157  amount */\n      dup3\n        /* \"contracts/DegenToken.sol\":2131:2136  _burn */\n      tag_150\n        /* \"contracts/DegenToken.sol\":2131:2158  _burn(_msgSender(), amount) */\n      jump\t// in\n    tag_196:\n        /* \"contracts/DegenToken.sol\":1977:2166  function destroyTokens(uint256 amount) public {... */\n      pop\n      jump\t// out\n        /* \"@openzeppelin/contracts/token/ERC20/ERC20.sol\":3406:3531  function balanceOf(address account) public view virtual override returns (uint256) {... */\n    tag_78:\n        /* \"@openzeppelin/contracts/token/ERC20/ERC20.sol\":3480:3487  uint256 */\n      0x00\n        /* \"@openzeppelin/contracts/token/ERC20/ERC20.sol\":3506:3515  _balances */\n      dup1\n        /* \"@openzeppelin/contracts/token/ERC20/ERC20.sol\":3506:3524  _balances[account] */\n      0x00\n        /* \"@openzeppelin/contracts/token/ERC20/ERC20.sol\":3516:3523  account */\n      dup4\n        /* \"@openzeppelin/contracts/token/ERC20/ERC20.sol\":3506:3524  _balances[account] */\n      0xffffffffffffffffffffffffffffffffffffffff\n      and\n      0xffffffffffffffffffffffffffffffffffffffff\n      and\n      dup2\n      mstore\n      0x20\n      add\n      swap1\n      dup2\n      mstore\n      0x20\n      add\n      0x00\n      keccak256\n      sload\n        /* \"@openzeppelin/contracts/token/ERC20/ERC20.sol\":3499:3524  return _balances[account] */\n      swap1\n      pop\n        /* \"@openzeppelin/contracts/token/ERC20/ERC20.sol\":3406:3531  function balanceOf(address account) public view virtual override returns (uint256) {... */\n      swap2\n      swap1\n      pop\n      jump\t// out\n        /* \"@openzeppelin/contracts/access/Ownable.sol\":1831:1932  function renounceOwnership() public virtual onlyOwner {... */\n    tag_81:\n        /* \"@openzeppelin/contracts/access/Ownable.sol\":1094:1107  _checkOwner() */\n      tag_200\n        /* \"@openzeppelin/contracts/access/Ownable.sol\":1094:1105  _checkOwner */\n      tag_201\n        /* \"@openzeppelin/contracts/access/Ownable.sol\":1094:1107  _checkOwner() */\n      jump\t// in\n    tag_200:\n        /* \"@openzeppelin/contracts/access/Ownable.sol\":1895:1925  _transferOwnership(address(0)) */\n      tag_203\n        /* \"@openzeppelin/contracts/access/Ownable.sol\":1922:1923  0 */\n      0x00\n        /* \"@openzeppelin/contracts/access/Ownable.sol\":1895:1913  _transferOwnership */\n      tag_204\n        /* \"@openzeppelin/contracts/access/Ownable.sol\":1895:1925  _transferOwnership(address(0)) */\n      jump\t// in\n    tag_203:\n        /* \"@openzeppelin/contracts/access/Ownable.sol\":1831:1932  function renounceOwnership() public virtual onlyOwner {... */\n      jump\t// out\n        /* \"@openzeppelin/contracts/token/ERC20/extensions/ERC20Burnable.sol\":973:1134  function burnFrom(address account, uint256 amount) public virtual {... */\n    tag_84:\n        /* \"@openzeppelin/contracts/token/ERC20/extensions/ERC20Burnable.sol\":1049:1095  _spendAllowance(account, _msgSender(), amount) */\n      tag_206\n        /* \"@openzeppelin/contracts/token/ERC20/extensions/ERC20Burnable.sol\":1065:1072  account */\n      dup3\n        /* \"@openzeppelin/contracts/token/ERC20/extensions/ERC20Burnable.sol\":1074:1086  _msgSender() */\n      tag_207\n        /* \"@openzeppelin/contracts/token/ERC20/extensions/ERC20Burnable.sol\":1074:1084  _msgSender */\n      tag_128\n        /* \"@openzeppelin/contracts/token/ERC20/extensions/ERC20Burnable.sol\":1074:1086  _msgSender() */\n      jump\t// in\n    tag_207:\n        /* \"@openzeppelin/contracts/token/ERC20/extensions/ERC20Burnable.sol\":1088:1094  amount */\n      dup4\n        /* \"@openzeppelin/contracts/token/ERC20/extensions/ERC20Burnable.sol\":1049:1064  _spendAllowance */\n      tag_157\n        /* \"@openzeppelin/contracts/token/ERC20/extensions/ERC20Burnable.sol\":1049:1095  _spendAllowance(account, _msgSender(), amount) */\n      jump\t// in\n    tag_206:\n        /* \"@openzeppelin/contracts/token/ERC20/extensions/ERC20Burnable.sol\":1105:1127  _burn(account, amount) */\n      tag_208\n        /* \"@openzeppelin/contracts/token/ERC20/extensions/ERC20Burnable.sol\":1111:1118  account */\n      dup3\n        /* \"@openzeppelin/contracts/token/ERC20/extensions/ERC20Burnable.sol\":1120:1126  amount */\n      dup3\n        /* \"@openzeppelin/contracts/token/ERC20/extensions/ERC20Burnable.sol\":1105:1110  _burn */\n      tag_150\n        /* \"@openzeppelin/contracts/token/ERC20/extensions/ERC20Burnable.sol\":1105:1127  _burn(account, amount) */\n      jump\t// in\n    tag_208:\n        /* \"@openzeppelin/contracts/token/ERC20/extensions/ERC20Burnable.sol\":973:1134  function burnFrom(address account, uint256 amount) public virtual {... */\n      pop\n      pop\n      jump\t// out\n        /* \"@openzeppelin/contracts/access/Ownable.sol\":1201:1286  function owner() public view virtual returns (address) {... */\n    tag_86:\n        /* \"@openzeppelin/contracts/access/Ownable.sol\":1247:1254  address */\n      0x00\n        /* \"@openzeppelin/contracts/access/Ownable.sol\":1273:1279  _owner */\n      0x05\n      0x00\n      swap1\n      sload\n      swap1\n      0x0100\n      exp\n      swap1\n      div\n      0xffffffffffffffffffffffffffffffffffffffff\n      and\n        /* \"@openzeppelin/contracts/access/Ownable.sol\":1266:1279  return _owner */\n      swap1\n      pop\n        /* \"@openzeppelin/contracts/access/Ownable.sol\":1201:1286  function owner() public view virtual returns (address) {... */\n      swap1\n      jump\t// out\n        /* \"@openzeppelin/contracts/token/ERC20/ERC20.sol\":2365:2467  function symbol() public view virtual override returns (string memory) {... */\n    tag_90:\n        /* \"@openzeppelin/contracts/token/ERC20/ERC20.sol\":2421:2434  string memory */\n      0x60\n        /* \"@openzeppelin/contracts/token/ERC20/ERC20.sol\":2453:2460  _symbol */\n      0x04\n        /* \"@openzeppelin/contracts/token/ERC20/ERC20.sol\":2446:2460  return _symbol */\n      dup1\n      sload\n      tag_211\n      swap1\n      tag_121\n      jump\t// in\n    tag_211:\n      dup1\n      0x1f\n      add\n      0x20\n      dup1\n      swap2\n      div\n      mul\n      0x20\n      add\n      mload(0x40)\n      swap1\n      dup2\n      add\n      0x40\n      mstore\n      dup1\n      swap3\n      swap2\n      swap1\n      dup2\n      dup2\n      mstore\n      0x20\n      add\n      dup3\n      dup1\n      sload\n      tag_212\n      swap1\n      tag_121\n      jump\t// in\n    tag_212:\n      dup1\n      iszero\n      tag_213\n      jumpi\n      dup1\n      0x1f\n      lt\n      tag_214\n      jumpi\n      0x0100\n      dup1\n      dup4\n      sload\n      div\n      mul\n      dup4\n      mstore\n      swap2\n      0x20\n      add\n      swap2\n      jump(tag_213)\n    tag_214:\n      dup3\n      add\n      swap2\n      swap1\n      0x00\n      mstore\n      keccak256(0x00, 0x20)\n      swap1\n    tag_215:\n      dup2\n      sload\n      dup2\n      mstore\n      swap1\n      0x01\n      add\n      swap1\n      0x20\n      add\n      dup1\n      dup4\n      gt\n      tag_215\n      jumpi\n      dup3\n      swap1\n      sub\n      0x1f\n      and\n      dup3\n      add\n      swap2\n    tag_213:\n      pop\n      pop\n      pop\n      pop\n      pop\n      swap1\n      pop\n        /* \"@openzeppelin/contracts/token/ERC20/ERC20.sol\":2365:2467  function symbol() public view virtual override returns (string memory) {... */\n      swap1\n      jump\t// out\n        /* \"contracts/DegenToken.sol\":1835:1949  function verifyBalance(address account) public view returns (uint256) {... */\n    tag_94:\n        /* \"contracts/DegenToken.sol\":1896:1903  uint256 */\n      0x00\n        /* \"contracts/DegenToken.sol\":1923:1941  balanceOf(account) */\n      tag_217\n        /* \"contracts/DegenToken.sol\":1933:1940  account */\n      dup3\n        /* \"contracts/DegenToken.sol\":1923:1932  balanceOf */\n      tag_78\n        /* \"contracts/DegenToken.sol\":1923:1941  balanceOf(account) */\n      jump\t// in\n    tag_217:\n        /* \"contracts/DegenToken.sol\":1916:1941  return balanceOf(account) */\n      swap1\n      pop\n        /* \"contracts/DegenToken.sol\":1835:1949  function verifyBalance(address account) public view returns (uint256) {... */\n      swap2\n      swap1\n      pop\n      jump\t// out\n        /* \"@openzeppelin/contracts/token/ERC20/ERC20.sol\":6592:7019  function decreaseAllowance(address spender, uint256 subtractedValue) public virtual returns (bool) {... */\n    tag_98:\n        /* \"@openzeppelin/contracts/token/ERC20/ERC20.sol\":6685:6689  bool */\n      0x00\n        /* \"@openzeppelin/contracts/token/ERC20/ERC20.sol\":6701:6714  address owner */\n      dup1\n        /* \"@openzeppelin/contracts/token/ERC20/ERC20.sol\":6717:6729  _msgSender() */\n      tag_219\n        /* \"@openzeppelin/contracts/token/ERC20/ERC20.sol\":6717:6727  _msgSender */\n      tag_128\n        /* \"@openzeppelin/contracts/token/ERC20/ERC20.sol\":6717:6729  _msgSender() */\n      jump\t// in\n    tag_219:\n        /* \"@openzeppelin/contracts/token/ERC20/ERC20.sol\":6701:6729  address owner = _msgSender() */\n      swap1\n      pop\n        /* \"@openzeppelin/contracts/token/ERC20/ERC20.sol\":6739:6763  uint256 currentAllowance */\n      0x00\n        /* \"@openzeppelin/contracts/token/ERC20/ERC20.sol\":6766:6791  allowance(owner, spender) */\n      tag_220\n        /* \"@openzeppelin/contracts/token/ERC20/ERC20.sol\":6776:6781  owner */\n      dup3\n        /* \"@openzeppelin/contracts/token/ERC20/ERC20.sol\":6783:6790  spender */\n      dup7\n        /* \"@openzeppelin/contracts/token/ERC20/ERC20.sol\":6766:6775  allowance */\n      tag_114\n        /* \"@openzeppelin/contracts/token/ERC20/ERC20.sol\":6766:6791  allowance(owner, spender) */\n      jump\t// in\n    tag_220:\n        /* \"@openzeppelin/contracts/token/ERC20/ERC20.sol\":6739:6791  uint256 currentAllowance = allowance(owner, spender) */\n      swap1\n      pop\n        /* \"@openzeppelin/contracts/token/ERC20/ERC20.sol\":6829:6844  subtractedValue */\n      dup4\n        /* \"@openzeppelin/contracts/token/ERC20/ERC20.sol\":6809:6825  currentAllowance */\n      dup2\n        /* \"@openzeppelin/contracts/token/ERC20/ERC20.sol\":6809:6844  currentAllowance >= subtractedValue */\n      lt\n      iszero\n        /* \"@openzeppelin/contracts/token/ERC20/ERC20.sol\":6801:6886  require(currentAllowance >= subtractedValue, \"ERC20: decreased allowance below zero\") */\n      tag_221\n      jumpi\n      mload(0x40)\n      0x08c379a000000000000000000000000000000000000000000000000000000000\n      dup2\n      mstore\n      0x04\n      add\n      tag_222\n      swap1\n      tag_223\n      jump\t// in\n    tag_222:\n      mload(0x40)\n      dup1\n      swap2\n      sub\n      swap1\n      revert\n    tag_221:\n        /* \"@openzeppelin/contracts/token/ERC20/ERC20.sol\":6920:6980  _approve(owner, spender, currentAllowance - subtractedValue) */\n      tag_224\n        /* \"@openzeppelin/contracts/token/ERC20/ERC20.sol\":6929:6934  owner */\n      dup3\n        /* \"@openzeppelin/contracts/token/ERC20/ERC20.sol\":6936:6943  spender */\n      dup7\n        /* \"@openzeppelin/contracts/token/ERC20/ERC20.sol\":6964:6979  subtractedValue */\n      dup7\n        /* \"@openzeppelin/contracts/token/ERC20/ERC20.sol\":6945:6961  currentAllowance */\n      dup5\n        /* \"@openzeppelin/contracts/token/ERC20/ERC20.sol\":6945:6979  currentAllowance - subtractedValue */\n      sub\n        /* \"@openzeppelin/contracts/token/ERC20/ERC20.sol\":6920:6928  _approve */\n      tag_130\n        /* \"@openzeppelin/contracts/token/ERC20/ERC20.sol\":6920:6980  _approve(owner, spender, currentAllowance - subtractedValue) */\n      jump\t// in\n    tag_224:\n        /* \"@openzeppelin/contracts/token/ERC20/ERC20.sol\":7008:7012  true */\n      0x01\n        /* \"@openzeppelin/contracts/token/ERC20/ERC20.sol\":7001:7012  return true */\n      swap3\n      pop\n      pop\n      pop\n        /* \"@openzeppelin/contracts/token/ERC20/ERC20.sol\":6592:7019  function decreaseAllowance(address spender, uint256 subtractedValue) public virtual returns (bool) {... */\n      swap3\n      swap2\n      pop\n      pop\n      jump\t// out\n        /* \"contracts/DegenToken.sol\":850:971  function createTokens(address destination, uint256 amount) public onlyOwner {... */\n    tag_102:\n        /* \"@openzeppelin/contracts/access/Ownable.sol\":1094:1107  _checkOwner() */\n      tag_226\n        /* \"@openzeppelin/contracts/access/Ownable.sol\":1094:1105  _checkOwner */\n      tag_201\n        /* \"@openzeppelin/contracts/access/Ownable.sol\":1094:1107  _checkOwner() */\n      jump\t// in\n    tag_226:\n        /* \"contracts/DegenToken.sol\":937:963  _mint(destination, amount) */\n      tag_228\n        /* \"contracts/DegenToken.sol\":943:954  destination */\n      dup3\n        /* \"contracts/DegenToken.sol\":956:962  amount */\n      dup3\n        /* \"contracts/DegenToken.sol\":937:942  _mint */\n      tag_229\n        /* \"contracts/DegenToken.sol\":937:963  _mint(destination, amount) */\n      jump\t// in\n    tag_228:\n        /* \"contracts/DegenToken.sol\":850:971  function createTokens(address destination, uint256 amount) public onlyOwner {... */\n      pop\n      pop\n      jump\t// out\n        /* \"@openzeppelin/contracts/token/ERC20/ERC20.sol\":3727:3916  function transfer(address to, uint256 amount) public virtual override returns (bool) {... */\n    tag_105:\n        /* \"@openzeppelin/contracts/token/ERC20/ERC20.sol\":3806:3810  bool */\n      0x00\n        /* \"@openzeppelin/contracts/token/ERC20/ERC20.sol\":3822:3835  address owner */\n      dup1\n        /* \"@openzeppelin/contracts/token/ERC20/ERC20.sol\":3838:3850  _msgSender() */\n      tag_231\n        /* \"@openzeppelin/contracts/token/ERC20/ERC20.sol\":3838:3848  _msgSender */\n      tag_128\n        /* \"@openzeppelin/contracts/token/ERC20/ERC20.sol\":3838:3850  _msgSender() */\n      jump\t// in\n    tag_231:\n        /* \"@openzeppelin/contracts/token/ERC20/ERC20.sol\":3822:3850  address owner = _msgSender() */\n      swap1\n      pop\n        /* \"@openzeppelin/contracts/token/ERC20/ERC20.sol\":3860:3888  _transfer(owner, to, amount) */\n      tag_232\n        /* \"@openzeppelin/contracts/token/ERC20/ERC20.sol\":3870:3875  owner */\n      dup2\n        /* \"@openzeppelin/contracts/token/ERC20/ERC20.sol\":3877:3879  to */\n      dup6\n        /* \"@openzeppelin/contracts/token/ERC20/ERC20.sol\":3881:3887  amount */\n      dup6\n        /* \"@openzeppelin/contracts/token/ERC20/ERC20.sol\":3860:3869  _transfer */\n      tag_159\n        /* \"@openzeppelin/contracts/token/ERC20/ERC20.sol\":3860:3888  _transfer(owner, to, amount) */\n      jump\t// in\n    tag_232:\n        /* \"@openzeppelin/contracts/token/ERC20/ERC20.sol\":3905:3909  true */\n      0x01\n        /* \"@openzeppelin/contracts/token/ERC20/ERC20.sol\":3898:3909  return true */\n      swap2\n      pop\n      pop\n        /* \"@openzeppelin/contracts/token/ERC20/ERC20.sol\":3727:3916  function transfer(address to, uint256 amount) public virtual override returns (bool) {... */\n      swap3\n      swap2\n      pop\n      pop\n      jump\t// out\n        /* \"contracts/DegenToken.sol\":1003:1273  function transferTokens(address destination, uint256 amount) public returns (bool) {... */\n    tag_109:\n        /* \"contracts/DegenToken.sol\":1080:1084  bool */\n      0x00\n        /* \"contracts/DegenToken.sol\":1132:1138  amount */\n      dup2\n        /* \"contracts/DegenToken.sol\":1105:1128  balanceOf(_msgSender()) */\n      tag_234\n        /* \"contracts/DegenToken.sol\":1115:1127  _msgSender() */\n      tag_235\n        /* \"contracts/DegenToken.sol\":1115:1125  _msgSender */\n      tag_128\n        /* \"contracts/DegenToken.sol\":1115:1127  _msgSender() */\n      jump\t// in\n    tag_235:\n        /* \"contracts/DegenToken.sol\":1105:1114  balanceOf */\n      tag_78\n        /* \"contracts/DegenToken.sol\":1105:1128  balanceOf(_msgSender()) */\n      jump\t// in\n    tag_234:\n        /* \"contracts/DegenToken.sol\":1105:1138  balanceOf(_msgSender()) >= amount */\n      lt\n      iszero\n        /* \"contracts/DegenToken.sol\":1097:1188  require(balanceOf(_msgSender()) >= amount, \"DegenToken: insufficient balance for transfer\") */\n      tag_236\n      jumpi\n      mload(0x40)\n      0x08c379a000000000000000000000000000000000000000000000000000000000\n      dup2\n      mstore\n      0x04\n      add\n      tag_237\n      swap1\n      tag_238\n      jump\t// in\n    tag_237:\n      mload(0x40)\n      dup1\n      swap2\n      sub\n      swap1\n      revert\n    tag_236:\n        /* \"contracts/DegenToken.sol\":1199:1243  _transfer(_msgSender(), destination, amount) */\n      tag_239\n        /* \"contracts/DegenToken.sol\":1209:1221  _msgSender() */\n      tag_240\n        /* \"contracts/DegenToken.sol\":1209:1219  _msgSender */\n      tag_128\n        /* \"contracts/DegenToken.sol\":1209:1221  _msgSender() */\n      jump\t// in\n    tag_240:\n        /* \"contracts/DegenToken.sol\":1223:1234  destination */\n      dup5\n        /* \"contracts/DegenToken.sol\":1236:1242  amount */\n      dup5\n        /* \"contracts/DegenToken.sol\":1199:1208  _transfer */\n      tag_159\n        /* \"contracts/DegenToken.sol\":1199:1243  _transfer(_msgSender(), destination, amount) */\n      jump\t// in\n    tag_239:\n        /* \"contracts/DegenToken.sol\":1261:1265  true */\n      0x01\n        /* \"contracts/DegenToken.sol\":1254:1265  return true */\n      swap1\n      pop\n        /* \"contracts/DegenToken.sol\":1003:1273  function transferTokens(address destination, uint256 amount) public returns (bool) {... */\n      swap3\n      swap2\n      pop\n      pop\n      jump\t// out\n        /* \"@openzeppelin/contracts/token/ERC20/ERC20.sol\":3974:4123  function allowance(address owner, address spender) public view virtual override returns (uint256) {... */\n    tag_114:\n        /* \"@openzeppelin/contracts/token/ERC20/ERC20.sol\":4063:4070  uint256 */\n      0x00\n        /* \"@openzeppelin/contracts/token/ERC20/ERC20.sol\":4089:4100  _allowances */\n      0x01\n        /* \"@openzeppelin/contracts/token/ERC20/ERC20.sol\":4089:4107  _allowances[owner] */\n      0x00\n        /* \"@openzeppelin/contracts/token/ERC20/ERC20.sol\":4101:4106  owner */\n      dup5\n        /* \"@openzeppelin/contracts/token/ERC20/ERC20.sol\":4089:4107  _allowances[owner] */\n      0xffffffffffffffffffffffffffffffffffffffff\n      and\n      0xffffffffffffffffffffffffffffffffffffffff\n      and\n      dup2\n      mstore\n      0x20\n      add\n      swap1\n      dup2\n      mstore\n      0x20\n      add\n      0x00\n      keccak256\n        /* \"@openzeppelin/contracts/token/ERC20/ERC20.sol\":4089:4116  _allowances[owner][spender] */\n      0x00\n        /* \"@openzeppelin/contracts/token/ERC20/ERC20.sol\":4108:4115  spender */\n      dup4\n        /* \"@openzeppelin/contracts/token/ERC20/ERC20.sol\":4089:4116  _allowances[owner][spender] */\n      0xffffffffffffffffffffffffffffffffffffffff\n      and\n      0xffffffffffffffffffffffffffffffffffffffff\n      and\n      dup2\n      mstore\n      0x20\n      add\n      swap1\n      dup2\n      mstore\n      0x20\n      add\n      0x00\n      keccak256\n      sload\n        /* \"@openzeppelin/contracts/token/ERC20/ERC20.sol\":4082:4116  return _allowances[owner][spender] */\n      swap1\n      pop\n        /* \"@openzeppelin/contracts/token/ERC20/ERC20.sol\":3974:4123  function allowance(address owner, address spender) public view virtual override returns (uint256) {... */\n      swap3\n      swap2\n      pop\n      pop\n      jump\t// out\n        /* \"@openzeppelin/contracts/access/Ownable.sol\":2081:2279  function transferOwnership(address newOwner) public virtual onlyOwner {... */\n    tag_118:\n        /* \"@openzeppelin/contracts/access/Ownable.sol\":1094:1107  _checkOwner() */\n      tag_243\n        /* \"@openzeppelin/contracts/access/Ownable.sol\":1094:1105  _checkOwner */\n      tag_201\n        /* \"@openzeppelin/contracts/access/Ownable.sol\":1094:1107  _checkOwner() */\n      jump\t// in\n    tag_243:\n        /* \"@openzeppelin/contracts/access/Ownable.sol\":2189:2190  0 */\n      0x00\n        /* \"@openzeppelin/contracts/access/Ownable.sol\":2169:2191  newOwner != address(0) */\n      0xffffffffffffffffffffffffffffffffffffffff\n      and\n        /* \"@openzeppelin/contracts/access/Ownable.sol\":2169:2177  newOwner */\n      dup2\n        /* \"@openzeppelin/contracts/access/Ownable.sol\":2169:2191  newOwner != address(0) */\n      0xffffffffffffffffffffffffffffffffffffffff\n      and\n      sub\n        /* \"@openzeppelin/contracts/access/Ownable.sol\":2161:2234  require(newOwner != address(0), \"Ownable: new owner is the zero address\") */\n      tag_245\n      jumpi\n      mload(0x40)\n      0x08c379a000000000000000000000000000000000000000000000000000000000\n      dup2\n      mstore\n      0x04\n      add\n      tag_246\n      swap1\n      tag_247\n      jump\t// in\n    tag_246:\n      mload(0x40)\n      dup1\n      swap2\n      sub\n      swap1\n      revert\n    tag_245:\n        /* \"@openzeppelin/contracts/access/Ownable.sol\":2244:2272  _transferOwnership(newOwner) */\n      tag_248\n        /* \"@openzeppelin/contracts/access/Ownable.sol\":2263:2271  newOwner */\n      dup2\n        /* \"@openzeppelin/contracts/access/Ownable.sol\":2244:2262  _transferOwnership */\n      tag_204\n        /* \"@openzeppelin/contracts/access/Ownable.sol\":2244:2272  _transferOwnership(newOwner) */\n      jump\t// in\n    tag_248:\n        /* \"@openzeppelin/contracts/access/Ownable.sol\":2081:2279  function transferOwnership(address newOwner) public virtual onlyOwner {... */\n      pop\n      jump\t// out\n        /* \"@openzeppelin/contracts/utils/Context.sol\":640:736  function _msgSender() internal view virtual returns (address) {... */\n    tag_128:\n        /* \"@openzeppelin/contracts/utils/Context.sol\":693:700  address */\n      0x00\n        /* \"@openzeppelin/contracts/utils/Context.sol\":719:729  msg.sender */\n      caller\n        /* \"@openzeppelin/contracts/utils/Context.sol\":712:729  return msg.sender */\n      swap1\n      pop\n        /* \"@openzeppelin/contracts/utils/Context.sol\":640:736  function _msgSender() internal view virtual returns (address) {... */\n      swap1\n      jump\t// out\n        /* \"@openzeppelin/contracts/token/ERC20/ERC20.sol\":10504:10874  function _approve(... */\n    tag_130:\n        /* \"@openzeppelin/contracts/token/ERC20/ERC20.sol\":10652:10653  0 */\n      0x00\n        /* \"@openzeppelin/contracts/token/ERC20/ERC20.sol\":10635:10654  owner != address(0) */\n      0xffffffffffffffffffffffffffffffffffffffff\n      and\n        /* \"@openzeppelin/contracts/token/ERC20/ERC20.sol\":10635:10640  owner */\n      dup4\n        /* \"@openzeppelin/contracts/token/ERC20/ERC20.sol\":10635:10654  owner != address(0) */\n      0xffffffffffffffffffffffffffffffffffffffff\n      and\n      sub\n        /* \"@openzeppelin/contracts/token/ERC20/ERC20.sol\":10627:10695  require(owner != address(0), \"ERC20: approve from the zero address\") */\n      tag_251\n      jumpi\n      mload(0x40)\n      0x08c379a000000000000000000000000000000000000000000000000000000000\n      dup2\n      mstore\n      0x04\n      add\n      tag_252\n      swap1\n      tag_253\n      jump\t// in\n    tag_252:\n      mload(0x40)\n      dup1\n      swap2\n      sub\n      swap1\n      revert\n    tag_251:\n        /* \"@openzeppelin/contracts/token/ERC20/ERC20.sol\":10732:10733  0 */\n      0x00\n        /* \"@openzeppelin/contracts/token/ERC20/ERC20.sol\":10713:10734  spender != address(0) */\n      0xffffffffffffffffffffffffffffffffffffffff\n      and\n        /* \"@openzeppelin/contracts/token/ERC20/ERC20.sol\":10713:10720  spender */\n      dup3\n        /* \"@openzeppelin/contracts/token/ERC20/ERC20.sol\":10713:10734  spender != address(0) */\n      0xffffffffffffffffffffffffffffffffffffffff\n      and\n      sub\n        /* \"@openzeppelin/contracts/token/ERC20/ERC20.sol\":10705:10773  require(spender != address(0), \"ERC20: approve to the zero address\") */\n      tag_254\n      jumpi\n      mload(0x40)\n      0x08c379a000000000000000000000000000000000000000000000000000000000\n      dup2\n      mstore\n      0x04\n      add\n      tag_255\n      swap1\n      tag_256\n      jump\t// in\n    tag_255:\n      mload(0x40)\n      dup1\n      swap2\n      sub\n      swap1\n      revert\n    tag_254:\n        /* \"@openzeppelin/contracts/token/ERC20/ERC20.sol\":10814:10820  amount */\n      dup1\n        /* \"@openzeppelin/contracts/token/ERC20/ERC20.sol\":10784:10795  _allowances */\n      0x01\n        /* \"@openzeppelin/contracts/token/ERC20/ERC20.sol\":10784:10802  _allowances[owner] */\n      0x00\n        /* \"@openzeppelin/contracts/token/ERC20/ERC20.sol\":10796:10801  owner */\n      dup6\n        /* \"@openzeppelin/contracts/token/ERC20/ERC20.sol\":10784:10802  _allowances[owner] */\n      0xffffffffffffffffffffffffffffffffffffffff\n      and\n      0xffffffffffffffffffffffffffffffffffffffff\n      and\n      dup2\n      mstore\n      0x20\n      add\n      swap1\n      dup2\n      mstore\n      0x20\n      add\n      0x00\n      keccak256\n        /* \"@openzeppelin/contracts/token/ERC20/ERC20.sol\":10784:10811  _allowances[owner][spender] */\n      0x00\n        /* \"@openzeppelin/contracts/token/ERC20/ERC20.sol\":10803:10810  spender */\n      dup5\n        /* \"@openzeppelin/contracts/token/ERC20/ERC20.sol\":10784:10811  _allowances[owner][spender] */\n      0xffffffffffffffffffffffffffffffffffffffff\n      and\n      0xffffffffffffffffffffffffffffffffffffffff\n      and\n      dup2\n      mstore\n      0x20\n      add\n      swap1\n      dup2\n      mstore\n      0x20\n      add\n      0x00\n      keccak256\n        /* \"@openzeppelin/contracts/token/ERC20/ERC20.sol\":10784:10820  _allowances[owner][spender] = amount */\n      dup2\n      swap1\n      sstore\n      pop\n        /* \"@openzeppelin/contracts/token/ERC20/ERC20.sol\":10851:10858  spender */\n      dup2\n        /* \"@openzeppelin/contracts/token/ERC20/ERC20.sol\":10835:10867  Approval(owner, spender, amount) */\n      0xffffffffffffffffffffffffffffffffffffffff\n      and\n        /* \"@openzeppelin/contracts/token/ERC20/ERC20.sol\":10844:10849  owner */\n      dup4\n        /* \"@openzeppelin/contracts/token/ERC20/ERC20.sol\":10835:10867  Approval(owner, spender, amount) */\n      0xffffffffffffffffffffffffffffffffffffffff\n      and\n      0x8c5be1e5ebec7d5bd14f71427d1e84f3dd0314c0f7b2291e5b200ac8c7c3b925\n        /* \"@openzeppelin/contracts/token/ERC20/ERC20.sol\":10860:10866  amount */\n      dup4\n        /* \"@openzeppelin/contracts/token/ERC20/ERC20.sol\":10835:10867  Approval(owner, spender, amount) */\n      mload(0x40)\n      tag_257\n      swap2\n      swap1\n      tag_42\n      jump\t// in\n    tag_257:\n      mload(0x40)\n      dup1\n      swap2\n      sub\n      swap1\n      log3\n        /* \"@openzeppelin/contracts/token/ERC20/ERC20.sol\":10504:10874  function _approve(... */\n      pop\n      pop\n      pop\n      jump\t// out\n        /* \"@openzeppelin/contracts/token/ERC20/ERC20.sol\":9422:10081  function _burn(address account, uint256 amount) internal virtual {... */\n    tag_150:\n        /* \"@openzeppelin/contracts/token/ERC20/ERC20.sol\":9524:9525  0 */\n      0x00\n        /* \"@openzeppelin/contracts/token/ERC20/ERC20.sol\":9505:9526  account != address(0) */\n      0xffffffffffffffffffffffffffffffffffffffff\n      and\n        /* \"@openzeppelin/contracts/token/ERC20/ERC20.sol\":9505:9512  account */\n      dup3\n        /* \"@openzeppelin/contracts/token/ERC20/ERC20.sol\":9505:9526  account != address(0) */\n      0xffffffffffffffffffffffffffffffffffffffff\n      and\n      sub\n        /* \"@openzeppelin/contracts/token/ERC20/ERC20.sol\":9497:9564  require(account != address(0), \"ERC20: burn from the zero address\") */\n      tag_259\n      jumpi\n      mload(0x40)\n      0x08c379a000000000000000000000000000000000000000000000000000000000\n      dup2\n      mstore\n      0x04\n      add\n      tag_260\n      swap1\n      tag_261\n      jump\t// in\n    tag_260:\n      mload(0x40)\n      dup1\n      swap2\n      sub\n      swap1\n      revert\n    tag_259:\n        /* \"@openzeppelin/contracts/token/ERC20/ERC20.sol\":9575:9624  _beforeTokenTransfer(account, address(0), amount) */\n      tag_262\n        /* \"@openzeppelin/contracts/token/ERC20/ERC20.sol\":9596:9603  account */\n      dup3\n        /* \"@openzeppelin/contracts/token/ERC20/ERC20.sol\":9613:9614  0 */\n      0x00\n        /* \"@openzeppelin/contracts/token/ERC20/ERC20.sol\":9617:9623  amount */\n      dup4\n        /* \"@openzeppelin/contracts/token/ERC20/ERC20.sol\":9575:9595  _beforeTokenTransfer */\n      tag_263\n        /* \"@openzeppelin/contracts/token/ERC20/ERC20.sol\":9575:9624  _beforeTokenTransfer(account, address(0), amount) */\n      jump\t// in\n    tag_262:\n        /* \"@openzeppelin/contracts/token/ERC20/ERC20.sol\":9635:9657  uint256 accountBalance */\n      0x00\n        /* \"@openzeppelin/contracts/token/ERC20/ERC20.sol\":9660:9669  _balances */\n      dup1\n        /* \"@openzeppelin/contracts/token/ERC20/ERC20.sol\":9660:9678  _balances[account] */\n      0x00\n        /* \"@openzeppelin/contracts/token/ERC20/ERC20.sol\":9670:9677  account */\n      dup5\n        /* \"@openzeppelin/contracts/token/ERC20/ERC20.sol\":9660:9678  _balances[account] */\n      0xffffffffffffffffffffffffffffffffffffffff\n      and\n      0xffffffffffffffffffffffffffffffffffffffff\n      and\n      dup2\n      mstore\n      0x20\n      add\n      swap1\n      dup2\n      mstore\n      0x20\n      add\n      0x00\n      keccak256\n      sload\n        /* \"@openzeppelin/contracts/token/ERC20/ERC20.sol\":9635:9678  uint256 accountBalance = _balances[account] */\n      swap1\n      pop\n        /* \"@openzeppelin/contracts/token/ERC20/ERC20.sol\":9714:9720  amount */\n      dup2\n        /* \"@openzeppelin/contracts/token/ERC20/ERC20.sol\":9696:9710  accountBalance */\n      dup2\n        /* \"@openzeppelin/contracts/token/ERC20/ERC20.sol\":9696:9720  accountBalance >= amount */\n      lt\n      iszero\n        /* \"@openzeppelin/contracts/token/ERC20/ERC20.sol\":9688:9759  require(accountBalance >= amount, \"ERC20: burn amount exceeds balance\") */\n      tag_264\n      jumpi\n      mload(0x40)\n      0x08c379a000000000000000000000000000000000000000000000000000000000\n      dup2\n      mstore\n      0x04\n      add\n      tag_265\n      swap1\n      tag_266\n      jump\t// in\n    tag_265:\n      mload(0x40)\n      dup1\n      swap2\n      sub\n      swap1\n      revert\n    tag_264:\n        /* \"@openzeppelin/contracts/token/ERC20/ERC20.sol\":9831:9837  amount */\n      dup2\n        /* \"@openzeppelin/contracts/token/ERC20/ERC20.sol\":9814:9828  accountBalance */\n      dup2\n        /* \"@openzeppelin/contracts/token/ERC20/ERC20.sol\":9814:9837  accountBalance - amount */\n      sub\n        /* \"@openzeppelin/contracts/token/ERC20/ERC20.sol\":9793:9802  _balances */\n      0x00\n        /* \"@openzeppelin/contracts/token/ERC20/ERC20.sol\":9793:9811  _balances[account] */\n      dup1\n        /* \"@openzeppelin/contracts/token/ERC20/ERC20.sol\":9803:9810  account */\n      dup6\n        /* \"@openzeppelin/contracts/token/ERC20/ERC20.sol\":9793:9811  _balances[account] */\n      0xffffffffffffffffffffffffffffffffffffffff\n      and\n      0xffffffffffffffffffffffffffffffffffffffff\n      and\n      dup2\n      mstore\n      0x20\n      add\n      swap1\n      dup2\n      mstore\n      0x20\n      add\n      0x00\n      keccak256\n        /* \"@openzeppelin/contracts/token/ERC20/ERC20.sol\":9793:9837  _balances[account] = accountBalance - amount */\n      dup2\n      swap1\n      sstore\n      pop\n        /* \"@openzeppelin/contracts/token/ERC20/ERC20.sol\":9946:9952  amount */\n      dup2\n        /* \"@openzeppelin/contracts/token/ERC20/ERC20.sol\":9930:9942  _totalSupply */\n      0x02\n      0x00\n        /* \"@openzeppelin/contracts/token/ERC20/ERC20.sol\":9930:9952  _totalSupply -= amount */\n      dup3\n      dup3\n      sload\n      sub\n      swap3\n      pop\n      pop\n      dup2\n      swap1\n      sstore\n      pop\n        /* \"@openzeppelin/contracts/token/ERC20/ERC20.sol\":10004:10005  0 */\n      0x00\n        /* \"@openzeppelin/contracts/token/ERC20/ERC20.sol\":9978:10015  Transfer(account, address(0), amount) */\n      0xffffffffffffffffffffffffffffffffffffffff\n      and\n        /* \"@openzeppelin/contracts/token/ERC20/ERC20.sol\":9987:9994  account */\n      dup4\n        /* \"@openzeppelin/contracts/token/ERC20/ERC20.sol\":9978:10015  Transfer(account, address(0), amount) */\n      0xffffffffffffffffffffffffffffffffffffffff\n      and\n      0xddf252ad1be2c89b69c2b068fc378daa952ba7f163c4a11628f55a4df523b3ef\n        /* \"@openzeppelin/contracts/token/ERC20/ERC20.sol\":10008:10014  amount */\n      dup5\n        /* \"@openzeppelin/contracts/token/ERC20/ERC20.sol\":9978:10015  Transfer(account, address(0), amount) */\n      mload(0x40)\n      tag_267\n      swap2\n      swap1\n      tag_42\n      jump\t// in\n    tag_267:\n      mload(0x40)\n      dup1\n      swap2\n      sub\n      swap1\n      log3\n        /* \"@openzeppelin/contracts/token/ERC20/ERC20.sol\":10026:10074  _afterTokenTransfer(account, address(0), amount) */\n      tag_268\n        /* \"@openzeppelin/contracts/token/ERC20/ERC20.sol\":10046:10053  account */\n      dup4\n        /* \"@openzeppelin/contracts/token/ERC20/ERC20.sol\":10063:10064  0 */\n      0x00\n        /* \"@openzeppelin/contracts/token/ERC20/ERC20.sol\":10067:10073  amount */\n      dup5\n        /* \"@openzeppelin/contracts/token/ERC20/ERC20.sol\":10026:10045  _afterTokenTransfer */\n      tag_269\n        /* \"@openzeppelin/contracts/token/ERC20/ERC20.sol\":10026:10074  _afterTokenTransfer(account, address(0), amount) */\n      jump\t// in\n    tag_268:\n        /* \"@openzeppelin/contracts/token/ERC20/ERC20.sol\":9487:10081  {... */\n      pop\n        /* \"@openzeppelin/contracts/token/ERC20/ERC20.sol\":9422:10081  function _burn(address account, uint256 amount) internal virtual {... */\n      pop\n      pop\n      jump\t// out\n        /* \"@openzeppelin/contracts/token/ERC20/ERC20.sol\":11155:11596  function _spendAllowance(... */\n    tag_157:\n        /* \"@openzeppelin/contracts/token/ERC20/ERC20.sol\":11285:11309  uint256 currentAllowance */\n      0x00\n        /* \"@openzeppelin/contracts/token/ERC20/ERC20.sol\":11312:11337  allowance(owner, spender) */\n      tag_271\n        /* \"@openzeppelin/contracts/token/ERC20/ERC20.sol\":11322:11327  owner */\n      dup5\n        /* \"@openzeppelin/contracts/token/ERC20/ERC20.sol\":11329:11336  spender */\n      dup5\n        /* \"@openzeppelin/contracts/token/ERC20/ERC20.sol\":11312:11321  allowance */\n      tag_114\n        /* \"@openzeppelin/contracts/token/ERC20/ERC20.sol\":11312:11337  allowance(owner, spender) */\n      jump\t// in\n    tag_271:\n        /* \"@openzeppelin/contracts/token/ERC20/ERC20.sol\":11285:11337  uint256 currentAllowance = allowance(owner, spender) */\n      swap1\n      pop\n        /* \"@openzeppelin/contracts/token/ERC20/ERC20.sol\":11371:11388  type(uint256).max */\n      0xffffffffffffffffffffffffffffffffffffffffffffffffffffffffffffffff\n        /* \"@openzeppelin/contracts/token/ERC20/ERC20.sol\":11351:11367  currentAllowance */\n      dup2\n        /* \"@openzeppelin/contracts/token/ERC20/ERC20.sol\":11351:11388  currentAllowance != type(uint256).max */\n      eq\n        /* \"@openzeppelin/contracts/token/ERC20/ERC20.sol\":11347:11590  if (currentAllowance != type(uint256).max) {... */\n      tag_272\n      jumpi\n        /* \"@openzeppelin/contracts/token/ERC20/ERC20.sol\":11432:11438  amount */\n      dup2\n        /* \"@openzeppelin/contracts/token/ERC20/ERC20.sol\":11412:11428  currentAllowance */\n      dup2\n        /* \"@openzeppelin/contracts/token/ERC20/ERC20.sol\":11412:11438  currentAllowance >= amount */\n      lt\n      iszero\n        /* \"@openzeppelin/contracts/token/ERC20/ERC20.sol\":11404:11472  require(currentAllowance >= amount, \"ERC20: insufficient allowance\") */\n      tag_273\n      jumpi\n      mload(0x40)\n      0x08c379a000000000000000000000000000000000000000000000000000000000\n      dup2\n      mstore\n      0x04\n      add\n      tag_274\n      swap1\n      tag_275\n      jump\t// in\n    tag_274:\n      mload(0x40)\n      dup1\n      swap2\n      sub\n      swap1\n      revert\n    tag_273:\n        /* \"@openzeppelin/contracts/token/ERC20/ERC20.sol\":11514:11565  _approve(owner, spender, currentAllowance - amount) */\n      tag_276\n        /* \"@openzeppelin/contracts/token/ERC20/ERC20.sol\":11523:11528  owner */\n      dup5\n        /* \"@openzeppelin/contracts/token/ERC20/ERC20.sol\":11530:11537  spender */\n      dup5\n        /* \"@openzeppelin/contracts/token/ERC20/ERC20.sol\":11558:11564  amount */\n      dup5\n        /* \"@openzeppelin/contracts/token/ERC20/ERC20.sol\":11539:11555  currentAllowance */\n      dup5\n        /* \"@openzeppelin/contracts/token/ERC20/ERC20.sol\":11539:11564  currentAllowance - amount */\n      sub\n        /* \"@openzeppelin/contracts/token/ERC20/ERC20.sol\":11514:11522  _approve */\n      tag_130\n        /* \"@openzeppelin/contracts/token/ERC20/ERC20.sol\":11514:11565  _approve(owner, spender, currentAllowance - amount) */\n      jump\t// in\n    tag_276:\n        /* \"@openzeppelin/contracts/token/ERC20/ERC20.sol\":11347:11590  if (currentAllowance != type(uint256).max) {... */\n    tag_272:\n        /* \"@openzeppelin/contracts/token/ERC20/ERC20.sol\":11275:11596  {... */\n      pop\n        /* \"@openzeppelin/contracts/token/ERC20/ERC20.sol\":11155:11596  function _spendAllowance(... */\n      pop\n      pop\n      pop\n      jump\t// out\n        /* \"@openzeppelin/contracts/token/ERC20/ERC20.sol\":7473:8291  function _transfer(... */\n    tag_159:\n        /* \"@openzeppelin/contracts/token/ERC20/ERC20.sol\":7615:7616  0 */\n      0x00\n        /* \"@openzeppelin/contracts/token/ERC20/ERC20.sol\":7599:7617  from != address(0) */\n      0xffffffffffffffffffffffffffffffffffffffff\n      and\n        /* \"@openzeppelin/contracts/token/ERC20/ERC20.sol\":7599:7603  from */\n      dup4\n        /* \"@openzeppelin/contracts/token/ERC20/ERC20.sol\":7599:7617  from != address(0) */\n      0xffffffffffffffffffffffffffffffffffffffff\n      and\n      sub\n        /* \"@openzeppelin/contracts/token/ERC20/ERC20.sol\":7591:7659  require(from != address(0), \"ERC20: transfer from the zero address\") */\n      tag_278\n      jumpi\n      mload(0x40)\n      0x08c379a000000000000000000000000000000000000000000000000000000000\n      dup2\n      mstore\n      0x04\n      add\n      tag_279\n      swap1\n      tag_280\n      jump\t// in\n    tag_279:\n      mload(0x40)\n      dup1\n      swap2\n      sub\n      swap1\n      revert\n    tag_278:\n        /* \"@openzeppelin/contracts/token/ERC20/ERC20.sol\":7691:7692  0 */\n      0x00\n        /* \"@openzeppelin/contracts/token/ERC20/ERC20.sol\":7677:7693  to != address(0) */\n      0xffffffffffffffffffffffffffffffffffffffff\n      and\n        /* \"@openzeppelin/contracts/token/ERC20/ERC20.sol\":7677:7679  to */\n      dup3\n        /* \"@openzeppelin/contracts/token/ERC20/ERC20.sol\":7677:7693  to != address(0) */\n      0xffffffffffffffffffffffffffffffffffffffff\n      and\n      sub\n        /* \"@openzeppelin/contracts/token/ERC20/ERC20.sol\":7669:7733  require(to != address(0), \"ERC20: transfer to the zero address\") */\n      tag_281\n      jumpi\n      mload(0x40)\n      0x08c379a000000000000000000000000000000000000000000000000000000000\n      dup2\n      mstore\n      0x04\n      add\n      tag_282\n      swap1\n      tag_283\n      jump\t// in\n    tag_282:\n      mload(0x40)\n      dup1\n      swap2\n      sub\n      swap1\n      revert\n    tag_281:\n        /* \"@openzeppelin/contracts/token/ERC20/ERC20.sol\":7744:7782  _beforeTokenTransfer(from, to, amount) */\n      tag_284\n        /* \"@openzeppelin/contracts/token/ERC20/ERC20.sol\":7765:7769  from */\n      dup4\n        /* \"@openzeppelin/contracts/token/ERC20/ERC20.sol\":7771:7773  to */\n      dup4\n        /* \"@openzeppelin/contracts/token/ERC20/ERC20.sol\":7775:7781  amount */\n      dup4\n        /* \"@openzeppelin/contracts/token/ERC20/ERC20.sol\":7744:7764  _beforeTokenTransfer */\n      tag_263\n        /* \"@openzeppelin/contracts/token/ERC20/ERC20.sol\":7744:7782  _beforeTokenTransfer(from, to, amount) */\n      jump\t// in\n    tag_284:\n        /* \"@openzeppelin/contracts/token/ERC20/ERC20.sol\":7793:7812  uint256 fromBalance */\n      0x00\n        /* \"@openzeppelin/contracts/token/ERC20/ERC20.sol\":7815:7824  _balances */\n      dup1\n        /* \"@openzeppelin/contracts/token/ERC20/ERC20.sol\":7815:7830  _balances[from] */\n      0x00\n        /* \"@openzeppelin/contracts/token/ERC20/ERC20.sol\":7825:7829  from */\n      dup6\n        /* \"@openzeppelin/contracts/token/ERC20/ERC20.sol\":7815:7830  _balances[from] */\n      0xffffffffffffffffffffffffffffffffffffffff\n      and\n      0xffffffffffffffffffffffffffffffffffffffff\n      and\n      dup2\n      mstore\n      0x20\n      add\n      swap1\n      dup2\n      mstore\n      0x20\n      add\n      0x00\n      keccak256\n      sload\n        /* \"@openzeppelin/contracts/token/ERC20/ERC20.sol\":7793:7830  uint256 fromBalance = _balances[from] */\n      swap1\n      pop\n        /* \"@openzeppelin/contracts/token/ERC20/ERC20.sol\":7863:7869  amount */\n      dup2\n        /* \"@openzeppelin/contracts/token/ERC20/ERC20.sol\":7848:7859  fromBalance */\n      dup2\n        /* \"@openzeppelin/contracts/token/ERC20/ERC20.sol\":7848:7869  fromBalance >= amount */\n      lt\n      iszero\n        /* \"@openzeppelin/contracts/token/ERC20/ERC20.sol\":7840:7912  require(fromBalance >= amount, \"ERC20: transfer amount exceeds balance\") */\n      tag_285\n      jumpi\n      mload(0x40)\n      0x08c379a000000000000000000000000000000000000000000000000000000000\n      dup2\n      mstore\n      0x04\n      add\n      tag_286\n      swap1\n      tag_287\n      jump\t// in\n    tag_286:\n      mload(0x40)\n      dup1\n      swap2\n      sub\n      swap1\n      revert\n    tag_285:\n        /* \"@openzeppelin/contracts/token/ERC20/ERC20.sol\":7978:7984  amount */\n      dup2\n        /* \"@openzeppelin/contracts/token/ERC20/ERC20.sol\":7964:7975  fromBalance */\n      dup2\n        /* \"@openzeppelin/contracts/token/ERC20/ERC20.sol\":7964:7984  fromBalance - amount */\n      sub\n        /* \"@openzeppelin/contracts/token/ERC20/ERC20.sol\":7946:7955  _balances */\n      0x00\n        /* \"@openzeppelin/contracts/token/ERC20/ERC20.sol\":7946:7961  _balances[from] */\n      dup1\n        /* \"@openzeppelin/contracts/token/ERC20/ERC20.sol\":7956:7960  from */\n      dup7\n        /* \"@openzeppelin/contracts/token/ERC20/ERC20.sol\":7946:7961  _balances[from] */\n      0xffffffffffffffffffffffffffffffffffffffff\n      and\n      0xffffffffffffffffffffffffffffffffffffffff\n      and\n      dup2\n      mstore\n      0x20\n      add\n      swap1\n      dup2\n      mstore\n      0x20\n      add\n      0x00\n      keccak256\n        /* \"@openzeppelin/contracts/token/ERC20/ERC20.sol\":7946:7984  _balances[from] = fromBalance - amount */\n      dup2\n      swap1\n      sstore\n      pop\n        /* \"@openzeppelin/contracts/token/ERC20/ERC20.sol\":8178:8184  amount */\n      dup2\n        /* \"@openzeppelin/contracts/token/ERC20/ERC20.sol\":8161:8170  _balances */\n      0x00\n        /* \"@openzeppelin/contracts/token/ERC20/ERC20.sol\":8161:8174  _balances[to] */\n      dup1\n        /* \"@openzeppelin/contracts/token/ERC20/ERC20.sol\":8171:8173  to */\n      dup6\n        /* \"@openzeppelin/contracts/token/ERC20/ERC20.sol\":8161:8174  _balances[to] */\n      0xffffffffffffffffffffffffffffffffffffffff\n      and\n      0xffffffffffffffffffffffffffffffffffffffff\n      and\n      dup2\n      mstore\n      0x20\n      add\n      swap1\n      dup2\n      mstore\n      0x20\n      add\n      0x00\n      keccak256\n      0x00\n        /* \"@openzeppelin/contracts/token/ERC20/ERC20.sol\":8161:8184  _balances[to] += amount */\n      dup3\n      dup3\n      sload\n      add\n      swap3\n      pop\n      pop\n      dup2\n      swap1\n      sstore\n      pop\n        /* \"@openzeppelin/contracts/token/ERC20/ERC20.sol\":8225:8227  to */\n      dup3\n        /* \"@openzeppelin/contracts/token/ERC20/ERC20.sol\":8210:8236  Transfer(from, to, amount) */\n      0xffffffffffffffffffffffffffffffffffffffff\n      and\n        /* \"@openzeppelin/contracts/token/ERC20/ERC20.sol\":8219:8223  from */\n      dup5\n        /* \"@openzeppelin/contracts/token/ERC20/ERC20.sol\":8210:8236  Transfer(from, to, amount) */\n      0xffffffffffffffffffffffffffffffffffffffff\n      and\n      0xddf252ad1be2c89b69c2b068fc378daa952ba7f163c4a11628f55a4df523b3ef\n        /* \"@openzeppelin/contracts/token/ERC20/ERC20.sol\":8229:8235  amount */\n      dup5\n        /* \"@openzeppelin/contracts/token/ERC20/ERC20.sol\":8210:8236  Transfer(from, to, amount) */\n      mload(0x40)\n      tag_288\n      swap2\n      swap1\n      tag_42\n      jump\t// in\n    tag_288:\n      mload(0x40)\n      dup1\n      swap2\n      sub\n      swap1\n      log3\n        /* \"@openzeppelin/contracts/token/ERC20/ERC20.sol\":8247:8284  _afterTokenTransfer(from, to, amount) */\n      tag_289\n        /* \"@openzeppelin/contracts/token/ERC20/ERC20.sol\":8267:8271  from */\n      dup5\n        /* \"@openzeppelin/contracts/token/ERC20/ERC20.sol\":8273:8275  to */\n      dup5\n        /* \"@openzeppelin/contracts/token/ERC20/ERC20.sol\":8277:8283  amount */\n      dup5\n        /* \"@openzeppelin/contracts/token/ERC20/ERC20.sol\":8247:8266  _afterTokenTransfer */\n      tag_269\n        /* \"@openzeppelin/contracts/token/ERC20/ERC20.sol\":8247:8284  _afterTokenTransfer(from, to, amount) */\n      jump\t// in\n    tag_289:\n        /* \"@openzeppelin/contracts/token/ERC20/ERC20.sol\":7581:8291  {... */\n      pop\n        /* \"@openzeppelin/contracts/token/ERC20/ERC20.sol\":7473:8291  function _transfer(... */\n      pop\n      pop\n      pop\n      jump\t// out\n        /* \"@openzeppelin/contracts/access/Ownable.sol\":1359:1489  function _checkOwner() internal view virtual {... */\n    tag_201:\n        /* \"@openzeppelin/contracts/access/Ownable.sol\":1433:1445  _msgSender() */\n      tag_291\n        /* \"@openzeppelin/contracts/access/Ownable.sol\":1433:1443  _msgSender */\n      tag_128\n        /* \"@openzeppelin/contracts/access/Ownable.sol\":1433:1445  _msgSender() */\n      jump\t// in\n    tag_291:\n        /* \"@openzeppelin/contracts/access/Ownable.sol\":1422:1445  owner() == _msgSender() */\n      0xffffffffffffffffffffffffffffffffffffffff\n      and\n        /* \"@openzeppelin/contracts/access/Ownable.sol\":1422:1429  owner() */\n      tag_292\n        /* \"@openzeppelin/contracts/access/Ownable.sol\":1422:1427  owner */\n      tag_86\n        /* \"@openzeppelin/contracts/access/Ownable.sol\":1422:1429  owner() */\n      jump\t// in\n    tag_292:\n        /* \"@openzeppelin/contracts/access/Ownable.sol\":1422:1445  owner() == _msgSender() */\n      0xffffffffffffffffffffffffffffffffffffffff\n      and\n      eq\n        /* \"@openzeppelin/contracts/access/Ownable.sol\":1414:1482  require(owner() == _msgSender(), \"Ownable: caller is not the owner\") */\n      tag_293\n      jumpi\n      mload(0x40)\n      0x08c379a000000000000000000000000000000000000000000000000000000000\n      dup2\n      mstore\n      0x04\n      add\n      tag_294\n      swap1\n      tag_295\n      jump\t// in\n    tag_294:\n      mload(0x40)\n      dup1\n      swap2\n      sub\n      swap1\n      revert\n    tag_293:\n        /* \"@openzeppelin/contracts/access/Ownable.sol\":1359:1489  function _checkOwner() internal view virtual {... */\n      jump\t// out\n        /* \"@openzeppelin/contracts/access/Ownable.sol\":2433:2620  function _transferOwnership(address newOwner) internal virtual {... */\n    tag_204:\n        /* \"@openzeppelin/contracts/access/Ownable.sol\":2506:2522  address oldOwner */\n      0x00\n        /* \"@openzeppelin/contracts/access/Ownable.sol\":2525:2531  _owner */\n      0x05\n      0x00\n      swap1\n      sload\n      swap1\n      0x0100\n      exp\n      swap1\n      div\n      0xffffffffffffffffffffffffffffffffffffffff\n      and\n        /* \"@openzeppelin/contracts/access/Ownable.sol\":2506:2531  address oldOwner = _owner */\n      swap1\n      pop\n        /* \"@openzeppelin/contracts/access/Ownable.sol\":2550:2558  newOwner */\n      dup2\n        /* \"@openzeppelin/contracts/access/Ownable.sol\":2541:2547  _owner */\n      0x05\n      0x00\n        /* \"@openzeppelin/contracts/access/Ownable.sol\":2541:2558  _owner = newOwner */\n      0x0100\n      exp\n      dup2\n      sload\n      dup2\n      0xffffffffffffffffffffffffffffffffffffffff\n      mul\n      not\n      and\n      swap1\n      dup4\n      0xffffffffffffffffffffffffffffffffffffffff\n      and\n      mul\n      or\n      swap1\n      sstore\n      pop\n        /* \"@openzeppelin/contracts/access/Ownable.sol\":2604:2612  newOwner */\n      dup2\n        /* \"@openzeppelin/contracts/access/Ownable.sol\":2573:2613  OwnershipTransferred(oldOwner, newOwner) */\n      0xffffffffffffffffffffffffffffffffffffffff\n      and\n        /* \"@openzeppelin/contracts/access/Ownable.sol\":2594:2602  oldOwner */\n      dup2\n        /* \"@openzeppelin/contracts/access/Ownable.sol\":2573:2613  OwnershipTransferred(oldOwner, newOwner) */\n      0xffffffffffffffffffffffffffffffffffffffff\n      and\n      0x8be0079c531659141344cd1fd0a4f28419497f9722a3daafe3b4186f6b6457e0\n      mload(0x40)\n      mload(0x40)\n      dup1\n      swap2\n      sub\n      swap1\n      log3\n        /* \"@openzeppelin/contracts/access/Ownable.sol\":2496:2620  {... */\n      pop\n        /* \"@openzeppelin/contracts/access/Ownable.sol\":2433:2620  function _transferOwnership(address newOwner) internal virtual {... */\n      pop\n      jump\t// out\n        /* \"@openzeppelin/contracts/token/ERC20/ERC20.sol\":8567:9102  function _mint(address account, uint256 amount) internal virtual {... */\n    tag_229:\n        /* \"@openzeppelin/contracts/token/ERC20/ERC20.sol\":8669:8670  0 */\n      0x00\n        /* \"@openzeppelin/contracts/token/ERC20/ERC20.sol\":8650:8671  account != address(0) */\n      0xffffffffffffffffffffffffffffffffffffffff\n      and\n        /* \"@openzeppelin/contracts/token/ERC20/ERC20.sol\":8650:8657  account */\n      dup3\n        /* \"@openzeppelin/contracts/token/ERC20/ERC20.sol\":8650:8671  account != address(0) */\n      0xffffffffffffffffffffffffffffffffffffffff\n      and\n      sub\n        /* \"@openzeppelin/contracts/token/ERC20/ERC20.sol\":8642:8707  require(account != address(0), \"ERC20: mint to the zero address\") */\n      tag_298\n      jumpi\n      mload(0x40)\n      0x08c379a000000000000000000000000000000000000000000000000000000000\n      dup2\n      mstore\n      0x04\n      add\n      tag_299\n      swap1\n      tag_300\n      jump\t// in\n    tag_299:\n      mload(0x40)\n      dup1\n      swap2\n      sub\n      swap1\n      revert\n    tag_298:\n        /* \"@openzeppelin/contracts/token/ERC20/ERC20.sol\":8718:8767  _beforeTokenTransfer(address(0), account, amount) */\n      tag_301\n        /* \"@openzeppelin/contracts/token/ERC20/ERC20.sol\":8747:8748  0 */\n      0x00\n        /* \"@openzeppelin/contracts/token/ERC20/ERC20.sol\":8751:8758  account */\n      dup4\n        /* \"@openzeppelin/contracts/token/ERC20/ERC20.sol\":8760:8766  amount */\n      dup4\n        /* \"@openzeppelin/contracts/token/ERC20/ERC20.sol\":8718:8738  _beforeTokenTransfer */\n      tag_263\n        /* \"@openzeppelin/contracts/token/ERC20/ERC20.sol\":8718:8767  _beforeTokenTransfer(address(0), account, amount) */\n      jump\t// in\n    tag_301:\n        /* \"@openzeppelin/contracts/token/ERC20/ERC20.sol\":8794:8800  amount */\n      dup1\n        /* \"@openzeppelin/contracts/token/ERC20/ERC20.sol\":8778:8790  _totalSupply */\n      0x02\n      0x00\n        /* \"@openzeppelin/contracts/token/ERC20/ERC20.sol\":8778:8800  _totalSupply += amount */\n      dup3\n      dup3\n      sload\n      tag_302\n      swap2\n      swap1\n      tag_177\n      jump\t// in\n    tag_302:\n      swap3\n      pop\n      pop\n      dup2\n      swap1\n      sstore\n      pop\n        /* \"@openzeppelin/contracts/token/ERC20/ERC20.sol\":8968:8974  amount */\n      dup1\n        /* \"@openzeppelin/contracts/token/ERC20/ERC20.sol\":8946:8955  _balances */\n      0x00\n        /* \"@openzeppelin/contracts/token/ERC20/ERC20.sol\":8946:8964  _balances[account] */\n      dup1\n        /* \"@openzeppelin/contracts/token/ERC20/ERC20.sol\":8956:8963  account */\n      dup5\n        /* \"@openzeppelin/contracts/token/ERC20/ERC20.sol\":8946:8964  _balances[account] */\n      0xffffffffffffffffffffffffffffffffffffffff\n      and\n      0xffffffffffffffffffffffffffffffffffffffff\n      and\n      dup2\n      mstore\n      0x20\n      add\n      swap1\n      dup2\n      mstore\n      0x20\n      add\n      0x00\n      keccak256\n      0x00\n        /* \"@openzeppelin/contracts/token/ERC20/ERC20.sol\":8946:8974  _balances[account] += amount */\n      dup3\n      dup3\n      sload\n      add\n      swap3\n      pop\n      pop\n      dup2\n      swap1\n      sstore\n      pop\n        /* \"@openzeppelin/contracts/token/ERC20/ERC20.sol\":9020:9027  account */\n      dup2\n        /* \"@openzeppelin/contracts/token/ERC20/ERC20.sol\":8999:9036  Transfer(address(0), account, amount) */\n      0xffffffffffffffffffffffffffffffffffffffff\n      and\n        /* \"@openzeppelin/contracts/token/ERC20/ERC20.sol\":9016:9017  0 */\n      0x00\n        /* \"@openzeppelin/contracts/token/ERC20/ERC20.sol\":8999:9036  Transfer(address(0), account, amount) */\n      0xffffffffffffffffffffffffffffffffffffffff\n      and\n      0xddf252ad1be2c89b69c2b068fc378daa952ba7f163c4a11628f55a4df523b3ef\n        /* \"@openzeppelin/contracts/token/ERC20/ERC20.sol\":9029:9035  amount */\n      dup4\n        /* \"@openzeppelin/contracts/token/ERC20/ERC20.sol\":8999:9036  Transfer(address(0), account, amount) */\n      mload(0x40)\n      tag_303\n      swap2\n      swap1\n      tag_42\n      jump\t// in\n    tag_303:\n      mload(0x40)\n      dup1\n      swap2\n      sub\n      swap1\n      log3\n        /* \"@openzeppelin/contracts/token/ERC20/ERC20.sol\":9047:9095  _afterTokenTransfer(address(0), account, amount) */\n      tag_304\n        /* \"@openzeppelin/contracts/token/ERC20/ERC20.sol\":9075:9076  0 */\n      0x00\n        /* \"@openzeppelin/contracts/token/ERC20/ERC20.sol\":9079:9086  account */\n      dup4\n        /* \"@openzeppelin/contracts/token/ERC20/ERC20.sol\":9088:9094  amount */\n      dup4\n        /* \"@openzeppelin/contracts/token/ERC20/ERC20.sol\":9047:9066  _afterTokenTransfer */\n      tag_269\n        /* \"@openzeppelin/contracts/token/ERC20/ERC20.sol\":9047:9095  _afterTokenTransfer(address(0), account, amount) */\n      jump\t// in\n    tag_304:\n        /* \"@openzeppelin/contracts/token/ERC20/ERC20.sol\":8567:9102  function _mint(address account, uint256 amount) internal virtual {... */\n      pop\n      pop\n      jump\t// out\n        /* \"@openzeppelin/contracts/token/ERC20/ERC20.sol\":12180:12301  function _beforeTokenTransfer(... */\n    tag_263:\n      pop\n      pop\n      pop\n      jump\t// out\n        /* \"@openzeppelin/contracts/token/ERC20/ERC20.sol\":12889:13009  function _afterTokenTransfer(... */\n    tag_269:\n      pop\n      pop\n      pop\n      jump\t// out\n        /* \"#utility.yul\":7:106   */\n    tag_307:\n        /* \"#utility.yul\":59:65   */\n      0x00\n        /* \"#utility.yul\":93:98   */\n      dup2\n        /* \"#utility.yul\":87:99   */\n      mload\n        /* \"#utility.yul\":77:99   */\n      swap1\n      pop\n        /* \"#utility.yul\":7:106   */\n      swap2\n      swap1\n      pop\n      jump\t// out\n        /* \"#utility.yul\":112:281   */\n    tag_308:\n        /* \"#utility.yul\":196:207   */\n      0x00\n        /* \"#utility.yul\":230:236   */\n      dup3\n        /* \"#utility.yul\":225:228   */\n      dup3\n        /* \"#utility.yul\":218:237   */\n      mstore\n        /* \"#utility.yul\":270:274   */\n      0x20\n        /* \"#utility.yul\":265:268   */\n      dup3\n        /* \"#utility.yul\":261:275   */\n      add\n        /* \"#utility.yul\":246:275   */\n      swap1\n      pop\n        /* \"#utility.yul\":112:281   */\n      swap3\n      swap2\n      pop\n      pop\n      jump\t// out\n        /* \"#utility.yul\":287:426   */\n    tag_309:\n        /* \"#utility.yul\":376:382   */\n      dup3\n        /* \"#utility.yul\":371:374   */\n      dup2\n        /* \"#utility.yul\":366:369   */\n      dup4\n        /* \"#utility.yul\":360:383   */\n      mcopy\n        /* \"#utility.yul\":417:418   */\n      0x00\n        /* \"#utility.yul\":408:414   */\n      dup4\n        /* \"#utility.yul\":403:406   */\n      dup4\n        /* \"#utility.yul\":399:415   */\n      add\n        /* \"#utility.yul\":392:419   */\n      mstore\n        /* \"#utility.yul\":287:426   */\n      pop\n      pop\n      pop\n      jump\t// out\n        /* \"#utility.yul\":432:534   */\n    tag_310:\n        /* \"#utility.yul\":473:479   */\n      0x00\n        /* \"#utility.yul\":524:526   */\n      0x1f\n        /* \"#utility.yul\":520:527   */\n      not\n        /* \"#utility.yul\":515:517   */\n      0x1f\n        /* \"#utility.yul\":508:513   */\n      dup4\n        /* \"#utility.yul\":504:518   */\n      add\n        /* \"#utility.yul\":500:528   */\n      and\n        /* \"#utility.yul\":490:528   */\n      swap1\n      pop\n        /* \"#utility.yul\":432:534   */\n      swap2\n      swap1\n      pop\n      jump\t// out\n        /* \"#utility.yul\":540:917   */\n    tag_311:\n        /* \"#utility.yul\":628:631   */\n      0x00\n        /* \"#utility.yul\":656:695   */\n      tag_383\n        /* \"#utility.yul\":689:694   */\n      dup3\n        /* \"#utility.yul\":656:695   */\n      tag_307\n      jump\t// in\n    tag_383:\n        /* \"#utility.yul\":711:782   */\n      tag_384\n        /* \"#utility.yul\":775:781   */\n      dup2\n        /* \"#utility.yul\":770:773   */\n      dup6\n        /* \"#utility.yul\":711:782   */\n      tag_308\n      jump\t// in\n    tag_384:\n        /* \"#utility.yul\":704:782   */\n      swap4\n      pop\n        /* \"#utility.yul\":791:856   */\n      tag_385\n        /* \"#utility.yul\":849:855   */\n      dup2\n        /* \"#utility.yul\":844:847   */\n      dup6\n        /* \"#utility.yul\":837:841   */\n      0x20\n        /* \"#utility.yul\":830:835   */\n      dup7\n        /* \"#utility.yul\":826:842   */\n      add\n        /* \"#utility.yul\":791:856   */\n      tag_309\n      jump\t// in\n    tag_385:\n        /* \"#utility.yul\":881:910   */\n      tag_386\n        /* \"#utility.yul\":903:909   */\n      dup2\n        /* \"#utility.yul\":881:910   */\n      tag_310\n      jump\t// in\n    tag_386:\n        /* \"#utility.yul\":876:879   */\n      dup5\n        /* \"#utility.yul\":872:911   */\n      add\n        /* \"#utility.yul\":865:911   */\n      swap2\n      pop\n        /* \"#utility.yul\":632:917   */\n      pop\n        /* \"#utility.yul\":540:917   */\n      swap3\n      swap2\n      pop\n      pop\n      jump\t// out\n        /* \"#utility.yul\":923:1236   */\n    tag_32:\n        /* \"#utility.yul\":1036:1040   */\n      0x00\n        /* \"#utility.yul\":1074:1076   */\n      0x20\n        /* \"#utility.yul\":1063:1072   */\n      dup3\n        /* \"#utility.yul\":1059:1077   */\n      add\n        /* \"#utility.yul\":1051:1077   */\n      swap1\n      pop\n        /* \"#utility.yul\":1123:1132   */\n      dup2\n        /* \"#utility.yul\":1117:1121   */\n      dup2\n        /* \"#utility.yul\":1113:1133   */\n      sub\n        /* \"#utility.yul\":1109:1110   */\n      0x00\n        /* \"#utility.yul\":1098:1107   */\n      dup4\n        /* \"#utility.yul\":1094:1111   */\n      add\n        /* \"#utility.yul\":1087:1134   */\n      mstore\n        /* \"#utility.yul\":1151:1229   */\n      tag_388\n        /* \"#utility.yul\":1224:1228   */\n      dup2\n        /* \"#utility.yul\":1215:1221   */\n      dup5\n        /* \"#utility.yul\":1151:1229   */\n      tag_311\n      jump\t// in\n    tag_388:\n        /* \"#utility.yul\":1143:1229   */\n      swap1\n      pop\n        /* \"#utility.yul\":923:1236   */\n      swap3\n      swap2\n      pop\n      pop\n      jump\t// out\n        /* \"#utility.yul\":1323:1440   */\n    tag_313:\n        /* \"#utility.yul\":1432:1433   */\n      0x00\n        /* \"#utility.yul\":1429:1430   */\n      dup1\n        /* \"#utility.yul\":1422:1434   */\n      revert\n        /* \"#utility.yul\":1569:1695   */\n    tag_315:\n        /* \"#utility.yul\":1606:1613   */\n      0x00\n        /* \"#utility.yul\":1646:1688   */\n      0xffffffffffffffffffffffffffffffffffffffff\n        /* \"#utility.yul\":1639:1644   */\n      dup3\n        /* \"#utility.yul\":1635:1689   */\n      and\n        /* \"#utility.yul\":1624:1689   */\n      swap1\n      pop\n        /* \"#utility.yul\":1569:1695   */\n      swap2\n      swap1\n      pop\n      jump\t// out\n        /* \"#utility.yul\":1701:1797   */\n    tag_316:\n        /* \"#utility.yul\":1738:1745   */\n      0x00\n        /* \"#utility.yul\":1767:1791   */\n      tag_394\n        /* \"#utility.yul\":1785:1790   */\n      dup3\n        /* \"#utility.yul\":1767:1791   */\n      tag_315\n      jump\t// in\n    tag_394:\n        /* \"#utility.yul\":1756:1791   */\n      swap1\n      pop\n        /* \"#utility.yul\":1701:1797   */\n      swap2\n      swap1\n      pop\n      jump\t// out\n        /* \"#utility.yul\":1803:1925   */\n    tag_317:\n        /* \"#utility.yul\":1876:1900   */\n      tag_396\n        /* \"#utility.yul\":1894:1899   */\n      dup2\n        /* \"#utility.yul\":1876:1900   */\n      tag_316\n      jump\t// in\n    tag_396:\n        /* \"#utility.yul\":1869:1874   */\n      dup2\n        /* \"#utility.yul\":1866:1901   */\n      eq\n        /* \"#utility.yul\":1856:1919   */\n      tag_397\n      jumpi\n        /* \"#utility.yul\":1915:1916   */\n      0x00\n        /* \"#utility.yul\":1912:1913   */\n      dup1\n        /* \"#utility.yul\":1905:1917   */\n      revert\n        /* \"#utility.yul\":1856:1919   */\n    tag_397:\n        /* \"#utility.yul\":1803:1925   */\n      pop\n      jump\t// out\n        /* \"#utility.yul\":1931:2070   */\n    tag_318:\n        /* \"#utility.yul\":1977:1982   */\n      0x00\n        /* \"#utility.yul\":2015:2021   */\n      dup2\n        /* \"#utility.yul\":2002:2022   */\n      calldataload\n        /* \"#utility.yul\":1993:2022   */\n      swap1\n      pop\n        /* \"#utility.yul\":2031:2064   */\n      tag_399\n        /* \"#utility.yul\":2058:2063   */\n      dup2\n        /* \"#utility.yul\":2031:2064   */\n      tag_317\n      jump\t// in\n    tag_399:\n        /* \"#utility.yul\":1931:2070   */\n      swap3\n      swap2\n      pop\n      pop\n      jump\t// out\n        /* \"#utility.yul\":2076:2153   */\n    tag_319:\n        /* \"#utility.yul\":2113:2120   */\n      0x00\n        /* \"#utility.yul\":2142:2147   */\n      dup2\n        /* \"#utility.yul\":2131:2147   */\n      swap1\n      pop\n        /* \"#utility.yul\":2076:2153   */\n      swap2\n      swap1\n      pop\n      jump\t// out\n        /* \"#utility.yul\":2159:2281   */\n    tag_320:\n        /* \"#utility.yul\":2232:2256   */\n      tag_402\n        /* \"#utility.yul\":2250:2255   */\n      dup2\n        /* \"#utility.yul\":2232:2256   */\n      tag_319\n      jump\t// in\n    tag_402:\n        /* \"#utility.yul\":2225:2230   */\n      dup2\n        /* \"#utility.yul\":2222:2257   */\n      eq\n        /* \"#utility.yul\":2212:2275   */\n      tag_403\n      jumpi\n        /* \"#utility.yul\":2271:2272   */\n      0x00\n        /* \"#utility.yul\":2268:2269   */\n      dup1\n        /* \"#utility.yul\":2261:2273   */\n      revert\n        /* \"#utility.yul\":2212:2275   */\n    tag_403:\n        /* \"#utility.yul\":2159:2281   */\n      pop\n      jump\t// out\n        /* \"#utility.yul\":2287:2426   */\n    tag_321:\n        /* \"#utility.yul\":2333:2338   */\n      0x00\n        /* \"#utility.yul\":2371:2377   */\n      dup2\n        /* \"#utility.yul\":2358:2378   */\n      calldataload\n        /* \"#utility.yul\":2349:2378   */\n      swap1\n      pop\n        /* \"#utility.yul\":2387:2420   */\n      tag_405\n        /* \"#utility.yul\":2414:2419   */\n      dup2\n        /* \"#utility.yul\":2387:2420   */\n      tag_320\n      jump\t// in\n    tag_405:\n        /* \"#utility.yul\":2287:2426   */\n      swap3\n      swap2\n      pop\n      pop\n      jump\t// out\n        /* \"#utility.yul\":2432:2906   */\n    tag_35:\n        /* \"#utility.yul\":2500:2506   */\n      0x00\n        /* \"#utility.yul\":2508:2514   */\n      dup1\n        /* \"#utility.yul\":2557:2559   */\n      0x40\n        /* \"#utility.yul\":2545:2554   */\n      dup4\n        /* \"#utility.yul\":2536:2543   */\n      dup6\n        /* \"#utility.yul\":2532:2555   */\n      sub\n        /* \"#utility.yul\":2528:2560   */\n      slt\n        /* \"#utility.yul\":2525:2644   */\n      iszero\n      tag_407\n      jumpi\n        /* \"#utility.yul\":2563:2642   */\n      tag_408\n      tag_313\n      jump\t// in\n    tag_408:\n        /* \"#utility.yul\":2525:2644   */\n    tag_407:\n        /* \"#utility.yul\":2683:2684   */\n      0x00\n        /* \"#utility.yul\":2708:2761   */\n      tag_409\n        /* \"#utility.yul\":2753:2760   */\n      dup6\n        /* \"#utility.yul\":2744:2750   */\n      dup3\n        /* \"#utility.yul\":2733:2742   */\n      dup7\n        /* \"#utility.yul\":2729:2751   */\n      add\n        /* \"#utility.yul\":2708:2761   */\n      tag_318\n      jump\t// in\n    tag_409:\n        /* \"#utility.yul\":2698:2761   */\n      swap3\n      pop\n        /* \"#utility.yul\":2654:2771   */\n      pop\n        /* \"#utility.yul\":2810:2812   */\n      0x20\n        /* \"#utility.yul\":2836:2889   */\n      tag_410\n        /* \"#utility.yul\":2881:2888   */\n      dup6\n        /* \"#utility.yul\":2872:2878   */\n      dup3\n        /* \"#utility.yul\":2861:2870   */\n      dup7\n        /* \"#utility.yul\":2857:2879   */\n      add\n        /* \"#utility.yul\":2836:2889   */\n      tag_321\n      jump\t// in\n    tag_410:\n        /* \"#utility.yul\":2826:2889   */\n      swap2\n      pop\n        /* \"#utility.yul\":2781:2899   */\n      pop\n        /* \"#utility.yul\":2432:2906   */\n      swap3\n      pop\n      swap3\n      swap1\n      pop\n      jump\t// out\n        /* \"#utility.yul\":2912:3002   */\n    tag_322:\n        /* \"#utility.yul\":2946:2953   */\n      0x00\n        /* \"#utility.yul\":2989:2994   */\n      dup2\n        /* \"#utility.yul\":2982:2995   */\n      iszero\n        /* \"#utility.yul\":2975:2996   */\n      iszero\n        /* \"#utility.yul\":2964:2996   */\n      swap1\n      pop\n        /* \"#utility.yul\":2912:3002   */\n      swap2\n      swap1\n      pop\n      jump\t// out\n        /* \"#utility.yul\":3008:3117   */\n    tag_323:\n        /* \"#utility.yul\":3089:3110   */\n      tag_413\n        /* \"#utility.yul\":3104:3109   */\n      dup2\n        /* \"#utility.yul\":3089:3110   */\n      tag_322\n      jump\t// in\n    tag_413:\n        /* \"#utility.yul\":3084:3087   */\n      dup3\n        /* \"#utility.yul\":3077:3111   */\n      mstore\n        /* \"#utility.yul\":3008:3117   */\n      pop\n      pop\n      jump\t// out\n        /* \"#utility.yul\":3123:3333   */\n    tag_38:\n        /* \"#utility.yul\":3210:3214   */\n      0x00\n        /* \"#utility.yul\":3248:3250   */\n      0x20\n        /* \"#utility.yul\":3237:3246   */\n      dup3\n        /* \"#utility.yul\":3233:3251   */\n      add\n        /* \"#utility.yul\":3225:3251   */\n      swap1\n      pop\n        /* \"#utility.yul\":3261:3326   */\n      tag_415\n        /* \"#utility.yul\":3323:3324   */\n      0x00\n        /* \"#utility.yul\":3312:3321   */\n      dup4\n        /* \"#utility.yul\":3308:3325   */\n      add\n        /* \"#utility.yul\":3299:3305   */\n      dup5\n        /* \"#utility.yul\":3261:3326   */\n      tag_323\n      jump\t// in\n    tag_415:\n        /* \"#utility.yul\":3123:3333   */\n      swap3\n      swap2\n      pop\n      pop\n      jump\t// out\n        /* \"#utility.yul\":3339:3457   */\n    tag_324:\n        /* \"#utility.yul\":3426:3450   */\n      tag_417\n        /* \"#utility.yul\":3444:3449   */\n      dup2\n        /* \"#utility.yul\":3426:3450   */\n      tag_319\n      jump\t// in\n    tag_417:\n        /* \"#utility.yul\":3421:3424   */\n      dup3\n        /* \"#utility.yul\":3414:3451   */\n      mstore\n        /* \"#utility.yul\":3339:3457   */\n      pop\n      pop\n      jump\t// out\n        /* \"#utility.yul\":3463:3685   */\n    tag_42:\n        /* \"#utility.yul\":3556:3560   */\n      0x00\n        /* \"#utility.yul\":3594:3596   */\n      0x20\n        /* \"#utility.yul\":3583:3592   */\n      dup3\n        /* \"#utility.yul\":3579:3597   */\n      add\n        /* \"#utility.yul\":3571:3597   */\n      swap1\n      pop\n        /* \"#utility.yul\":3607:3678   */\n      tag_419\n        /* \"#utility.yul\":3675:3676   */\n      0x00\n        /* \"#utility.yul\":3664:3673   */\n      dup4\n        /* \"#utility.yul\":3660:3677   */\n      add\n        /* \"#utility.yul\":3651:3657   */\n      dup5\n        /* \"#utility.yul\":3607:3678   */\n      tag_324\n      jump\t// in\n    tag_419:\n        /* \"#utility.yul\":3463:3685   */\n      swap3\n      swap2\n      pop\n      pop\n      jump\t// out\n        /* \"#utility.yul\":3691:4020   */\n    tag_45:\n        /* \"#utility.yul\":3750:3756   */\n      0x00\n        /* \"#utility.yul\":3799:3801   */\n      0x20\n        /* \"#utility.yul\":3787:3796   */\n      dup3\n        /* \"#utility.yul\":3778:3785   */\n      dup5\n        /* \"#utility.yul\":3774:3797   */\n      sub\n        /* \"#utility.yul\":3770:3802   */\n      slt\n        /* \"#utility.yul\":3767:3886   */\n      iszero\n      tag_421\n      jumpi\n        /* \"#utility.yul\":3805:3884   */\n      tag_422\n      tag_313\n      jump\t// in\n    tag_422:\n        /* \"#utility.yul\":3767:3886   */\n    tag_421:\n        /* \"#utility.yul\":3925:3926   */\n      0x00\n        /* \"#utility.yul\":3950:4003   */\n      tag_423\n        /* \"#utility.yul\":3995:4002   */\n      dup5\n        /* \"#utility.yul\":3986:3992   */\n      dup3\n        /* \"#utility.yul\":3975:3984   */\n      dup6\n        /* \"#utility.yul\":3971:3993   */\n      add\n        /* \"#utility.yul\":3950:4003   */\n      tag_321\n      jump\t// in\n    tag_423:\n        /* \"#utility.yul\":3940:4003   */\n      swap2\n      pop\n        /* \"#utility.yul\":3896:4013   */\n      pop\n        /* \"#utility.yul\":3691:4020   */\n      swap3\n      swap2\n      pop\n      pop\n      jump\t// out\n        /* \"#utility.yul\":4026:4645   */\n    tag_49:\n        /* \"#utility.yul\":4103:4109   */\n      0x00\n        /* \"#utility.yul\":4111:4117   */\n      dup1\n        /* \"#utility.yul\":4119:4125   */\n      0x00\n        /* \"#utility.yul\":4168:4170   */\n      0x60\n        /* \"#utility.yul\":4156:4165   */\n      dup5\n        /* \"#utility.yul\":4147:4154   */\n      dup7\n        /* \"#utility.yul\":4143:4166   */\n      sub\n        /* \"#utility.yul\":4139:4171   */\n      slt\n        /* \"#utility.yul\":4136:4255   */\n      iszero\n      tag_425\n      jumpi\n        /* \"#utility.yul\":4174:4253   */\n      tag_426\n      tag_313\n      jump\t// in\n    tag_426:\n        /* \"#utility.yul\":4136:4255   */\n    tag_425:\n        /* \"#utility.yul\":4294:4295   */\n      0x00\n        /* \"#utility.yul\":4319:4372   */\n      tag_427\n        /* \"#utility.yul\":4364:4371   */\n      dup7\n        /* \"#utility.yul\":4355:4361   */\n      dup3\n        /* \"#utility.yul\":4344:4353   */\n      dup8\n        /* \"#utility.yul\":4340:4362   */\n      add\n        /* \"#utility.yul\":4319:4372   */\n      tag_318\n      jump\t// in\n    tag_427:\n        /* \"#utility.yul\":4309:4372   */\n      swap4\n      pop\n        /* \"#utility.yul\":4265:4382   */\n      pop\n        /* \"#utility.yul\":4421:4423   */\n      0x20\n        /* \"#utility.yul\":4447:4500   */\n      tag_428\n        /* \"#utility.yul\":4492:4499   */\n      dup7\n        /* \"#utility.yul\":4483:4489   */\n      dup3\n        /* \"#utility.yul\":4472:4481   */\n      dup8\n        /* \"#utility.yul\":4468:4490   */\n      add\n        /* \"#utility.yul\":4447:4500   */\n      tag_318\n      jump\t// in\n    tag_428:\n        /* \"#utility.yul\":4437:4500   */\n      swap3\n      pop\n        /* \"#utility.yul\":4392:4510   */\n      pop\n        /* \"#utility.yul\":4549:4551   */\n      0x40\n        /* \"#utility.yul\":4575:4628   */\n      tag_429\n        /* \"#utility.yul\":4620:4627   */\n      dup7\n        /* \"#utility.yul\":4611:4617   */\n      dup3\n        /* \"#utility.yul\":4600:4609   */\n      dup8\n        /* \"#utility.yul\":4596:4618   */\n      add\n        /* \"#utility.yul\":4575:4628   */\n      tag_321\n      jump\t// in\n    tag_429:\n        /* \"#utility.yul\":4565:4628   */\n      swap2\n      pop\n        /* \"#utility.yul\":4520:4638   */\n      pop\n        /* \"#utility.yul\":4026:4645   */\n      swap3\n      pop\n      swap3\n      pop\n      swap3\n      jump\t// out\n        /* \"#utility.yul\":4651:5172   */\n    tag_56:\n        /* \"#utility.yul\":4814:4818   */\n      0x00\n        /* \"#utility.yul\":4852:4854   */\n      0x60\n        /* \"#utility.yul\":4841:4850   */\n      dup3\n        /* \"#utility.yul\":4837:4855   */\n      add\n        /* \"#utility.yul\":4829:4855   */\n      swap1\n      pop\n        /* \"#utility.yul\":4865:4936   */\n      tag_431\n        /* \"#utility.yul\":4933:4934   */\n      0x00\n        /* \"#utility.yul\":4922:4931   */\n      dup4\n        /* \"#utility.yul\":4918:4935   */\n      add\n        /* \"#utility.yul\":4909:4915   */\n      dup7\n        /* \"#utility.yul\":4865:4936   */\n      tag_324\n      jump\t// in\n    tag_431:\n        /* \"#utility.yul\":4983:4992   */\n      dup2\n        /* \"#utility.yul\":4977:4981   */\n      dup2\n        /* \"#utility.yul\":4973:4993   */\n      sub\n        /* \"#utility.yul\":4968:4970   */\n      0x20\n        /* \"#utility.yul\":4957:4966   */\n      dup4\n        /* \"#utility.yul\":4953:4971   */\n      add\n        /* \"#utility.yul\":4946:4994   */\n      mstore\n        /* \"#utility.yul\":5011:5089   */\n      tag_432\n        /* \"#utility.yul\":5084:5088   */\n      dup2\n        /* \"#utility.yul\":5075:5081   */\n      dup6\n        /* \"#utility.yul\":5011:5089   */\n      tag_311\n      jump\t// in\n    tag_432:\n        /* \"#utility.yul\":5003:5089   */\n      swap1\n      pop\n        /* \"#utility.yul\":5099:5165   */\n      tag_433\n        /* \"#utility.yul\":5161:5163   */\n      0x40\n        /* \"#utility.yul\":5150:5159   */\n      dup4\n        /* \"#utility.yul\":5146:5164   */\n      add\n        /* \"#utility.yul\":5137:5143   */\n      dup5\n        /* \"#utility.yul\":5099:5165   */\n      tag_323\n      jump\t// in\n    tag_433:\n        /* \"#utility.yul\":4651:5172   */\n      swap5\n      swap4\n      pop\n      pop\n      pop\n      pop\n      jump\t// out\n        /* \"#utility.yul\":5178:5264   */\n    tag_325:\n        /* \"#utility.yul\":5213:5220   */\n      0x00\n        /* \"#utility.yul\":5253:5257   */\n      0xff\n        /* \"#utility.yul\":5246:5251   */\n      dup3\n        /* \"#utility.yul\":5242:5258   */\n      and\n        /* \"#utility.yul\":5231:5258   */\n      swap1\n      pop\n        /* \"#utility.yul\":5178:5264   */\n      swap2\n      swap1\n      pop\n      jump\t// out\n        /* \"#utility.yul\":5270:5382   */\n    tag_326:\n        /* \"#utility.yul\":5353:5375   */\n      tag_436\n        /* \"#utility.yul\":5369:5374   */\n      dup2\n        /* \"#utility.yul\":5353:5375   */\n      tag_325\n      jump\t// in\n    tag_436:\n        /* \"#utility.yul\":5348:5351   */\n      dup3\n        /* \"#utility.yul\":5341:5376   */\n      mstore\n        /* \"#utility.yul\":5270:5382   */\n      pop\n      pop\n      jump\t// out\n        /* \"#utility.yul\":5388:5602   */\n    tag_60:\n        /* \"#utility.yul\":5477:5481   */\n      0x00\n        /* \"#utility.yul\":5515:5517   */\n      0x20\n        /* \"#utility.yul\":5504:5513   */\n      dup3\n        /* \"#utility.yul\":5500:5518   */\n      add\n        /* \"#utility.yul\":5492:5518   */\n      swap1\n      pop\n        /* \"#utility.yul\":5528:5595   */\n      tag_438\n        /* \"#utility.yul\":5592:5593   */\n      0x00\n        /* \"#utility.yul\":5581:5590   */\n      dup4\n        /* \"#utility.yul\":5577:5594   */\n      add\n        /* \"#utility.yul\":5568:5574   */\n      dup5\n        /* \"#utility.yul\":5528:5595   */\n      tag_326\n      jump\t// in\n    tag_438:\n        /* \"#utility.yul\":5388:5602   */\n      swap3\n      swap2\n      pop\n      pop\n      jump\t// out\n        /* \"#utility.yul\":5608:5743   */\n    tag_327:\n        /* \"#utility.yul\":5696:5702   */\n      0x00\n        /* \"#utility.yul\":5730:5735   */\n      dup2\n        /* \"#utility.yul\":5724:5736   */\n      mload\n        /* \"#utility.yul\":5714:5736   */\n      swap1\n      pop\n        /* \"#utility.yul\":5608:5743   */\n      swap2\n      swap1\n      pop\n      jump\t// out\n        /* \"#utility.yul\":5749:5954   */\n    tag_328:\n        /* \"#utility.yul\":5869:5880   */\n      0x00\n        /* \"#utility.yul\":5903:5909   */\n      dup3\n        /* \"#utility.yul\":5898:5901   */\n      dup3\n        /* \"#utility.yul\":5891:5910   */\n      mstore\n        /* \"#utility.yul\":5943:5947   */\n      0x20\n        /* \"#utility.yul\":5938:5941   */\n      dup3\n        /* \"#utility.yul\":5934:5948   */\n      add\n        /* \"#utility.yul\":5919:5948   */\n      swap1\n      pop\n        /* \"#utility.yul\":5749:5954   */\n      swap3\n      swap2\n      pop\n      pop\n      jump\t// out\n        /* \"#utility.yul\":5960:6113   */\n    tag_329:\n        /* \"#utility.yul\":6048:6052   */\n      0x00\n        /* \"#utility.yul\":6071:6074   */\n      dup2\n        /* \"#utility.yul\":6063:6074   */\n      swap1\n      pop\n        /* \"#utility.yul\":6101:6105   */\n      0x20\n        /* \"#utility.yul\":6096:6099   */\n      dup3\n        /* \"#utility.yul\":6092:6106   */\n      add\n        /* \"#utility.yul\":6084:6106   */\n      swap1\n      pop\n        /* \"#utility.yul\":5960:6113   */\n      swap2\n      swap1\n      pop\n      jump\t// out\n        /* \"#utility.yul\":6119:6227   */\n    tag_330:\n        /* \"#utility.yul\":6196:6220   */\n      tag_443\n        /* \"#utility.yul\":6214:6219   */\n      dup2\n        /* \"#utility.yul\":6196:6220   */\n      tag_319\n      jump\t// in\n    tag_443:\n        /* \"#utility.yul\":6191:6194   */\n      dup3\n        /* \"#utility.yul\":6184:6221   */\n      mstore\n        /* \"#utility.yul\":6119:6227   */\n      pop\n      pop\n      jump\t// out\n        /* \"#utility.yul\":6233:6392   */\n    tag_331:\n        /* \"#utility.yul\":6307:6318   */\n      0x00\n        /* \"#utility.yul\":6341:6347   */\n      dup3\n        /* \"#utility.yul\":6336:6339   */\n      dup3\n        /* \"#utility.yul\":6329:6348   */\n      mstore\n        /* \"#utility.yul\":6381:6385   */\n      0x20\n        /* \"#utility.yul\":6376:6379   */\n      dup3\n        /* \"#utility.yul\":6372:6386   */\n      add\n        /* \"#utility.yul\":6357:6386   */\n      swap1\n      pop\n        /* \"#utility.yul\":6233:6392   */\n      swap3\n      swap2\n      pop\n      pop\n      jump\t// out\n        /* \"#utility.yul\":6398:6755   */\n    tag_332:\n        /* \"#utility.yul\":6476:6479   */\n      0x00\n        /* \"#utility.yul\":6504:6543   */\n      tag_446\n        /* \"#utility.yul\":6537:6542   */\n      dup3\n        /* \"#utility.yul\":6504:6543   */\n      tag_307\n      jump\t// in\n    tag_446:\n        /* \"#utility.yul\":6559:6620   */\n      tag_447\n        /* \"#utility.yul\":6613:6619   */\n      dup2\n        /* \"#utility.yul\":6608:6611   */\n      dup6\n        /* \"#utility.yul\":6559:6620   */\n      tag_331\n      jump\t// in\n    tag_447:\n        /* \"#utility.yul\":6552:6620   */\n      swap4\n      pop\n        /* \"#utility.yul\":6629:6694   */\n      tag_448\n        /* \"#utility.yul\":6687:6693   */\n      dup2\n        /* \"#utility.yul\":6682:6685   */\n      dup6\n        /* \"#utility.yul\":6675:6679   */\n      0x20\n        /* \"#utility.yul\":6668:6673   */\n      dup7\n        /* \"#utility.yul\":6664:6680   */\n      add\n        /* \"#utility.yul\":6629:6694   */\n      tag_309\n      jump\t// in\n    tag_448:\n        /* \"#utility.yul\":6719:6748   */\n      tag_449\n        /* \"#utility.yul\":6741:6747   */\n      dup2\n        /* \"#utility.yul\":6719:6748   */\n      tag_310\n      jump\t// in\n    tag_449:\n        /* \"#utility.yul\":6714:6717   */\n      dup5\n        /* \"#utility.yul\":6710:6749   */\n      add\n        /* \"#utility.yul\":6703:6749   */\n      swap2\n      pop\n        /* \"#utility.yul\":6480:6755   */\n      pop\n        /* \"#utility.yul\":6398:6755   */\n      swap3\n      swap2\n      pop\n      pop\n      jump\t// out\n        /* \"#utility.yul\":6761:6860   */\n    tag_333:\n        /* \"#utility.yul\":6832:6853   */\n      tag_451\n        /* \"#utility.yul\":6847:6852   */\n      dup2\n        /* \"#utility.yul\":6832:6853   */\n      tag_322\n      jump\t// in\n    tag_451:\n        /* \"#utility.yul\":6827:6830   */\n      dup3\n        /* \"#utility.yul\":6820:6854   */\n      mstore\n        /* \"#utility.yul\":6761:6860   */\n      pop\n      pop\n      jump\t// out\n        /* \"#utility.yul\":6922:7686   */\n    tag_334:\n        /* \"#utility.yul\":7023:7026   */\n      0x00\n        /* \"#utility.yul\":7059:7063   */\n      0x60\n        /* \"#utility.yul\":7054:7057   */\n      dup4\n        /* \"#utility.yul\":7050:7064   */\n      add\n        /* \"#utility.yul\":7150:7154   */\n      0x00\n        /* \"#utility.yul\":7143:7148   */\n      dup4\n        /* \"#utility.yul\":7139:7155   */\n      add\n        /* \"#utility.yul\":7133:7156   */\n      mload\n        /* \"#utility.yul\":7169:7232   */\n      tag_453\n        /* \"#utility.yul\":7226:7230   */\n      0x00\n        /* \"#utility.yul\":7221:7224   */\n      dup7\n        /* \"#utility.yul\":7217:7231   */\n      add\n        /* \"#utility.yul\":7203:7215   */\n      dup3\n        /* \"#utility.yul\":7169:7232   */\n      tag_330\n      jump\t// in\n    tag_453:\n        /* \"#utility.yul\":7074:7242   */\n      pop\n        /* \"#utility.yul\":7324:7328   */\n      0x20\n        /* \"#utility.yul\":7317:7322   */\n      dup4\n        /* \"#utility.yul\":7313:7329   */\n      add\n        /* \"#utility.yul\":7307:7330   */\n      mload\n        /* \"#utility.yul\":7377:7380   */\n      dup5\n        /* \"#utility.yul\":7371:7375   */\n      dup3\n        /* \"#utility.yul\":7367:7381   */\n      sub\n        /* \"#utility.yul\":7360:7364   */\n      0x20\n        /* \"#utility.yul\":7355:7358   */\n      dup7\n        /* \"#utility.yul\":7351:7365   */\n      add\n        /* \"#utility.yul\":7344:7382   */\n      mstore\n        /* \"#utility.yul\":7403:7476   */\n      tag_454\n        /* \"#utility.yul\":7471:7475   */\n      dup3\n        /* \"#utility.yul\":7457:7469   */\n      dup3\n        /* \"#utility.yul\":7403:7476   */\n      tag_332\n      jump\t// in\n    tag_454:\n        /* \"#utility.yul\":7395:7476   */\n      swap2\n      pop\n        /* \"#utility.yul\":7252:7487   */\n      pop\n        /* \"#utility.yul\":7573:7577   */\n      0x40\n        /* \"#utility.yul\":7566:7571   */\n      dup4\n        /* \"#utility.yul\":7562:7578   */\n      add\n        /* \"#utility.yul\":7556:7579   */\n      mload\n        /* \"#utility.yul\":7592:7649   */\n      tag_455\n        /* \"#utility.yul\":7643:7647   */\n      0x40\n        /* \"#utility.yul\":7638:7641   */\n      dup7\n        /* \"#utility.yul\":7634:7648   */\n      add\n        /* \"#utility.yul\":7620:7632   */\n      dup3\n        /* \"#utility.yul\":7592:7649   */\n      tag_333\n      jump\t// in\n    tag_455:\n        /* \"#utility.yul\":7497:7659   */\n      pop\n        /* \"#utility.yul\":7676:7680   */\n      dup1\n        /* \"#utility.yul\":7669:7680   */\n      swap2\n      pop\n        /* \"#utility.yul\":7028:7686   */\n      pop\n        /* \"#utility.yul\":6922:7686   */\n      swap3\n      swap2\n      pop\n      pop\n      jump\t// out\n        /* \"#utility.yul\":7692:7932   */\n    tag_335:\n        /* \"#utility.yul\":7803:7813   */\n      0x00\n        /* \"#utility.yul\":7838:7926   */\n      tag_457\n        /* \"#utility.yul\":7922:7925   */\n      dup4\n        /* \"#utility.yul\":7914:7920   */\n      dup4\n        /* \"#utility.yul\":7838:7926   */\n      tag_334\n      jump\t// in\n    tag_457:\n        /* \"#utility.yul\":7824:7926   */\n      swap1\n      pop\n        /* \"#utility.yul\":7692:7932   */\n      swap3\n      swap2\n      pop\n      pop\n      jump\t// out\n        /* \"#utility.yul\":7938:8072   */\n    tag_336:\n        /* \"#utility.yul\":8029:8033   */\n      0x00\n        /* \"#utility.yul\":8061:8065   */\n      0x20\n        /* \"#utility.yul\":8056:8059   */\n      dup3\n        /* \"#utility.yul\":8052:8066   */\n      add\n        /* \"#utility.yul\":8044:8066   */\n      swap1\n      pop\n        /* \"#utility.yul\":7938:8072   */\n      swap2\n      swap1\n      pop\n      jump\t// out\n        /* \"#utility.yul\":8138:9217   */\n    tag_337:\n        /* \"#utility.yul\":8299:8302   */\n      0x00\n        /* \"#utility.yul\":8328:8403   */\n      tag_460\n        /* \"#utility.yul\":8397:8402   */\n      dup3\n        /* \"#utility.yul\":8328:8403   */\n      tag_327\n      jump\t// in\n    tag_460:\n        /* \"#utility.yul\":8419:8526   */\n      tag_461\n        /* \"#utility.yul\":8519:8525   */\n      dup2\n        /* \"#utility.yul\":8514:8517   */\n      dup6\n        /* \"#utility.yul\":8419:8526   */\n      tag_328\n      jump\t// in\n    tag_461:\n        /* \"#utility.yul\":8412:8526   */\n      swap4\n      pop\n        /* \"#utility.yul\":8552:8555   */\n      dup4\n        /* \"#utility.yul\":8597:8601   */\n      0x20\n        /* \"#utility.yul\":8589:8595   */\n      dup3\n        /* \"#utility.yul\":8585:8602   */\n      mul\n        /* \"#utility.yul\":8580:8583   */\n      dup6\n        /* \"#utility.yul\":8576:8603   */\n      add\n        /* \"#utility.yul\":8627:8704   */\n      tag_462\n        /* \"#utility.yul\":8698:8703   */\n      dup6\n        /* \"#utility.yul\":8627:8704   */\n      tag_329\n      jump\t// in\n    tag_462:\n        /* \"#utility.yul\":8727:8734   */\n      dup1\n        /* \"#utility.yul\":8758:8759   */\n      0x00\n        /* \"#utility.yul\":8743:9172   */\n    tag_463:\n        /* \"#utility.yul\":8768:8774   */\n      dup6\n        /* \"#utility.yul\":8765:8766   */\n      dup2\n        /* \"#utility.yul\":8762:8775   */\n      lt\n        /* \"#utility.yul\":8743:9172   */\n      iszero\n      tag_465\n      jumpi\n        /* \"#utility.yul\":8839:8848   */\n      dup5\n        /* \"#utility.yul\":8833:8837   */\n      dup5\n        /* \"#utility.yul\":8829:8849   */\n      sub\n        /* \"#utility.yul\":8824:8827   */\n      dup10\n        /* \"#utility.yul\":8817:8850   */\n      mstore\n        /* \"#utility.yul\":8890:8896   */\n      dup2\n        /* \"#utility.yul\":8884:8897   */\n      mload\n        /* \"#utility.yul\":8918:9024   */\n      tag_466\n        /* \"#utility.yul\":9019:9023   */\n      dup6\n        /* \"#utility.yul\":9004:9017   */\n      dup3\n        /* \"#utility.yul\":8918:9024   */\n      tag_335\n      jump\t// in\n    tag_466:\n        /* \"#utility.yul\":8910:9024   */\n      swap5\n      pop\n        /* \"#utility.yul\":9047:9128   */\n      tag_467\n        /* \"#utility.yul\":9121:9127   */\n      dup4\n        /* \"#utility.yul\":9047:9128   */\n      tag_336\n      jump\t// in\n    tag_467:\n        /* \"#utility.yul\":9037:9128   */\n      swap3\n      pop\n        /* \"#utility.yul\":9157:9161   */\n      0x20\n        /* \"#utility.yul\":9152:9155   */\n      dup11\n        /* \"#utility.yul\":9148:9162   */\n      add\n        /* \"#utility.yul\":9141:9162   */\n      swap10\n      pop\n        /* \"#utility.yul\":8803:9172   */\n      pop\n        /* \"#utility.yul\":8790:8791   */\n      0x01\n        /* \"#utility.yul\":8787:8788   */\n      dup2\n        /* \"#utility.yul\":8783:8792   */\n      add\n        /* \"#utility.yul\":8778:8792   */\n      swap1\n      pop\n        /* \"#utility.yul\":8743:9172   */\n      jump(tag_463)\n    tag_465:\n        /* \"#utility.yul\":8747:8761   */\n      pop\n        /* \"#utility.yul\":9188:9192   */\n      dup3\n        /* \"#utility.yul\":9181:9192   */\n      swap8\n      pop\n        /* \"#utility.yul\":9208:9211   */\n      dup8\n        /* \"#utility.yul\":9201:9211   */\n      swap6\n      pop\n        /* \"#utility.yul\":8304:9217   */\n      pop\n      pop\n      pop\n      pop\n      pop\n        /* \"#utility.yul\":8138:9217   */\n      swap3\n      swap2\n      pop\n      pop\n      jump\t// out\n        /* \"#utility.yul\":9223:9680   */\n    tag_68:\n        /* \"#utility.yul\":9408:9412   */\n      0x00\n        /* \"#utility.yul\":9446:9448   */\n      0x20\n        /* \"#utility.yul\":9435:9444   */\n      dup3\n        /* \"#utility.yul\":9431:9449   */\n      add\n        /* \"#utility.yul\":9423:9449   */\n      swap1\n      pop\n        /* \"#utility.yul\":9495:9504   */\n      dup2\n        /* \"#utility.yul\":9489:9493   */\n      dup2\n        /* \"#utility.yul\":9485:9505   */\n      sub\n        /* \"#utility.yul\":9481:9482   */\n      0x00\n        /* \"#utility.yul\":9470:9479   */\n      dup4\n        /* \"#utility.yul\":9466:9483   */\n      add\n        /* \"#utility.yul\":9459:9506   */\n      mstore\n        /* \"#utility.yul\":9523:9673   */\n      tag_469\n        /* \"#utility.yul\":9668:9672   */\n      dup2\n        /* \"#utility.yul\":9659:9665   */\n      dup5\n        /* \"#utility.yul\":9523:9673   */\n      tag_337\n      jump\t// in\n    tag_469:\n        /* \"#utility.yul\":9515:9673   */\n      swap1\n      pop\n        /* \"#utility.yul\":9223:9680   */\n      swap3\n      swap2\n      pop\n      pop\n      jump\t// out\n        /* \"#utility.yul\":9686:10015   */\n    tag_77:\n        /* \"#utility.yul\":9745:9751   */\n      0x00\n        /* \"#utility.yul\":9794:9796   */\n      0x20\n        /* \"#utility.yul\":9782:9791   */\n      dup3\n        /* \"#utility.yul\":9773:9780   */\n      dup5\n        /* \"#utility.yul\":9769:9792   */\n      sub\n        /* \"#utility.yul\":9765:9797   */\n      slt\n        /* \"#utility.yul\":9762:9881   */\n      iszero\n      tag_471\n      jumpi\n        /* \"#utility.yul\":9800:9879   */\n      tag_472\n      tag_313\n      jump\t// in\n    tag_472:\n        /* \"#utility.yul\":9762:9881   */\n    tag_471:\n        /* \"#utility.yul\":9920:9921   */\n      0x00\n        /* \"#utility.yul\":9945:9998   */\n      tag_473\n        /* \"#utility.yul\":9990:9997   */\n      dup5\n        /* \"#utility.yul\":9981:9987   */\n      dup3\n        /* \"#utility.yul\":9970:9979   */\n      dup6\n        /* \"#utility.yul\":9966:9988   */\n      add\n        /* \"#utility.yul\":9945:9998   */\n      tag_318\n      jump\t// in\n    tag_473:\n        /* \"#utility.yul\":9935:9998   */\n      swap2\n      pop\n        /* \"#utility.yul\":9891:10008   */\n      pop\n        /* \"#utility.yul\":9686:10015   */\n      swap3\n      swap2\n      pop\n      pop\n      jump\t// out\n        /* \"#utility.yul\":10021:10139   */\n    tag_338:\n        /* \"#utility.yul\":10108:10132   */\n      tag_475\n        /* \"#utility.yul\":10126:10131   */\n      dup2\n        /* \"#utility.yul\":10108:10132   */\n      tag_316\n      jump\t// in\n    tag_475:\n        /* \"#utility.yul\":10103:10106   */\n      dup3\n        /* \"#utility.yul\":10096:10133   */\n      mstore\n        /* \"#utility.yul\":10021:10139   */\n      pop\n      pop\n      jump\t// out\n        /* \"#utility.yul\":10145:10367   */\n    tag_88:\n        /* \"#utility.yul\":10238:10242   */\n      0x00\n        /* \"#utility.yul\":10276:10278   */\n      0x20\n        /* \"#utility.yul\":10265:10274   */\n      dup3\n        /* \"#utility.yul\":10261:10279   */\n      add\n        /* \"#utility.yul\":10253:10279   */\n      swap1\n      pop\n        /* \"#utility.yul\":10289:10360   */\n      tag_477\n        /* \"#utility.yul\":10357:10358   */\n      0x00\n        /* \"#utility.yul\":10346:10355   */\n      dup4\n        /* \"#utility.yul\":10342:10359   */\n      add\n        /* \"#utility.yul\":10333:10339   */\n      dup5\n        /* \"#utility.yul\":10289:10360   */\n      tag_338\n      jump\t// in\n    tag_477:\n        /* \"#utility.yul\":10145:10367   */\n      swap3\n      swap2\n      pop\n      pop\n      jump\t// out\n        /* \"#utility.yul\":10373:10847   */\n    tag_113:\n        /* \"#utility.yul\":10441:10447   */\n      0x00\n        /* \"#utility.yul\":10449:10455   */\n      dup1\n        /* \"#utility.yul\":10498:10500   */\n      0x40\n        /* \"#utility.yul\":10486:10495   */\n      dup4\n        /* \"#utility.yul\":10477:10484   */\n      dup6\n        /* \"#utility.yul\":10473:10496   */\n      sub\n        /* \"#utility.yul\":10469:10501   */\n      slt\n        /* \"#utility.yul\":10466:10585   */\n      iszero\n      tag_479\n      jumpi\n        /* \"#utility.yul\":10504:10583   */\n      tag_480\n      tag_313\n      jump\t// in\n    tag_480:\n        /* \"#utility.yul\":10466:10585   */\n    tag_479:\n        /* \"#utility.yul\":10624:10625   */\n      0x00\n        /* \"#utility.yul\":10649:10702   */\n      tag_481\n        /* \"#utility.yul\":10694:10701   */\n      dup6\n        /* \"#utility.yul\":10685:10691   */\n      dup3\n        /* \"#utility.yul\":10674:10683   */\n      dup7\n        /* \"#utility.yul\":10670:10692   */\n      add\n        /* \"#utility.yul\":10649:10702   */\n      tag_318\n      jump\t// in\n    tag_481:\n        /* \"#utility.yul\":10639:10702   */\n      swap3\n      pop\n        /* \"#utility.yul\":10595:10712   */\n      pop\n        /* \"#utility.yul\":10751:10753   */\n      0x20\n        /* \"#utility.yul\":10777:10830   */\n      tag_482\n        /* \"#utility.yul\":10822:10829   */\n      dup6\n        /* \"#utility.yul\":10813:10819   */\n      dup3\n        /* \"#utility.yul\":10802:10811   */\n      dup7\n        /* \"#utility.yul\":10798:10820   */\n      add\n        /* \"#utility.yul\":10777:10830   */\n      tag_318\n      jump\t// in\n    tag_482:\n        /* \"#utility.yul\":10767:10830   */\n      swap2\n      pop\n        /* \"#utility.yul\":10722:10840   */\n      pop\n        /* \"#utility.yul\":10373:10847   */\n      swap3\n      pop\n      swap3\n      swap1\n      pop\n      jump\t// out\n        /* \"#utility.yul\":10853:11033   */\n    tag_339:\n        /* \"#utility.yul\":10901:10978   */\n      0x4e487b7100000000000000000000000000000000000000000000000000000000\n        /* \"#utility.yul\":10898:10899   */\n      0x00\n        /* \"#utility.yul\":10891:10979   */\n      mstore\n        /* \"#utility.yul\":10998:11002   */\n      0x22\n        /* \"#utility.yul\":10995:10996   */\n      0x04\n        /* \"#utility.yul\":10988:11003   */\n      mstore\n        /* \"#utility.yul\":11022:11026   */\n      0x24\n        /* \"#utility.yul\":11019:11020   */\n      0x00\n        /* \"#utility.yul\":11012:11027   */\n      revert\n        /* \"#utility.yul\":11039:11359   */\n    tag_121:\n        /* \"#utility.yul\":11083:11089   */\n      0x00\n        /* \"#utility.yul\":11120:11121   */\n      0x02\n        /* \"#utility.yul\":11114:11118   */\n      dup3\n        /* \"#utility.yul\":11110:11122   */\n      div\n        /* \"#utility.yul\":11100:11122   */\n      swap1\n      pop\n        /* \"#utility.yul\":11167:11168   */\n      0x01\n        /* \"#utility.yul\":11161:11165   */\n      dup3\n        /* \"#utility.yul\":11157:11169   */\n      and\n        /* \"#utility.yul\":11188:11206   */\n      dup1\n        /* \"#utility.yul\":11178:11259   */\n      tag_485\n      jumpi\n        /* \"#utility.yul\":11244:11248   */\n      0x7f\n        /* \"#utility.yul\":11236:11242   */\n      dup3\n        /* \"#utility.yul\":11232:11249   */\n      and\n        /* \"#utility.yul\":11222:11249   */\n      swap2\n      pop\n        /* \"#utility.yul\":11178:11259   */\n    tag_485:\n        /* \"#utility.yul\":11306:11308   */\n      0x20\n        /* \"#utility.yul\":11298:11304   */\n      dup3\n        /* \"#utility.yul\":11295:11309   */\n      lt\n        /* \"#utility.yul\":11275:11293   */\n      dup2\n        /* \"#utility.yul\":11272:11310   */\n      sub\n        /* \"#utility.yul\":11269:11353   */\n      tag_486\n      jumpi\n        /* \"#utility.yul\":11325:11343   */\n      tag_487\n      tag_339\n      jump\t// in\n    tag_487:\n        /* \"#utility.yul\":11269:11353   */\n    tag_486:\n        /* \"#utility.yul\":11090:11359   */\n      pop\n        /* \"#utility.yul\":11039:11359   */\n      swap2\n      swap1\n      pop\n      jump\t// out\n        /* \"#utility.yul\":11365:11542   */\n    tag_340:\n        /* \"#utility.yul\":11505:11534   */\n      0x446567656e546f6b656e3a20696e76616c6964206974656d2049440000000000\n        /* \"#utility.yul\":11501:11502   */\n      0x00\n        /* \"#utility.yul\":11493:11499   */\n      dup3\n        /* \"#utility.yul\":11489:11503   */\n      add\n        /* \"#utility.yul\":11482:11535   */\n      mstore\n        /* \"#utility.yul\":11365:11542   */\n      pop\n      jump\t// out\n        /* \"#utility.yul\":11548:11914   */\n    tag_341:\n        /* \"#utility.yul\":11690:11693   */\n      0x00\n        /* \"#utility.yul\":11711:11778   */\n      tag_490\n        /* \"#utility.yul\":11775:11777   */\n      0x1b\n        /* \"#utility.yul\":11770:11773   */\n      dup4\n        /* \"#utility.yul\":11711:11778   */\n      tag_308\n      jump\t// in\n    tag_490:\n        /* \"#utility.yul\":11704:11778   */\n      swap2\n      pop\n        /* \"#utility.yul\":11787:11880   */\n      tag_491\n        /* \"#utility.yul\":11876:11879   */\n      dup3\n        /* \"#utility.yul\":11787:11880   */\n      tag_340\n      jump\t// in\n    tag_491:\n        /* \"#utility.yul\":11905:11907   */\n      0x20\n        /* \"#utility.yul\":11900:11903   */\n      dup3\n        /* \"#utility.yul\":11896:11908   */\n      add\n        /* \"#utility.yul\":11889:11908   */\n      swap1\n      pop\n        /* \"#utility.yul\":11548:11914   */\n      swap2\n      swap1\n      pop\n      jump\t// out\n        /* \"#utility.yul\":11920:12339   */\n    tag_135:\n        /* \"#utility.yul\":12086:12090   */\n      0x00\n        /* \"#utility.yul\":12124:12126   */\n      0x20\n        /* \"#utility.yul\":12113:12122   */\n      dup3\n        /* \"#utility.yul\":12109:12127   */\n      add\n        /* \"#utility.yul\":12101:12127   */\n      swap1\n      pop\n        /* \"#utility.yul\":12173:12182   */\n      dup2\n        /* \"#utility.yul\":12167:12171   */\n      dup2\n        /* \"#utility.yul\":12163:12183   */\n      sub\n        /* \"#utility.yul\":12159:12160   */\n      0x00\n        /* \"#utility.yul\":12148:12157   */\n      dup4\n        /* \"#utility.yul\":12144:12161   */\n      add\n        /* \"#utility.yul\":12137:12184   */\n      mstore\n        /* \"#utility.yul\":12201:12332   */\n      tag_493\n        /* \"#utility.yul\":12327:12331   */\n      dup2\n        /* \"#utility.yul\":12201:12332   */\n      tag_341\n      jump\t// in\n    tag_493:\n        /* \"#utility.yul\":12193:12332   */\n      swap1\n      pop\n        /* \"#utility.yul\":11920:12339   */\n      swap2\n      swap1\n      pop\n      jump\t// out\n        /* \"#utility.yul\":12345:12525   */\n    tag_138:\n        /* \"#utility.yul\":12393:12470   */\n      0x4e487b7100000000000000000000000000000000000000000000000000000000\n        /* \"#utility.yul\":12390:12391   */\n      0x00\n        /* \"#utility.yul\":12383:12471   */\n      mstore\n        /* \"#utility.yul\":12490:12494   */\n      0x32\n        /* \"#utility.yul\":12487:12488   */\n      0x04\n        /* \"#utility.yul\":12480:12495   */\n      mstore\n        /* \"#utility.yul\":12514:12518   */\n      0x24\n        /* \"#utility.yul\":12511:12512   */\n      0x00\n        /* \"#utility.yul\":12504:12519   */\n      revert\n        /* \"#utility.yul\":12531:12765   */\n    tag_342:\n        /* \"#utility.yul\":12671:12705   */\n      0x446567656e546f6b656e3a20696e73756666696369656e742062616c616e6365\n        /* \"#utility.yul\":12667:12668   */\n      0x00\n        /* \"#utility.yul\":12659:12665   */\n      dup3\n        /* \"#utility.yul\":12655:12669   */\n      add\n        /* \"#utility.yul\":12648:12706   */\n      mstore\n        /* \"#utility.yul\":12740:12757   */\n      0x20746f2072656465656d206974656d0000000000000000000000000000000000\n        /* \"#utility.yul\":12735:12737   */\n      0x20\n        /* \"#utility.yul\":12727:12733   */\n      dup3\n        /* \"#utility.yul\":12723:12738   */\n      add\n        /* \"#utility.yul\":12716:12758   */\n      mstore\n        /* \"#utility.yul\":12531:12765   */\n      pop\n      jump\t// out\n        /* \"#utility.yul\":12771:13137   */\n    tag_343:\n        /* \"#utility.yul\":12913:12916   */\n      0x00\n        /* \"#utility.yul\":12934:13001   */\n      tag_497\n        /* \"#utility.yul\":12998:13000   */\n      0x2f\n        /* \"#utility.yul\":12993:12996   */\n      dup4\n        /* \"#utility.yul\":12934:13001   */\n      tag_308\n      jump\t// in\n    tag_497:\n        /* \"#utility.yul\":12927:13001   */\n      swap2\n      pop\n        /* \"#utility.yul\":13010:13103   */\n      tag_498\n        /* \"#utility.yul\":13099:13102   */\n      dup3\n        /* \"#utility.yul\":13010:13103   */\n      tag_342\n      jump\t// in\n    tag_498:\n        /* \"#utility.yul\":13128:13130   */\n      0x40\n        /* \"#utility.yul\":13123:13126   */\n      dup3\n        /* \"#utility.yul\":13119:13131   */\n      add\n        /* \"#utility.yul\":13112:13131   */\n      swap1\n      pop\n        /* \"#utility.yul\":12771:13137   */\n      swap2\n      swap1\n      pop\n      jump\t// out\n        /* \"#utility.yul\":13143:13562   */\n    tag_144:\n        /* \"#utility.yul\":13309:13313   */\n      0x00\n        /* \"#utility.yul\":13347:13349   */\n      0x20\n        /* \"#utility.yul\":13336:13345   */\n      dup3\n        /* \"#utility.yul\":13332:13350   */\n      add\n        /* \"#utility.yul\":13324:13350   */\n      swap1\n      pop\n        /* \"#utility.yul\":13396:13405   */\n      dup2\n        /* \"#utility.yul\":13390:13394   */\n      dup2\n        /* \"#utility.yul\":13386:13406   */\n      sub\n        /* \"#utility.yul\":13382:13383   */\n      0x00\n        /* \"#utility.yul\":13371:13380   */\n      dup4\n        /* \"#utility.yul\":13367:13384   */\n      add\n        /* \"#utility.yul\":13360:13407   */\n      mstore\n        /* \"#utility.yul\":13424:13555   */\n      tag_500\n        /* \"#utility.yul\":13550:13554   */\n      dup2\n        /* \"#utility.yul\":13424:13555   */\n      tag_343\n      jump\t// in\n    tag_500:\n        /* \"#utility.yul\":13416:13555   */\n      swap1\n      pop\n        /* \"#utility.yul\":13143:13562   */\n      swap2\n      swap1\n      pop\n      jump\t// out\n        /* \"#utility.yul\":13568:13788   */\n    tag_344:\n        /* \"#utility.yul\":13708:13742   */\n      0x446567656e546f6b656e3a206974656d20616c72656164792072656465656d65\n        /* \"#utility.yul\":13704:13705   */\n      0x00\n        /* \"#utility.yul\":13696:13702   */\n      dup3\n        /* \"#utility.yul\":13692:13706   */\n      add\n        /* \"#utility.yul\":13685:13743   */\n      mstore\n        /* \"#utility.yul\":13777:13780   */\n      0x6400000000000000000000000000000000000000000000000000000000000000\n        /* \"#utility.yul\":13772:13774   */\n      0x20\n        /* \"#utility.yul\":13764:13770   */\n      dup3\n        /* \"#utility.yul\":13760:13775   */\n      add\n        /* \"#utility.yul\":13753:13781   */\n      mstore\n        /* \"#utility.yul\":13568:13788   */\n      pop\n      jump\t// out\n        /* \"#utility.yul\":13794:14160   */\n    tag_345:\n        /* \"#utility.yul\":13936:13939   */\n      0x00\n        /* \"#utility.yul\":13957:14024   */\n      tag_503\n        /* \"#utility.yul\":14021:14023   */\n      0x21\n        /* \"#utility.yul\":14016:14019   */\n      dup4\n        /* \"#utility.yul\":13957:14024   */\n      tag_308\n      jump\t// in\n    tag_503:\n        /* \"#utility.yul\":13950:14024   */\n      swap2\n      pop\n        /* \"#utility.yul\":14033:14126   */\n      tag_504\n        /* \"#utility.yul\":14122:14125   */\n      dup3\n        /* \"#utility.yul\":14033:14126   */\n      tag_344\n      jump\t// in\n    tag_504:\n        /* \"#utility.yul\":14151:14153   */\n      0x40\n        /* \"#utility.yul\":14146:14149   */\n      dup3\n        /* \"#utility.yul\":14142:14154   */\n      add\n        /* \"#utility.yul\":14135:14154   */\n      swap1\n      pop\n        /* \"#utility.yul\":13794:14160   */\n      swap2\n      swap1\n      pop\n      jump\t// out\n        /* \"#utility.yul\":14166:14585   */\n    tag_147:\n        /* \"#utility.yul\":14332:14336   */\n      0x00\n        /* \"#utility.yul\":14370:14372   */\n      0x20\n        /* \"#utility.yul\":14359:14368   */\n      dup3\n        /* \"#utility.yul\":14355:14373   */\n      add\n        /* \"#utility.yul\":14347:14373   */\n      swap1\n      pop\n        /* \"#utility.yul\":14419:14428   */\n      dup2\n        /* \"#utility.yul\":14413:14417   */\n      dup2\n        /* \"#utility.yul\":14409:14429   */\n      sub\n        /* \"#utility.yul\":14405:14406   */\n      0x00\n        /* \"#utility.yul\":14394:14403   */\n      dup4\n        /* \"#utility.yul\":14390:14407   */\n      add\n        /* \"#utility.yul\":14383:14430   */\n      mstore\n        /* \"#utility.yul\":14447:14578   */\n      tag_506\n        /* \"#utility.yul\":14573:14577   */\n      dup2\n        /* \"#utility.yul\":14447:14578   */\n      tag_345\n      jump\t// in\n    tag_506:\n        /* \"#utility.yul\":14439:14578   */\n      swap1\n      pop\n        /* \"#utility.yul\":14166:14585   */\n      swap2\n      swap1\n      pop\n      jump\t// out\n        /* \"#utility.yul\":14591:14732   */\n    tag_346:\n        /* \"#utility.yul\":14640:14644   */\n      0x00\n        /* \"#utility.yul\":14663:14666   */\n      dup2\n        /* \"#utility.yul\":14655:14666   */\n      swap1\n      pop\n        /* \"#utility.yul\":14686:14689   */\n      dup2\n        /* \"#utility.yul\":14683:14684   */\n      0x00\n        /* \"#utility.yul\":14676:14690   */\n      mstore\n        /* \"#utility.yul\":14720:14724   */\n      0x20\n        /* \"#utility.yul\":14717:14718   */\n      0x00\n        /* \"#utility.yul\":14707:14725   */\n      keccak256\n        /* \"#utility.yul\":14699:14725   */\n      swap1\n      pop\n        /* \"#utility.yul\":14591:14732   */\n      swap2\n      swap1\n      pop\n      jump\t// out\n        /* \"#utility.yul\":14762:15593   */\n    tag_347:\n        /* \"#utility.yul\":14847:14850   */\n      0x00\n        /* \"#utility.yul\":14884:14889   */\n      dup2\n        /* \"#utility.yul\":14878:14890   */\n      sload\n        /* \"#utility.yul\":14913:14949   */\n      tag_509\n        /* \"#utility.yul\":14939:14948   */\n      dup2\n        /* \"#utility.yul\":14913:14949   */\n      tag_121\n      jump\t// in\n    tag_509:\n        /* \"#utility.yul\":14965:15036   */\n      tag_510\n        /* \"#utility.yul\":15029:15035   */\n      dup2\n        /* \"#utility.yul\":15024:15027   */\n      dup7\n        /* \"#utility.yul\":14965:15036   */\n      tag_308\n      jump\t// in\n    tag_510:\n        /* \"#utility.yul\":14958:15036   */\n      swap5\n      pop\n        /* \"#utility.yul\":15067:15068   */\n      0x01\n        /* \"#utility.yul\":15056:15065   */\n      dup3\n        /* \"#utility.yul\":15052:15069   */\n      and\n        /* \"#utility.yul\":15083:15084   */\n      0x00\n        /* \"#utility.yul\":15078:15242   */\n      dup2\n      eq\n      tag_512\n      jumpi\n        /* \"#utility.yul\":15256:15257   */\n      0x01\n        /* \"#utility.yul\":15251:15587   */\n      dup2\n      eq\n      tag_513\n      jumpi\n        /* \"#utility.yul\":15045:15587   */\n      jump(tag_511)\n        /* \"#utility.yul\":15078:15242   */\n    tag_512:\n        /* \"#utility.yul\":15162:15166   */\n      0xff\n        /* \"#utility.yul\":15158:15167   */\n      not\n        /* \"#utility.yul\":15147:15156   */\n      dup4\n        /* \"#utility.yul\":15143:15168   */\n      and\n        /* \"#utility.yul\":15138:15141   */\n      dup7\n        /* \"#utility.yul\":15131:15169   */\n      mstore\n        /* \"#utility.yul\":15222:15228   */\n      dup2\n        /* \"#utility.yul\":15215:15229   */\n      iszero\n        /* \"#utility.yul\":15208:15230   */\n      iszero\n        /* \"#utility.yul\":15202:15206   */\n      0x20\n        /* \"#utility.yul\":15198:15231   */\n      mul\n        /* \"#utility.yul\":15193:15196   */\n      dup7\n        /* \"#utility.yul\":15189:15232   */\n      add\n        /* \"#utility.yul\":15182:15232   */\n      swap4\n      pop\n        /* \"#utility.yul\":15078:15242   */\n      jump(tag_511)\n        /* \"#utility.yul\":15251:15587   */\n    tag_513:\n        /* \"#utility.yul\":15318:15356   */\n      tag_514\n        /* \"#utility.yul\":15350:15355   */\n      dup6\n        /* \"#utility.yul\":15318:15356   */\n      tag_346\n      jump\t// in\n    tag_514:\n        /* \"#utility.yul\":15378:15379   */\n      0x00\n        /* \"#utility.yul\":15392:15546   */\n    tag_515:\n        /* \"#utility.yul\":15406:15412   */\n      dup4\n        /* \"#utility.yul\":15403:15404   */\n      dup2\n        /* \"#utility.yul\":15400:15413   */\n      lt\n        /* \"#utility.yul\":15392:15546   */\n      iszero\n      tag_517\n      jumpi\n        /* \"#utility.yul\":15480:15487   */\n      dup2\n        /* \"#utility.yul\":15474:15488   */\n      sload\n        /* \"#utility.yul\":15470:15471   */\n      dup2\n        /* \"#utility.yul\":15465:15468   */\n      dup10\n        /* \"#utility.yul\":15461:15472   */\n      add\n        /* \"#utility.yul\":15454:15489   */\n      mstore\n        /* \"#utility.yul\":15530:15531   */\n      0x01\n        /* \"#utility.yul\":15521:15528   */\n      dup3\n        /* \"#utility.yul\":15517:15532   */\n      add\n        /* \"#utility.yul\":15506:15532   */\n      swap2\n      pop\n        /* \"#utility.yul\":15428:15432   */\n      0x20\n        /* \"#utility.yul\":15425:15426   */\n      dup2\n        /* \"#utility.yul\":15421:15433   */\n      add\n        /* \"#utility.yul\":15416:15433   */\n      swap1\n      pop\n        /* \"#utility.yul\":15392:15546   */\n      jump(tag_515)\n    tag_517:\n        /* \"#utility.yul\":15575:15576   */\n      dup1\n        /* \"#utility.yul\":15570:15573   */\n      dup9\n        /* \"#utility.yul\":15566:15577   */\n      add\n        /* \"#utility.yul\":15559:15577   */\n      swap6\n      pop\n        /* \"#utility.yul\":15258:15587   */\n      pop\n      pop\n        /* \"#utility.yul\":15045:15587   */\n    tag_511:\n      pop\n        /* \"#utility.yul\":14851:15593   */\n      pop\n      pop\n        /* \"#utility.yul\":14762:15593   */\n      swap3\n      swap2\n      pop\n      pop\n      jump\t// out\n        /* \"#utility.yul\":15599:16016   */\n    tag_153:\n        /* \"#utility.yul\":15737:15741   */\n      0x00\n        /* \"#utility.yul\":15775:15777   */\n      0x40\n        /* \"#utility.yul\":15764:15773   */\n      dup3\n        /* \"#utility.yul\":15760:15778   */\n      add\n        /* \"#utility.yul\":15752:15778   */\n      swap1\n      pop\n        /* \"#utility.yul\":15788:15859   */\n      tag_519\n        /* \"#utility.yul\":15856:15857   */\n      0x00\n        /* \"#utility.yul\":15845:15854   */\n      dup4\n        /* \"#utility.yul\":15841:15858   */\n      add\n        /* \"#utility.yul\":15832:15838   */\n      dup6\n        /* \"#utility.yul\":15788:15859   */\n      tag_324\n      jump\t// in\n    tag_519:\n        /* \"#utility.yul\":15906:15915   */\n      dup2\n        /* \"#utility.yul\":15900:15904   */\n      dup2\n        /* \"#utility.yul\":15896:15916   */\n      sub\n        /* \"#utility.yul\":15891:15893   */\n      0x20\n        /* \"#utility.yul\":15880:15889   */\n      dup4\n        /* \"#utility.yul\":15876:15894   */\n      add\n        /* \"#utility.yul\":15869:15917   */\n      mstore\n        /* \"#utility.yul\":15934:16009   */\n      tag_520\n        /* \"#utility.yul\":16004:16008   */\n      dup2\n        /* \"#utility.yul\":15995:16001   */\n      dup5\n        /* \"#utility.yul\":15934:16009   */\n      tag_347\n      jump\t// in\n    tag_520:\n        /* \"#utility.yul\":15926:16009   */\n      swap1\n      pop\n        /* \"#utility.yul\":15599:16016   */\n      swap4\n      swap3\n      pop\n      pop\n      pop\n      jump\t// out\n        /* \"#utility.yul\":16022:16202   */\n    tag_348:\n        /* \"#utility.yul\":16070:16147   */\n      0x4e487b7100000000000000000000000000000000000000000000000000000000\n        /* \"#utility.yul\":16067:16068   */\n      0x00\n        /* \"#utility.yul\":16060:16148   */\n      mstore\n        /* \"#utility.yul\":16167:16171   */\n      0x11\n        /* \"#utility.yul\":16164:16165   */\n      0x04\n        /* \"#utility.yul\":16157:16172   */\n      mstore\n        /* \"#utility.yul\":16191:16195   */\n      0x24\n        /* \"#utility.yul\":16188:16189   */\n      0x00\n        /* \"#utility.yul\":16181:16196   */\n      revert\n        /* \"#utility.yul\":16208:16399   */\n    tag_177:\n        /* \"#utility.yul\":16248:16251   */\n      0x00\n        /* \"#utility.yul\":16267:16287   */\n      tag_523\n        /* \"#utility.yul\":16285:16286   */\n      dup3\n        /* \"#utility.yul\":16267:16287   */\n      tag_319\n      jump\t// in\n    tag_523:\n        /* \"#utility.yul\":16262:16287   */\n      swap2\n      pop\n        /* \"#utility.yul\":16301:16321   */\n      tag_524\n        /* \"#utility.yul\":16319:16320   */\n      dup4\n        /* \"#utility.yul\":16301:16321   */\n      tag_319\n      jump\t// in\n    tag_524:\n        /* \"#utility.yul\":16296:16321   */\n      swap3\n      pop\n        /* \"#utility.yul\":16344:16345   */\n      dup3\n        /* \"#utility.yul\":16341:16342   */\n      dup3\n        /* \"#utility.yul\":16337:16346   */\n      add\n        /* \"#utility.yul\":16330:16346   */\n      swap1\n      pop\n        /* \"#utility.yul\":16365:16368   */\n      dup1\n        /* \"#utility.yul\":16362:16363   */\n      dup3\n        /* \"#utility.yul\":16359:16369   */\n      gt\n        /* \"#utility.yul\":16356:16392   */\n      iszero\n      tag_525\n      jumpi\n        /* \"#utility.yul\":16372:16390   */\n      tag_526\n      tag_348\n      jump\t// in\n    tag_526:\n        /* \"#utility.yul\":16356:16392   */\n    tag_525:\n        /* \"#utility.yul\":16208:16399   */\n      swap3\n      swap2\n      pop\n      pop\n      jump\t// out\n        /* \"#utility.yul\":16405:16632   */\n    tag_349:\n        /* \"#utility.yul\":16545:16579   */\n      0x446567656e546f6b656e3a20696e73756666696369656e742062616c616e6365\n        /* \"#utility.yul\":16541:16542   */\n      0x00\n        /* \"#utility.yul\":16533:16539   */\n      dup3\n        /* \"#utility.yul\":16529:16543   */\n      add\n        /* \"#utility.yul\":16522:16580   */\n      mstore\n        /* \"#utility.yul\":16614:16624   */\n      0x20746f206275726e000000000000000000000000000000000000000000000000\n        /* \"#utility.yul\":16609:16611   */\n      0x20\n        /* \"#utility.yul\":16601:16607   */\n      dup3\n        /* \"#utility.yul\":16597:16612   */\n      add\n        /* \"#utility.yul\":16590:16625   */\n      mstore\n        /* \"#utility.yul\":16405:16632   */\n      pop\n      jump\t// out\n        /* \"#utility.yul\":16638:17004   */\n    tag_350:\n        /* \"#utility.yul\":16780:16783   */\n      0x00\n        /* \"#utility.yul\":16801:16868   */\n      tag_529\n        /* \"#utility.yul\":16865:16867   */\n      0x28\n        /* \"#utility.yul\":16860:16863   */\n      dup4\n        /* \"#utility.yul\":16801:16868   */\n      tag_308\n      jump\t// in\n    tag_529:\n        /* \"#utility.yul\":16794:16868   */\n      swap2\n      pop\n        /* \"#utility.yul\":16877:16970   */\n      tag_530\n        /* \"#utility.yul\":16966:16969   */\n      dup3\n        /* \"#utility.yul\":16877:16970   */\n      tag_349\n      jump\t// in\n    tag_530:\n        /* \"#utility.yul\":16995:16997   */\n      0x40\n        /* \"#utility.yul\":16990:16993   */\n      dup3\n        /* \"#utility.yul\":16986:16998   */\n      add\n        /* \"#utility.yul\":16979:16998   */\n      swap1\n      pop\n        /* \"#utility.yul\":16638:17004   */\n      swap2\n      swap1\n      pop\n      jump\t// out\n        /* \"#utility.yul\":17010:17429   */\n    tag_195:\n        /* \"#utility.yul\":17176:17180   */\n      0x00\n        /* \"#utility.yul\":17214:17216   */\n      0x20\n        /* \"#utility.yul\":17203:17212   */\n      dup3\n        /* \"#utility.yul\":17199:17217   */\n      add\n        /* \"#utility.yul\":17191:17217   */\n      swap1\n      pop\n        /* \"#utility.yul\":17263:17272   */\n      dup2\n        /* \"#utility.yul\":17257:17261   */\n      dup2\n        /* \"#utility.yul\":17253:17273   */\n      sub\n        /* \"#utility.yul\":17249:17250   */\n      0x00\n        /* \"#utility.yul\":17238:17247   */\n      dup4\n        /* \"#utility.yul\":17234:17251   */\n      add\n        /* \"#utility.yul\":17227:17274   */\n      mstore\n        /* \"#utility.yul\":17291:17422   */\n      tag_532\n        /* \"#utility.yul\":17417:17421   */\n      dup2\n        /* \"#utility.yul\":17291:17422   */\n      tag_350\n      jump\t// in\n    tag_532:\n        /* \"#utility.yul\":17283:17422   */\n      swap1\n      pop\n        /* \"#utility.yul\":17010:17429   */\n      swap2\n      swap1\n      pop\n      jump\t// out\n        /* \"#utility.yul\":17435:17659   */\n    tag_351:\n        /* \"#utility.yul\":17575:17609   */\n      0x45524332303a2064656372656173656420616c6c6f77616e63652062656c6f77\n        /* \"#utility.yul\":17571:17572   */\n      0x00\n        /* \"#utility.yul\":17563:17569   */\n      dup3\n        /* \"#utility.yul\":17559:17573   */\n      add\n        /* \"#utility.yul\":17552:17610   */\n      mstore\n        /* \"#utility.yul\":17644:17651   */\n      0x207a65726f000000000000000000000000000000000000000000000000000000\n        /* \"#utility.yul\":17639:17641   */\n      0x20\n        /* \"#utility.yul\":17631:17637   */\n      dup3\n        /* \"#utility.yul\":17627:17642   */\n      add\n        /* \"#utility.yul\":17620:17652   */\n      mstore\n        /* \"#utility.yul\":17435:17659   */\n      pop\n      jump\t// out\n        /* \"#utility.yul\":17665:18031   */\n    tag_352:\n        /* \"#utility.yul\":17807:17810   */\n      0x00\n        /* \"#utility.yul\":17828:17895   */\n      tag_535\n        /* \"#utility.yul\":17892:17894   */\n      0x25\n        /* \"#utility.yul\":17887:17890   */\n      dup4\n        /* \"#utility.yul\":17828:17895   */\n      tag_308\n      jump\t// in\n    tag_535:\n        /* \"#utility.yul\":17821:17895   */\n      swap2\n      pop\n        /* \"#utility.yul\":17904:17997   */\n      tag_536\n        /* \"#utility.yul\":17993:17996   */\n      dup3\n        /* \"#utility.yul\":17904:17997   */\n      tag_351\n      jump\t// in\n    tag_536:\n        /* \"#utility.yul\":18022:18024   */\n      0x40\n        /* \"#utility.yul\":18017:18020   */\n      dup3\n        /* \"#utility.yul\":18013:18025   */\n      add\n        /* \"#utility.yul\":18006:18025   */\n      swap1\n      pop\n        /* \"#utility.yul\":17665:18031   */\n      swap2\n      swap1\n      pop\n      jump\t// out\n        /* \"#utility.yul\":18037:18456   */\n    tag_223:\n        /* \"#utility.yul\":18203:18207   */\n      0x00\n        /* \"#utility.yul\":18241:18243   */\n      0x20\n        /* \"#utility.yul\":18230:18239   */\n      dup3\n        /* \"#utility.yul\":18226:18244   */\n      add\n        /* \"#utility.yul\":18218:18244   */\n      swap1\n      pop\n        /* \"#utility.yul\":18290:18299   */\n      dup2\n        /* \"#utility.yul\":18284:18288   */\n      dup2\n        /* \"#utility.yul\":18280:18300   */\n      sub\n        /* \"#utility.yul\":18276:18277   */\n      0x00\n        /* \"#utility.yul\":18265:18274   */\n      dup4\n        /* \"#utility.yul\":18261:18278   */\n      add\n        /* \"#utility.yul\":18254:18301   */\n      mstore\n        /* \"#utility.yul\":18318:18449   */\n      tag_538\n        /* \"#utility.yul\":18444:18448   */\n      dup2\n        /* \"#utility.yul\":18318:18449   */\n      tag_352\n      jump\t// in\n    tag_538:\n        /* \"#utility.yul\":18310:18449   */\n      swap1\n      pop\n        /* \"#utility.yul\":18037:18456   */\n      swap2\n      swap1\n      pop\n      jump\t// out\n        /* \"#utility.yul\":18462:18694   */\n    tag_353:\n        /* \"#utility.yul\":18602:18636   */\n      0x446567656e546f6b656e3a20696e73756666696369656e742062616c616e6365\n        /* \"#utility.yul\":18598:18599   */\n      0x00\n        /* \"#utility.yul\":18590:18596   */\n      dup3\n        /* \"#utility.yul\":18586:18600   */\n      add\n        /* \"#utility.yul\":18579:18637   */\n      mstore\n        /* \"#utility.yul\":18671:18686   */\n      0x20666f72207472616e7366657200000000000000000000000000000000000000\n        /* \"#utility.yul\":18666:18668   */\n      0x20\n        /* \"#utility.yul\":18658:18664   */\n      dup3\n        /* \"#utility.yul\":18654:18669   */\n      add\n        /* \"#utility.yul\":18647:18687   */\n      mstore\n        /* \"#utility.yul\":18462:18694   */\n      pop\n      jump\t// out\n        /* \"#utility.yul\":18700:19066   */\n    tag_354:\n        /* \"#utility.yul\":18842:18845   */\n      0x00\n        /* \"#utility.yul\":18863:18930   */\n      tag_541\n        /* \"#utility.yul\":18927:18929   */\n      0x2d\n        /* \"#utility.yul\":18922:18925   */\n      dup4\n        /* \"#utility.yul\":18863:18930   */\n      tag_308\n      jump\t// in\n    tag_541:\n        /* \"#utility.yul\":18856:18930   */\n      swap2\n      pop\n        /* \"#utility.yul\":18939:19032   */\n      tag_542\n        /* \"#utility.yul\":19028:19031   */\n      dup3\n        /* \"#utility.yul\":18939:19032   */\n      tag_353\n      jump\t// in\n    tag_542:\n        /* \"#utility.yul\":19057:19059   */\n      0x40\n        /* \"#utility.yul\":19052:19055   */\n      dup3\n        /* \"#utility.yul\":19048:19060   */\n      add\n        /* \"#utility.yul\":19041:19060   */\n      swap1\n      pop\n        /* \"#utility.yul\":18700:19066   */\n      swap2\n      swap1\n      pop\n      jump\t// out\n        /* \"#utility.yul\":19072:19491   */\n    tag_238:\n        /* \"#utility.yul\":19238:19242   */\n      0x00\n        /* \"#utility.yul\":19276:19278   */\n      0x20\n        /* \"#utility.yul\":19265:19274   */\n      dup3\n        /* \"#utility.yul\":19261:19279   */\n      add\n        /* \"#utility.yul\":19253:19279   */\n      swap1\n      pop\n        /* \"#utility.yul\":19325:19334   */\n      dup2\n        /* \"#utility.yul\":19319:19323   */\n      dup2\n        /* \"#utility.yul\":19315:19335   */\n      sub\n        /* \"#utility.yul\":19311:19312   */\n      0x00\n        /* \"#utility.yul\":19300:19309   */\n      dup4\n        /* \"#utility.yul\":19296:19313   */\n      add\n        /* \"#utility.yul\":19289:19336   */\n      mstore\n        /* \"#utility.yul\":19353:19484   */\n      tag_544\n        /* \"#utility.yul\":19479:19483   */\n      dup2\n        /* \"#utility.yul\":19353:19484   */\n      tag_354\n      jump\t// in\n    tag_544:\n        /* \"#utility.yul\":19345:19484   */\n      swap1\n      pop\n        /* \"#utility.yul\":19072:19491   */\n      swap2\n      swap1\n      pop\n      jump\t// out\n        /* \"#utility.yul\":19497:19722   */\n    tag_355:\n        /* \"#utility.yul\":19637:19671   */\n      0x4f776e61626c653a206e6577206f776e657220697320746865207a65726f2061\n        /* \"#utility.yul\":19633:19634   */\n      0x00\n        /* \"#utility.yul\":19625:19631   */\n      dup3\n        /* \"#utility.yul\":19621:19635   */\n      add\n        /* \"#utility.yul\":19614:19672   */\n      mstore\n        /* \"#utility.yul\":19706:19714   */\n      0x6464726573730000000000000000000000000000000000000000000000000000\n        /* \"#utility.yul\":19701:19703   */\n      0x20\n        /* \"#utility.yul\":19693:19699   */\n      dup3\n        /* \"#utility.yul\":19689:19704   */\n      add\n        /* \"#utility.yul\":19682:19715   */\n      mstore\n        /* \"#utility.yul\":19497:19722   */\n      pop\n      jump\t// out\n        /* \"#utility.yul\":19728:20094   */\n    tag_356:\n        /* \"#utility.yul\":19870:19873   */\n      0x00\n        /* \"#utility.yul\":19891:19958   */\n      tag_547\n        /* \"#utility.yul\":19955:19957   */\n      0x26\n        /* \"#utility.yul\":19950:19953   */\n      dup4\n        /* \"#utility.yul\":19891:19958   */\n      tag_308\n      jump\t// in\n    tag_547:\n        /* \"#utility.yul\":19884:19958   */\n      swap2\n      pop\n        /* \"#utility.yul\":19967:20060   */\n      tag_548\n        /* \"#utility.yul\":20056:20059   */\n      dup3\n        /* \"#utility.yul\":19967:20060   */\n      tag_355\n      jump\t// in\n    tag_548:\n        /* \"#utility.yul\":20085:20087   */\n      0x40\n        /* \"#utility.yul\":20080:20083   */\n      dup3\n        /* \"#utility.yul\":20076:20088   */\n      add\n        /* \"#utility.yul\":20069:20088   */\n      swap1\n      pop\n        /* \"#utility.yul\":19728:20094   */\n      swap2\n      swap1\n      pop\n      jump\t// out\n        /* \"#utility.yul\":20100:20519   */\n    tag_247:\n        /* \"#utility.yul\":20266:20270   */\n      0x00\n        /* \"#utility.yul\":20304:20306   */\n      0x20\n        /* \"#utility.yul\":20293:20302   */\n      dup3\n        /* \"#utility.yul\":20289:20307   */\n      add\n        /* \"#utility.yul\":20281:20307   */\n      swap1\n      pop\n        /* \"#utility.yul\":20353:20362   */\n      dup2\n        /* \"#utility.yul\":20347:20351   */\n      dup2\n        /* \"#utility.yul\":20343:20363   */\n      sub\n        /* \"#utility.yul\":20339:20340   */\n      0x00\n        /* \"#utility.yul\":20328:20337   */\n      dup4\n        /* \"#utility.yul\":20324:20341   */\n      add\n        /* \"#utility.yul\":20317:20364   */\n      mstore\n        /* \"#utility.yul\":20381:20512   */\n      tag_550\n        /* \"#utility.yul\":20507:20511   */\n      dup2\n        /* \"#utility.yul\":20381:20512   */\n      tag_356\n      jump\t// in\n    tag_550:\n        /* \"#utility.yul\":20373:20512   */\n      swap1\n      pop\n        /* \"#utility.yul\":20100:20519   */\n      swap2\n      swap1\n      pop\n      jump\t// out\n        /* \"#utility.yul\":20525:20748   */\n    tag_357:\n        /* \"#utility.yul\":20665:20699   */\n      0x45524332303a20617070726f76652066726f6d20746865207a65726f20616464\n        /* \"#utility.yul\":20661:20662   */\n      0x00\n        /* \"#utility.yul\":20653:20659   */\n      dup3\n        /* \"#utility.yul\":20649:20663   */\n      add\n        /* \"#utility.yul\":20642:20700   */\n      mstore\n        /* \"#utility.yul\":20734:20740   */\n      0x7265737300000000000000000000000000000000000000000000000000000000\n        /* \"#utility.yul\":20729:20731   */\n      0x20\n        /* \"#utility.yul\":20721:20727   */\n      dup3\n        /* \"#utility.yul\":20717:20732   */\n      add\n        /* \"#utility.yul\":20710:20741   */\n      mstore\n        /* \"#utility.yul\":20525:20748   */\n      pop\n      jump\t// out\n        /* \"#utility.yul\":20754:21120   */\n    tag_358:\n        /* \"#utility.yul\":20896:20899   */\n      0x00\n        /* \"#utility.yul\":20917:20984   */\n      tag_553\n        /* \"#utility.yul\":20981:20983   */\n      0x24\n        /* \"#utility.yul\":20976:20979   */\n      dup4\n        /* \"#utility.yul\":20917:20984   */\n      tag_308\n      jump\t// in\n    tag_553:\n        /* \"#utility.yul\":20910:20984   */\n      swap2\n      pop\n        /* \"#utility.yul\":20993:21086   */\n      tag_554\n        /* \"#utility.yul\":21082:21085   */\n      dup3\n        /* \"#utility.yul\":20993:21086   */\n      tag_357\n      jump\t// in\n    tag_554:\n        /* \"#utility.yul\":21111:21113   */\n      0x40\n        /* \"#utility.yul\":21106:21109   */\n      dup3\n        /* \"#utility.yul\":21102:21114   */\n      add\n        /* \"#utility.yul\":21095:21114   */\n      swap1\n      pop\n        /* \"#utility.yul\":20754:21120   */\n      swap2\n      swap1\n      pop\n      jump\t// out\n        /* \"#utility.yul\":21126:21545   */\n    tag_253:\n        /* \"#utility.yul\":21292:21296   */\n      0x00\n        /* \"#utility.yul\":21330:21332   */\n      0x20\n        /* \"#utility.yul\":21319:21328   */\n      dup3\n        /* \"#utility.yul\":21315:21333   */\n      add\n        /* \"#utility.yul\":21307:21333   */\n      swap1\n      pop\n        /* \"#utility.yul\":21379:21388   */\n      dup2\n        /* \"#utility.yul\":21373:21377   */\n      dup2\n        /* \"#utility.yul\":21369:21389   */\n      sub\n        /* \"#utility.yul\":21365:21366   */\n      0x00\n        /* \"#utility.yul\":21354:21363   */\n      dup4\n        /* \"#utility.yul\":21350:21367   */\n      add\n        /* \"#utility.yul\":21343:21390   */\n      mstore\n        /* \"#utility.yul\":21407:21538   */\n      tag_556\n        /* \"#utility.yul\":21533:21537   */\n      dup2\n        /* \"#utility.yul\":21407:21538   */\n      tag_358\n      jump\t// in\n    tag_556:\n        /* \"#utility.yul\":21399:21538   */\n      swap1\n      pop\n        /* \"#utility.yul\":21126:21545   */\n      swap2\n      swap1\n      pop\n      jump\t// out\n        /* \"#utility.yul\":21551:21772   */\n    tag_359:\n        /* \"#utility.yul\":21691:21725   */\n      0x45524332303a20617070726f766520746f20746865207a65726f206164647265\n        /* \"#utility.yul\":21687:21688   */\n      0x00\n        /* \"#utility.yul\":21679:21685   */\n      dup3\n        /* \"#utility.yul\":21675:21689   */\n      add\n        /* \"#utility.yul\":21668:21726   */\n      mstore\n        /* \"#utility.yul\":21760:21764   */\n      0x7373000000000000000000000000000000000000000000000000000000000000\n        /* \"#utility.yul\":21755:21757   */\n      0x20\n        /* \"#utility.yul\":21747:21753   */\n      dup3\n        /* \"#utility.yul\":21743:21758   */\n      add\n        /* \"#utility.yul\":21736:21765   */\n      mstore\n        /* \"#utility.yul\":21551:21772   */\n      pop\n      jump\t// out\n        /* \"#utility.yul\":21778:22144   */\n    tag_360:\n        /* \"#utility.yul\":21920:21923   */\n      0x00\n        /* \"#utility.yul\":21941:22008   */\n      tag_559\n        /* \"#utility.yul\":22005:22007   */\n      0x22\n        /* \"#utility.yul\":22000:22003   */\n      dup4\n        /* \"#utility.yul\":21941:22008   */\n      tag_308\n      jump\t// in\n    tag_559:\n        /* \"#utility.yul\":21934:22008   */\n      swap2\n      pop\n        /* \"#utility.yul\":22017:22110   */\n      tag_560\n        /* \"#utility.yul\":22106:22109   */\n      dup3\n        /* \"#utility.yul\":22017:22110   */\n      tag_359\n      jump\t// in\n    tag_560:\n        /* \"#utility.yul\":22135:22137   */\n      0x40\n        /* \"#utility.yul\":22130:22133   */\n      dup3\n        /* \"#utility.yul\":22126:22138   */\n      add\n        /* \"#utility.yul\":22119:22138   */\n      swap1\n      pop\n        /* \"#utility.yul\":21778:22144   */\n      swap2\n      swap1\n      pop\n      jump\t// out\n        /* \"#utility.yul\":22150:22569   */\n    tag_256:\n        /* \"#utility.yul\":22316:22320   */\n      0x00\n        /* \"#utility.yul\":22354:22356   */\n      0x20\n        /* \"#utility.yul\":22343:22352   */\n      dup3\n        /* \"#utility.yul\":22339:22357   */\n      add\n        /* \"#utility.yul\":22331:22357   */\n      swap1\n      pop\n        /* \"#utility.yul\":22403:22412   */\n      dup2\n        /* \"#utility.yul\":22397:22401   */\n      dup2\n        /* \"#utility.yul\":22393:22413   */\n      sub\n        /* \"#utility.yul\":22389:22390   */\n      0x00\n        /* \"#utility.yul\":22378:22387   */\n      dup4\n        /* \"#utility.yul\":22374:22391   */\n      add\n        /* \"#utility.yul\":22367:22414   */\n      mstore\n        /* \"#utility.yul\":22431:22562   */\n      tag_562\n        /* \"#utility.yul\":22557:22561   */\n      dup2\n        /* \"#utility.yul\":22431:22562   */\n      tag_360\n      jump\t// in\n    tag_562:\n        /* \"#utility.yul\":22423:22562   */\n      swap1\n      pop\n        /* \"#utility.yul\":22150:22569   */\n      swap2\n      swap1\n      pop\n      jump\t// out\n        /* \"#utility.yul\":22575:22795   */\n    tag_361:\n        /* \"#utility.yul\":22715:22749   */\n      0x45524332303a206275726e2066726f6d20746865207a65726f20616464726573\n        /* \"#utility.yul\":22711:22712   */\n      0x00\n        /* \"#utility.yul\":22703:22709   */\n      dup3\n        /* \"#utility.yul\":22699:22713   */\n      add\n        /* \"#utility.yul\":22692:22750   */\n      mstore\n        /* \"#utility.yul\":22784:22787   */\n      0x7300000000000000000000000000000000000000000000000000000000000000\n        /* \"#utility.yul\":22779:22781   */\n      0x20\n        /* \"#utility.yul\":22771:22777   */\n      dup3\n        /* \"#utility.yul\":22767:22782   */\n      add\n        /* \"#utility.yul\":22760:22788   */\n      mstore\n        /* \"#utility.yul\":22575:22795   */\n      pop\n      jump\t// out\n        /* \"#utility.yul\":22801:23167   */\n    tag_362:\n        /* \"#utility.yul\":22943:22946   */\n      0x00\n        /* \"#utility.yul\":22964:23031   */\n      tag_565\n        /* \"#utility.yul\":23028:23030   */\n      0x21\n        /* \"#utility.yul\":23023:23026   */\n      dup4\n        /* \"#utility.yul\":22964:23031   */\n      tag_308\n      jump\t// in\n    tag_565:\n        /* \"#utility.yul\":22957:23031   */\n      swap2\n      pop\n        /* \"#utility.yul\":23040:23133   */\n      tag_566\n        /* \"#utility.yul\":23129:23132   */\n      dup3\n        /* \"#utility.yul\":23040:23133   */\n      tag_361\n      jump\t// in\n    tag_566:\n        /* \"#utility.yul\":23158:23160   */\n      0x40\n        /* \"#utility.yul\":23153:23156   */\n      dup3\n        /* \"#utility.yul\":23149:23161   */\n      add\n        /* \"#utility.yul\":23142:23161   */\n      swap1\n      pop\n        /* \"#utility.yul\":22801:23167   */\n      swap2\n      swap1\n      pop\n      jump\t// out\n        /* \"#utility.yul\":23173:23592   */\n    tag_261:\n        /* \"#utility.yul\":23339:23343   */\n      0x00\n        /* \"#utility.yul\":23377:23379   */\n      0x20\n        /* \"#utility.yul\":23366:23375   */\n      dup3\n        /* \"#utility.yul\":23362:23380   */\n      add\n        /* \"#utility.yul\":23354:23380   */\n      swap1\n      pop\n        /* \"#utility.yul\":23426:23435   */\n      dup2\n        /* \"#utility.yul\":23420:23424   */\n      dup2\n        /* \"#utility.yul\":23416:23436   */\n      sub\n        /* \"#utility.yul\":23412:23413   */\n      0x00\n        /* \"#utility.yul\":23401:23410   */\n      dup4\n        /* \"#utility.yul\":23397:23414   */\n      add\n        /* \"#utility.yul\":23390:23437   */\n      mstore\n        /* \"#utility.yul\":23454:23585   */\n      tag_568\n        /* \"#utility.yul\":23580:23584   */\n      dup2\n        /* \"#utility.yul\":23454:23585   */\n      tag_362\n      jump\t// in\n    tag_568:\n        /* \"#utility.yul\":23446:23585   */\n      swap1\n      pop\n        /* \"#utility.yul\":23173:23592   */\n      swap2\n      swap1\n      pop\n      jump\t// out\n        /* \"#utility.yul\":23598:23819   */\n    tag_363:\n        /* \"#utility.yul\":23738:23772   */\n      0x45524332303a206275726e20616d6f756e7420657863656564732062616c616e\n        /* \"#utility.yul\":23734:23735   */\n      0x00\n        /* \"#utility.yul\":23726:23732   */\n      dup3\n        /* \"#utility.yul\":23722:23736   */\n      add\n        /* \"#utility.yul\":23715:23773   */\n      mstore\n        /* \"#utility.yul\":23807:23811   */\n      0x6365000000000000000000000000000000000000000000000000000000000000\n        /* \"#utility.yul\":23802:23804   */\n      0x20\n        /* \"#utility.yul\":23794:23800   */\n      dup3\n        /* \"#utility.yul\":23790:23805   */\n      add\n        /* \"#utility.yul\":23783:23812   */\n      mstore\n        /* \"#utility.yul\":23598:23819   */\n      pop\n      jump\t// out\n        /* \"#utility.yul\":23825:24191   */\n    tag_364:\n        /* \"#utility.yul\":23967:23970   */\n      0x00\n        /* \"#utility.yul\":23988:24055   */\n      tag_571\n        /* \"#utility.yul\":24052:24054   */\n      0x22\n        /* \"#utility.yul\":24047:24050   */\n      dup4\n        /* \"#utility.yul\":23988:24055   */\n      tag_308\n      jump\t// in\n    tag_571:\n        /* \"#utility.yul\":23981:24055   */\n      swap2\n      pop\n        /* \"#utility.yul\":24064:24157   */\n      tag_572\n        /* \"#utility.yul\":24153:24156   */\n      dup3\n        /* \"#utility.yul\":24064:24157   */\n      tag_363\n      jump\t// in\n    tag_572:\n        /* \"#utility.yul\":24182:24184   */\n      0x40\n        /* \"#utility.yul\":24177:24180   */\n      dup3\n        /* \"#utility.yul\":24173:24185   */\n      add\n        /* \"#utility.yul\":24166:24185   */\n      swap1\n      pop\n        /* \"#utility.yul\":23825:24191   */\n      swap2\n      swap1\n      pop\n      jump\t// out\n        /* \"#utility.yul\":24197:24616   */\n    tag_266:\n        /* \"#utility.yul\":24363:24367   */\n      0x00\n        /* \"#utility.yul\":24401:24403   */\n      0x20\n        /* \"#utility.yul\":24390:24399   */\n      dup3\n        /* \"#utility.yul\":24386:24404   */\n      add\n        /* \"#utility.yul\":24378:24404   */\n      swap1\n      pop\n        /* \"#utility.yul\":24450:24459   */\n      dup2\n        /* \"#utility.yul\":24444:24448   */\n      dup2\n        /* \"#utility.yul\":24440:24460   */\n      sub\n        /* \"#utility.yul\":24436:24437   */\n      0x00\n        /* \"#utility.yul\":24425:24434   */\n      dup4\n        /* \"#utility.yul\":24421:24438   */\n      add\n        /* \"#utility.yul\":24414:24461   */\n      mstore\n        /* \"#utility.yul\":24478:24609   */\n      tag_574\n        /* \"#utility.yul\":24604:24608   */\n      dup2\n        /* \"#utility.yul\":24478:24609   */\n      tag_364\n      jump\t// in\n    tag_574:\n        /* \"#utility.yul\":24470:24609   */\n      swap1\n      pop\n        /* \"#utility.yul\":24197:24616   */\n      swap2\n      swap1\n      pop\n      jump\t// out\n        /* \"#utility.yul\":24622:24801   */\n    tag_365:\n        /* \"#utility.yul\":24762:24793   */\n      0x45524332303a20696e73756666696369656e7420616c6c6f77616e6365000000\n        /* \"#utility.yul\":24758:24759   */\n      0x00\n        /* \"#utility.yul\":24750:24756   */\n      dup3\n        /* \"#utility.yul\":24746:24760   */\n      add\n        /* \"#utility.yul\":24739:24794   */\n      mstore\n        /* \"#utility.yul\":24622:24801   */\n      pop\n      jump\t// out\n        /* \"#utility.yul\":24807:25173   */\n    tag_366:\n        /* \"#utility.yul\":24949:24952   */\n      0x00\n        /* \"#utility.yul\":24970:25037   */\n      tag_577\n        /* \"#utility.yul\":25034:25036   */\n      0x1d\n        /* \"#utility.yul\":25029:25032   */\n      dup4\n        /* \"#utility.yul\":24970:25037   */\n      tag_308\n      jump\t// in\n    tag_577:\n        /* \"#utility.yul\":24963:25037   */\n      swap2\n      pop\n        /* \"#utility.yul\":25046:25139   */\n      tag_578\n        /* \"#utility.yul\":25135:25138   */\n      dup3\n        /* \"#utility.yul\":25046:25139   */\n      tag_365\n      jump\t// in\n    tag_578:\n        /* \"#utility.yul\":25164:25166   */\n      0x20\n        /* \"#utility.yul\":25159:25162   */\n      dup3\n        /* \"#utility.yul\":25155:25167   */\n      add\n        /* \"#utility.yul\":25148:25167   */\n      swap1\n      pop\n        /* \"#utility.yul\":24807:25173   */\n      swap2\n      swap1\n      pop\n      jump\t// out\n        /* \"#utility.yul\":25179:25598   */\n    tag_275:\n        /* \"#utility.yul\":25345:25349   */\n      0x00\n        /* \"#utility.yul\":25383:25385   */\n      0x20\n        /* \"#utility.yul\":25372:25381   */\n      dup3\n        /* \"#utility.yul\":25368:25386   */\n      add\n        /* \"#utility.yul\":25360:25386   */\n      swap1\n      pop\n        /* \"#utility.yul\":25432:25441   */\n      dup2\n        /* \"#utility.yul\":25426:25430   */\n      dup2\n        /* \"#utility.yul\":25422:25442   */\n      sub\n        /* \"#utility.yul\":25418:25419   */\n      0x00\n        /* \"#utility.yul\":25407:25416   */\n      dup4\n        /* \"#utility.yul\":25403:25420   */\n      add\n        /* \"#utility.yul\":25396:25443   */\n      mstore\n        /* \"#utility.yul\":25460:25591   */\n      tag_580\n        /* \"#utility.yul\":25586:25590   */\n      dup2\n        /* \"#utility.yul\":25460:25591   */\n      tag_366\n      jump\t// in\n    tag_580:\n        /* \"#utility.yul\":25452:25591   */\n      swap1\n      pop\n        /* \"#utility.yul\":25179:25598   */\n      swap2\n      swap1\n      pop\n      jump\t// out\n        /* \"#utility.yul\":25604:25828   */\n    tag_367:\n        /* \"#utility.yul\":25744:25778   */\n      0x45524332303a207472616e736665722066726f6d20746865207a65726f206164\n        /* \"#utility.yul\":25740:25741   */\n      0x00\n        /* \"#utility.yul\":25732:25738   */\n      dup3\n        /* \"#utility.yul\":25728:25742   */\n      add\n        /* \"#utility.yul\":25721:25779   */\n      mstore\n        /* \"#utility.yul\":25813:25820   */\n      0x6472657373000000000000000000000000000000000000000000000000000000\n        /* \"#utility.yul\":25808:25810   */\n      0x20\n        /* \"#utility.yul\":25800:25806   */\n      dup3\n        /* \"#utility.yul\":25796:25811   */\n      add\n        /* \"#utility.yul\":25789:25821   */\n      mstore\n        /* \"#utility.yul\":25604:25828   */\n      pop\n      jump\t// out\n        /* \"#utility.yul\":25834:26200   */\n    tag_368:\n        /* \"#utility.yul\":25976:25979   */\n      0x00\n        /* \"#utility.yul\":25997:26064   */\n      tag_583\n        /* \"#utility.yul\":26061:26063   */\n      0x25\n        /* \"#utility.yul\":26056:26059   */\n      dup4\n        /* \"#utility.yul\":25997:26064   */\n      tag_308\n      jump\t// in\n    tag_583:\n        /* \"#utility.yul\":25990:26064   */\n      swap2\n      pop\n        /* \"#utility.yul\":26073:26166   */\n      tag_584\n        /* \"#utility.yul\":26162:26165   */\n      dup3\n        /* \"#utility.yul\":26073:26166   */\n      tag_367\n      jump\t// in\n    tag_584:\n        /* \"#utility.yul\":26191:26193   */\n      0x40\n        /* \"#utility.yul\":26186:26189   */\n      dup3\n        /* \"#utility.yul\":26182:26194   */\n      add\n        /* \"#utility.yul\":26175:26194   */\n      swap1\n      pop\n        /* \"#utility.yul\":25834:26200   */\n      swap2\n      swap1\n      pop\n      jump\t// out\n        /* \"#utility.yul\":26206:26625   */\n    tag_280:\n        /* \"#utility.yul\":26372:26376   */\n      0x00\n        /* \"#utility.yul\":26410:26412   */\n      0x20\n        /* \"#utility.yul\":26399:26408   */\n      dup3\n        /* \"#utility.yul\":26395:26413   */\n      add\n        /* \"#utility.yul\":26387:26413   */\n      swap1\n      pop\n        /* \"#utility.yul\":26459:26468   */\n      dup2\n        /* \"#utility.yul\":26453:26457   */\n      dup2\n        /* \"#utility.yul\":26449:26469   */\n      sub\n        /* \"#utility.yul\":26445:26446   */\n      0x00\n        /* \"#utility.yul\":26434:26443   */\n      dup4\n        /* \"#utility.yul\":26430:26447   */\n      add\n        /* \"#utility.yul\":26423:26470   */\n      mstore\n        /* \"#utility.yul\":26487:26618   */\n      tag_586\n        /* \"#utility.yul\":26613:26617   */\n      dup2\n        /* \"#utility.yul\":26487:26618   */\n      tag_368\n      jump\t// in\n    tag_586:\n        /* \"#utility.yul\":26479:26618   */\n      swap1\n      pop\n        /* \"#utility.yul\":26206:26625   */\n      swap2\n      swap1\n      pop\n      jump\t// out\n        /* \"#utility.yul\":26631:26853   */\n    tag_369:\n        /* \"#utility.yul\":26771:26805   */\n      0x45524332303a207472616e7366657220746f20746865207a65726f2061646472\n        /* \"#utility.yul\":26767:26768   */\n      0x00\n        /* \"#utility.yul\":26759:26765   */\n      dup3\n        /* \"#utility.yul\":26755:26769   */\n      add\n        /* \"#utility.yul\":26748:26806   */\n      mstore\n        /* \"#utility.yul\":26840:26845   */\n      0x6573730000000000000000000000000000000000000000000000000000000000\n        /* \"#utility.yul\":26835:26837   */\n      0x20\n        /* \"#utility.yul\":26827:26833   */\n      dup3\n        /* \"#utility.yul\":26823:26838   */\n      add\n        /* \"#utility.yul\":26816:26846   */\n      mstore\n        /* \"#utility.yul\":26631:26853   */\n      pop\n      jump\t// out\n        /* \"#utility.yul\":26859:27225   */\n    tag_370:\n        /* \"#utility.yul\":27001:27004   */\n      0x00\n        /* \"#utility.yul\":27022:27089   */\n      tag_589\n        /* \"#utility.yul\":27086:27088   */\n      0x23\n        /* \"#utility.yul\":27081:27084   */\n      dup4\n        /* \"#utility.yul\":27022:27089   */\n      tag_308\n      jump\t// in\n    tag_589:\n        /* \"#utility.yul\":27015:27089   */\n      swap2\n      pop\n        /* \"#utility.yul\":27098:27191   */\n      tag_590\n        /* \"#utility.yul\":27187:27190   */\n      dup3\n        /* \"#utility.yul\":27098:27191   */\n      tag_369\n      jump\t// in\n    tag_590:\n        /* \"#utility.yul\":27216:27218   */\n      0x40\n        /* \"#utility.yul\":27211:27214   */\n      dup3\n        /* \"#utility.yul\":27207:27219   */\n      add\n        /* \"#utility.yul\":27200:27219   */\n      swap1\n      pop\n        /* \"#utility.yul\":26859:27225   */\n      swap2\n      swap1\n      pop\n      jump\t// out\n        /* \"#utility.yul\":27231:27650   */\n    tag_283:\n        /* \"#utility.yul\":27397:27401   */\n      0x00\n        /* \"#utility.yul\":27435:27437   */\n      0x20\n        /* \"#utility.yul\":27424:27433   */\n      dup3\n        /* \"#utility.yul\":27420:27438   */\n      add\n        /* \"#utility.yul\":27412:27438   */\n      swap1\n      pop\n        /* \"#utility.yul\":27484:27493   */\n      dup2\n        /* \"#utility.yul\":27478:27482   */\n      dup2\n        /* \"#utility.yul\":27474:27494   */\n      sub\n        /* \"#utility.yul\":27470:27471   */\n      0x00\n        /* \"#utility.yul\":27459:27468   */\n      dup4\n        /* \"#utility.yul\":27455:27472   */\n      add\n        /* \"#utility.yul\":27448:27495   */\n      mstore\n        /* \"#utility.yul\":27512:27643   */\n      tag_592\n        /* \"#utility.yul\":27638:27642   */\n      dup2\n        /* \"#utility.yul\":27512:27643   */\n      tag_370\n      jump\t// in\n    tag_592:\n        /* \"#utility.yul\":27504:27643   */\n      swap1\n      pop\n        /* \"#utility.yul\":27231:27650   */\n      swap2\n      swap1\n      pop\n      jump\t// out\n        /* \"#utility.yul\":27656:27881   */\n    tag_371:\n        /* \"#utility.yul\":27796:27830   */\n      0x45524332303a207472616e7366657220616d6f756e7420657863656564732062\n        /* \"#utility.yul\":27792:27793   */\n      0x00\n        /* \"#utility.yul\":27784:27790   */\n      dup3\n        /* \"#utility.yul\":27780:27794   */\n      add\n        /* \"#utility.yul\":27773:27831   */\n      mstore\n        /* \"#utility.yul\":27865:27873   */\n      0x616c616e63650000000000000000000000000000000000000000000000000000\n        /* \"#utility.yul\":27860:27862   */\n      0x20\n        /* \"#utility.yul\":27852:27858   */\n      dup3\n        /* \"#utility.yul\":27848:27863   */\n      add\n        /* \"#utility.yul\":27841:27874   */\n      mstore\n        /* \"#utility.yul\":27656:27881   */\n      pop\n      jump\t// out\n        /* \"#utility.yul\":27887:28253   */\n    tag_372:\n        /* \"#utility.yul\":28029:28032   */\n      0x00\n        /* \"#utility.yul\":28050:28117   */\n      tag_595\n        /* \"#utility.yul\":28114:28116   */\n      0x26\n        /* \"#utility.yul\":28109:28112   */\n      dup4\n        /* \"#utility.yul\":28050:28117   */\n      tag_308\n      jump\t// in\n    tag_595:\n        /* \"#utility.yul\":28043:28117   */\n      swap2\n      pop\n        /* \"#utility.yul\":28126:28219   */\n      tag_596\n        /* \"#utility.yul\":28215:28218   */\n      dup3\n        /* \"#utility.yul\":28126:28219   */\n      tag_371\n      jump\t// in\n    tag_596:\n        /* \"#utility.yul\":28244:28246   */\n      0x40\n        /* \"#utility.yul\":28239:28242   */\n      dup3\n        /* \"#utility.yul\":28235:28247   */\n      add\n        /* \"#utility.yul\":28228:28247   */\n      swap1\n      pop\n        /* \"#utility.yul\":27887:28253   */\n      swap2\n      swap1\n      pop\n      jump\t// out\n        /* \"#utility.yul\":28259:28678   */\n    tag_287:\n        /* \"#utility.yul\":28425:28429   */\n      0x00\n        /* \"#utility.yul\":28463:28465   */\n      0x20\n        /* \"#utility.yul\":28452:28461   */\n      dup3\n        /* \"#utility.yul\":28448:28466   */\n      add\n        /* \"#utility.yul\":28440:28466   */\n      swap1\n      pop\n        /* \"#utility.yul\":28512:28521   */\n      dup2\n        /* \"#utility.yul\":28506:28510   */\n      dup2\n        /* \"#utility.yul\":28502:28522   */\n      sub\n        /* \"#utility.yul\":28498:28499   */\n      0x00\n        /* \"#utility.yul\":28487:28496   */\n      dup4\n        /* \"#utility.yul\":28483:28500   */\n      add\n        /* \"#utility.yul\":28476:28523   */\n      mstore\n        /* \"#utility.yul\":28540:28671   */\n      tag_598\n        /* \"#utility.yul\":28666:28670   */\n      dup2\n        /* \"#utility.yul\":28540:28671   */\n      tag_372\n      jump\t// in\n    tag_598:\n        /* \"#utility.yul\":28532:28671   */\n      swap1\n      pop\n        /* \"#utility.yul\":28259:28678   */\n      swap2\n      swap1\n      pop\n      jump\t// out\n        /* \"#utility.yul\":28684:28866   */\n    tag_373:\n        /* \"#utility.yul\":28824:28858   */\n      0x4f776e61626c653a2063616c6c6572206973206e6f7420746865206f776e6572\n        /* \"#utility.yul\":28820:28821   */\n      0x00\n        /* \"#utility.yul\":28812:28818   */\n      dup3\n        /* \"#utility.yul\":28808:28822   */\n      add\n        /* \"#utility.yul\":28801:28859   */\n      mstore\n        /* \"#utility.yul\":28684:28866   */\n      pop\n      jump\t// out\n        /* \"#utility.yul\":28872:29238   */\n    tag_374:\n        /* \"#utility.yul\":29014:29017   */\n      0x00\n        /* \"#utility.yul\":29035:29102   */\n      tag_601\n        /* \"#utility.yul\":29099:29101   */\n      0x20\n        /* \"#utility.yul\":29094:29097   */\n      dup4\n        /* \"#utility.yul\":29035:29102   */\n      tag_308\n      jump\t// in\n    tag_601:\n        /* \"#utility.yul\":29028:29102   */\n      swap2\n      pop\n        /* \"#utility.yul\":29111:29204   */\n      tag_602\n        /* \"#utility.yul\":29200:29203   */\n      dup3\n        /* \"#utility.yul\":29111:29204   */\n      tag_373\n      jump\t// in\n    tag_602:\n        /* \"#utility.yul\":29229:29231   */\n      0x20\n        /* \"#utility.yul\":29224:29227   */\n      dup3\n        /* \"#utility.yul\":29220:29232   */\n      add\n        /* \"#utility.yul\":29213:29232   */\n      swap1\n      pop\n        /* \"#utility.yul\":28872:29238   */\n      swap2\n      swap1\n      pop\n      jump\t// out\n        /* \"#utility.yul\":29244:29663   */\n    tag_295:\n        /* \"#utility.yul\":29410:29414   */\n      0x00\n        /* \"#utility.yul\":29448:29450   */\n      0x20\n        /* \"#utility.yul\":29437:29446   */\n      dup3\n        /* \"#utility.yul\":29433:29451   */\n      add\n        /* \"#utility.yul\":29425:29451   */\n      swap1\n      pop\n        /* \"#utility.yul\":29497:29506   */\n      dup2\n        /* \"#utility.yul\":29491:29495   */\n      dup2\n        /* \"#utility.yul\":29487:29507   */\n      sub\n        /* \"#utility.yul\":29483:29484   */\n      0x00\n        /* \"#utility.yul\":29472:29481   */\n      dup4\n        /* \"#utility.yul\":29468:29485   */\n      add\n        /* \"#utility.yul\":29461:29508   */\n      mstore\n        /* \"#utility.yul\":29525:29656   */\n      tag_604\n        /* \"#utility.yul\":29651:29655   */\n      dup2\n        /* \"#utility.yul\":29525:29656   */\n      tag_374\n      jump\t// in\n    tag_604:\n        /* \"#utility.yul\":29517:29656   */\n      swap1\n      pop\n        /* \"#utility.yul\":29244:29663   */\n      swap2\n      swap1\n      pop\n      jump\t// out\n        /* \"#utility.yul\":29669:29850   */\n    tag_375:\n        /* \"#utility.yul\":29809:29842   */\n      0x45524332303a206d696e7420746f20746865207a65726f206164647265737300\n        /* \"#utility.yul\":29805:29806   */\n      0x00\n        /* \"#utility.yul\":29797:29803   */\n      dup3\n        /* \"#utility.yul\":29793:29807   */\n      add\n        /* \"#utility.yul\":29786:29843   */\n      mstore\n        /* \"#utility.yul\":29669:29850   */\n      pop\n      jump\t// out\n        /* \"#utility.yul\":29856:30222   */\n    tag_376:\n        /* \"#utility.yul\":29998:30001   */\n      0x00\n        /* \"#utility.yul\":30019:30086   */\n      tag_607\n        /* \"#utility.yul\":30083:30085   */\n      0x1f\n        /* \"#utility.yul\":30078:30081   */\n      dup4\n        /* \"#utility.yul\":30019:30086   */\n      tag_308\n      jump\t// in\n    tag_607:\n        /* \"#utility.yul\":30012:30086   */\n      swap2\n      pop\n        /* \"#utility.yul\":30095:30188   */\n      tag_608\n        /* \"#utility.yul\":30184:30187   */\n      dup3\n        /* \"#utility.yul\":30095:30188   */\n      tag_375\n      jump\t// in\n    tag_608:\n        /* \"#utility.yul\":30213:30215   */\n      0x20\n        /* \"#utility.yul\":30208:30211   */\n      dup3\n        /* \"#utility.yul\":30204:30216   */\n      add\n        /* \"#utility.yul\":30197:30216   */\n      swap1\n      pop\n        /* \"#utility.yul\":29856:30222   */\n      swap2\n      swap1\n      pop\n      jump\t// out\n        /* \"#utility.yul\":30228:30647   */\n    tag_300:\n        /* \"#utility.yul\":30394:30398   */\n      0x00\n        /* \"#utility.yul\":30432:30434   */\n      0x20\n        /* \"#utility.yul\":30421:30430   */\n      dup3\n        /* \"#utility.yul\":30417:30435   */\n      add\n        /* \"#utility.yul\":30409:30435   */\n      swap1\n      pop\n        /* \"#utility.yul\":30481:30490   */\n      dup2\n        /* \"#utility.yul\":30475:30479   */\n      dup2\n        /* \"#utility.yul\":30471:30491   */\n      sub\n        /* \"#utility.yul\":30467:30468   */\n      0x00\n        /* \"#utility.yul\":30456:30465   */\n      dup4\n        /* \"#utility.yul\":30452:30469   */\n      add\n        /* \"#utility.yul\":30445:30492   */\n      mstore\n        /* \"#utility.yul\":30509:30640   */\n      tag_610\n        /* \"#utility.yul\":30635:30639   */\n      dup2\n        /* \"#utility.yul\":30509:30640   */\n      tag_376\n      jump\t// in\n    tag_610:\n        /* \"#utility.yul\":30501:30640   */\n      swap1\n      pop\n        /* \"#utility.yul\":30228:30647   */\n      swap2\n      swap1\n      pop\n      jump\t// out\n\n    auxdata: 0xa2646970667358221220126d9def80bf384e0e8cfacf240d1fc20f0530140b62c3499491a81647d5c26164736f6c634300081a0033\n}\n",
				"bytecode": {
					"linkReferences": {},
					"object": "608060405234801561000f575f80fd5b506040518060400160405280600581526020017f446567656e0000000000000000000000000000000000000000000000000000008152506040518060400160405280600381526020017f44474e0000000000000000000000000000000000000000000000000000000000815250816003908161008b91906105f1565b50806004908161009b91906105f1565b5050506100ba6100af6102ed60201b60201c565b6102f460201b60201c565b60066040518060600160405280600581526020016040518060400160405280601581526020017f5374656c6c6172204a61646573205061636b616765000000000000000000000081525081526020015f1515815250908060018154018082558091505060019003905f5260205f2090600302015f909190919091505f820151815f0155602082015181600101908161015291906105f1565b506040820151816002015f6101000a81548160ff021916908315150217905550505060066040518060600160405280600a81526020016040518060400160405280601e81526020017f426c657373696e67206f66207468652057656c6b696e20476f6464657373000081525081526020015f1515815250908060018154018082558091505060019003905f5260205f2090600302015f909190919091505f820151815f0155602082015181600101908161020c91906105f1565b506040820151816002015f6101000a81548160ff021916908315150217905550505060066040518060600160405280600f81526020016040518060400160405280601981526020017f4e616d656c65737320486f6e6f72202d20536561736f6e20320000000000000081525081526020015f1515815250908060018154018082558091505060019003905f5260205f2090600302015f909190919091505f820151815f015560208201518160010190816102c691906105f1565b506040820151816002015f6101000a81548160ff02191690831515021790555050506106c0565b5f33905090565b5f60055f9054906101000a900473ffffffffffffffffffffffffffffffffffffffff1690508160055f6101000a81548173ffffffffffffffffffffffffffffffffffffffff021916908373ffffffffffffffffffffffffffffffffffffffff1602179055508173ffffffffffffffffffffffffffffffffffffffff168173ffffffffffffffffffffffffffffffffffffffff167f8be0079c531659141344cd1fd0a4f28419497f9722a3daafe3b4186f6b6457e060405160405180910390a35050565b5f81519050919050565b7f4e487b71000000000000000000000000000000000000000000000000000000005f52604160045260245ffd5b7f4e487b71000000000000000000000000000000000000000000000000000000005f52602260045260245ffd5b5f600282049050600182168061043257607f821691505b602082108103610445576104446103ee565b5b50919050565b5f819050815f5260205f209050919050565b5f6020601f8301049050919050565b5f82821b905092915050565b5f600883026104a77fffffffffffffffffffffffffffffffffffffffffffffffffffffffffffffffff8261046c565b6104b1868361046c565b95508019841693508086168417925050509392505050565b5f819050919050565b5f819050919050565b5f6104f56104f06104eb846104c9565b6104d2565b6104c9565b9050919050565b5f819050919050565b61050e836104db565b61052261051a826104fc565b848454610478565b825550505050565b5f90565b61053661052a565b610541818484610505565b505050565b5b81811015610564576105595f8261052e565b600181019050610547565b5050565b601f8211156105a95761057a8161044b565b6105838461045d565b81016020851015610592578190505b6105a661059e8561045d565b830182610546565b50505b505050565b5f82821c905092915050565b5f6105c95f19846008026105ae565b1980831691505092915050565b5f6105e183836105ba565b9150826002028217905092915050565b6105fa826103b7565b67ffffffffffffffff811115610613576106126103c1565b5b61061d825461041b565b610628828285610568565b5f60209050601f831160018114610659575f8415610647578287015190505b61065185826105d6565b8655506106b8565b601f1984166106678661044b565b5f5b8281101561068e57848901518255600182019150602085019450602081019050610669565b868310156106ab57848901516106a7601f8916826105ba565b8355505b6001600288020188555050505b505050505050565b612626806106cd5f395ff3fe608060405234801561000f575f80fd5b506004361061014b575f3560e01c806370a08231116100c1578063a457c2d71161007a578063a457c2d71461039f578063a69e894e146103cf578063a9059cbb146103eb578063bec3fa171461041b578063dd62ed3e1461044b578063f2fde38b1461047b5761014b565b806370a08231146102dd578063715018a61461030d57806379cc6790146103175780638da5cb5b1461033357806395d89b4114610351578063a00ddad11461036f5761014b565b80633129e773116101135780633129e77314610207578063313ce5671461023957806339509351146102575780633ef49ff21461028757806342966c68146102a557806367fbd289146102c15761014b565b806306fdde031461014f578063095ea7b31461016d57806318160ddd1461019d5780631c26dc23146101bb57806323b872dd146101d7575b5f80fd5b610157610497565b604051610164919061171b565b60405180910390f35b610187600480360381019061018291906117cc565b610527565b6040516101949190611824565b60405180910390f35b6101a5610549565b6040516101b2919061184c565b60405180910390f35b6101d560048036038101906101d09190611865565b610552565b005b6101f160048036038101906101ec9190611890565b6106f0565b6040516101fe9190611824565b60405180910390f35b610221600480360381019061021c9190611865565b61071e565b604051610230939291906118e0565b60405180910390f35b610241610866565b60405161024e9190611937565b60405180910390f35b610271600480360381019061026c91906117cc565b61086e565b60405161027e9190611824565b60405180910390f35b61028f6108a4565b60405161029c9190611abe565b60405180910390f35b6102bf60048036038101906102ba9190611865565b6109b3565b005b6102db60048036038101906102d69190611865565b6109c7565b005b6102f760048036038101906102f29190611ade565b610a2d565b604051610304919061184c565b60405180910390f35b610315610a72565b005b610331600480360381019061032c91906117cc565b610a85565b005b61033b610aa5565b6040516103489190611b18565b60405180910390f35b610359610acd565b604051610366919061171b565b60405180910390f35b61038960048036038101906103849190611ade565b610b5d565b604051610396919061184c565b60405180910390f35b6103b960048036038101906103b491906117cc565b610b6e565b6040516103c69190611824565b60405180910390f35b6103e960048036038101906103e491906117cc565b610be3565b005b610405600480360381019061040091906117cc565b610bf9565b6040516104129190611824565b60405180910390f35b610435600480360381019061043091906117cc565b610c1b565b6040516104429190611824565b60405180910390f35b61046560048036038101906104609190611b31565b610c8a565b604051610472919061184c565b60405180910390f35b61049560048036038101906104909190611ade565b610d0c565b005b6060600380546104a690611b9c565b80601f01602080910402602001604051908101604052809291908181526020018280546104d290611b9c565b801561051d5780601f106104f45761010080835404028352916020019161051d565b820191905f5260205f20905b81548152906001019060200180831161050057829003601f168201915b5050505050905090565b5f80610531610d8e565b905061053e818585610d95565b600191505092915050565b5f600254905090565b6006805490508110610599576040517f08c379a000000000000000000000000000000000000000000000000000000000815260040161059090611c16565b60405180910390fd5b5f600682815481106105ae576105ad611c34565b5b905f5260205f2090600302019050805f01546105d06105cb610d8e565b610a2d565b1015610611576040517f08c379a000000000000000000000000000000000000000000000000000000000815260040161060890611cd1565b60405180910390fd5b806002015f9054906101000a900460ff1615610662576040517f08c379a000000000000000000000000000000000000000000000000000000000815260040161065990611d5f565b60405180910390fd5b61067661066d610d8e565b825f0154610f58565b6001816002015f6101000a81548160ff02191690831515021790555061069a610d8e565b73ffffffffffffffffffffffffffffffffffffffff167f2119bf1b086ef3aa2847a6312b3dcd27e073aa5745352e1c7c8f1fb442e762f383836001016040516106e4929190611e10565b60405180910390a25050565b5f806106fa610d8e565b905061070785828561111b565b6107128585856111a6565b60019150509392505050565b5f60605f6006805490508410610769576040517f08c379a000000000000000000000000000000000000000000000000000000000815260040161076090611c16565b60405180910390fd5b5f6006858154811061077e5761077d611c34565b5b905f5260205f2090600302016040518060600160405290815f82015481526020016001820180546107ae90611b9c565b80601f01602080910402602001604051908101604052809291908181526020018280546107da90611b9c565b80156108255780601f106107fc57610100808354040283529160200191610825565b820191905f5260205f20905b81548152906001019060200180831161080857829003601f168201915b50505050508152602001600282015f9054906101000a900460ff1615151515815250509050805f015181602001518260400151935093509350509193909250565b5f6012905090565b5f80610878610d8e565b905061089981858561088a8589610c8a565b6108949190611e6b565b610d95565b600191505092915050565b60606006805480602002602001604051908101604052809291908181526020015f905b828210156109aa578382905f5260205f2090600302016040518060600160405290815f820154815260200160018201805461090190611b9c565b80601f016020809104026020016040519081016040528092919081815260200182805461092d90611b9c565b80156109785780601f1061094f57610100808354040283529160200191610978565b820191905f5260205f20905b81548152906001019060200180831161095b57829003601f168201915b50505050508152602001600282015f9054906101000a900460ff161515151581525050815260200190600101906108c7565b50505050905090565b6109c46109be610d8e565b82610f58565b50565b806109d86109d3610d8e565b610a2d565b1015610a19576040517f08c379a0000000000000000000000000000000000000000000000000000000008152600401610a1090611f0e565b60405180910390fd5b610a2a610a24610d8e565b82610f58565b50565b5f805f8373ffffffffffffffffffffffffffffffffffffffff1673ffffffffffffffffffffffffffffffffffffffff1681526020019081526020015f20549050919050565b610a7a611412565b610a835f611490565b565b610a9782610a91610d8e565b8361111b565b610aa18282610f58565b5050565b5f60055f9054906101000a900473ffffffffffffffffffffffffffffffffffffffff16905090565b606060048054610adc90611b9c565b80601f0160208091040260200160405190810160405280929190818152602001828054610b0890611b9c565b8015610b535780601f10610b2a57610100808354040283529160200191610b53565b820191905f5260205f20905b815481529060010190602001808311610b3657829003601f168201915b5050505050905090565b5f610b6782610a2d565b9050919050565b5f80610b78610d8e565b90505f610b858286610c8a565b905083811015610bca576040517f08c379a0000000000000000000000000000000000000000000000000000000008152600401610bc190611f9c565b60405180910390fd5b610bd78286868403610d95565b60019250505092915050565b610beb611412565b610bf58282611553565b5050565b5f80610c03610d8e565b9050610c108185856111a6565b600191505092915050565b5f81610c2d610c28610d8e565b610a2d565b1015610c6e576040517f08c379a0000000000000000000000000000000000000000000000000000000008152600401610c659061202a565b60405180910390fd5b610c80610c79610d8e565b84846111a6565b6001905092915050565b5f60015f8473ffffffffffffffffffffffffffffffffffffffff1673ffffffffffffffffffffffffffffffffffffffff1681526020019081526020015f205f8373ffffffffffffffffffffffffffffffffffffffff1673ffffffffffffffffffffffffffffffffffffffff1681526020019081526020015f2054905092915050565b610d14611412565b5f73ffffffffffffffffffffffffffffffffffffffff168173ffffffffffffffffffffffffffffffffffffffff1603610d82576040517f08c379a0000000000000000000000000000000000000000000000000000000008152600401610d79906120b8565b60405180910390fd5b610d8b81611490565b50565b5f33905090565b5f73ffffffffffffffffffffffffffffffffffffffff168373ffffffffffffffffffffffffffffffffffffffff1603610e03576040517f08c379a0000000000000000000000000000000000000000000000000000000008152600401610dfa90612146565b60405180910390fd5b5f73ffffffffffffffffffffffffffffffffffffffff168273ffffffffffffffffffffffffffffffffffffffff1603610e71576040517f08c379a0000000000000000000000000000000000000000000000000000000008152600401610e68906121d4565b60405180910390fd5b8060015f8573ffffffffffffffffffffffffffffffffffffffff1673ffffffffffffffffffffffffffffffffffffffff1681526020019081526020015f205f8473ffffffffffffffffffffffffffffffffffffffff1673ffffffffffffffffffffffffffffffffffffffff1681526020019081526020015f20819055508173ffffffffffffffffffffffffffffffffffffffff168373ffffffffffffffffffffffffffffffffffffffff167f8c5be1e5ebec7d5bd14f71427d1e84f3dd0314c0f7b2291e5b200ac8c7c3b92583604051610f4b919061184c565b60405180910390a3505050565b5f73ffffffffffffffffffffffffffffffffffffffff168273ffffffffffffffffffffffffffffffffffffffff1603610fc6576040517f08c379a0000000000000000000000000000000000000000000000000000000008152600401610fbd90612262565b60405180910390fd5b610fd1825f836116a1565b5f805f8473ffffffffffffffffffffffffffffffffffffffff1673ffffffffffffffffffffffffffffffffffffffff1681526020019081526020015f2054905081811015611054576040517f08c379a000000000000000000000000000000000000000000000000000000000815260040161104b906122f0565b60405180910390fd5b8181035f808573ffffffffffffffffffffffffffffffffffffffff1673ffffffffffffffffffffffffffffffffffffffff1681526020019081526020015f20819055508160025f82825403925050819055505f73ffffffffffffffffffffffffffffffffffffffff168373ffffffffffffffffffffffffffffffffffffffff167fddf252ad1be2c89b69c2b068fc378daa952ba7f163c4a11628f55a4df523b3ef84604051611103919061184c565b60405180910390a3611116835f846116a6565b505050565b5f6111268484610c8a565b90507fffffffffffffffffffffffffffffffffffffffffffffffffffffffffffffffff81146111a05781811015611192576040517f08c379a000000000000000000000000000000000000000000000000000000000815260040161118990612358565b60405180910390fd5b61119f8484848403610d95565b5b50505050565b5f73ffffffffffffffffffffffffffffffffffffffff168373ffffffffffffffffffffffffffffffffffffffff1603611214576040517f08c379a000000000000000000000000000000000000000000000000000000000815260040161120b906123e6565b60405180910390fd5b5f73ffffffffffffffffffffffffffffffffffffffff168273ffffffffffffffffffffffffffffffffffffffff1603611282576040517f08c379a000000000000000000000000000000000000000000000000000000000815260040161127990612474565b60405180910390fd5b61128d8383836116a1565b5f805f8573ffffffffffffffffffffffffffffffffffffffff1673ffffffffffffffffffffffffffffffffffffffff1681526020019081526020015f2054905081811015611310576040517f08c379a000000000000000000000000000000000000000000000000000000000815260040161130790612502565b60405180910390fd5b8181035f808673ffffffffffffffffffffffffffffffffffffffff1673ffffffffffffffffffffffffffffffffffffffff1681526020019081526020015f2081905550815f808573ffffffffffffffffffffffffffffffffffffffff1673ffffffffffffffffffffffffffffffffffffffff1681526020019081526020015f205f82825401925050819055508273ffffffffffffffffffffffffffffffffffffffff168473ffffffffffffffffffffffffffffffffffffffff167fddf252ad1be2c89b69c2b068fc378daa952ba7f163c4a11628f55a4df523b3ef846040516113f9919061184c565b60405180910390a361140c8484846116a6565b50505050565b61141a610d8e565b73ffffffffffffffffffffffffffffffffffffffff16611438610aa5565b73ffffffffffffffffffffffffffffffffffffffff161461148e576040517f08c379a00000000000000000000000000000000000000000000000000000000081526004016114859061256a565b60405180910390fd5b565b5f60055f9054906101000a900473ffffffffffffffffffffffffffffffffffffffff1690508160055f6101000a81548173ffffffffffffffffffffffffffffffffffffffff021916908373ffffffffffffffffffffffffffffffffffffffff1602179055508173ffffffffffffffffffffffffffffffffffffffff168173ffffffffffffffffffffffffffffffffffffffff167f8be0079c531659141344cd1fd0a4f28419497f9722a3daafe3b4186f6b6457e060405160405180910390a35050565b5f73ffffffffffffffffffffffffffffffffffffffff168273ffffffffffffffffffffffffffffffffffffffff16036115c1576040517f08c379a00000000000000000000000000000000000000000000000000000000081526004016115b8906125d2565b60405180910390fd5b6115cc5f83836116a1565b8060025f8282546115dd9190611e6b565b92505081905550805f808473ffffffffffffffffffffffffffffffffffffffff1673ffffffffffffffffffffffffffffffffffffffff1681526020019081526020015f205f82825401925050819055508173ffffffffffffffffffffffffffffffffffffffff165f73ffffffffffffffffffffffffffffffffffffffff167fddf252ad1be2c89b69c2b068fc378daa952ba7f163c4a11628f55a4df523b3ef8360405161168a919061184c565b60405180910390a361169d5f83836116a6565b5050565b505050565b505050565b5f81519050919050565b5f82825260208201905092915050565b8281835e5f83830152505050565b5f601f19601f8301169050919050565b5f6116ed826116ab565b6116f781856116b5565b93506117078185602086016116c5565b611710816116d3565b840191505092915050565b5f6020820190508181035f83015261173381846116e3565b905092915050565b5f80fd5b5f73ffffffffffffffffffffffffffffffffffffffff82169050919050565b5f6117688261173f565b9050919050565b6117788161175e565b8114611782575f80fd5b50565b5f813590506117938161176f565b92915050565b5f819050919050565b6117ab81611799565b81146117b5575f80fd5b50565b5f813590506117c6816117a2565b92915050565b5f80604083850312156117e2576117e161173b565b5b5f6117ef85828601611785565b9250506020611800858286016117b8565b9150509250929050565b5f8115159050919050565b61181e8161180a565b82525050565b5f6020820190506118375f830184611815565b92915050565b61184681611799565b82525050565b5f60208201905061185f5f83018461183d565b92915050565b5f6020828403121561187a5761187961173b565b5b5f611887848285016117b8565b91505092915050565b5f805f606084860312156118a7576118a661173b565b5b5f6118b486828701611785565b93505060206118c586828701611785565b92505060406118d6868287016117b8565b9150509250925092565b5f6060820190506118f35f83018661183d565b818103602083015261190581856116e3565b90506119146040830184611815565b949350505050565b5f60ff82169050919050565b6119318161191c565b82525050565b5f60208201905061194a5f830184611928565b92915050565b5f81519050919050565b5f82825260208201905092915050565b5f819050602082019050919050565b61198281611799565b82525050565b5f82825260208201905092915050565b5f6119a2826116ab565b6119ac8185611988565b93506119bc8185602086016116c5565b6119c5816116d3565b840191505092915050565b6119d98161180a565b82525050565b5f606083015f8301516119f45f860182611979565b5060208301518482036020860152611a0c8282611998565b9150506040830151611a2160408601826119d0565b508091505092915050565b5f611a3783836119df565b905092915050565b5f602082019050919050565b5f611a5582611950565b611a5f818561195a565b935083602082028501611a718561196a565b805f5b85811015611aac5784840389528151611a8d8582611a2c565b9450611a9883611a3f565b925060208a01995050600181019050611a74565b50829750879550505050505092915050565b5f6020820190508181035f830152611ad68184611a4b565b905092915050565b5f60208284031215611af357611af261173b565b5b5f611b0084828501611785565b91505092915050565b611b128161175e565b82525050565b5f602082019050611b2b5f830184611b09565b92915050565b5f8060408385031215611b4757611b4661173b565b5b5f611b5485828601611785565b9250506020611b6585828601611785565b9150509250929050565b7f4e487b71000000000000000000000000000000000000000000000000000000005f52602260045260245ffd5b5f6002820490506001821680611bb357607f821691505b602082108103611bc657611bc5611b6f565b5b50919050565b7f446567656e546f6b656e3a20696e76616c6964206974656d20494400000000005f82015250565b5f611c00601b836116b5565b9150611c0b82611bcc565b602082019050919050565b5f6020820190508181035f830152611c2d81611bf4565b9050919050565b7f4e487b71000000000000000000000000000000000000000000000000000000005f52603260045260245ffd5b7f446567656e546f6b656e3a20696e73756666696369656e742062616c616e63655f8201527f20746f2072656465656d206974656d0000000000000000000000000000000000602082015250565b5f611cbb602f836116b5565b9150611cc682611c61565b604082019050919050565b5f6020820190508181035f830152611ce881611caf565b9050919050565b7f446567656e546f6b656e3a206974656d20616c72656164792072656465656d655f8201527f6400000000000000000000000000000000000000000000000000000000000000602082015250565b5f611d496021836116b5565b9150611d5482611cef565b604082019050919050565b5f6020820190508181035f830152611d7681611d3d565b9050919050565b5f819050815f5260205f209050919050565b5f8154611d9b81611b9c565b611da581866116b5565b9450600182165f8114611dbf5760018114611dd557611e07565b60ff198316865281151560200286019350611e07565b611dde85611d7d565b5f5b83811015611dff57815481890152600182019150602081019050611de0565b808801955050505b50505092915050565b5f604082019050611e235f83018561183d565b8181036020830152611e358184611d8f565b90509392505050565b7f4e487b71000000000000000000000000000000000000000000000000000000005f52601160045260245ffd5b5f611e7582611799565b9150611e8083611799565b9250828201905080821115611e9857611e97611e3e565b5b92915050565b7f446567656e546f6b656e3a20696e73756666696369656e742062616c616e63655f8201527f20746f206275726e000000000000000000000000000000000000000000000000602082015250565b5f611ef86028836116b5565b9150611f0382611e9e565b604082019050919050565b5f6020820190508181035f830152611f2581611eec565b9050919050565b7f45524332303a2064656372656173656420616c6c6f77616e63652062656c6f775f8201527f207a65726f000000000000000000000000000000000000000000000000000000602082015250565b5f611f866025836116b5565b9150611f9182611f2c565b604082019050919050565b5f6020820190508181035f830152611fb381611f7a565b9050919050565b7f446567656e546f6b656e3a20696e73756666696369656e742062616c616e63655f8201527f20666f72207472616e7366657200000000000000000000000000000000000000602082015250565b5f612014602d836116b5565b915061201f82611fba565b604082019050919050565b5f6020820190508181035f83015261204181612008565b9050919050565b7f4f776e61626c653a206e6577206f776e657220697320746865207a65726f20615f8201527f6464726573730000000000000000000000000000000000000000000000000000602082015250565b5f6120a26026836116b5565b91506120ad82612048565b604082019050919050565b5f6020820190508181035f8301526120cf81612096565b9050919050565b7f45524332303a20617070726f76652066726f6d20746865207a65726f206164645f8201527f7265737300000000000000000000000000000000000000000000000000000000602082015250565b5f6121306024836116b5565b915061213b826120d6565b604082019050919050565b5f6020820190508181035f83015261215d81612124565b9050919050565b7f45524332303a20617070726f766520746f20746865207a65726f2061646472655f8201527f7373000000000000000000000000000000000000000000000000000000000000602082015250565b5f6121be6022836116b5565b91506121c982612164565b604082019050919050565b5f6020820190508181035f8301526121eb816121b2565b9050919050565b7f45524332303a206275726e2066726f6d20746865207a65726f206164647265735f8201527f7300000000000000000000000000000000000000000000000000000000000000602082015250565b5f61224c6021836116b5565b9150612257826121f2565b604082019050919050565b5f6020820190508181035f83015261227981612240565b9050919050565b7f45524332303a206275726e20616d6f756e7420657863656564732062616c616e5f8201527f6365000000000000000000000000000000000000000000000000000000000000602082015250565b5f6122da6022836116b5565b91506122e582612280565b604082019050919050565b5f6020820190508181035f830152612307816122ce565b9050919050565b7f45524332303a20696e73756666696369656e7420616c6c6f77616e63650000005f82015250565b5f612342601d836116b5565b915061234d8261230e565b602082019050919050565b5f6020820190508181035f83015261236f81612336565b9050919050565b7f45524332303a207472616e736665722066726f6d20746865207a65726f2061645f8201527f6472657373000000000000000000000000000000000000000000000000000000602082015250565b5f6123d06025836116b5565b91506123db82612376565b604082019050919050565b5f6020820190508181035f8301526123fd816123c4565b9050919050565b7f45524332303a207472616e7366657220746f20746865207a65726f20616464725f8201527f6573730000000000000000000000000000000000000000000000000000000000602082015250565b5f61245e6023836116b5565b915061246982612404565b604082019050919050565b5f6020820190508181035f83015261248b81612452565b9050919050565b7f45524332303a207472616e7366657220616d6f756e74206578636565647320625f8201527f616c616e63650000000000000000000000000000000000000000000000000000602082015250565b5f6124ec6026836116b5565b91506124f782612492565b604082019050919050565b5f6020820190508181035f830152612519816124e0565b9050919050565b7f4f776e61626c653a2063616c6c6572206973206e6f7420746865206f776e65725f82015250565b5f6125546020836116b5565b915061255f82612520565b602082019050919050565b5f6020820190508181035f83015261258181612548565b9050919050565b7f45524332303a206d696e7420746f20746865207a65726f2061646472657373005f82015250565b5f6125bc601f836116b5565b91506125c782612588565b602082019050919050565b5f6020820190508181035f8301526125e9816125b0565b905091905056fea2646970667358221220126d9def80bf384e0e8cfacf240d1fc20f0530140b62c3499491a81647d5c26164736f6c634300081a0033",
					"opcodes": "PUSH1 0x80 PUSH1 0x40 MSTORE CALLVALUE DUP1 ISZERO PUSH2 0xF JUMPI PUSH0 DUP1 REVERT JUMPDEST POP PUSH1 0x40 MLOAD DUP1 PUSH1 0x40 ADD PUSH1 0x40 MSTORE DUP1 PUSH1 0x5 DUP2 MSTORE PUSH1 0x20 ADD PUSH32 0x446567656E000000000000000000000000000000000000000000000000000000 DUP2 MSTORE POP PUSH1 0x40 MLOAD DUP1 PUSH1 0x40 ADD PUSH1 0x40 MSTORE DUP1 PUSH1 0x3 DUP2 MSTORE PUSH1 0x20 ADD PUSH32 0x44474E0000000000000000000000000000000000000000000000000000000000 DUP2 MSTORE POP DUP2 PUSH1 0x3 SWAP1 DUP2 PUSH2 0x8B SWAP2 SWAP1 PUSH2 0x5F1 JUMP JUMPDEST POP DUP1 PUSH1 0x4 SWAP1 DUP2 PUSH2 0x9B SWAP2 SWAP1 PUSH2 0x5F1 JUMP JUMPDEST POP POP POP PUSH2 0xBA PUSH2 0xAF PUSH2 0x2ED PUSH1 0x20 SHL PUSH1 0x20 SHR JUMP JUMPDEST PUSH2 0x2F4 PUSH1 0x20 SHL PUSH1 0x20 SHR JUMP JUMPDEST PUSH1 0x6 PUSH1 0x40 MLOAD DUP1 PUSH1 0x60 ADD PUSH1 0x40 MSTORE DUP1 PUSH1 0x5 DUP2 MSTORE PUSH1 0x20 ADD PUSH1 0x40 MLOAD DUP1 PUSH1 0x40 ADD PUSH1 0x40 MSTORE DUP1 PUSH1 0x15 DUP2 MSTORE PUSH1 0x20 ADD PUSH32 0x5374656C6C6172204A61646573205061636B6167650000000000000000000000 DUP2 MSTORE POP DUP2 MSTORE PUSH1 0x20 ADD PUSH0 ISZERO ISZERO DUP2 MSTORE POP SWAP1 DUP1 PUSH1 0x1 DUP2 SLOAD ADD DUP1 DUP3 SSTORE DUP1 SWAP2 POP POP PUSH1 0x1 SWAP1 SUB SWAP1 PUSH0 MSTORE PUSH1 0x20 PUSH0 KECCAK256 SWAP1 PUSH1 0x3 MUL ADD PUSH0 SWAP1 SWAP2 SWAP1 SWAP2 SWAP1 SWAP2 POP PUSH0 DUP3 ADD MLOAD DUP2 PUSH0 ADD SSTORE PUSH1 0x20 DUP3 ADD MLOAD DUP2 PUSH1 0x1 ADD SWAP1 DUP2 PUSH2 0x152 SWAP2 SWAP1 PUSH2 0x5F1 JUMP JUMPDEST POP PUSH1 0x40 DUP3 ADD MLOAD DUP2 PUSH1 0x2 ADD PUSH0 PUSH2 0x100 EXP DUP2 SLOAD DUP2 PUSH1 0xFF MUL NOT AND SWAP1 DUP4 ISZERO ISZERO MUL OR SWAP1 SSTORE POP POP POP PUSH1 0x6 PUSH1 0x40 MLOAD DUP1 PUSH1 0x60 ADD PUSH1 0x40 MSTORE DUP1 PUSH1 0xA DUP2 MSTORE PUSH1 0x20 ADD PUSH1 0x40 MLOAD DUP1 PUSH1 0x40 ADD PUSH1 0x40 MSTORE DUP1 PUSH1 0x1E DUP2 MSTORE PUSH1 0x20 ADD PUSH32 0x426C657373696E67206F66207468652057656C6B696E20476F64646573730000 DUP2 MSTORE POP DUP2 MSTORE PUSH1 0x20 ADD PUSH0 ISZERO ISZERO DUP2 MSTORE POP SWAP1 DUP1 PUSH1 0x1 DUP2 SLOAD ADD DUP1 DUP3 SSTORE DUP1 SWAP2 POP POP PUSH1 0x1 SWAP1 SUB SWAP1 PUSH0 MSTORE PUSH1 0x20 PUSH0 KECCAK256 SWAP1 PUSH1 0x3 MUL ADD PUSH0 SWAP1 SWAP2 SWAP1 SWAP2 SWAP1 SWAP2 POP PUSH0 DUP3 ADD MLOAD DUP2 PUSH0 ADD SSTORE PUSH1 0x20 DUP3 ADD MLOAD DUP2 PUSH1 0x1 ADD SWAP1 DUP2 PUSH2 0x20C SWAP2 SWAP1 PUSH2 0x5F1 JUMP JUMPDEST POP PUSH1 0x40 DUP3 ADD MLOAD DUP2 PUSH1 0x2 ADD PUSH0 PUSH2 0x100 EXP DUP2 SLOAD DUP2 PUSH1 0xFF MUL NOT AND SWAP1 DUP4 ISZERO ISZERO MUL OR SWAP1 SSTORE POP POP POP PUSH1 0x6 PUSH1 0x40 MLOAD DUP1 PUSH1 0x60 ADD PUSH1 0x40 MSTORE DUP1 PUSH1 0xF DUP2 MSTORE PUSH1 0x20 ADD PUSH1 0x40 MLOAD DUP1 PUSH1 0x40 ADD PUSH1 0x40 MSTORE DUP1 PUSH1 0x19 DUP2 MSTORE PUSH1 0x20 ADD PUSH32 0x4E616D656C65737320486F6E6F72202D20536561736F6E203200000000000000 DUP2 MSTORE POP DUP2 MSTORE PUSH1 0x20 ADD PUSH0 ISZERO ISZERO DUP2 MSTORE POP SWAP1 DUP1 PUSH1 0x1 DUP2 SLOAD ADD DUP1 DUP3 SSTORE DUP1 SWAP2 POP POP PUSH1 0x1 SWAP1 SUB SWAP1 PUSH0 MSTORE PUSH1 0x20 PUSH0 KECCAK256 SWAP1 PUSH1 0x3 MUL ADD PUSH0 SWAP1 SWAP2 SWAP1 SWAP2 SWAP1 SWAP2 POP PUSH0 DUP3 ADD MLOAD DUP2 PUSH0 ADD SSTORE PUSH1 0x20 DUP3 ADD MLOAD DUP2 PUSH1 0x1 ADD SWAP1 DUP2 PUSH2 0x2C6 SWAP2 SWAP1 PUSH2 0x5F1 JUMP JUMPDEST POP PUSH1 0x40 DUP3 ADD MLOAD DUP2 PUSH1 0x2 ADD PUSH0 PUSH2 0x100 EXP DUP2 SLOAD DUP2 PUSH1 0xFF MUL NOT AND SWAP1 DUP4 ISZERO ISZERO MUL OR SWAP1 SSTORE POP POP POP PUSH2 0x6C0 JUMP JUMPDEST PUSH0 CALLER SWAP1 POP SWAP1 JUMP JUMPDEST PUSH0 PUSH1 0x5 PUSH0 SWAP1 SLOAD SWAP1 PUSH2 0x100 EXP SWAP1 DIV PUSH20 0xFFFFFFFFFFFFFFFFFFFFFFFFFFFFFFFFFFFFFFFF AND SWAP1 POP DUP2 PUSH1 0x5 PUSH0 PUSH2 0x100 EXP DUP2 SLOAD DUP2 PUSH20 0xFFFFFFFFFFFFFFFFFFFFFFFFFFFFFFFFFFFFFFFF MUL NOT AND SWAP1 DUP4 PUSH20 0xFFFFFFFFFFFFFFFFFFFFFFFFFFFFFFFFFFFFFFFF AND MUL OR SWAP1 SSTORE POP DUP2 PUSH20 0xFFFFFFFFFFFFFFFFFFFFFFFFFFFFFFFFFFFFFFFF AND DUP2 PUSH20 0xFFFFFFFFFFFFFFFFFFFFFFFFFFFFFFFFFFFFFFFF AND PUSH32 0x8BE0079C531659141344CD1FD0A4F28419497F9722A3DAAFE3B4186F6B6457E0 PUSH1 0x40 MLOAD PUSH1 0x40 MLOAD DUP1 SWAP2 SUB SWAP1 LOG3 POP POP JUMP JUMPDEST PUSH0 DUP2 MLOAD SWAP1 POP SWAP2 SWAP1 POP JUMP JUMPDEST PUSH32 0x4E487B7100000000000000000000000000000000000000000000000000000000 PUSH0 MSTORE PUSH1 0x41 PUSH1 0x4 MSTORE PUSH1 0x24 PUSH0 REVERT JUMPDEST PUSH32 0x4E487B7100000000000000000000000000000000000000000000000000000000 PUSH0 MSTORE PUSH1 0x22 PUSH1 0x4 MSTORE PUSH1 0x24 PUSH0 REVERT JUMPDEST PUSH0 PUSH1 0x2 DUP3 DIV SWAP1 POP PUSH1 0x1 DUP3 AND DUP1 PUSH2 0x432 JUMPI PUSH1 0x7F DUP3 AND SWAP2 POP JUMPDEST PUSH1 0x20 DUP3 LT DUP2 SUB PUSH2 0x445 JUMPI PUSH2 0x444 PUSH2 0x3EE JUMP JUMPDEST JUMPDEST POP SWAP2 SWAP1 POP JUMP JUMPDEST PUSH0 DUP2 SWAP1 POP DUP2 PUSH0 MSTORE PUSH1 0x20 PUSH0 KECCAK256 SWAP1 POP SWAP2 SWAP1 POP JUMP JUMPDEST PUSH0 PUSH1 0x20 PUSH1 0x1F DUP4 ADD DIV SWAP1 POP SWAP2 SWAP1 POP JUMP JUMPDEST PUSH0 DUP3 DUP3 SHL SWAP1 POP SWAP3 SWAP2 POP POP JUMP JUMPDEST PUSH0 PUSH1 0x8 DUP4 MUL PUSH2 0x4A7 PUSH32 0xFFFFFFFFFFFFFFFFFFFFFFFFFFFFFFFFFFFFFFFFFFFFFFFFFFFFFFFFFFFFFFFF DUP3 PUSH2 0x46C JUMP JUMPDEST PUSH2 0x4B1 DUP7 DUP4 PUSH2 0x46C JUMP JUMPDEST SWAP6 POP DUP1 NOT DUP5 AND SWAP4 POP DUP1 DUP7 AND DUP5 OR SWAP3 POP POP POP SWAP4 SWAP3 POP POP POP JUMP JUMPDEST PUSH0 DUP2 SWAP1 POP SWAP2 SWAP1 POP JUMP JUMPDEST PUSH0 DUP2 SWAP1 POP SWAP2 SWAP1 POP JUMP JUMPDEST PUSH0 PUSH2 0x4F5 PUSH2 0x4F0 PUSH2 0x4EB DUP5 PUSH2 0x4C9 JUMP JUMPDEST PUSH2 0x4D2 JUMP JUMPDEST PUSH2 0x4C9 JUMP JUMPDEST SWAP1 POP SWAP2 SWAP1 POP JUMP JUMPDEST PUSH0 DUP2 SWAP1 POP SWAP2 SWAP1 POP JUMP JUMPDEST PUSH2 0x50E DUP4 PUSH2 0x4DB JUMP JUMPDEST PUSH2 0x522 PUSH2 0x51A DUP3 PUSH2 0x4FC JUMP JUMPDEST DUP5 DUP5 SLOAD PUSH2 0x478 JUMP JUMPDEST DUP3 SSTORE POP POP POP POP JUMP JUMPDEST PUSH0 SWAP1 JUMP JUMPDEST PUSH2 0x536 PUSH2 0x52A JUMP JUMPDEST PUSH2 0x541 DUP2 DUP5 DUP5 PUSH2 0x505 JUMP JUMPDEST POP POP POP JUMP JUMPDEST JUMPDEST DUP2 DUP2 LT ISZERO PUSH2 0x564 JUMPI PUSH2 0x559 PUSH0 DUP3 PUSH2 0x52E JUMP JUMPDEST PUSH1 0x1 DUP2 ADD SWAP1 POP PUSH2 0x547 JUMP JUMPDEST POP POP JUMP JUMPDEST PUSH1 0x1F DUP3 GT ISZERO PUSH2 0x5A9 JUMPI PUSH2 0x57A DUP2 PUSH2 0x44B JUMP JUMPDEST PUSH2 0x583 DUP5 PUSH2 0x45D JUMP JUMPDEST DUP2 ADD PUSH1 0x20 DUP6 LT ISZERO PUSH2 0x592 JUMPI DUP2 SWAP1 POP JUMPDEST PUSH2 0x5A6 PUSH2 0x59E DUP6 PUSH2 0x45D JUMP JUMPDEST DUP4 ADD DUP3 PUSH2 0x546 JUMP JUMPDEST POP POP JUMPDEST POP POP POP JUMP JUMPDEST PUSH0 DUP3 DUP3 SHR SWAP1 POP SWAP3 SWAP2 POP POP JUMP JUMPDEST PUSH0 PUSH2 0x5C9 PUSH0 NOT DUP5 PUSH1 0x8 MUL PUSH2 0x5AE JUMP JUMPDEST NOT DUP1 DUP4 AND SWAP2 POP POP SWAP3 SWAP2 POP POP JUMP JUMPDEST PUSH0 PUSH2 0x5E1 DUP4 DUP4 PUSH2 0x5BA JUMP JUMPDEST SWAP2 POP DUP3 PUSH1 0x2 MUL DUP3 OR SWAP1 POP SWAP3 SWAP2 POP POP JUMP JUMPDEST PUSH2 0x5FA DUP3 PUSH2 0x3B7 JUMP JUMPDEST PUSH8 0xFFFFFFFFFFFFFFFF DUP2 GT ISZERO PUSH2 0x613 JUMPI PUSH2 0x612 PUSH2 0x3C1 JUMP JUMPDEST JUMPDEST PUSH2 0x61D DUP3 SLOAD PUSH2 0x41B JUMP JUMPDEST PUSH2 0x628 DUP3 DUP3 DUP6 PUSH2 0x568 JUMP JUMPDEST PUSH0 PUSH1 0x20 SWAP1 POP PUSH1 0x1F DUP4 GT PUSH1 0x1 DUP2 EQ PUSH2 0x659 JUMPI PUSH0 DUP5 ISZERO PUSH2 0x647 JUMPI DUP3 DUP8 ADD MLOAD SWAP1 POP JUMPDEST PUSH2 0x651 DUP6 DUP3 PUSH2 0x5D6 JUMP JUMPDEST DUP7 SSTORE POP PUSH2 0x6B8 JUMP JUMPDEST PUSH1 0x1F NOT DUP5 AND PUSH2 0x667 DUP7 PUSH2 0x44B JUMP JUMPDEST PUSH0 JUMPDEST DUP3 DUP2 LT ISZERO PUSH2 0x68E JUMPI DUP5 DUP10 ADD MLOAD DUP3 SSTORE PUSH1 0x1 DUP3 ADD SWAP2 POP PUSH1 0x20 DUP6 ADD SWAP5 POP PUSH1 0x20 DUP2 ADD SWAP1 POP PUSH2 0x669 JUMP JUMPDEST DUP7 DUP4 LT ISZERO PUSH2 0x6AB JUMPI DUP5 DUP10 ADD MLOAD PUSH2 0x6A7 PUSH1 0x1F DUP10 AND DUP3 PUSH2 0x5BA JUMP JUMPDEST DUP4 SSTORE POP JUMPDEST PUSH1 0x1 PUSH1 0x2 DUP9 MUL ADD DUP9 SSTORE POP POP POP JUMPDEST POP POP POP POP POP POP JUMP JUMPDEST PUSH2 0x2626 DUP1 PUSH2 0x6CD PUSH0 CODECOPY PUSH0 RETURN INVALID PUSH1 0x80 PUSH1 0x40 MSTORE CALLVALUE DUP1 ISZERO PUSH2 0xF JUMPI PUSH0 DUP1 REVERT JUMPDEST POP PUSH1 0x4 CALLDATASIZE LT PUSH2 0x14B JUMPI PUSH0 CALLDATALOAD PUSH1 0xE0 SHR DUP1 PUSH4 0x70A08231 GT PUSH2 0xC1 JUMPI DUP1 PUSH4 0xA457C2D7 GT PUSH2 0x7A JUMPI DUP1 PUSH4 0xA457C2D7 EQ PUSH2 0x39F JUMPI DUP1 PUSH4 0xA69E894E EQ PUSH2 0x3CF JUMPI DUP1 PUSH4 0xA9059CBB EQ PUSH2 0x3EB JUMPI DUP1 PUSH4 0xBEC3FA17 EQ PUSH2 0x41B JUMPI DUP1 PUSH4 0xDD62ED3E EQ PUSH2 0x44B JUMPI DUP1 PUSH4 0xF2FDE38B EQ PUSH2 0x47B JUMPI PUSH2 0x14B JUMP JUMPDEST DUP1 PUSH4 0x70A08231 EQ PUSH2 0x2DD JUMPI DUP1 PUSH4 0x715018A6 EQ PUSH2 0x30D JUMPI DUP1 PUSH4 0x79CC6790 EQ PUSH2 0x317 JUMPI DUP1 PUSH4 0x8DA5CB5B EQ PUSH2 0x333 JUMPI DUP1 PUSH4 0x95D89B41 EQ PUSH2 0x351 JUMPI DUP1 PUSH4 0xA00DDAD1 EQ PUSH2 0x36F JUMPI PUSH2 0x14B JUMP JUMPDEST DUP1 PUSH4 0x3129E773 GT PUSH2 0x113 JUMPI DUP1 PUSH4 0x3129E773 EQ PUSH2 0x207 JUMPI DUP1 PUSH4 0x313CE567 EQ PUSH2 0x239 JUMPI DUP1 PUSH4 0x39509351 EQ PUSH2 0x257 JUMPI DUP1 PUSH4 0x3EF49FF2 EQ PUSH2 0x287 JUMPI DUP1 PUSH4 0x42966C68 EQ PUSH2 0x2A5 JUMPI DUP1 PUSH4 0x67FBD289 EQ PUSH2 0x2C1 JUMPI PUSH2 0x14B JUMP JUMPDEST DUP1 PUSH4 0x6FDDE03 EQ PUSH2 0x14F JUMPI DUP1 PUSH4 0x95EA7B3 EQ PUSH2 0x16D JUMPI DUP1 PUSH4 0x18160DDD EQ PUSH2 0x19D JUMPI DUP1 PUSH4 0x1C26DC23 EQ PUSH2 0x1BB JUMPI DUP1 PUSH4 0x23B872DD EQ PUSH2 0x1D7 JUMPI JUMPDEST PUSH0 DUP1 REVERT JUMPDEST PUSH2 0x157 PUSH2 0x497 JUMP JUMPDEST PUSH1 0x40 MLOAD PUSH2 0x164 SWAP2 SWAP1 PUSH2 0x171B JUMP JUMPDEST PUSH1 0x40 MLOAD DUP1 SWAP2 SUB SWAP1 RETURN JUMPDEST PUSH2 0x187 PUSH1 0x4 DUP1 CALLDATASIZE SUB DUP2 ADD SWAP1 PUSH2 0x182 SWAP2 SWAP1 PUSH2 0x17CC JUMP JUMPDEST PUSH2 0x527 JUMP JUMPDEST PUSH1 0x40 MLOAD PUSH2 0x194 SWAP2 SWAP1 PUSH2 0x1824 JUMP JUMPDEST PUSH1 0x40 MLOAD DUP1 SWAP2 SUB SWAP1 RETURN JUMPDEST PUSH2 0x1A5 PUSH2 0x549 JUMP JUMPDEST PUSH1 0x40 MLOAD PUSH2 0x1B2 SWAP2 SWAP1 PUSH2 0x184C JUMP JUMPDEST PUSH1 0x40 MLOAD DUP1 SWAP2 SUB SWAP1 RETURN JUMPDEST PUSH2 0x1D5 PUSH1 0x4 DUP1 CALLDATASIZE SUB DUP2 ADD SWAP1 PUSH2 0x1D0 SWAP2 SWAP1 PUSH2 0x1865 JUMP JUMPDEST PUSH2 0x552 JUMP JUMPDEST STOP JUMPDEST PUSH2 0x1F1 PUSH1 0x4 DUP1 CALLDATASIZE SUB DUP2 ADD SWAP1 PUSH2 0x1EC SWAP2 SWAP1 PUSH2 0x1890 JUMP JUMPDEST PUSH2 0x6F0 JUMP JUMPDEST PUSH1 0x40 MLOAD PUSH2 0x1FE SWAP2 SWAP1 PUSH2 0x1824 JUMP JUMPDEST PUSH1 0x40 MLOAD DUP1 SWAP2 SUB SWAP1 RETURN JUMPDEST PUSH2 0x221 PUSH1 0x4 DUP1 CALLDATASIZE SUB DUP2 ADD SWAP1 PUSH2 0x21C SWAP2 SWAP1 PUSH2 0x1865 JUMP JUMPDEST PUSH2 0x71E JUMP JUMPDEST PUSH1 0x40 MLOAD PUSH2 0x230 SWAP4 SWAP3 SWAP2 SWAP1 PUSH2 0x18E0 JUMP JUMPDEST PUSH1 0x40 MLOAD DUP1 SWAP2 SUB SWAP1 RETURN JUMPDEST PUSH2 0x241 PUSH2 0x866 JUMP JUMPDEST PUSH1 0x40 MLOAD PUSH2 0x24E SWAP2 SWAP1 PUSH2 0x1937 JUMP JUMPDEST PUSH1 0x40 MLOAD DUP1 SWAP2 SUB SWAP1 RETURN JUMPDEST PUSH2 0x271 PUSH1 0x4 DUP1 CALLDATASIZE SUB DUP2 ADD SWAP1 PUSH2 0x26C SWAP2 SWAP1 PUSH2 0x17CC JUMP JUMPDEST PUSH2 0x86E JUMP JUMPDEST PUSH1 0x40 MLOAD PUSH2 0x27E SWAP2 SWAP1 PUSH2 0x1824 JUMP JUMPDEST PUSH1 0x40 MLOAD DUP1 SWAP2 SUB SWAP1 RETURN JUMPDEST PUSH2 0x28F PUSH2 0x8A4 JUMP JUMPDEST PUSH1 0x40 MLOAD PUSH2 0x29C SWAP2 SWAP1 PUSH2 0x1ABE JUMP JUMPDEST PUSH1 0x40 MLOAD DUP1 SWAP2 SUB SWAP1 RETURN JUMPDEST PUSH2 0x2BF PUSH1 0x4 DUP1 CALLDATASIZE SUB DUP2 ADD SWAP1 PUSH2 0x2BA SWAP2 SWAP1 PUSH2 0x1865 JUMP JUMPDEST PUSH2 0x9B3 JUMP JUMPDEST STOP JUMPDEST PUSH2 0x2DB PUSH1 0x4 DUP1 CALLDATASIZE SUB DUP2 ADD SWAP1 PUSH2 0x2D6 SWAP2 SWAP1 PUSH2 0x1865 JUMP JUMPDEST PUSH2 0x9C7 JUMP JUMPDEST STOP JUMPDEST PUSH2 0x2F7 PUSH1 0x4 DUP1 CALLDATASIZE SUB DUP2 ADD SWAP1 PUSH2 0x2F2 SWAP2 SWAP1 PUSH2 0x1ADE JUMP JUMPDEST PUSH2 0xA2D JUMP JUMPDEST PUSH1 0x40 MLOAD PUSH2 0x304 SWAP2 SWAP1 PUSH2 0x184C JUMP JUMPDEST PUSH1 0x40 MLOAD DUP1 SWAP2 SUB SWAP1 RETURN JUMPDEST PUSH2 0x315 PUSH2 0xA72 JUMP JUMPDEST STOP JUMPDEST PUSH2 0x331 PUSH1 0x4 DUP1 CALLDATASIZE SUB DUP2 ADD SWAP1 PUSH2 0x32C SWAP2 SWAP1 PUSH2 0x17CC JUMP JUMPDEST PUSH2 0xA85 JUMP JUMPDEST STOP JUMPDEST PUSH2 0x33B PUSH2 0xAA5 JUMP JUMPDEST PUSH1 0x40 MLOAD PUSH2 0x348 SWAP2 SWAP1 PUSH2 0x1B18 JUMP JUMPDEST PUSH1 0x40 MLOAD DUP1 SWAP2 SUB SWAP1 RETURN JUMPDEST PUSH2 0x359 PUSH2 0xACD JUMP JUMPDEST PUSH1 0x40 MLOAD PUSH2 0x366 SWAP2 SWAP1 PUSH2 0x171B JUMP JUMPDEST PUSH1 0x40 MLOAD DUP1 SWAP2 SUB SWAP1 RETURN JUMPDEST PUSH2 0x389 PUSH1 0x4 DUP1 CALLDATASIZE SUB DUP2 ADD SWAP1 PUSH2 0x384 SWAP2 SWAP1 PUSH2 0x1ADE JUMP JUMPDEST PUSH2 0xB5D JUMP JUMPDEST PUSH1 0x40 MLOAD PUSH2 0x396 SWAP2 SWAP1 PUSH2 0x184C JUMP JUMPDEST PUSH1 0x40 MLOAD DUP1 SWAP2 SUB SWAP1 RETURN JUMPDEST PUSH2 0x3B9 PUSH1 0x4 DUP1 CALLDATASIZE SUB DUP2 ADD SWAP1 PUSH2 0x3B4 SWAP2 SWAP1 PUSH2 0x17CC JUMP JUMPDEST PUSH2 0xB6E JUMP JUMPDEST PUSH1 0x40 MLOAD PUSH2 0x3C6 SWAP2 SWAP1 PUSH2 0x1824 JUMP JUMPDEST PUSH1 0x40 MLOAD DUP1 SWAP2 SUB SWAP1 RETURN JUMPDEST PUSH2 0x3E9 PUSH1 0x4 DUP1 CALLDATASIZE SUB DUP2 ADD SWAP1 PUSH2 0x3E4 SWAP2 SWAP1 PUSH2 0x17CC JUMP JUMPDEST PUSH2 0xBE3 JUMP JUMPDEST STOP JUMPDEST PUSH2 0x405 PUSH1 0x4 DUP1 CALLDATASIZE SUB DUP2 ADD SWAP1 PUSH2 0x400 SWAP2 SWAP1 PUSH2 0x17CC JUMP JUMPDEST PUSH2 0xBF9 JUMP JUMPDEST PUSH1 0x40 MLOAD PUSH2 0x412 SWAP2 SWAP1 PUSH2 0x1824 JUMP JUMPDEST PUSH1 0x40 MLOAD DUP1 SWAP2 SUB SWAP1 RETURN JUMPDEST PUSH2 0x435 PUSH1 0x4 DUP1 CALLDATASIZE SUB DUP2 ADD SWAP1 PUSH2 0x430 SWAP2 SWAP1 PUSH2 0x17CC JUMP JUMPDEST PUSH2 0xC1B JUMP JUMPDEST PUSH1 0x40 MLOAD PUSH2 0x442 SWAP2 SWAP1 PUSH2 0x1824 JUMP JUMPDEST PUSH1 0x40 MLOAD DUP1 SWAP2 SUB SWAP1 RETURN JUMPDEST PUSH2 0x465 PUSH1 0x4 DUP1 CALLDATASIZE SUB DUP2 ADD SWAP1 PUSH2 0x460 SWAP2 SWAP1 PUSH2 0x1B31 JUMP JUMPDEST PUSH2 0xC8A JUMP JUMPDEST PUSH1 0x40 MLOAD PUSH2 0x472 SWAP2 SWAP1 PUSH2 0x184C JUMP JUMPDEST PUSH1 0x40 MLOAD DUP1 SWAP2 SUB SWAP1 RETURN JUMPDEST PUSH2 0x495 PUSH1 0x4 DUP1 CALLDATASIZE SUB DUP2 ADD SWAP1 PUSH2 0x490 SWAP2 SWAP1 PUSH2 0x1ADE JUMP JUMPDEST PUSH2 0xD0C JUMP JUMPDEST STOP JUMPDEST PUSH1 0x60 PUSH1 0x3 DUP1 SLOAD PUSH2 0x4A6 SWAP1 PUSH2 0x1B9C JUMP JUMPDEST DUP1 PUSH1 0x1F ADD PUSH1 0x20 DUP1 SWAP2 DIV MUL PUSH1 0x20 ADD PUSH1 0x40 MLOAD SWAP1 DUP2 ADD PUSH1 0x40 MSTORE DUP1 SWAP3 SWAP2 SWAP1 DUP2 DUP2 MSTORE PUSH1 0x20 ADD DUP3 DUP1 SLOAD PUSH2 0x4D2 SWAP1 PUSH2 0x1B9C JUMP JUMPDEST DUP1 ISZERO PUSH2 0x51D JUMPI DUP1 PUSH1 0x1F LT PUSH2 0x4F4 JUMPI PUSH2 0x100 DUP1 DUP4 SLOAD DIV MUL DUP4 MSTORE SWAP2 PUSH1 0x20 ADD SWAP2 PUSH2 0x51D JUMP JUMPDEST DUP3 ADD SWAP2 SWAP1 PUSH0 MSTORE PUSH1 0x20 PUSH0 KECCAK256 SWAP1 JUMPDEST DUP2 SLOAD DUP2 MSTORE SWAP1 PUSH1 0x1 ADD SWAP1 PUSH1 0x20 ADD DUP1 DUP4 GT PUSH2 0x500 JUMPI DUP3 SWAP1 SUB PUSH1 0x1F AND DUP3 ADD SWAP2 JUMPDEST POP POP POP POP POP SWAP1 POP SWAP1 JUMP JUMPDEST PUSH0 DUP1 PUSH2 0x531 PUSH2 0xD8E JUMP JUMPDEST SWAP1 POP PUSH2 0x53E DUP2 DUP6 DUP6 PUSH2 0xD95 JUMP JUMPDEST PUSH1 0x1 SWAP2 POP POP SWAP3 SWAP2 POP POP JUMP JUMPDEST PUSH0 PUSH1 0x2 SLOAD SWAP1 POP SWAP1 JUMP JUMPDEST PUSH1 0x6 DUP1 SLOAD SWAP1 POP DUP2 LT PUSH2 0x599 JUMPI PUSH1 0x40 MLOAD PUSH32 0x8C379A000000000000000000000000000000000000000000000000000000000 DUP2 MSTORE PUSH1 0x4 ADD PUSH2 0x590 SWAP1 PUSH2 0x1C16 JUMP JUMPDEST PUSH1 0x40 MLOAD DUP1 SWAP2 SUB SWAP1 REVERT JUMPDEST PUSH0 PUSH1 0x6 DUP3 DUP2 SLOAD DUP2 LT PUSH2 0x5AE JUMPI PUSH2 0x5AD PUSH2 0x1C34 JUMP JUMPDEST JUMPDEST SWAP1 PUSH0 MSTORE PUSH1 0x20 PUSH0 KECCAK256 SWAP1 PUSH1 0x3 MUL ADD SWAP1 POP DUP1 PUSH0 ADD SLOAD PUSH2 0x5D0 PUSH2 0x5CB PUSH2 0xD8E JUMP JUMPDEST PUSH2 0xA2D JUMP JUMPDEST LT ISZERO PUSH2 0x611 JUMPI PUSH1 0x40 MLOAD PUSH32 0x8C379A000000000000000000000000000000000000000000000000000000000 DUP2 MSTORE PUSH1 0x4 ADD PUSH2 0x608 SWAP1 PUSH2 0x1CD1 JUMP JUMPDEST PUSH1 0x40 MLOAD DUP1 SWAP2 SUB SWAP1 REVERT JUMPDEST DUP1 PUSH1 0x2 ADD PUSH0 SWAP1 SLOAD SWAP1 PUSH2 0x100 EXP SWAP1 DIV PUSH1 0xFF AND ISZERO PUSH2 0x662 JUMPI PUSH1 0x40 MLOAD PUSH32 0x8C379A000000000000000000000000000000000000000000000000000000000 DUP2 MSTORE PUSH1 0x4 ADD PUSH2 0x659 SWAP1 PUSH2 0x1D5F JUMP JUMPDEST PUSH1 0x40 MLOAD DUP1 SWAP2 SUB SWAP1 REVERT JUMPDEST PUSH2 0x676 PUSH2 0x66D PUSH2 0xD8E JUMP JUMPDEST DUP3 PUSH0 ADD SLOAD PUSH2 0xF58 JUMP JUMPDEST PUSH1 0x1 DUP2 PUSH1 0x2 ADD PUSH0 PUSH2 0x100 EXP DUP2 SLOAD DUP2 PUSH1 0xFF MUL NOT AND SWAP1 DUP4 ISZERO ISZERO MUL OR SWAP1 SSTORE POP PUSH2 0x69A PUSH2 0xD8E JUMP JUMPDEST PUSH20 0xFFFFFFFFFFFFFFFFFFFFFFFFFFFFFFFFFFFFFFFF AND PUSH32 0x2119BF1B086EF3AA2847A6312B3DCD27E073AA5745352E1C7C8F1FB442E762F3 DUP4 DUP4 PUSH1 0x1 ADD PUSH1 0x40 MLOAD PUSH2 0x6E4 SWAP3 SWAP2 SWAP1 PUSH2 0x1E10 JUMP JUMPDEST PUSH1 0x40 MLOAD DUP1 SWAP2 SUB SWAP1 LOG2 POP POP JUMP JUMPDEST PUSH0 DUP1 PUSH2 0x6FA PUSH2 0xD8E JUMP JUMPDEST SWAP1 POP PUSH2 0x707 DUP6 DUP3 DUP6 PUSH2 0x111B JUMP JUMPDEST PUSH2 0x712 DUP6 DUP6 DUP6 PUSH2 0x11A6 JUMP JUMPDEST PUSH1 0x1 SWAP2 POP POP SWAP4 SWAP3 POP POP POP JUMP JUMPDEST PUSH0 PUSH1 0x60 PUSH0 PUSH1 0x6 DUP1 SLOAD SWAP1 POP DUP5 LT PUSH2 0x769 JUMPI PUSH1 0x40 MLOAD PUSH32 0x8C379A000000000000000000000000000000000000000000000000000000000 DUP2 MSTORE PUSH1 0x4 ADD PUSH2 0x760 SWAP1 PUSH2 0x1C16 JUMP JUMPDEST PUSH1 0x40 MLOAD DUP1 SWAP2 SUB SWAP1 REVERT JUMPDEST PUSH0 PUSH1 0x6 DUP6 DUP2 SLOAD DUP2 LT PUSH2 0x77E JUMPI PUSH2 0x77D PUSH2 0x1C34 JUMP JUMPDEST JUMPDEST SWAP1 PUSH0 MSTORE PUSH1 0x20 PUSH0 KECCAK256 SWAP1 PUSH1 0x3 MUL ADD PUSH1 0x40 MLOAD DUP1 PUSH1 0x60 ADD PUSH1 0x40 MSTORE SWAP1 DUP2 PUSH0 DUP3 ADD SLOAD DUP2 MSTORE PUSH1 0x20 ADD PUSH1 0x1 DUP3 ADD DUP1 SLOAD PUSH2 0x7AE SWAP1 PUSH2 0x1B9C JUMP JUMPDEST DUP1 PUSH1 0x1F ADD PUSH1 0x20 DUP1 SWAP2 DIV MUL PUSH1 0x20 ADD PUSH1 0x40 MLOAD SWAP1 DUP2 ADD PUSH1 0x40 MSTORE DUP1 SWAP3 SWAP2 SWAP1 DUP2 DUP2 MSTORE PUSH1 0x20 ADD DUP3 DUP1 SLOAD PUSH2 0x7DA SWAP1 PUSH2 0x1B9C JUMP JUMPDEST DUP1 ISZERO PUSH2 0x825 JUMPI DUP1 PUSH1 0x1F LT PUSH2 0x7FC JUMPI PUSH2 0x100 DUP1 DUP4 SLOAD DIV MUL DUP4 MSTORE SWAP2 PUSH1 0x20 ADD SWAP2 PUSH2 0x825 JUMP JUMPDEST DUP3 ADD SWAP2 SWAP1 PUSH0 MSTORE PUSH1 0x20 PUSH0 KECCAK256 SWAP1 JUMPDEST DUP2 SLOAD DUP2 MSTORE SWAP1 PUSH1 0x1 ADD SWAP1 PUSH1 0x20 ADD DUP1 DUP4 GT PUSH2 0x808 JUMPI DUP3 SWAP1 SUB PUSH1 0x1F AND DUP3 ADD SWAP2 JUMPDEST POP POP POP POP POP DUP2 MSTORE PUSH1 0x20 ADD PUSH1 0x2 DUP3 ADD PUSH0 SWAP1 SLOAD SWAP1 PUSH2 0x100 EXP SWAP1 DIV PUSH1 0xFF AND ISZERO ISZERO ISZERO ISZERO DUP2 MSTORE POP POP SWAP1 POP DUP1 PUSH0 ADD MLOAD DUP2 PUSH1 0x20 ADD MLOAD DUP3 PUSH1 0x40 ADD MLOAD SWAP4 POP SWAP4 POP SWAP4 POP POP SWAP2 SWAP4 SWAP1 SWAP3 POP JUMP JUMPDEST PUSH0 PUSH1 0x12 SWAP1 POP SWAP1 JUMP JUMPDEST PUSH0 DUP1 PUSH2 0x878 PUSH2 0xD8E JUMP JUMPDEST SWAP1 POP PUSH2 0x899 DUP2 DUP6 DUP6 PUSH2 0x88A DUP6 DUP10 PUSH2 0xC8A JUMP JUMPDEST PUSH2 0x894 SWAP2 SWAP1 PUSH2 0x1E6B JUMP JUMPDEST PUSH2 0xD95 JUMP JUMPDEST PUSH1 0x1 SWAP2 POP POP SWAP3 SWAP2 POP POP JUMP JUMPDEST PUSH1 0x60 PUSH1 0x6 DUP1 SLOAD DUP1 PUSH1 0x20 MUL PUSH1 0x20 ADD PUSH1 0x40 MLOAD SWAP1 DUP2 ADD PUSH1 0x40 MSTORE DUP1 SWAP3 SWAP2 SWAP1 DUP2 DUP2 MSTORE PUSH1 0x20 ADD PUSH0 SWAP1 JUMPDEST DUP3 DUP3 LT ISZERO PUSH2 0x9AA JUMPI DUP4 DUP3 SWAP1 PUSH0 MSTORE PUSH1 0x20 PUSH0 KECCAK256 SWAP1 PUSH1 0x3 MUL ADD PUSH1 0x40 MLOAD DUP1 PUSH1 0x60 ADD PUSH1 0x40 MSTORE SWAP1 DUP2 PUSH0 DUP3 ADD SLOAD DUP2 MSTORE PUSH1 0x20 ADD PUSH1 0x1 DUP3 ADD DUP1 SLOAD PUSH2 0x901 SWAP1 PUSH2 0x1B9C JUMP JUMPDEST DUP1 PUSH1 0x1F ADD PUSH1 0x20 DUP1 SWAP2 DIV MUL PUSH1 0x20 ADD PUSH1 0x40 MLOAD SWAP1 DUP2 ADD PUSH1 0x40 MSTORE DUP1 SWAP3 SWAP2 SWAP1 DUP2 DUP2 MSTORE PUSH1 0x20 ADD DUP3 DUP1 SLOAD PUSH2 0x92D SWAP1 PUSH2 0x1B9C JUMP JUMPDEST DUP1 ISZERO PUSH2 0x978 JUMPI DUP1 PUSH1 0x1F LT PUSH2 0x94F JUMPI PUSH2 0x100 DUP1 DUP4 SLOAD DIV MUL DUP4 MSTORE SWAP2 PUSH1 0x20 ADD SWAP2 PUSH2 0x978 JUMP JUMPDEST DUP3 ADD SWAP2 SWAP1 PUSH0 MSTORE PUSH1 0x20 PUSH0 KECCAK256 SWAP1 JUMPDEST DUP2 SLOAD DUP2 MSTORE SWAP1 PUSH1 0x1 ADD SWAP1 PUSH1 0x20 ADD DUP1 DUP4 GT PUSH2 0x95B JUMPI DUP3 SWAP1 SUB PUSH1 0x1F AND DUP3 ADD SWAP2 JUMPDEST POP POP POP POP POP DUP2 MSTORE PUSH1 0x20 ADD PUSH1 0x2 DUP3 ADD PUSH0 SWAP1 SLOAD SWAP1 PUSH2 0x100 EXP SWAP1 DIV PUSH1 0xFF AND ISZERO ISZERO ISZERO ISZERO DUP2 MSTORE POP POP DUP2 MSTORE PUSH1 0x20 ADD SWAP1 PUSH1 0x1 ADD SWAP1 PUSH2 0x8C7 JUMP JUMPDEST POP POP POP POP SWAP1 POP SWAP1 JUMP JUMPDEST PUSH2 0x9C4 PUSH2 0x9BE PUSH2 0xD8E JUMP JUMPDEST DUP3 PUSH2 0xF58 JUMP JUMPDEST POP JUMP JUMPDEST DUP1 PUSH2 0x9D8 PUSH2 0x9D3 PUSH2 0xD8E JUMP JUMPDEST PUSH2 0xA2D JUMP JUMPDEST LT ISZERO PUSH2 0xA19 JUMPI PUSH1 0x40 MLOAD PUSH32 0x8C379A000000000000000000000000000000000000000000000000000000000 DUP2 MSTORE PUSH1 0x4 ADD PUSH2 0xA10 SWAP1 PUSH2 0x1F0E JUMP JUMPDEST PUSH1 0x40 MLOAD DUP1 SWAP2 SUB SWAP1 REVERT JUMPDEST PUSH2 0xA2A PUSH2 0xA24 PUSH2 0xD8E JUMP JUMPDEST DUP3 PUSH2 0xF58 JUMP JUMPDEST POP JUMP JUMPDEST PUSH0 DUP1 PUSH0 DUP4 PUSH20 0xFFFFFFFFFFFFFFFFFFFFFFFFFFFFFFFFFFFFFFFF AND PUSH20 0xFFFFFFFFFFFFFFFFFFFFFFFFFFFFFFFFFFFFFFFF AND DUP2 MSTORE PUSH1 0x20 ADD SWAP1 DUP2 MSTORE PUSH1 0x20 ADD PUSH0 KECCAK256 SLOAD SWAP1 POP SWAP2 SWAP1 POP JUMP JUMPDEST PUSH2 0xA7A PUSH2 0x1412 JUMP JUMPDEST PUSH2 0xA83 PUSH0 PUSH2 0x1490 JUMP JUMPDEST JUMP JUMPDEST PUSH2 0xA97 DUP3 PUSH2 0xA91 PUSH2 0xD8E JUMP JUMPDEST DUP4 PUSH2 0x111B JUMP JUMPDEST PUSH2 0xAA1 DUP3 DUP3 PUSH2 0xF58 JUMP JUMPDEST POP POP JUMP JUMPDEST PUSH0 PUSH1 0x5 PUSH0 SWAP1 SLOAD SWAP1 PUSH2 0x100 EXP SWAP1 DIV PUSH20 0xFFFFFFFFFFFFFFFFFFFFFFFFFFFFFFFFFFFFFFFF AND SWAP1 POP SWAP1 JUMP JUMPDEST PUSH1 0x60 PUSH1 0x4 DUP1 SLOAD PUSH2 0xADC SWAP1 PUSH2 0x1B9C JUMP JUMPDEST DUP1 PUSH1 0x1F ADD PUSH1 0x20 DUP1 SWAP2 DIV MUL PUSH1 0x20 ADD PUSH1 0x40 MLOAD SWAP1 DUP2 ADD PUSH1 0x40 MSTORE DUP1 SWAP3 SWAP2 SWAP1 DUP2 DUP2 MSTORE PUSH1 0x20 ADD DUP3 DUP1 SLOAD PUSH2 0xB08 SWAP1 PUSH2 0x1B9C JUMP JUMPDEST DUP1 ISZERO PUSH2 0xB53 JUMPI DUP1 PUSH1 0x1F LT PUSH2 0xB2A JUMPI PUSH2 0x100 DUP1 DUP4 SLOAD DIV MUL DUP4 MSTORE SWAP2 PUSH1 0x20 ADD SWAP2 PUSH2 0xB53 JUMP JUMPDEST DUP3 ADD SWAP2 SWAP1 PUSH0 MSTORE PUSH1 0x20 PUSH0 KECCAK256 SWAP1 JUMPDEST DUP2 SLOAD DUP2 MSTORE SWAP1 PUSH1 0x1 ADD SWAP1 PUSH1 0x20 ADD DUP1 DUP4 GT PUSH2 0xB36 JUMPI DUP3 SWAP1 SUB PUSH1 0x1F AND DUP3 ADD SWAP2 JUMPDEST POP POP POP POP POP SWAP1 POP SWAP1 JUMP JUMPDEST PUSH0 PUSH2 0xB67 DUP3 PUSH2 0xA2D JUMP JUMPDEST SWAP1 POP SWAP2 SWAP1 POP JUMP JUMPDEST PUSH0 DUP1 PUSH2 0xB78 PUSH2 0xD8E JUMP JUMPDEST SWAP1 POP PUSH0 PUSH2 0xB85 DUP3 DUP7 PUSH2 0xC8A JUMP JUMPDEST SWAP1 POP DUP4 DUP2 LT ISZERO PUSH2 0xBCA JUMPI PUSH1 0x40 MLOAD PUSH32 0x8C379A000000000000000000000000000000000000000000000000000000000 DUP2 MSTORE PUSH1 0x4 ADD PUSH2 0xBC1 SWAP1 PUSH2 0x1F9C JUMP JUMPDEST PUSH1 0x40 MLOAD DUP1 SWAP2 SUB SWAP1 REVERT JUMPDEST PUSH2 0xBD7 DUP3 DUP7 DUP7 DUP5 SUB PUSH2 0xD95 JUMP JUMPDEST PUSH1 0x1 SWAP3 POP POP POP SWAP3 SWAP2 POP POP JUMP JUMPDEST PUSH2 0xBEB PUSH2 0x1412 JUMP JUMPDEST PUSH2 0xBF5 DUP3 DUP3 PUSH2 0x1553 JUMP JUMPDEST POP POP JUMP JUMPDEST PUSH0 DUP1 PUSH2 0xC03 PUSH2 0xD8E JUMP JUMPDEST SWAP1 POP PUSH2 0xC10 DUP2 DUP6 DUP6 PUSH2 0x11A6 JUMP JUMPDEST PUSH1 0x1 SWAP2 POP POP SWAP3 SWAP2 POP POP JUMP JUMPDEST PUSH0 DUP2 PUSH2 0xC2D PUSH2 0xC28 PUSH2 0xD8E JUMP JUMPDEST PUSH2 0xA2D JUMP JUMPDEST LT ISZERO PUSH2 0xC6E JUMPI PUSH1 0x40 MLOAD PUSH32 0x8C379A000000000000000000000000000000000000000000000000000000000 DUP2 MSTORE PUSH1 0x4 ADD PUSH2 0xC65 SWAP1 PUSH2 0x202A JUMP JUMPDEST PUSH1 0x40 MLOAD DUP1 SWAP2 SUB SWAP1 REVERT JUMPDEST PUSH2 0xC80 PUSH2 0xC79 PUSH2 0xD8E JUMP JUMPDEST DUP5 DUP5 PUSH2 0x11A6 JUMP JUMPDEST PUSH1 0x1 SWAP1 POP SWAP3 SWAP2 POP POP JUMP JUMPDEST PUSH0 PUSH1 0x1 PUSH0 DUP5 PUSH20 0xFFFFFFFFFFFFFFFFFFFFFFFFFFFFFFFFFFFFFFFF AND PUSH20 0xFFFFFFFFFFFFFFFFFFFFFFFFFFFFFFFFFFFFFFFF AND DUP2 MSTORE PUSH1 0x20 ADD SWAP1 DUP2 MSTORE PUSH1 0x20 ADD PUSH0 KECCAK256 PUSH0 DUP4 PUSH20 0xFFFFFFFFFFFFFFFFFFFFFFFFFFFFFFFFFFFFFFFF AND PUSH20 0xFFFFFFFFFFFFFFFFFFFFFFFFFFFFFFFFFFFFFFFF AND DUP2 MSTORE PUSH1 0x20 ADD SWAP1 DUP2 MSTORE PUSH1 0x20 ADD PUSH0 KECCAK256 SLOAD SWAP1 POP SWAP3 SWAP2 POP POP JUMP JUMPDEST PUSH2 0xD14 PUSH2 0x1412 JUMP JUMPDEST PUSH0 PUSH20 0xFFFFFFFFFFFFFFFFFFFFFFFFFFFFFFFFFFFFFFFF AND DUP2 PUSH20 0xFFFFFFFFFFFFFFFFFFFFFFFFFFFFFFFFFFFFFFFF AND SUB PUSH2 0xD82 JUMPI PUSH1 0x40 MLOAD PUSH32 0x8C379A000000000000000000000000000000000000000000000000000000000 DUP2 MSTORE PUSH1 0x4 ADD PUSH2 0xD79 SWAP1 PUSH2 0x20B8 JUMP JUMPDEST PUSH1 0x40 MLOAD DUP1 SWAP2 SUB SWAP1 REVERT JUMPDEST PUSH2 0xD8B DUP2 PUSH2 0x1490 JUMP JUMPDEST POP JUMP JUMPDEST PUSH0 CALLER SWAP1 POP SWAP1 JUMP JUMPDEST PUSH0 PUSH20 0xFFFFFFFFFFFFFFFFFFFFFFFFFFFFFFFFFFFFFFFF AND DUP4 PUSH20 0xFFFFFFFFFFFFFFFFFFFFFFFFFFFFFFFFFFFFFFFF AND SUB PUSH2 0xE03 JUMPI PUSH1 0x40 MLOAD PUSH32 0x8C379A000000000000000000000000000000000000000000000000000000000 DUP2 MSTORE PUSH1 0x4 ADD PUSH2 0xDFA SWAP1 PUSH2 0x2146 JUMP JUMPDEST PUSH1 0x40 MLOAD DUP1 SWAP2 SUB SWAP1 REVERT JUMPDEST PUSH0 PUSH20 0xFFFFFFFFFFFFFFFFFFFFFFFFFFFFFFFFFFFFFFFF AND DUP3 PUSH20 0xFFFFFFFFFFFFFFFFFFFFFFFFFFFFFFFFFFFFFFFF AND SUB PUSH2 0xE71 JUMPI PUSH1 0x40 MLOAD PUSH32 0x8C379A000000000000000000000000000000000000000000000000000000000 DUP2 MSTORE PUSH1 0x4 ADD PUSH2 0xE68 SWAP1 PUSH2 0x21D4 JUMP JUMPDEST PUSH1 0x40 MLOAD DUP1 SWAP2 SUB SWAP1 REVERT JUMPDEST DUP1 PUSH1 0x1 PUSH0 DUP6 PUSH20 0xFFFFFFFFFFFFFFFFFFFFFFFFFFFFFFFFFFFFFFFF AND PUSH20 0xFFFFFFFFFFFFFFFFFFFFFFFFFFFFFFFFFFFFFFFF AND DUP2 MSTORE PUSH1 0x20 ADD SWAP1 DUP2 MSTORE PUSH1 0x20 ADD PUSH0 KECCAK256 PUSH0 DUP5 PUSH20 0xFFFFFFFFFFFFFFFFFFFFFFFFFFFFFFFFFFFFFFFF AND PUSH20 0xFFFFFFFFFFFFFFFFFFFFFFFFFFFFFFFFFFFFFFFF AND DUP2 MSTORE PUSH1 0x20 ADD SWAP1 DUP2 MSTORE PUSH1 0x20 ADD PUSH0 KECCAK256 DUP2 SWAP1 SSTORE POP DUP2 PUSH20 0xFFFFFFFFFFFFFFFFFFFFFFFFFFFFFFFFFFFFFFFF AND DUP4 PUSH20 0xFFFFFFFFFFFFFFFFFFFFFFFFFFFFFFFFFFFFFFFF AND PUSH32 0x8C5BE1E5EBEC7D5BD14F71427D1E84F3DD0314C0F7B2291E5B200AC8C7C3B925 DUP4 PUSH1 0x40 MLOAD PUSH2 0xF4B SWAP2 SWAP1 PUSH2 0x184C JUMP JUMPDEST PUSH1 0x40 MLOAD DUP1 SWAP2 SUB SWAP1 LOG3 POP POP POP JUMP JUMPDEST PUSH0 PUSH20 0xFFFFFFFFFFFFFFFFFFFFFFFFFFFFFFFFFFFFFFFF AND DUP3 PUSH20 0xFFFFFFFFFFFFFFFFFFFFFFFFFFFFFFFFFFFFFFFF AND SUB PUSH2 0xFC6 JUMPI PUSH1 0x40 MLOAD PUSH32 0x8C379A000000000000000000000000000000000000000000000000000000000 DUP2 MSTORE PUSH1 0x4 ADD PUSH2 0xFBD SWAP1 PUSH2 0x2262 JUMP JUMPDEST PUSH1 0x40 MLOAD DUP1 SWAP2 SUB SWAP1 REVERT JUMPDEST PUSH2 0xFD1 DUP3 PUSH0 DUP4 PUSH2 0x16A1 JUMP JUMPDEST PUSH0 DUP1 PUSH0 DUP5 PUSH20 0xFFFFFFFFFFFFFFFFFFFFFFFFFFFFFFFFFFFFFFFF AND PUSH20 0xFFFFFFFFFFFFFFFFFFFFFFFFFFFFFFFFFFFFFFFF AND DUP2 MSTORE PUSH1 0x20 ADD SWAP1 DUP2 MSTORE PUSH1 0x20 ADD PUSH0 KECCAK256 SLOAD SWAP1 POP DUP2 DUP2 LT ISZERO PUSH2 0x1054 JUMPI PUSH1 0x40 MLOAD PUSH32 0x8C379A000000000000000000000000000000000000000000000000000000000 DUP2 MSTORE PUSH1 0x4 ADD PUSH2 0x104B SWAP1 PUSH2 0x22F0 JUMP JUMPDEST PUSH1 0x40 MLOAD DUP1 SWAP2 SUB SWAP1 REVERT JUMPDEST DUP2 DUP2 SUB PUSH0 DUP1 DUP6 PUSH20 0xFFFFFFFFFFFFFFFFFFFFFFFFFFFFFFFFFFFFFFFF AND PUSH20 0xFFFFFFFFFFFFFFFFFFFFFFFFFFFFFFFFFFFFFFFF AND DUP2 MSTORE PUSH1 0x20 ADD SWAP1 DUP2 MSTORE PUSH1 0x20 ADD PUSH0 KECCAK256 DUP2 SWAP1 SSTORE POP DUP2 PUSH1 0x2 PUSH0 DUP3 DUP3 SLOAD SUB SWAP3 POP POP DUP2 SWAP1 SSTORE POP PUSH0 PUSH20 0xFFFFFFFFFFFFFFFFFFFFFFFFFFFFFFFFFFFFFFFF AND DUP4 PUSH20 0xFFFFFFFFFFFFFFFFFFFFFFFFFFFFFFFFFFFFFFFF AND PUSH32 0xDDF252AD1BE2C89B69C2B068FC378DAA952BA7F163C4A11628F55A4DF523B3EF DUP5 PUSH1 0x40 MLOAD PUSH2 0x1103 SWAP2 SWAP1 PUSH2 0x184C JUMP JUMPDEST PUSH1 0x40 MLOAD DUP1 SWAP2 SUB SWAP1 LOG3 PUSH2 0x1116 DUP4 PUSH0 DUP5 PUSH2 0x16A6 JUMP JUMPDEST POP POP POP JUMP JUMPDEST PUSH0 PUSH2 0x1126 DUP5 DUP5 PUSH2 0xC8A JUMP JUMPDEST SWAP1 POP PUSH32 0xFFFFFFFFFFFFFFFFFFFFFFFFFFFFFFFFFFFFFFFFFFFFFFFFFFFFFFFFFFFFFFFF DUP2 EQ PUSH2 0x11A0 JUMPI DUP2 DUP2 LT ISZERO PUSH2 0x1192 JUMPI PUSH1 0x40 MLOAD PUSH32 0x8C379A000000000000000000000000000000000000000000000000000000000 DUP2 MSTORE PUSH1 0x4 ADD PUSH2 0x1189 SWAP1 PUSH2 0x2358 JUMP JUMPDEST PUSH1 0x40 MLOAD DUP1 SWAP2 SUB SWAP1 REVERT JUMPDEST PUSH2 0x119F DUP5 DUP5 DUP5 DUP5 SUB PUSH2 0xD95 JUMP JUMPDEST JUMPDEST POP POP POP POP JUMP JUMPDEST PUSH0 PUSH20 0xFFFFFFFFFFFFFFFFFFFFFFFFFFFFFFFFFFFFFFFF AND DUP4 PUSH20 0xFFFFFFFFFFFFFFFFFFFFFFFFFFFFFFFFFFFFFFFF AND SUB PUSH2 0x1214 JUMPI PUSH1 0x40 MLOAD PUSH32 0x8C379A000000000000000000000000000000000000000000000000000000000 DUP2 MSTORE PUSH1 0x4 ADD PUSH2 0x120B SWAP1 PUSH2 0x23E6 JUMP JUMPDEST PUSH1 0x40 MLOAD DUP1 SWAP2 SUB SWAP1 REVERT JUMPDEST PUSH0 PUSH20 0xFFFFFFFFFFFFFFFFFFFFFFFFFFFFFFFFFFFFFFFF AND DUP3 PUSH20 0xFFFFFFFFFFFFFFFFFFFFFFFFFFFFFFFFFFFFFFFF AND SUB PUSH2 0x1282 JUMPI PUSH1 0x40 MLOAD PUSH32 0x8C379A000000000000000000000000000000000000000000000000000000000 DUP2 MSTORE PUSH1 0x4 ADD PUSH2 0x1279 SWAP1 PUSH2 0x2474 JUMP JUMPDEST PUSH1 0x40 MLOAD DUP1 SWAP2 SUB SWAP1 REVERT JUMPDEST PUSH2 0x128D DUP4 DUP4 DUP4 PUSH2 0x16A1 JUMP JUMPDEST PUSH0 DUP1 PUSH0 DUP6 PUSH20 0xFFFFFFFFFFFFFFFFFFFFFFFFFFFFFFFFFFFFFFFF AND PUSH20 0xFFFFFFFFFFFFFFFFFFFFFFFFFFFFFFFFFFFFFFFF AND DUP2 MSTORE PUSH1 0x20 ADD SWAP1 DUP2 MSTORE PUSH1 0x20 ADD PUSH0 KECCAK256 SLOAD SWAP1 POP DUP2 DUP2 LT ISZERO PUSH2 0x1310 JUMPI PUSH1 0x40 MLOAD PUSH32 0x8C379A000000000000000000000000000000000000000000000000000000000 DUP2 MSTORE PUSH1 0x4 ADD PUSH2 0x1307 SWAP1 PUSH2 0x2502 JUMP JUMPDEST PUSH1 0x40 MLOAD DUP1 SWAP2 SUB SWAP1 REVERT JUMPDEST DUP2 DUP2 SUB PUSH0 DUP1 DUP7 PUSH20 0xFFFFFFFFFFFFFFFFFFFFFFFFFFFFFFFFFFFFFFFF AND PUSH20 0xFFFFFFFFFFFFFFFFFFFFFFFFFFFFFFFFFFFFFFFF AND DUP2 MSTORE PUSH1 0x20 ADD SWAP1 DUP2 MSTORE PUSH1 0x20 ADD PUSH0 KECCAK256 DUP2 SWAP1 SSTORE POP DUP2 PUSH0 DUP1 DUP6 PUSH20 0xFFFFFFFFFFFFFFFFFFFFFFFFFFFFFFFFFFFFFFFF AND PUSH20 0xFFFFFFFFFFFFFFFFFFFFFFFFFFFFFFFFFFFFFFFF AND DUP2 MSTORE PUSH1 0x20 ADD SWAP1 DUP2 MSTORE PUSH1 0x20 ADD PUSH0 KECCAK256 PUSH0 DUP3 DUP3 SLOAD ADD SWAP3 POP POP DUP2 SWAP1 SSTORE POP DUP3 PUSH20 0xFFFFFFFFFFFFFFFFFFFFFFFFFFFFFFFFFFFFFFFF AND DUP5 PUSH20 0xFFFFFFFFFFFFFFFFFFFFFFFFFFFFFFFFFFFFFFFF AND PUSH32 0xDDF252AD1BE2C89B69C2B068FC378DAA952BA7F163C4A11628F55A4DF523B3EF DUP5 PUSH1 0x40 MLOAD PUSH2 0x13F9 SWAP2 SWAP1 PUSH2 0x184C JUMP JUMPDEST PUSH1 0x40 MLOAD DUP1 SWAP2 SUB SWAP1 LOG3 PUSH2 0x140C DUP5 DUP5 DUP5 PUSH2 0x16A6 JUMP JUMPDEST POP POP POP POP JUMP JUMPDEST PUSH2 0x141A PUSH2 0xD8E JUMP JUMPDEST PUSH20 0xFFFFFFFFFFFFFFFFFFFFFFFFFFFFFFFFFFFFFFFF AND PUSH2 0x1438 PUSH2 0xAA5 JUMP JUMPDEST PUSH20 0xFFFFFFFFFFFFFFFFFFFFFFFFFFFFFFFFFFFFFFFF AND EQ PUSH2 0x148E JUMPI PUSH1 0x40 MLOAD PUSH32 0x8C379A000000000000000000000000000000000000000000000000000000000 DUP2 MSTORE PUSH1 0x4 ADD PUSH2 0x1485 SWAP1 PUSH2 0x256A JUMP JUMPDEST PUSH1 0x40 MLOAD DUP1 SWAP2 SUB SWAP1 REVERT JUMPDEST JUMP JUMPDEST PUSH0 PUSH1 0x5 PUSH0 SWAP1 SLOAD SWAP1 PUSH2 0x100 EXP SWAP1 DIV PUSH20 0xFFFFFFFFFFFFFFFFFFFFFFFFFFFFFFFFFFFFFFFF AND SWAP1 POP DUP2 PUSH1 0x5 PUSH0 PUSH2 0x100 EXP DUP2 SLOAD DUP2 PUSH20 0xFFFFFFFFFFFFFFFFFFFFFFFFFFFFFFFFFFFFFFFF MUL NOT AND SWAP1 DUP4 PUSH20 0xFFFFFFFFFFFFFFFFFFFFFFFFFFFFFFFFFFFFFFFF AND MUL OR SWAP1 SSTORE POP DUP2 PUSH20 0xFFFFFFFFFFFFFFFFFFFFFFFFFFFFFFFFFFFFFFFF AND DUP2 PUSH20 0xFFFFFFFFFFFFFFFFFFFFFFFFFFFFFFFFFFFFFFFF AND PUSH32 0x8BE0079C531659141344CD1FD0A4F28419497F9722A3DAAFE3B4186F6B6457E0 PUSH1 0x40 MLOAD PUSH1 0x40 MLOAD DUP1 SWAP2 SUB SWAP1 LOG3 POP POP JUMP JUMPDEST PUSH0 PUSH20 0xFFFFFFFFFFFFFFFFFFFFFFFFFFFFFFFFFFFFFFFF AND DUP3 PUSH20 0xFFFFFFFFFFFFFFFFFFFFFFFFFFFFFFFFFFFFFFFF AND SUB PUSH2 0x15C1 JUMPI PUSH1 0x40 MLOAD PUSH32 0x8C379A000000000000000000000000000000000000000000000000000000000 DUP2 MSTORE PUSH1 0x4 ADD PUSH2 0x15B8 SWAP1 PUSH2 0x25D2 JUMP JUMPDEST PUSH1 0x40 MLOAD DUP1 SWAP2 SUB SWAP1 REVERT JUMPDEST PUSH2 0x15CC PUSH0 DUP4 DUP4 PUSH2 0x16A1 JUMP JUMPDEST DUP1 PUSH1 0x2 PUSH0 DUP3 DUP3 SLOAD PUSH2 0x15DD SWAP2 SWAP1 PUSH2 0x1E6B JUMP JUMPDEST SWAP3 POP POP DUP2 SWAP1 SSTORE POP DUP1 PUSH0 DUP1 DUP5 PUSH20 0xFFFFFFFFFFFFFFFFFFFFFFFFFFFFFFFFFFFFFFFF AND PUSH20 0xFFFFFFFFFFFFFFFFFFFFFFFFFFFFFFFFFFFFFFFF AND DUP2 MSTORE PUSH1 0x20 ADD SWAP1 DUP2 MSTORE PUSH1 0x20 ADD PUSH0 KECCAK256 PUSH0 DUP3 DUP3 SLOAD ADD SWAP3 POP POP DUP2 SWAP1 SSTORE POP DUP2 PUSH20 0xFFFFFFFFFFFFFFFFFFFFFFFFFFFFFFFFFFFFFFFF AND PUSH0 PUSH20 0xFFFFFFFFFFFFFFFFFFFFFFFFFFFFFFFFFFFFFFFF AND PUSH32 0xDDF252AD1BE2C89B69C2B068FC378DAA952BA7F163C4A11628F55A4DF523B3EF DUP4 PUSH1 0x40 MLOAD PUSH2 0x168A SWAP2 SWAP1 PUSH2 0x184C JUMP JUMPDEST PUSH1 0x40 MLOAD DUP1 SWAP2 SUB SWAP1 LOG3 PUSH2 0x169D PUSH0 DUP4 DUP4 PUSH2 0x16A6 JUMP JUMPDEST POP POP JUMP JUMPDEST POP POP POP JUMP JUMPDEST POP POP POP JUMP JUMPDEST PUSH0 DUP2 MLOAD SWAP1 POP SWAP2 SWAP1 POP JUMP JUMPDEST PUSH0 DUP3 DUP3 MSTORE PUSH1 0x20 DUP3 ADD SWAP1 POP SWAP3 SWAP2 POP POP JUMP JUMPDEST DUP3 DUP2 DUP4 MCOPY PUSH0 DUP4 DUP4 ADD MSTORE POP POP POP JUMP JUMPDEST PUSH0 PUSH1 0x1F NOT PUSH1 0x1F DUP4 ADD AND SWAP1 POP SWAP2 SWAP1 POP JUMP JUMPDEST PUSH0 PUSH2 0x16ED DUP3 PUSH2 0x16AB JUMP JUMPDEST PUSH2 0x16F7 DUP2 DUP6 PUSH2 0x16B5 JUMP JUMPDEST SWAP4 POP PUSH2 0x1707 DUP2 DUP6 PUSH1 0x20 DUP7 ADD PUSH2 0x16C5 JUMP JUMPDEST PUSH2 0x1710 DUP2 PUSH2 0x16D3 JUMP JUMPDEST DUP5 ADD SWAP2 POP POP SWAP3 SWAP2 POP POP JUMP JUMPDEST PUSH0 PUSH1 0x20 DUP3 ADD SWAP1 POP DUP2 DUP2 SUB PUSH0 DUP4 ADD MSTORE PUSH2 0x1733 DUP2 DUP5 PUSH2 0x16E3 JUMP JUMPDEST SWAP1 POP SWAP3 SWAP2 POP POP JUMP JUMPDEST PUSH0 DUP1 REVERT JUMPDEST PUSH0 PUSH20 0xFFFFFFFFFFFFFFFFFFFFFFFFFFFFFFFFFFFFFFFF DUP3 AND SWAP1 POP SWAP2 SWAP1 POP JUMP JUMPDEST PUSH0 PUSH2 0x1768 DUP3 PUSH2 0x173F JUMP JUMPDEST SWAP1 POP SWAP2 SWAP1 POP JUMP JUMPDEST PUSH2 0x1778 DUP2 PUSH2 0x175E JUMP JUMPDEST DUP2 EQ PUSH2 0x1782 JUMPI PUSH0 DUP1 REVERT JUMPDEST POP JUMP JUMPDEST PUSH0 DUP2 CALLDATALOAD SWAP1 POP PUSH2 0x1793 DUP2 PUSH2 0x176F JUMP JUMPDEST SWAP3 SWAP2 POP POP JUMP JUMPDEST PUSH0 DUP2 SWAP1 POP SWAP2 SWAP1 POP JUMP JUMPDEST PUSH2 0x17AB DUP2 PUSH2 0x1799 JUMP JUMPDEST DUP2 EQ PUSH2 0x17B5 JUMPI PUSH0 DUP1 REVERT JUMPDEST POP JUMP JUMPDEST PUSH0 DUP2 CALLDATALOAD SWAP1 POP PUSH2 0x17C6 DUP2 PUSH2 0x17A2 JUMP JUMPDEST SWAP3 SWAP2 POP POP JUMP JUMPDEST PUSH0 DUP1 PUSH1 0x40 DUP4 DUP6 SUB SLT ISZERO PUSH2 0x17E2 JUMPI PUSH2 0x17E1 PUSH2 0x173B JUMP JUMPDEST JUMPDEST PUSH0 PUSH2 0x17EF DUP6 DUP3 DUP7 ADD PUSH2 0x1785 JUMP JUMPDEST SWAP3 POP POP PUSH1 0x20 PUSH2 0x1800 DUP6 DUP3 DUP7 ADD PUSH2 0x17B8 JUMP JUMPDEST SWAP2 POP POP SWAP3 POP SWAP3 SWAP1 POP JUMP JUMPDEST PUSH0 DUP2 ISZERO ISZERO SWAP1 POP SWAP2 SWAP1 POP JUMP JUMPDEST PUSH2 0x181E DUP2 PUSH2 0x180A JUMP JUMPDEST DUP3 MSTORE POP POP JUMP JUMPDEST PUSH0 PUSH1 0x20 DUP3 ADD SWAP1 POP PUSH2 0x1837 PUSH0 DUP4 ADD DUP5 PUSH2 0x1815 JUMP JUMPDEST SWAP3 SWAP2 POP POP JUMP JUMPDEST PUSH2 0x1846 DUP2 PUSH2 0x1799 JUMP JUMPDEST DUP3 MSTORE POP POP JUMP JUMPDEST PUSH0 PUSH1 0x20 DUP3 ADD SWAP1 POP PUSH2 0x185F PUSH0 DUP4 ADD DUP5 PUSH2 0x183D JUMP JUMPDEST SWAP3 SWAP2 POP POP JUMP JUMPDEST PUSH0 PUSH1 0x20 DUP3 DUP5 SUB SLT ISZERO PUSH2 0x187A JUMPI PUSH2 0x1879 PUSH2 0x173B JUMP JUMPDEST JUMPDEST PUSH0 PUSH2 0x1887 DUP5 DUP3 DUP6 ADD PUSH2 0x17B8 JUMP JUMPDEST SWAP2 POP POP SWAP3 SWAP2 POP POP JUMP JUMPDEST PUSH0 DUP1 PUSH0 PUSH1 0x60 DUP5 DUP7 SUB SLT ISZERO PUSH2 0x18A7 JUMPI PUSH2 0x18A6 PUSH2 0x173B JUMP JUMPDEST JUMPDEST PUSH0 PUSH2 0x18B4 DUP7 DUP3 DUP8 ADD PUSH2 0x1785 JUMP JUMPDEST SWAP4 POP POP PUSH1 0x20 PUSH2 0x18C5 DUP7 DUP3 DUP8 ADD PUSH2 0x1785 JUMP JUMPDEST SWAP3 POP POP PUSH1 0x40 PUSH2 0x18D6 DUP7 DUP3 DUP8 ADD PUSH2 0x17B8 JUMP JUMPDEST SWAP2 POP POP SWAP3 POP SWAP3 POP SWAP3 JUMP JUMPDEST PUSH0 PUSH1 0x60 DUP3 ADD SWAP1 POP PUSH2 0x18F3 PUSH0 DUP4 ADD DUP7 PUSH2 0x183D JUMP JUMPDEST DUP2 DUP2 SUB PUSH1 0x20 DUP4 ADD MSTORE PUSH2 0x1905 DUP2 DUP6 PUSH2 0x16E3 JUMP JUMPDEST SWAP1 POP PUSH2 0x1914 PUSH1 0x40 DUP4 ADD DUP5 PUSH2 0x1815 JUMP JUMPDEST SWAP5 SWAP4 POP POP POP POP JUMP JUMPDEST PUSH0 PUSH1 0xFF DUP3 AND SWAP1 POP SWAP2 SWAP1 POP JUMP JUMPDEST PUSH2 0x1931 DUP2 PUSH2 0x191C JUMP JUMPDEST DUP3 MSTORE POP POP JUMP JUMPDEST PUSH0 PUSH1 0x20 DUP3 ADD SWAP1 POP PUSH2 0x194A PUSH0 DUP4 ADD DUP5 PUSH2 0x1928 JUMP JUMPDEST SWAP3 SWAP2 POP POP JUMP JUMPDEST PUSH0 DUP2 MLOAD SWAP1 POP SWAP2 SWAP1 POP JUMP JUMPDEST PUSH0 DUP3 DUP3 MSTORE PUSH1 0x20 DUP3 ADD SWAP1 POP SWAP3 SWAP2 POP POP JUMP JUMPDEST PUSH0 DUP2 SWAP1 POP PUSH1 0x20 DUP3 ADD SWAP1 POP SWAP2 SWAP1 POP JUMP JUMPDEST PUSH2 0x1982 DUP2 PUSH2 0x1799 JUMP JUMPDEST DUP3 MSTORE POP POP JUMP JUMPDEST PUSH0 DUP3 DUP3 MSTORE PUSH1 0x20 DUP3 ADD SWAP1 POP SWAP3 SWAP2 POP POP JUMP JUMPDEST PUSH0 PUSH2 0x19A2 DUP3 PUSH2 0x16AB JUMP JUMPDEST PUSH2 0x19AC DUP2 DUP6 PUSH2 0x1988 JUMP JUMPDEST SWAP4 POP PUSH2 0x19BC DUP2 DUP6 PUSH1 0x20 DUP7 ADD PUSH2 0x16C5 JUMP JUMPDEST PUSH2 0x19C5 DUP2 PUSH2 0x16D3 JUMP JUMPDEST DUP5 ADD SWAP2 POP POP SWAP3 SWAP2 POP POP JUMP JUMPDEST PUSH2 0x19D9 DUP2 PUSH2 0x180A JUMP JUMPDEST DUP3 MSTORE POP POP JUMP JUMPDEST PUSH0 PUSH1 0x60 DUP4 ADD PUSH0 DUP4 ADD MLOAD PUSH2 0x19F4 PUSH0 DUP7 ADD DUP3 PUSH2 0x1979 JUMP JUMPDEST POP PUSH1 0x20 DUP4 ADD MLOAD DUP5 DUP3 SUB PUSH1 0x20 DUP7 ADD MSTORE PUSH2 0x1A0C DUP3 DUP3 PUSH2 0x1998 JUMP JUMPDEST SWAP2 POP POP PUSH1 0x40 DUP4 ADD MLOAD PUSH2 0x1A21 PUSH1 0x40 DUP7 ADD DUP3 PUSH2 0x19D0 JUMP JUMPDEST POP DUP1 SWAP2 POP POP SWAP3 SWAP2 POP POP JUMP JUMPDEST PUSH0 PUSH2 0x1A37 DUP4 DUP4 PUSH2 0x19DF JUMP JUMPDEST SWAP1 POP SWAP3 SWAP2 POP POP JUMP JUMPDEST PUSH0 PUSH1 0x20 DUP3 ADD SWAP1 POP SWAP2 SWAP1 POP JUMP JUMPDEST PUSH0 PUSH2 0x1A55 DUP3 PUSH2 0x1950 JUMP JUMPDEST PUSH2 0x1A5F DUP2 DUP6 PUSH2 0x195A JUMP JUMPDEST SWAP4 POP DUP4 PUSH1 0x20 DUP3 MUL DUP6 ADD PUSH2 0x1A71 DUP6 PUSH2 0x196A JUMP JUMPDEST DUP1 PUSH0 JUMPDEST DUP6 DUP2 LT ISZERO PUSH2 0x1AAC JUMPI DUP5 DUP5 SUB DUP10 MSTORE DUP2 MLOAD PUSH2 0x1A8D DUP6 DUP3 PUSH2 0x1A2C JUMP JUMPDEST SWAP5 POP PUSH2 0x1A98 DUP4 PUSH2 0x1A3F JUMP JUMPDEST SWAP3 POP PUSH1 0x20 DUP11 ADD SWAP10 POP POP PUSH1 0x1 DUP2 ADD SWAP1 POP PUSH2 0x1A74 JUMP JUMPDEST POP DUP3 SWAP8 POP DUP8 SWAP6 POP POP POP POP POP POP SWAP3 SWAP2 POP POP JUMP JUMPDEST PUSH0 PUSH1 0x20 DUP3 ADD SWAP1 POP DUP2 DUP2 SUB PUSH0 DUP4 ADD MSTORE PUSH2 0x1AD6 DUP2 DUP5 PUSH2 0x1A4B JUMP JUMPDEST SWAP1 POP SWAP3 SWAP2 POP POP JUMP JUMPDEST PUSH0 PUSH1 0x20 DUP3 DUP5 SUB SLT ISZERO PUSH2 0x1AF3 JUMPI PUSH2 0x1AF2 PUSH2 0x173B JUMP JUMPDEST JUMPDEST PUSH0 PUSH2 0x1B00 DUP5 DUP3 DUP6 ADD PUSH2 0x1785 JUMP JUMPDEST SWAP2 POP POP SWAP3 SWAP2 POP POP JUMP JUMPDEST PUSH2 0x1B12 DUP2 PUSH2 0x175E JUMP JUMPDEST DUP3 MSTORE POP POP JUMP JUMPDEST PUSH0 PUSH1 0x20 DUP3 ADD SWAP1 POP PUSH2 0x1B2B PUSH0 DUP4 ADD DUP5 PUSH2 0x1B09 JUMP JUMPDEST SWAP3 SWAP2 POP POP JUMP JUMPDEST PUSH0 DUP1 PUSH1 0x40 DUP4 DUP6 SUB SLT ISZERO PUSH2 0x1B47 JUMPI PUSH2 0x1B46 PUSH2 0x173B JUMP JUMPDEST JUMPDEST PUSH0 PUSH2 0x1B54 DUP6 DUP3 DUP7 ADD PUSH2 0x1785 JUMP JUMPDEST SWAP3 POP POP PUSH1 0x20 PUSH2 0x1B65 DUP6 DUP3 DUP7 ADD PUSH2 0x1785 JUMP JUMPDEST SWAP2 POP POP SWAP3 POP SWAP3 SWAP1 POP JUMP JUMPDEST PUSH32 0x4E487B7100000000000000000000000000000000000000000000000000000000 PUSH0 MSTORE PUSH1 0x22 PUSH1 0x4 MSTORE PUSH1 0x24 PUSH0 REVERT JUMPDEST PUSH0 PUSH1 0x2 DUP3 DIV SWAP1 POP PUSH1 0x1 DUP3 AND DUP1 PUSH2 0x1BB3 JUMPI PUSH1 0x7F DUP3 AND SWAP2 POP JUMPDEST PUSH1 0x20 DUP3 LT DUP2 SUB PUSH2 0x1BC6 JUMPI PUSH2 0x1BC5 PUSH2 0x1B6F JUMP JUMPDEST JUMPDEST POP SWAP2 SWAP1 POP JUMP JUMPDEST PUSH32 0x446567656E546F6B656E3A20696E76616C6964206974656D2049440000000000 PUSH0 DUP3 ADD MSTORE POP JUMP JUMPDEST PUSH0 PUSH2 0x1C00 PUSH1 0x1B DUP4 PUSH2 0x16B5 JUMP JUMPDEST SWAP2 POP PUSH2 0x1C0B DUP3 PUSH2 0x1BCC JUMP JUMPDEST PUSH1 0x20 DUP3 ADD SWAP1 POP SWAP2 SWAP1 POP JUMP JUMPDEST PUSH0 PUSH1 0x20 DUP3 ADD SWAP1 POP DUP2 DUP2 SUB PUSH0 DUP4 ADD MSTORE PUSH2 0x1C2D DUP2 PUSH2 0x1BF4 JUMP JUMPDEST SWAP1 POP SWAP2 SWAP1 POP JUMP JUMPDEST PUSH32 0x4E487B7100000000000000000000000000000000000000000000000000000000 PUSH0 MSTORE PUSH1 0x32 PUSH1 0x4 MSTORE PUSH1 0x24 PUSH0 REVERT JUMPDEST PUSH32 0x446567656E546F6B656E3A20696E73756666696369656E742062616C616E6365 PUSH0 DUP3 ADD MSTORE PUSH32 0x20746F2072656465656D206974656D0000000000000000000000000000000000 PUSH1 0x20 DUP3 ADD MSTORE POP JUMP JUMPDEST PUSH0 PUSH2 0x1CBB PUSH1 0x2F DUP4 PUSH2 0x16B5 JUMP JUMPDEST SWAP2 POP PUSH2 0x1CC6 DUP3 PUSH2 0x1C61 JUMP JUMPDEST PUSH1 0x40 DUP3 ADD SWAP1 POP SWAP2 SWAP1 POP JUMP JUMPDEST PUSH0 PUSH1 0x20 DUP3 ADD SWAP1 POP DUP2 DUP2 SUB PUSH0 DUP4 ADD MSTORE PUSH2 0x1CE8 DUP2 PUSH2 0x1CAF JUMP JUMPDEST SWAP1 POP SWAP2 SWAP1 POP JUMP JUMPDEST PUSH32 0x446567656E546F6B656E3A206974656D20616C72656164792072656465656D65 PUSH0 DUP3 ADD MSTORE PUSH32 0x6400000000000000000000000000000000000000000000000000000000000000 PUSH1 0x20 DUP3 ADD MSTORE POP JUMP JUMPDEST PUSH0 PUSH2 0x1D49 PUSH1 0x21 DUP4 PUSH2 0x16B5 JUMP JUMPDEST SWAP2 POP PUSH2 0x1D54 DUP3 PUSH2 0x1CEF JUMP JUMPDEST PUSH1 0x40 DUP3 ADD SWAP1 POP SWAP2 SWAP1 POP JUMP JUMPDEST PUSH0 PUSH1 0x20 DUP3 ADD SWAP1 POP DUP2 DUP2 SUB PUSH0 DUP4 ADD MSTORE PUSH2 0x1D76 DUP2 PUSH2 0x1D3D JUMP JUMPDEST SWAP1 POP SWAP2 SWAP1 POP JUMP JUMPDEST PUSH0 DUP2 SWAP1 POP DUP2 PUSH0 MSTORE PUSH1 0x20 PUSH0 KECCAK256 SWAP1 POP SWAP2 SWAP1 POP JUMP JUMPDEST PUSH0 DUP2 SLOAD PUSH2 0x1D9B DUP2 PUSH2 0x1B9C JUMP JUMPDEST PUSH2 0x1DA5 DUP2 DUP7 PUSH2 0x16B5 JUMP JUMPDEST SWAP5 POP PUSH1 0x1 DUP3 AND PUSH0 DUP2 EQ PUSH2 0x1DBF JUMPI PUSH1 0x1 DUP2 EQ PUSH2 0x1DD5 JUMPI PUSH2 0x1E07 JUMP JUMPDEST PUSH1 0xFF NOT DUP4 AND DUP7 MSTORE DUP2 ISZERO ISZERO PUSH1 0x20 MUL DUP7 ADD SWAP4 POP PUSH2 0x1E07 JUMP JUMPDEST PUSH2 0x1DDE DUP6 PUSH2 0x1D7D JUMP JUMPDEST PUSH0 JUMPDEST DUP4 DUP2 LT ISZERO PUSH2 0x1DFF JUMPI DUP2 SLOAD DUP2 DUP10 ADD MSTORE PUSH1 0x1 DUP3 ADD SWAP2 POP PUSH1 0x20 DUP2 ADD SWAP1 POP PUSH2 0x1DE0 JUMP JUMPDEST DUP1 DUP9 ADD SWAP6 POP POP POP JUMPDEST POP POP POP SWAP3 SWAP2 POP POP JUMP JUMPDEST PUSH0 PUSH1 0x40 DUP3 ADD SWAP1 POP PUSH2 0x1E23 PUSH0 DUP4 ADD DUP6 PUSH2 0x183D JUMP JUMPDEST DUP2 DUP2 SUB PUSH1 0x20 DUP4 ADD MSTORE PUSH2 0x1E35 DUP2 DUP5 PUSH2 0x1D8F JUMP JUMPDEST SWAP1 POP SWAP4 SWAP3 POP POP POP JUMP JUMPDEST PUSH32 0x4E487B7100000000000000000000000000000000000000000000000000000000 PUSH0 MSTORE PUSH1 0x11 PUSH1 0x4 MSTORE PUSH1 0x24 PUSH0 REVERT JUMPDEST PUSH0 PUSH2 0x1E75 DUP3 PUSH2 0x1799 JUMP JUMPDEST SWAP2 POP PUSH2 0x1E80 DUP4 PUSH2 0x1799 JUMP JUMPDEST SWAP3 POP DUP3 DUP3 ADD SWAP1 POP DUP1 DUP3 GT ISZERO PUSH2 0x1E98 JUMPI PUSH2 0x1E97 PUSH2 0x1E3E JUMP JUMPDEST JUMPDEST SWAP3 SWAP2 POP POP JUMP JUMPDEST PUSH32 0x446567656E546F6B656E3A20696E73756666696369656E742062616C616E6365 PUSH0 DUP3 ADD MSTORE PUSH32 0x20746F206275726E000000000000000000000000000000000000000000000000 PUSH1 0x20 DUP3 ADD MSTORE POP JUMP JUMPDEST PUSH0 PUSH2 0x1EF8 PUSH1 0x28 DUP4 PUSH2 0x16B5 JUMP JUMPDEST SWAP2 POP PUSH2 0x1F03 DUP3 PUSH2 0x1E9E JUMP JUMPDEST PUSH1 0x40 DUP3 ADD SWAP1 POP SWAP2 SWAP1 POP JUMP JUMPDEST PUSH0 PUSH1 0x20 DUP3 ADD SWAP1 POP DUP2 DUP2 SUB PUSH0 DUP4 ADD MSTORE PUSH2 0x1F25 DUP2 PUSH2 0x1EEC JUMP JUMPDEST SWAP1 POP SWAP2 SWAP1 POP JUMP JUMPDEST PUSH32 0x45524332303A2064656372656173656420616C6C6F77616E63652062656C6F77 PUSH0 DUP3 ADD MSTORE PUSH32 0x207A65726F000000000000000000000000000000000000000000000000000000 PUSH1 0x20 DUP3 ADD MSTORE POP JUMP JUMPDEST PUSH0 PUSH2 0x1F86 PUSH1 0x25 DUP4 PUSH2 0x16B5 JUMP JUMPDEST SWAP2 POP PUSH2 0x1F91 DUP3 PUSH2 0x1F2C JUMP JUMPDEST PUSH1 0x40 DUP3 ADD SWAP1 POP SWAP2 SWAP1 POP JUMP JUMPDEST PUSH0 PUSH1 0x20 DUP3 ADD SWAP1 POP DUP2 DUP2 SUB PUSH0 DUP4 ADD MSTORE PUSH2 0x1FB3 DUP2 PUSH2 0x1F7A JUMP JUMPDEST SWAP1 POP SWAP2 SWAP1 POP JUMP JUMPDEST PUSH32 0x446567656E546F6B656E3A20696E73756666696369656E742062616C616E6365 PUSH0 DUP3 ADD MSTORE PUSH32 0x20666F72207472616E7366657200000000000000000000000000000000000000 PUSH1 0x20 DUP3 ADD MSTORE POP JUMP JUMPDEST PUSH0 PUSH2 0x2014 PUSH1 0x2D DUP4 PUSH2 0x16B5 JUMP JUMPDEST SWAP2 POP PUSH2 0x201F DUP3 PUSH2 0x1FBA JUMP JUMPDEST PUSH1 0x40 DUP3 ADD SWAP1 POP SWAP2 SWAP1 POP JUMP JUMPDEST PUSH0 PUSH1 0x20 DUP3 ADD SWAP1 POP DUP2 DUP2 SUB PUSH0 DUP4 ADD MSTORE PUSH2 0x2041 DUP2 PUSH2 0x2008 JUMP JUMPDEST SWAP1 POP SWAP2 SWAP1 POP JUMP JUMPDEST PUSH32 0x4F776E61626C653A206E6577206F776E657220697320746865207A65726F2061 PUSH0 DUP3 ADD MSTORE PUSH32 0x6464726573730000000000000000000000000000000000000000000000000000 PUSH1 0x20 DUP3 ADD MSTORE POP JUMP JUMPDEST PUSH0 PUSH2 0x20A2 PUSH1 0x26 DUP4 PUSH2 0x16B5 JUMP JUMPDEST SWAP2 POP PUSH2 0x20AD DUP3 PUSH2 0x2048 JUMP JUMPDEST PUSH1 0x40 DUP3 ADD SWAP1 POP SWAP2 SWAP1 POP JUMP JUMPDEST PUSH0 PUSH1 0x20 DUP3 ADD SWAP1 POP DUP2 DUP2 SUB PUSH0 DUP4 ADD MSTORE PUSH2 0x20CF DUP2 PUSH2 0x2096 JUMP JUMPDEST SWAP1 POP SWAP2 SWAP1 POP JUMP JUMPDEST PUSH32 0x45524332303A20617070726F76652066726F6D20746865207A65726F20616464 PUSH0 DUP3 ADD MSTORE PUSH32 0x7265737300000000000000000000000000000000000000000000000000000000 PUSH1 0x20 DUP3 ADD MSTORE POP JUMP JUMPDEST PUSH0 PUSH2 0x2130 PUSH1 0x24 DUP4 PUSH2 0x16B5 JUMP JUMPDEST SWAP2 POP PUSH2 0x213B DUP3 PUSH2 0x20D6 JUMP JUMPDEST PUSH1 0x40 DUP3 ADD SWAP1 POP SWAP2 SWAP1 POP JUMP JUMPDEST PUSH0 PUSH1 0x20 DUP3 ADD SWAP1 POP DUP2 DUP2 SUB PUSH0 DUP4 ADD MSTORE PUSH2 0x215D DUP2 PUSH2 0x2124 JUMP JUMPDEST SWAP1 POP SWAP2 SWAP1 POP JUMP JUMPDEST PUSH32 0x45524332303A20617070726F766520746F20746865207A65726F206164647265 PUSH0 DUP3 ADD MSTORE PUSH32 0x7373000000000000000000000000000000000000000000000000000000000000 PUSH1 0x20 DUP3 ADD MSTORE POP JUMP JUMPDEST PUSH0 PUSH2 0x21BE PUSH1 0x22 DUP4 PUSH2 0x16B5 JUMP JUMPDEST SWAP2 POP PUSH2 0x21C9 DUP3 PUSH2 0x2164 JUMP JUMPDEST PUSH1 0x40 DUP3 ADD SWAP1 POP SWAP2 SWAP1 POP JUMP JUMPDEST PUSH0 PUSH1 0x20 DUP3 ADD SWAP1 POP DUP2 DUP2 SUB PUSH0 DUP4 ADD MSTORE PUSH2 0x21EB DUP2 PUSH2 0x21B2 JUMP JUMPDEST SWAP1 POP SWAP2 SWAP1 POP JUMP JUMPDEST PUSH32 0x45524332303A206275726E2066726F6D20746865207A65726F20616464726573 PUSH0 DUP3 ADD MSTORE PUSH32 0x7300000000000000000000000000000000000000000000000000000000000000 PUSH1 0x20 DUP3 ADD MSTORE POP JUMP JUMPDEST PUSH0 PUSH2 0x224C PUSH1 0x21 DUP4 PUSH2 0x16B5 JUMP JUMPDEST SWAP2 POP PUSH2 0x2257 DUP3 PUSH2 0x21F2 JUMP JUMPDEST PUSH1 0x40 DUP3 ADD SWAP1 POP SWAP2 SWAP1 POP JUMP JUMPDEST PUSH0 PUSH1 0x20 DUP3 ADD SWAP1 POP DUP2 DUP2 SUB PUSH0 DUP4 ADD MSTORE PUSH2 0x2279 DUP2 PUSH2 0x2240 JUMP JUMPDEST SWAP1 POP SWAP2 SWAP1 POP JUMP JUMPDEST PUSH32 0x45524332303A206275726E20616D6F756E7420657863656564732062616C616E PUSH0 DUP3 ADD MSTORE PUSH32 0x6365000000000000000000000000000000000000000000000000000000000000 PUSH1 0x20 DUP3 ADD MSTORE POP JUMP JUMPDEST PUSH0 PUSH2 0x22DA PUSH1 0x22 DUP4 PUSH2 0x16B5 JUMP JUMPDEST SWAP2 POP PUSH2 0x22E5 DUP3 PUSH2 0x2280 JUMP JUMPDEST PUSH1 0x40 DUP3 ADD SWAP1 POP SWAP2 SWAP1 POP JUMP JUMPDEST PUSH0 PUSH1 0x20 DUP3 ADD SWAP1 POP DUP2 DUP2 SUB PUSH0 DUP4 ADD MSTORE PUSH2 0x2307 DUP2 PUSH2 0x22CE JUMP JUMPDEST SWAP1 POP SWAP2 SWAP1 POP JUMP JUMPDEST PUSH32 0x45524332303A20696E73756666696369656E7420616C6C6F77616E6365000000 PUSH0 DUP3 ADD MSTORE POP JUMP JUMPDEST PUSH0 PUSH2 0x2342 PUSH1 0x1D DUP4 PUSH2 0x16B5 JUMP JUMPDEST SWAP2 POP PUSH2 0x234D DUP3 PUSH2 0x230E JUMP JUMPDEST PUSH1 0x20 DUP3 ADD SWAP1 POP SWAP2 SWAP1 POP JUMP JUMPDEST PUSH0 PUSH1 0x20 DUP3 ADD SWAP1 POP DUP2 DUP2 SUB PUSH0 DUP4 ADD MSTORE PUSH2 0x236F DUP2 PUSH2 0x2336 JUMP JUMPDEST SWAP1 POP SWAP2 SWAP1 POP JUMP JUMPDEST PUSH32 0x45524332303A207472616E736665722066726F6D20746865207A65726F206164 PUSH0 DUP3 ADD MSTORE PUSH32 0x6472657373000000000000000000000000000000000000000000000000000000 PUSH1 0x20 DUP3 ADD MSTORE POP JUMP JUMPDEST PUSH0 PUSH2 0x23D0 PUSH1 0x25 DUP4 PUSH2 0x16B5 JUMP JUMPDEST SWAP2 POP PUSH2 0x23DB DUP3 PUSH2 0x2376 JUMP JUMPDEST PUSH1 0x40 DUP3 ADD SWAP1 POP SWAP2 SWAP1 POP JUMP JUMPDEST PUSH0 PUSH1 0x20 DUP3 ADD SWAP1 POP DUP2 DUP2 SUB PUSH0 DUP4 ADD MSTORE PUSH2 0x23FD DUP2 PUSH2 0x23C4 JUMP JUMPDEST SWAP1 POP SWAP2 SWAP1 POP JUMP JUMPDEST PUSH32 0x45524332303A207472616E7366657220746F20746865207A65726F2061646472 PUSH0 DUP3 ADD MSTORE PUSH32 0x6573730000000000000000000000000000000000000000000000000000000000 PUSH1 0x20 DUP3 ADD MSTORE POP JUMP JUMPDEST PUSH0 PUSH2 0x245E PUSH1 0x23 DUP4 PUSH2 0x16B5 JUMP JUMPDEST SWAP2 POP PUSH2 0x2469 DUP3 PUSH2 0x2404 JUMP JUMPDEST PUSH1 0x40 DUP3 ADD SWAP1 POP SWAP2 SWAP1 POP JUMP JUMPDEST PUSH0 PUSH1 0x20 DUP3 ADD SWAP1 POP DUP2 DUP2 SUB PUSH0 DUP4 ADD MSTORE PUSH2 0x248B DUP2 PUSH2 0x2452 JUMP JUMPDEST SWAP1 POP SWAP2 SWAP1 POP JUMP JUMPDEST PUSH32 0x45524332303A207472616E7366657220616D6F756E7420657863656564732062 PUSH0 DUP3 ADD MSTORE PUSH32 0x616C616E63650000000000000000000000000000000000000000000000000000 PUSH1 0x20 DUP3 ADD MSTORE POP JUMP JUMPDEST PUSH0 PUSH2 0x24EC PUSH1 0x26 DUP4 PUSH2 0x16B5 JUMP JUMPDEST SWAP2 POP PUSH2 0x24F7 DUP3 PUSH2 0x2492 JUMP JUMPDEST PUSH1 0x40 DUP3 ADD SWAP1 POP SWAP2 SWAP1 POP JUMP JUMPDEST PUSH0 PUSH1 0x20 DUP3 ADD SWAP1 POP DUP2 DUP2 SUB PUSH0 DUP4 ADD MSTORE PUSH2 0x2519 DUP2 PUSH2 0x24E0 JUMP JUMPDEST SWAP1 POP SWAP2 SWAP1 POP JUMP JUMPDEST PUSH32 0x4F776E61626C653A2063616C6C6572206973206E6F7420746865206F776E6572 PUSH0 DUP3 ADD MSTORE POP JUMP JUMPDEST PUSH0 PUSH2 0x2554 PUSH1 0x20 DUP4 PUSH2 0x16B5 JUMP JUMPDEST SWAP2 POP PUSH2 0x255F DUP3 PUSH2 0x2520 JUMP JUMPDEST PUSH1 0x20 DUP3 ADD SWAP1 POP SWAP2 SWAP1 POP JUMP JUMPDEST PUSH0 PUSH1 0x20 DUP3 ADD SWAP1 POP DUP2 DUP2 SUB PUSH0 DUP4 ADD MSTORE PUSH2 0x2581 DUP2 PUSH2 0x2548 JUMP JUMPDEST SWAP1 POP SWAP2 SWAP1 POP JUMP JUMPDEST PUSH32 0x45524332303A206D696E7420746F20746865207A65726F206164647265737300 PUSH0 DUP3 ADD MSTORE POP JUMP JUMPDEST PUSH0 PUSH2 0x25BC PUSH1 0x1F DUP4 PUSH2 0x16B5 JUMP JUMPDEST SWAP2 POP PUSH2 0x25C7 DUP3 PUSH2 0x2588 JUMP JUMPDEST PUSH1 0x20 DUP3 ADD SWAP1 POP SWAP2 SWAP1 POP JUMP JUMPDEST PUSH0 PUSH1 0x20 DUP3 ADD SWAP1 POP DUP2 DUP2 SUB PUSH0 DUP4 ADD MSTORE PUSH2 0x25E9 DUP2 PUSH2 0x25B0 JUMP JUMPDEST SWAP1 POP SWAP2 SWAP1 POP JUMP INVALID LOG2 PUSH5 0x6970667358 0x22 SLT KECCAK256 SLT PUSH14 0x9DEF80BF384E0E8CFACF240D1FC2 0xF SDIV ADDRESS EQ SIGNEXTEND PUSH3 0xC34994 SWAP2 0xA8 AND SELFBALANCE 0xD5 0xC2 PUSH2 0x6473 PUSH16 0x6C634300081A00330000000000000000 "
				},
				"gasEstimates": {
					"creation": {
						"codeDepositCost": "1953200",
						"executionCost": "infinite",
						"totalCost": "infinite"
					},
					"external": {
						"allowance(address,address)": "infinite",
						"approve(address,uint256)": "infinite",
						"balanceOf(address)": "2852",
						"burn(uint256)": "infinite",
						"burnFrom(address,uint256)": "infinite",
						"createTokens(address,uint256)": "infinite",
						"decimals()": "383",
						"decreaseAllowance(address,uint256)": "infinite",
						"destroyTokens(uint256)": "infinite",
						"displayItems()": "infinite",
						"getItem(uint256)": "infinite",
						"increaseAllowance(address,uint256)": "infinite",
						"name()": "infinite",
						"owner()": "2604",
						"redeemItem(uint256)": "infinite",
						"renounceOwnership()": "30435",
						"symbol()": "infinite",
						"totalSupply()": "2500",
						"transfer(address,uint256)": "infinite",
						"transferFrom(address,address,uint256)": "infinite",
						"transferOwnership(address)": "30863",
						"transferTokens(address,uint256)": "infinite",
						"verifyBalance(address)": "3004"
					}
				},
				"methodIdentifiers": {
					"allowance(address,address)": "dd62ed3e",
					"approve(address,uint256)": "095ea7b3",
					"balanceOf(address)": "70a08231",
					"burn(uint256)": "42966c68",
					"burnFrom(address,uint256)": "79cc6790",
					"createTokens(address,uint256)": "a69e894e",
					"decimals()": "313ce567",
					"decreaseAllowance(address,uint256)": "a457c2d7",
					"destroyTokens(uint256)": "67fbd289",
					"displayItems()": "3ef49ff2",
					"getItem(uint256)": "3129e773",
					"increaseAllowance(address,uint256)": "39509351",
					"name()": "06fdde03",
					"owner()": "8da5cb5b",
					"redeemItem(uint256)": "1c26dc23",
					"renounceOwnership()": "715018a6",
					"symbol()": "95d89b41",
					"totalSupply()": "18160ddd",
					"transfer(address,uint256)": "a9059cbb",
					"transferFrom(address,address,uint256)": "23b872dd",
					"transferOwnership(address)": "f2fde38b",
					"transferTokens(address,uint256)": "bec3fa17",
					"verifyBalance(address)": "a00ddad1"
				}
			},
			"storageLayout": {
				"storage": [
					{
						"astId": 128,
						"contract": "contracts/DegenToken.sol:DegenToken",
						"label": "_balances",
						"offset": 0,
						"slot": "0",
						"type": "t_mapping(t_address,t_uint256)"
					},
					{
						"astId": 134,
						"contract": "contracts/DegenToken.sol:DegenToken",
						"label": "_allowances",
						"offset": 0,
						"slot": "1",
						"type": "t_mapping(t_address,t_mapping(t_address,t_uint256))"
					},
					{
						"astId": 136,
						"contract": "contracts/DegenToken.sol:DegenToken",
						"label": "_totalSupply",
						"offset": 0,
						"slot": "2",
						"type": "t_uint256"
					},
					{
						"astId": 138,
						"contract": "contracts/DegenToken.sol:DegenToken",
						"label": "_name",
						"offset": 0,
						"slot": "3",
						"type": "t_string_storage"
					},
					{
						"astId": 140,
						"contract": "contracts/DegenToken.sol:DegenToken",
						"label": "_symbol",
						"offset": 0,
						"slot": "4",
						"type": "t_string_storage"
					},
					{
						"astId": 7,
						"contract": "contracts/DegenToken.sol:DegenToken",
						"label": "_owner",
						"offset": 0,
						"slot": "5",
						"type": "t_address"
					},
					{
						"astId": 890,
						"contract": "contracts/DegenToken.sol:DegenToken",
						"label": "itemsCatalog",
						"offset": 0,
						"slot": "6",
						"type": "t_array(t_struct(Item)886_storage)dyn_storage"
					}
				],
				"types": {
					"t_address": {
						"encoding": "inplace",
						"label": "address",
						"numberOfBytes": "20"
					},
					"t_array(t_struct(Item)886_storage)dyn_storage": {
						"base": "t_struct(Item)886_storage",
						"encoding": "dynamic_array",
						"label": "struct DegenToken.Item[]",
						"numberOfBytes": "32"
					},
					"t_bool": {
						"encoding": "inplace",
						"label": "bool",
						"numberOfBytes": "1"
					},
					"t_mapping(t_address,t_mapping(t_address,t_uint256))": {
						"encoding": "mapping",
						"key": "t_address",
						"label": "mapping(address => mapping(address => uint256))",
						"numberOfBytes": "32",
						"value": "t_mapping(t_address,t_uint256)"
					},
					"t_mapping(t_address,t_uint256)": {
						"encoding": "mapping",
						"key": "t_address",
						"label": "mapping(address => uint256)",
						"numberOfBytes": "32",
						"value": "t_uint256"
					},
					"t_string_storage": {
						"encoding": "bytes",
						"label": "string",
						"numberOfBytes": "32"
					},
					"t_struct(Item)886_storage": {
						"encoding": "inplace",
						"label": "struct DegenToken.Item",
						"members": [
							{
								"astId": 881,
								"contract": "contracts/DegenToken.sol:DegenToken",
								"label": "itemCost",
								"offset": 0,
								"slot": "0",
								"type": "t_uint256"
							},
							{
								"astId": 883,
								"contract": "contracts/DegenToken.sol:DegenToken",
								"label": "item",
								"offset": 0,
								"slot": "1",
								"type": "t_string_storage"
							},
							{
								"astId": 885,
								"contract": "contracts/DegenToken.sol:DegenToken",
								"label": "redeemed",
								"offset": 0,
								"slot": "2",
								"type": "t_bool"
							}
						],
						"numberOfBytes": "96"
					},
					"t_uint256": {
						"encoding": "inplace",
						"label": "uint256",
						"numberOfBytes": "32"
					}
				}
			},
			"userdoc": {
				"kind": "user",
				"methods": {},
				"version": 1
			}
		}
	}
}